{
	"data": {
		"bytecode": {
			"linkReferences": {
				"remix_accounts.sol": {
					"TestsAccounts": [
						{
							"length": 20,
							"start": 6
						},
						{
							"length": 20,
							"start": 196
						},
						{
							"length": 20,
							"start": 386
						},
						{
							"length": 20,
							"start": 576
						},
						{
							"length": 20,
							"start": 766
						}
					]
				},
				"remix_tests.sol": {
					"Assert": [
						{
							"length": 20,
							"start": 2345
						},
						{
							"length": 20,
							"start": 2496
						},
						{
							"length": 20,
							"start": 3237
						},
						{
							"length": 20,
							"start": 3363
						},
						{
							"length": 20,
							"start": 3489
						},
						{
							"length": 20,
							"start": 3619
						},
						{
							"length": 20,
							"start": 3928
						},
						{
							"length": 20,
							"start": 4079
						},
						{
							"length": 20,
							"start": 4517
						},
						{
							"length": 20,
							"start": 4668
						},
						{
							"length": 20,
							"start": 5135
						},
						{
							"length": 20,
							"start": 5287
						},
						{
							"length": 20,
							"start": 5755
						},
						{
							"length": 20,
							"start": 5907
						},
						{
							"length": 20,
							"start": 6378
						},
						{
							"length": 20,
							"start": 6530
						},
						{
							"length": 20,
							"start": 6868
						},
						{
							"length": 20,
							"start": 7020
						},
						{
							"length": 20,
							"start": 7358
						},
						{
							"length": 20,
							"start": 7510
						},
						{
							"length": 20,
							"start": 9625
						},
						{
							"length": 20,
							"start": 9776
						},
						{
							"length": 20,
							"start": 10669
						},
						{
							"length": 20,
							"start": 10820
						},
						{
							"length": 20,
							"start": 12329
						},
						{
							"length": 20,
							"start": 12480
						},
						{
							"length": 20,
							"start": 12873
						},
						{
							"length": 20,
							"start": 13153
						},
						{
							"length": 20,
							"start": 13764
						},
						{
							"length": 20,
							"start": 14044
						}
					]
				}
			},
			"object": "608060405273__$1068a87eb54ed04c4e435de35b2ebf536f$__63ce88b14560006040518263ffffffff1660e01b81526004016200003e919062000425565b602060405180830381865af41580156200005c573d6000803e3d6000fd5b505050506040513d601f19601f82011682018060405250810190620000829190620004ac565b600160006101000a81548173ffffffffffffffffffffffffffffffffffffffff021916908373ffffffffffffffffffffffffffffffffffffffff16021790555073__$1068a87eb54ed04c4e435de35b2ebf536f$__63ce88b14560016040518263ffffffff1660e01b8152600401620000fc919062000521565b602060405180830381865af41580156200011a573d6000803e3d6000fd5b505050506040513d601f19601f82011682018060405250810190620001409190620004ac565b600260006101000a81548173ffffffffffffffffffffffffffffffffffffffff021916908373ffffffffffffffffffffffffffffffffffffffff16021790555073__$1068a87eb54ed04c4e435de35b2ebf536f$__63ce88b14560026040518263ffffffff1660e01b8152600401620001ba919062000581565b602060405180830381865af4158015620001d8573d6000803e3d6000fd5b505050506040513d601f19601f82011682018060405250810190620001fe9190620004ac565b600360006101000a81548173ffffffffffffffffffffffffffffffffffffffff021916908373ffffffffffffffffffffffffffffffffffffffff16021790555073__$1068a87eb54ed04c4e435de35b2ebf536f$__63ce88b14560036040518263ffffffff1660e01b8152600401620002789190620005e1565b602060405180830381865af415801562000296573d6000803e3d6000fd5b505050506040513d601f19601f82011682018060405250810190620002bc9190620004ac565b600460006101000a81548173ffffffffffffffffffffffffffffffffffffffff021916908373ffffffffffffffffffffffffffffffffffffffff16021790555073__$1068a87eb54ed04c4e435de35b2ebf536f$__63ce88b14560046040518263ffffffff1660e01b815260040162000336919062000641565b602060405180830381865af415801562000354573d6000803e3d6000fd5b505050506040513d601f19601f820116820180604052508101906200037a9190620004ac565b600560006101000a81548173ffffffffffffffffffffffffffffffffffffffff021916908373ffffffffffffffffffffffffffffffffffffffff160217905550348015620003c757600080fd5b506200065e565b6000819050919050565b6000819050919050565b6000819050919050565b60006200040d620004076200040184620003ce565b620003e2565b620003d8565b9050919050565b6200041f81620003ec565b82525050565b60006020820190506200043c600083018462000414565b92915050565b600080fd5b600073ffffffffffffffffffffffffffffffffffffffff82169050919050565b6000620004748262000447565b9050919050565b620004868162000467565b81146200049257600080fd5b50565b600081519050620004a6816200047b565b92915050565b600060208284031215620004c557620004c462000442565b5b6000620004d58482850162000495565b91505092915050565b6000819050919050565b60006200050962000503620004fd84620004de565b620003e2565b620003d8565b9050919050565b6200051b81620004e8565b82525050565b600060208201905062000538600083018462000510565b92915050565b6000819050919050565b600062000569620005636200055d846200053e565b620003e2565b620003d8565b9050919050565b6200057b8162000548565b82525050565b600060208201905062000598600083018462000570565b92915050565b6000819050919050565b6000620005c9620005c3620005bd846200059e565b620003e2565b620003d8565b9050919050565b620005db81620005a8565b82525050565b6000602082019050620005f86000830184620005d0565b92915050565b6000819050919050565b600062000629620006236200061d84620005fe565b620003e2565b620003d8565b9050919050565b6200063b8162000608565b82525050565b600060208201905062000658600083018462000630565b92915050565b61abd7806200066e6000396000f3fe608060405260043610620000b65760003560e01c8063742bac29116200006d578063742bac29146200011f57806374ccf335146200012b578063c78780fe1462000137578063d1c1a5fd1462000151578063e0a0d22e146200015d578063fec77b8f146200017757620000b6565b80631524236914620000bb5780631de7844f14620000d55780633d516af714620000e157806361469ed914620000ed5780636331e7d414620000f957806371a866341462000113575b600080fd5b348015620000c857600080fd5b50620000d362000183565b005b620000df620003d2565b005b620000eb6200083a565b005b620000f762000a01565b005b3480156200010657600080fd5b506200011162000c4e565b005b6200011d62000ccd565b005b620001296200180e565b005b6200013562001df5565b005b3480156200014457600080fd5b506200014f62002042565b005b6200015b62002457565b005b3480156200016a57600080fd5b506200017562002889565b005b6200018162002ad2565b005b60008054906101000a900473ffffffffffffffffffffffffffffffffffffffff1673ffffffffffffffffffffffffffffffffffffffff1663fffefd916103e86040518263ffffffff1660e01b81526004016000604051808303818588803b158015620001ee57600080fd5b505af115801562000203573d6000803e3d6000fd5b505050505060008054906101000a900473ffffffffffffffffffffffffffffffffffffffff1673ffffffffffffffffffffffffffffffffffffffff1663fffefd916103e86040518263ffffffff1660e01b81526004016000604051808303818588803b1580156200027357600080fd5b505af19350505050801562000286575060015b620003505762000295620031af565b806308c379a0036200033e5750620002ac62003254565b80620002b9575062000340565b73__$acbfb1c35000d78352310b16a054a6b106$__63e8c2cb16826040518263ffffffff1660e01b8152600401620002f29190620033fc565b602060405180830381865af415801562000310573d6000803e3d6000fd5b505050506040513d601f19601f8201168201806040525081019062000336919062003491565b50506200034a565b505b3d6000803e3d6000fd5b620003d0565b73__$acbfb1c35000d78352310b16a054a6b106$__6339df137f60006040518263ffffffff1660e01b81526004016200038a919062003524565b602060405180830381865af4158015620003a8573d6000803e3d6000fd5b505050506040513d601f19601f82011682018060405250810190620003ce919062003491565b505b565b60008054906101000a900473ffffffffffffffffffffffffffffffffffffffff1673ffffffffffffffffffffffffffffffffffffffff1663affc06706040518163ffffffff1660e01b8152600401600060405180830381600087803b1580156200043b57600080fd5b505af115801562000450573d6000803e3d6000fd5b5050505060008054906101000a900473ffffffffffffffffffffffffffffffffffffffff1673ffffffffffffffffffffffffffffffffffffffff1663fffefd916103e86040518263ffffffff1660e01b81526004016000604051808303818588803b158015620004bf57600080fd5b505af1158015620004d4573d6000803e3d6000fd5b505050505060008060009054906101000a900473ffffffffffffffffffffffffffffffffffffffff1673ffffffffffffffffffffffffffffffffffffffff16639ab3f7a66103e8306040518363ffffffff1660e01b81526004016200053b929190620036a3565b6020604051808303816000875af11580156200055b573d6000803e3d6000fd5b505050506040513d601f19601f820116820180604052508101906200058191906200372b565b905060008060008060008054906101000a900473ffffffffffffffffffffffffffffffffffffffff1673ffffffffffffffffffffffffffffffffffffffff1663bc903cb8866040518263ffffffff1660e01b8152600401620005e491906200376e565b600060405180830381865afa15801562000602573d6000803e3d6000fd5b505050506040513d6000823e3d601f19601f820116820180604052508101906200062d919062003899565b935093509350935073__$acbfb1c35000d78352310b16a054a6b106$__63e8c2cb16856040518263ffffffff1660e01b81526004016200066e919062003970565b602060405180830381865af41580156200068c573d6000803e3d6000fd5b505050506040513d601f19601f82011682018060405250810190620006b2919062003491565b5073__$acbfb1c35000d78352310b16a054a6b106$__63e8c2cb16846040518263ffffffff1660e01b8152600401620006ec9190620039e5565b602060405180830381865af41580156200070a573d6000803e3d6000fd5b505050506040513d601f19601f8201168201806040525081019062000730919062003491565b5073__$acbfb1c35000d78352310b16a054a6b106$__63abcd7960836103e86040518363ffffffff1660e01b81526004016200076e92919062003a55565b602060405180830381865af41580156200078c573d6000803e3d6000fd5b505050506040513d601f19601f82011682018060405250810190620007b2919062003491565b5073__$acbfb1c35000d78352310b16a054a6b106$__63bfba5dd682306040518363ffffffff1660e01b8152600401620007ee92919062003aa8565b602060405180830381865af41580156200080c573d6000803e3d6000fd5b505050506040513d601f19601f8201168201806040525081019062000832919062003491565b505050505050565b60008054906101000a900473ffffffffffffffffffffffffffffffffffffffff1673ffffffffffffffffffffffffffffffffffffffff1663d0febe4c6040518163ffffffff1660e01b8152600401600060405180830381600087803b158015620008a357600080fd5b505af1925050508015620008b5575060015b6200097f57620008c4620031af565b806308c379a0036200096d5750620008db62003254565b80620008e857506200096f565b73__$acbfb1c35000d78352310b16a054a6b106$__63e8c2cb16826040518263ffffffff1660e01b815260040162000921919062003b3a565b602060405180830381865af41580156200093f573d6000803e3d6000fd5b505050506040513d601f19601f8201168201806040525081019062000965919062003491565b505062000979565b505b3d6000803e3d6000fd5b620009ff565b73__$acbfb1c35000d78352310b16a054a6b106$__6339df137f60006040518263ffffffff1660e01b8152600401620009b9919062003bd8565b602060405180830381865af4158015620009d7573d6000803e3d6000fd5b505050506040513d601f19601f82011682018060405250810190620009fd919062003491565b505b565b60008054906101000a900473ffffffffffffffffffffffffffffffffffffffff1673ffffffffffffffffffffffffffffffffffffffff1663fffefd91600a6040518263ffffffff1660e01b81526004016000604051808303818588803b15801562000a6b57600080fd5b505af115801562000a80573d6000803e3d6000fd5b505050505060008054906101000a900473ffffffffffffffffffffffffffffffffffffffff1673ffffffffffffffffffffffffffffffffffffffff1663d0febe4c60056040518263ffffffff1660e01b81526004016000604051808303818588803b15801562000aef57600080fd5b505af19350505050801562000b02575060015b62000bcc5762000b11620031af565b806308c379a00362000bba575062000b2862003254565b8062000b35575062000bbc565b73__$acbfb1c35000d78352310b16a054a6b106$__63e8c2cb16826040518263ffffffff1660e01b815260040162000b6e919062003c80565b602060405180830381865af415801562000b8c573d6000803e3d6000fd5b505050506040513d601f19601f8201168201806040525081019062000bb2919062003491565b505062000bc6565b505b3d6000803e3d6000fd5b62000c4c565b73__$acbfb1c35000d78352310b16a054a6b106$__6339df137f60006040518263ffffffff1660e01b815260040162000c06919062003bd8565b602060405180830381865af415801562000c24573d6000803e3d6000fd5b505050506040513d601f19601f8201168201806040525081019062000c4a919062003491565b505b565b600a61271060405162000c619062003186565b62000c6e92919062003d54565b604051809103906000f08015801562000c8b573d6000803e3d6000fd5b506000806101000a81548173ffffffffffffffffffffffffffffffffffffffff021916908373ffffffffffffffffffffffffffffffffffffffff160217905550565b60008054906101000a900473ffffffffffffffffffffffffffffffffffffffff1673ffffffffffffffffffffffffffffffffffffffff16639ab3f7a66103e860006040518363ffffffff1660e01b815260040162000d2d92919062003dd1565b6020604051808303816000875af192505050801562000d6c57506040513d601f19601f8201168201806040525081019062000d6991906200372b565b60015b62000e365762000d7b620031af565b806308c379a00362000e24575062000d9262003254565b8062000d9f575062000e26565b73__$acbfb1c35000d78352310b16a054a6b106$__63e8c2cb16826040518263ffffffff1660e01b815260040162000dd8919062003e78565b602060405180830381865af415801562000df6573d6000803e3d6000fd5b505050506040513d601f19601f8201168201806040525081019062000e1c919062003491565b505062000e30565b505b3d6000803e3d6000fd5b62000eb7565b5073__$acbfb1c35000d78352310b16a054a6b106$__6339df137f60006040518263ffffffff1660e01b815260040162000e71919062003524565b602060405180830381865af415801562000e8f573d6000803e3d6000fd5b505050506040513d601f19601f8201168201806040525081019062000eb5919062003491565b505b60008054906101000a900473ffffffffffffffffffffffffffffffffffffffff1673ffffffffffffffffffffffffffffffffffffffff1663affc06706040518163ffffffff1660e01b8152600401600060405180830381600087803b15801562000f2057600080fd5b505af115801562000f35573d6000803e3d6000fd5b5050505060008054906101000a900473ffffffffffffffffffffffffffffffffffffffff1673ffffffffffffffffffffffffffffffffffffffff16639ab3f7a66103e860006040518363ffffffff1660e01b815260040162000f9992919062003dd1565b6020604051808303816000875af192505050801562000fd857506040513d601f19601f8201168201806040525081019062000fd591906200372b565b60015b620010a25762000fe7620031af565b806308c379a00362001090575062000ffe62003254565b806200100b575062001092565b73__$acbfb1c35000d78352310b16a054a6b106$__63e8c2cb16826040518263ffffffff1660e01b815260040162001044919062003b3a565b602060405180830381865af415801562001062573d6000803e3d6000fd5b505050506040513d601f19601f8201168201806040525081019062001088919062003491565b50506200109c565b505b3d6000803e3d6000fd5b62001123565b5073__$acbfb1c35000d78352310b16a054a6b106$__6339df137f60006040518263ffffffff1660e01b8152600401620010dd919062003524565b602060405180830381865af4158015620010fb573d6000803e3d6000fd5b505050506040513d601f19601f8201168201806040525081019062001121919062003491565b505b60008054906101000a900473ffffffffffffffffffffffffffffffffffffffff1673ffffffffffffffffffffffffffffffffffffffff1663fffefd916103e86040518263ffffffff1660e01b81526004016000604051808303818588803b1580156200118e57600080fd5b505af1158015620011a3573d6000803e3d6000fd5b505050505060008054906101000a900473ffffffffffffffffffffffffffffffffffffffff1673ffffffffffffffffffffffffffffffffffffffff16639ab3f7a66103e860006040518363ffffffff1660e01b81526004016200120892919062003eed565b6020604051808303816000875af19250505080156200124757506040513d601f19601f820116820180604052508101906200124491906200372b565b60015b620013115762001256620031af565b806308c379a003620012ff57506200126d62003254565b806200127a575062001301565b73__$acbfb1c35000d78352310b16a054a6b106$__63e8c2cb16826040518263ffffffff1660e01b8152600401620012b3919062003f6b565b602060405180830381865af4158015620012d1573d6000803e3d6000fd5b505050506040513d601f19601f82011682018060405250810190620012f7919062003491565b50506200130b565b505b3d6000803e3d6000fd5b62001392565b5073__$acbfb1c35000d78352310b16a054a6b106$__6339df137f60006040518263ffffffff1660e01b81526004016200134c919062003524565b602060405180830381865af41580156200136a573d6000803e3d6000fd5b505050506040513d601f19601f8201168201806040525081019062001390919062003491565b505b60008054906101000a900473ffffffffffffffffffffffffffffffffffffffff1673ffffffffffffffffffffffffffffffffffffffff16639ab3f7a66103e860006040518363ffffffff1660e01b8152600401620013f292919062003fb9565b6020604051808303816000875af19250505080156200143157506040513d601f19601f820116820180604052508101906200142e91906200372b565b60015b620014fb5762001440620031af565b806308c379a003620014e957506200145762003254565b80620014645750620014eb565b73__$acbfb1c35000d78352310b16a054a6b106$__63e8c2cb16826040518263ffffffff1660e01b81526004016200149d919062004060565b602060405180830381865af4158015620014bb573d6000803e3d6000fd5b505050506040513d601f19601f82011682018060405250810190620014e1919062003491565b5050620014f5565b505b3d6000803e3d6000fd5b6200157c565b5073__$acbfb1c35000d78352310b16a054a6b106$__6339df137f60006040518263ffffffff1660e01b815260040162001536919062003524565b602060405180830381865af415801562001554573d6000803e3d6000fd5b505050506040513d601f19601f820116820180604052508101906200157a919062003491565b505b60008054906101000a900473ffffffffffffffffffffffffffffffffffffffff1673ffffffffffffffffffffffffffffffffffffffff16639ab3f7a66103e860006040518363ffffffff1660e01b8152600401620015dc929190620036a3565b6020604051808303816000875af19250505080156200161b57506040513d601f19601f820116820180604052508101906200161891906200372b565b60015b620016e5576200162a620031af565b806308c379a003620016d357506200164162003254565b806200164e5750620016d5565b73__$acbfb1c35000d78352310b16a054a6b106$__63e8c2cb16826040518263ffffffff1660e01b815260040162001687919062004124565b602060405180830381865af4158015620016a5573d6000803e3d6000fd5b505050506040513d601f19601f82011682018060405250810190620016cb919062003491565b5050620016df565b505b3d6000803e3d6000fd5b62001766565b5073__$acbfb1c35000d78352310b16a054a6b106$__6339df137f60006040518263ffffffff1660e01b815260040162001720919062003524565b602060405180830381865af41580156200173e573d6000803e3d6000fd5b505050506040513d601f19601f8201168201806040525081019062001764919062003491565b505b60008054906101000a900473ffffffffffffffffffffffffffffffffffffffff1673ffffffffffffffffffffffffffffffffffffffff16639ab3f7a66103e8306040518363ffffffff1660e01b8152600401620017c5929190620036a3565b6020604051808303816000875af1158015620017e5573d6000803e3d6000fd5b505050506040513d601f19601f820116820180604052508101906200180b91906200372b565b50565b60008054906101000a900473ffffffffffffffffffffffffffffffffffffffff1673ffffffffffffffffffffffffffffffffffffffff1663affc06706127106040518263ffffffff1660e01b81526004016000604051808303818588803b1580156200187957600080fd5b505af11580156200188e573d6000803e3d6000fd5b505050505060008054906101000a900473ffffffffffffffffffffffffffffffffffffffff1673ffffffffffffffffffffffffffffffffffffffff1663fffefd916127106040518263ffffffff1660e01b81526004016000604051808303818588803b158015620018fe57600080fd5b505af115801562001913573d6000803e3d6000fd5b50505050506000604051620019289062003194565b604051809103906000f08015801562001945573d6000803e3d6000fd5b50905060008060009054906101000a900473ffffffffffffffffffffffffffffffffffffffff1673ffffffffffffffffffffffffffffffffffffffff16639ab3f7a66103e8846040518363ffffffff1660e01b8152600401620019aa929190620036a3565b6020604051808303816000875af1158015620019ca573d6000803e3d6000fd5b505050506040513d601f19601f82011682018060405250810190620019f091906200372b565b905060008054906101000a900473ffffffffffffffffffffffffffffffffffffffff1673ffffffffffffffffffffffffffffffffffffffff1663d0febe4c6103e86040518263ffffffff1660e01b81526004016000604051808303818588803b15801562001a5d57600080fd5b505af115801562001a72573d6000803e3d6000fd5b505050505060008054906101000a900473ffffffffffffffffffffffffffffffffffffffff1673ffffffffffffffffffffffffffffffffffffffff1663a80db6fc6040518163ffffffff1660e01b8152600401600060405180830381865afa15801562001ae3573d6000803e3d6000fd5b505050506040513d6000823e3d601f19601f8201168201806040525081019062001b0e91906200424d565b5060008054906101000a900473ffffffffffffffffffffffffffffffffffffffff1673ffffffffffffffffffffffffffffffffffffffff1663d77177506040518163ffffffff1660e01b8152600401602060405180830381865afa15801562001b7b573d6000803e3d6000fd5b505050506040513d601f19601f8201168201806040525081019062001ba19190620042e3565b73ffffffffffffffffffffffffffffffffffffffff1663095ea7b360008054906101000a900473ffffffffffffffffffffffffffffffffffffffff1660646040518363ffffffff1660e01b815260040162001bfe92919062004315565b6020604051808303816000875af115801562001c1e573d6000803e3d6000fd5b505050506040513d601f19601f8201168201806040525081019062001c44919062003491565b5060008054906101000a900473ffffffffffffffffffffffffffffffffffffffff1673ffffffffffffffffffffffffffffffffffffffff16637b0472f082600a6040518363ffffffff1660e01b815260040162001ca392919062004342565b600060405180830381600087803b15801562001cbe57600080fd5b505af115801562001cd3573d6000803e3d6000fd5b5050505060008054906101000a900473ffffffffffffffffffffffffffffffffffffffff1673ffffffffffffffffffffffffffffffffffffffff16638e08a50b6040518163ffffffff1660e01b8152600401600060405180830381865afa15801562001d43573d6000803e3d6000fd5b505050506040513d6000823e3d601f19601f8201168201806040525081019062001d6e91906200424d565b5060008054906101000a900473ffffffffffffffffffffffffffffffffffffffff1673ffffffffffffffffffffffffffffffffffffffff1663c631b2926040518163ffffffff1660e01b8152600401600060405180830381600087803b15801562001dd857600080fd5b505af115801562001ded573d6000803e3d6000fd5b505050505050565b60008054906101000a900473ffffffffffffffffffffffffffffffffffffffff1673ffffffffffffffffffffffffffffffffffffffff1663fffefd91600a6040518263ffffffff1660e01b81526004016000604051808303818588803b15801562001e5f57600080fd5b505af115801562001e74573d6000803e3d6000fd5b505050505060008054906101000a900473ffffffffffffffffffffffffffffffffffffffff1673ffffffffffffffffffffffffffffffffffffffff1663d0febe4c60006040518263ffffffff1660e01b81526004016000604051808303818588803b15801562001ee357600080fd5b505af19350505050801562001ef6575060015b62001fc05762001f05620031af565b806308c379a00362001fae575062001f1c62003254565b8062001f29575062001fb0565b73__$acbfb1c35000d78352310b16a054a6b106$__63e8c2cb16826040518263ffffffff1660e01b815260040162001f629190620043e5565b602060405180830381865af415801562001f80573d6000803e3d6000fd5b505050506040513d601f19601f8201168201806040525081019062001fa6919062003491565b505062001fba565b505b3d6000803e3d6000fd5b62002040565b73__$acbfb1c35000d78352310b16a054a6b106$__6339df137f60006040518263ffffffff1660e01b815260040162001ffa919062003bd8565b602060405180830381865af415801562002018573d6000803e3d6000fd5b505050506040513d601f19601f820116820180604052508101906200203e919062003491565b505b565b60008054906101000a900473ffffffffffffffffffffffffffffffffffffffff1673ffffffffffffffffffffffffffffffffffffffff1663affc06706040518163ffffffff1660e01b8152600401600060405180830381600087803b158015620020ab57600080fd5b505af1158015620020c0573d6000803e3d6000fd5b5050505060008054906101000a900473ffffffffffffffffffffffffffffffffffffffff1673ffffffffffffffffffffffffffffffffffffffff1663fffefd916103e86040518263ffffffff1660e01b81526004016000604051808303818588803b1580156200212f57600080fd5b505af115801562002144573d6000803e3d6000fd5b505050505060008060009054906101000a900473ffffffffffffffffffffffffffffffffffffffff1673ffffffffffffffffffffffffffffffffffffffff16639ab3f7a66103e8306040518363ffffffff1660e01b8152600401620021ab929190620036a3565b6020604051808303816000875af1158015620021cb573d6000803e3d6000fd5b505050506040513d601f19601f82011682018060405250810190620021f191906200372b565b905060008054906101000a900473ffffffffffffffffffffffffffffffffffffffff1673ffffffffffffffffffffffffffffffffffffffff1663e0a8f6f5826040518263ffffffff1660e01b81526004016200224e91906200376e565b600060405180830381600087803b1580156200226957600080fd5b505af11580156200227e573d6000803e3d6000fd5b5050505060008054906101000a900473ffffffffffffffffffffffffffffffffffffffff1673ffffffffffffffffffffffffffffffffffffffff1663e0a8f6f5826040518263ffffffff1660e01b8152600401620022dd91906200376e565b600060405180830381600087803b158015620022f857600080fd5b505af19250505080156200230a575060015b620023d45762002319620031af565b806308c379a003620023c257506200233062003254565b806200233d5750620023c4565b73__$acbfb1c35000d78352310b16a054a6b106$__63e8c2cb16826040518263ffffffff1660e01b8152600401620023769190620044a9565b602060405180830381865af415801562002394573d6000803e3d6000fd5b505050506040513d601f19601f82011682018060405250810190620023ba919062003491565b5050620023ce565b505b3d6000803e3d6000fd5b62002454565b73__$acbfb1c35000d78352310b16a054a6b106$__6339df137f60006040518263ffffffff1660e01b81526004016200240e919062003524565b602060405180830381865af41580156200242c573d6000803e3d6000fd5b505050506040513d601f19601f8201168201806040525081019062002452919062003491565b505b50565b60008054906101000a900473ffffffffffffffffffffffffffffffffffffffff1673ffffffffffffffffffffffffffffffffffffffff1663affc06706127106040518263ffffffff1660e01b81526004016000604051808303818588803b158015620024c257600080fd5b505af1158015620024d7573d6000803e3d6000fd5b505050505060008054906101000a900473ffffffffffffffffffffffffffffffffffffffff1673ffffffffffffffffffffffffffffffffffffffff1663fffefd916127106040518263ffffffff1660e01b81526004016000604051808303818588803b1580156200254757600080fd5b505af11580156200255c573d6000803e3d6000fd5b50505050506000604051620025719062003194565b604051809103906000f0801580156200258e573d6000803e3d6000fd5b50905060008060009054906101000a900473ffffffffffffffffffffffffffffffffffffffff1673ffffffffffffffffffffffffffffffffffffffff16639ab3f7a66103e8846040518363ffffffff1660e01b8152600401620025f3929190620036a3565b6020604051808303816000875af115801562002613573d6000803e3d6000fd5b505050506040513d601f19601f820116820180604052508101906200263991906200372b565b905060008054906101000a900473ffffffffffffffffffffffffffffffffffffffff1673ffffffffffffffffffffffffffffffffffffffff1663d77177506040518163ffffffff1660e01b8152600401602060405180830381865afa158015620026a7573d6000803e3d6000fd5b505050506040513d601f19601f82011682018060405250810190620026cd9190620042e3565b73ffffffffffffffffffffffffffffffffffffffff1663095ea7b360008054906101000a900473ffffffffffffffffffffffffffffffffffffffff1660646040518363ffffffff1660e01b81526004016200272a92919062004315565b6020604051808303816000875af11580156200274a573d6000803e3d6000fd5b505050506040513d601f19601f8201168201806040525081019062002770919062003491565b5060008054906101000a900473ffffffffffffffffffffffffffffffffffffffff1673ffffffffffffffffffffffffffffffffffffffff16637b0472f082600a6040518363ffffffff1660e01b8152600401620027cf92919062004342565b600060405180830381600087803b158015620027ea57600080fd5b505af1158015620027ff573d6000803e3d6000fd5b5050505060008054906101000a900473ffffffffffffffffffffffffffffffffffffffff1673ffffffffffffffffffffffffffffffffffffffff1663c631b2926040518163ffffffff1660e01b8152600401600060405180830381600087803b1580156200286c57600080fd5b505af115801562002881573d6000803e3d6000fd5b505050505050565b60008054906101000a900473ffffffffffffffffffffffffffffffffffffffff1673ffffffffffffffffffffffffffffffffffffffff1663affc06706040518163ffffffff1660e01b8152600401600060405180830381600087803b158015620028f257600080fd5b505af115801562002907573d6000803e3d6000fd5b5050505060008054906101000a900473ffffffffffffffffffffffffffffffffffffffff1673ffffffffffffffffffffffffffffffffffffffff1663affc06706040518163ffffffff1660e01b8152600401600060405180830381600087803b1580156200297457600080fd5b505af192505050801562002986575060015b62002a505762002995620031af565b806308c379a00362002a3e5750620029ac62003254565b80620029b9575062002a40565b73__$acbfb1c35000d78352310b16a054a6b106$__63e8c2cb16826040518263ffffffff1660e01b8152600401620029f2919062004547565b602060405180830381865af415801562002a10573d6000803e3d6000fd5b505050506040513d601f19601f8201168201806040525081019062002a36919062003491565b505062002a4a565b505b3d6000803e3d6000fd5b62002ad0565b73__$acbfb1c35000d78352310b16a054a6b106$__6339df137f60006040518263ffffffff1660e01b815260040162002a8a919062003524565b602060405180830381865af415801562002aa8573d6000803e3d6000fd5b505050506040513d601f19601f8201168201806040525081019062002ace919062003491565b505b565b60008054906101000a900473ffffffffffffffffffffffffffffffffffffffff1673ffffffffffffffffffffffffffffffffffffffff1663affc06706040518163ffffffff1660e01b8152600401600060405180830381600087803b15801562002b3b57600080fd5b505af115801562002b50573d6000803e3d6000fd5b5050505060008054906101000a900473ffffffffffffffffffffffffffffffffffffffff1673ffffffffffffffffffffffffffffffffffffffff1663fffefd916103e86040518263ffffffff1660e01b81526004016000604051808303818588803b15801562002bbf57600080fd5b505af115801562002bd4573d6000803e3d6000fd5b505050505073__$acbfb1c35000d78352310b16a054a6b106$__63abcd796060008054906101000a900473ffffffffffffffffffffffffffffffffffffffff1673ffffffffffffffffffffffffffffffffffffffff1663a80db6fc6040518163ffffffff1660e01b8152600401600060405180830381865afa15801562002c5f573d6000803e3d6000fd5b505050506040513d6000823e3d601f19601f8201168201806040525081019062002c8a91906200424d565b5160006040518363ffffffff1660e01b815260040162002cac9291906200464e565b602060405180830381865af415801562002cca573d6000803e3d6000fd5b505050506040513d601f19601f8201168201806040525081019062002cf0919062003491565b5073__$acbfb1c35000d78352310b16a054a6b106$__63abcd796060008054906101000a900473ffffffffffffffffffffffffffffffffffffffff1673ffffffffffffffffffffffffffffffffffffffff16633ac0feac6040518163ffffffff1660e01b8152600401600060405180830381865afa15801562002d77573d6000803e3d6000fd5b505050506040513d6000823e3d601f19601f8201168201806040525081019062002da291906200424d565b5160006040518363ffffffff1660e01b815260040162002dc49291906200464e565b602060405180830381865af415801562002de2573d6000803e3d6000fd5b505050506040513d601f19601f8201168201806040525081019062002e08919062003491565b5060008054906101000a900473ffffffffffffffffffffffffffffffffffffffff1673ffffffffffffffffffffffffffffffffffffffff16639ab3f7a66103e8306040518363ffffffff1660e01b815260040162002e68929190620036a3565b6020604051808303816000875af115801562002e88573d6000803e3d6000fd5b505050506040513d601f19601f8201168201806040525081019062002eae91906200372b565b5060008054906101000a900473ffffffffffffffffffffffffffffffffffffffff1673ffffffffffffffffffffffffffffffffffffffff16639ab3f7a66000306040518363ffffffff1660e01b815260040162002f0d92919062004717565b6020604051808303816000875af115801562002f2d573d6000803e3d6000fd5b505050506040513d601f19601f8201168201806040525081019062002f5391906200372b565b5073__$acbfb1c35000d78352310b16a054a6b106$__63abcd796060008054906101000a900473ffffffffffffffffffffffffffffffffffffffff1673ffffffffffffffffffffffffffffffffffffffff1663a80db6fc6040518163ffffffff1660e01b8152600401600060405180830381865afa15801562002fda573d6000803e3d6000fd5b505050506040513d6000823e3d601f19601f820116820180604052508101906200300591906200424d565b5160016040518363ffffffff1660e01b81526004016200302792919062004827565b602060405180830381865af415801562003045573d6000803e3d6000fd5b505050506040513d601f19601f820116820180604052508101906200306b919062003491565b5073__$acbfb1c35000d78352310b16a054a6b106$__63abcd796060008054906101000a900473ffffffffffffffffffffffffffffffffffffffff1673ffffffffffffffffffffffffffffffffffffffff16638e08a50b6040518163ffffffff1660e01b8152600401600060405180830381865afa158015620030f2573d6000803e3d6000fd5b505050506040513d6000823e3d601f19601f820116820180604052508101906200311d91906200424d565b5160016040518363ffffffff1660e01b81526004016200313f92919062004827565b602060405180830381865af41580156200315d573d6000803e3d6000fd5b505050506040513d601f19601f8201168201806040525081019062003183919062003491565b50565b616176806200486a83390190565b6101c2806200a9e083390190565b60008160e01c9050919050565b600060033d1115620031d15760046000803e620031ce600051620031a2565b90505b90565b6000604051905090565b6000601f19601f8301169050919050565b7f4e487b7100000000000000000000000000000000000000000000000000000000600052604160045260246000fd5b6200322982620031de565b810181811067ffffffffffffffff821117156200324b576200324a620031ef565b5b80604052505050565b600060443d10620032ec5762003269620031d4565b60043d036004823e80513d602482011167ffffffffffffffff8211171562003293575050620032ec565b808201805167ffffffffffffffff811115620032b35750505050620032ec565b80602083010160043d038501811115620032d2575050505050620032ec565b620032e3826020018501866200321e565b82955050505050505b90565b600081519050919050565b600082825260208201905092915050565b60005b838110156200332b5780820151818401526020810190506200330e565b838111156200333b576000848401525b50505050565b60006200334e82620032ef565b6200335a8185620032fa565b93506200336c8185602086016200330b565b6200337781620031de565b840191505092915050565b7f5061727469636970616e7420616c726561647920726567697374657265642e00600082015250565b6000620033ba601f83620032fa565b9150620033c78262003382565b602082019050919050565b50565b6000620033e4600083620032fa565b9150620033f182620033d2565b600082019050919050565b6000606082019050818103600083015262003418818462003341565b905081810360208301526200342d81620033ab565b905081810360408301526200344281620033d5565b905092915050565b600080fd5b600080fd5b60008115159050919050565b6200346b8162003454565b81146200347757600080fd5b50565b6000815190506200348b8162003460565b92915050565b600060208284031215620034aa57620034a96200344a565b5b6000620034ba848285016200347a565b91505092915050565b620034ce8162003454565b82525050565b7f43616c6c2073686f756c64206661696c2e000000000000000000000000000000600082015250565b60006200350c601183620032fa565b91506200351982620034d4565b602082019050919050565b60006040820190506200353b6000830184620034c3565b81810360208301526200354e81620034fd565b905092915050565b600082825260208201905092915050565b7f50726f706f73616c205469746c65000000000000000000000000000000000000600082015250565b60006200359f600e8362003556565b9150620035ac8262003567565b602082019050919050565b7f54686973206973206120746573742070726f706f73616c000000000000000000600082015250565b6000620035ef60178362003556565b9150620035fc82620035b7565b602082019050919050565b6000819050919050565b6000819050919050565b6000819050919050565b600062003646620036406200363a8462003607565b6200361b565b62003611565b9050919050565b620036588162003625565b82525050565b600073ffffffffffffffffffffffffffffffffffffffff82169050919050565b60006200368b826200365e565b9050919050565b6200369d816200367e565b82525050565b60006080820190508181036000830152620036be8162003590565b90508181036020830152620036d381620035e0565b9050620036e460408301856200364d565b620036f3606083018462003692565b9392505050565b620037058162003611565b81146200371157600080fd5b50565b6000815190506200372581620036fa565b92915050565b6000602082840312156200374457620037436200344a565b5b6000620037548482850162003714565b91505092915050565b620037688162003611565b82525050565b60006020820190506200378560008301846200375d565b92915050565b600080fd5b600080fd5b6000620037a1620031d4565b9050620037af82826200321e565b919050565b600067ffffffffffffffff821115620037d257620037d1620031ef565b5b620037dd82620031de565b9050602081019050919050565b600062003801620037fb84620037b4565b62003795565b90508281526020810184848401111562003820576200381f62003790565b5b6200382d8482856200330b565b509392505050565b600082601f8301126200384d576200384c6200378b565b5b81516200385f848260208601620037ea565b91505092915050565b62003873816200367e565b81146200387f57600080fd5b50565b600081519050620038938162003868565b92915050565b60008060008060808587031215620038b657620038b56200344a565b5b600085015167ffffffffffffffff811115620038d757620038d66200344f565b5b620038e58782880162003835565b945050602085015167ffffffffffffffff8111156200390957620039086200344f565b5b620039178782880162003835565b93505060406200392a8782880162003714565b92505060606200393d8782880162003882565b91505092959194509250565b600062003958600e83620032fa565b9150620039658262003567565b602082019050919050565b600060608201905081810360008301526200398c818462003341565b90508181036020830152620039a18162003949565b90508181036040830152620039b681620033d5565b905092915050565b6000620039cd601783620032fa565b9150620039da82620035b7565b602082019050919050565b6000606082019050818103600083015262003a01818462003341565b9050818103602083015262003a1681620039be565b9050818103604083015262003a2b81620033d5565b905092915050565b62003a3e8162003611565b82525050565b62003a4f8162003625565b82525050565b600060608201905062003a6c600083018562003a33565b62003a7b602083018462003a44565b818103604083015262003a8e81620033d5565b90509392505050565b62003aa2816200367e565b82525050565b600060608201905062003abf600083018562003a97565b62003ace602083018462003a97565b818103604083015262003ae181620033d5565b90509392505050565b7f41646472657373206e6f74207265676973746572656421000000000000000000600082015250565b600062003b22601783620032fa565b915062003b2f8262003aea565b602082019050919050565b6000606082019050818103600083015262003b56818462003341565b9050818103602083015262003b6b8162003b13565b9050818103604083015262003b8081620033d5565b905092915050565b7f43616c6c2073686f756c64206661696c00000000000000000000000000000000600082015250565b600062003bc0601083620032fa565b915062003bcd8262003b88565b602082019050919050565b600060408201905062003bef6000830184620034c3565b818103602083015262003c028162003bb1565b905092915050565b7f57617463682074686520746f6b656e2070726963652c206f6e6c792077686f6c60008201527f6520746f6b656e732063616e20626520626f7567687421000000000000000000602082015250565b600062003c68603783620032fa565b915062003c758262003c0a565b604082019050919050565b6000606082019050818103600083015262003c9c818462003341565b9050818103602083015262003cb18162003c59565b9050818103604083015262003cc681620033d5565b905092915050565b6000819050919050565b600062003cf962003cf362003ced8462003cce565b6200361b565b62003611565b9050919050565b62003d0b8162003cd8565b82525050565b6000819050919050565b600062003d3c62003d3662003d308462003d11565b6200361b565b62003611565b9050919050565b62003d4e8162003d1b565b82525050565b600060408201905062003d6b600083018562003d00565b62003d7a602083018462003d43565b9392505050565b7f5469746c652063616e277420626520656d707479000000000000000000000000600082015250565b600062003db960148362003556565b915062003dc68262003d81565b602082019050919050565b6000608082019050818103600083015262003dec8162003daa565b9050818103602083015262003e0181620035e0565b905062003e1260408301856200364d565b62003e21606083018462003692565b9392505050565b7f566f74696e67206973206e6f74206f70656e207965742e000000000000000000600082015250565b600062003e60601783620032fa565b915062003e6d8262003e28565b602082019050919050565b6000606082019050818103600083015262003e94818462003341565b9050818103602083015262003ea98162003e51565b9050818103604083015262003ebe81620033d5565b905092915050565b600062003ed560008362003556565b915062003ee282620033d2565b600082019050919050565b6000608082019050818103600083015262003f088162003ec6565b9050818103602083015262003f1d81620035e0565b905062003f2e60408301856200364d565b62003f3d606083018462003692565b9392505050565b600062003f53601483620032fa565b915062003f608262003d81565b602082019050919050565b6000606082019050818103600083015262003f87818462003341565b9050818103602083015262003f9c8162003f44565b9050818103604083015262003fb181620033d5565b905092915050565b6000608082019050818103600083015262003fd48162003590565b9050818103602083015262003fe98162003ec6565b905062003ffa60408301856200364d565b62004009606083018462003692565b9392505050565b7f4465736372697074696f6e2063616e277420626520656d707479000000000000600082015250565b600062004048601a83620032fa565b9150620040558262004010565b602082019050919050565b600060608201905081810360008301526200407c818462003341565b90508181036020830152620040918162004039565b90508181036040830152620040a681620033d5565b905092915050565b7f5468652061646472657373207265636569766564206973206e6f74206120766160008201527f6c696420636f6e74726163742061646472657373000000000000000000000000602082015250565b60006200410c603483620032fa565b91506200411982620040ae565b604082019050919050565b6000606082019050818103600083015262004140818462003341565b905081810360208301526200415581620040fd565b905081810360408301526200416a81620033d5565b905092915050565b600067ffffffffffffffff82111562004190576200418f620031ef565b5b602082029050602081019050919050565b600080fd5b6000620041bd620041b78462004172565b62003795565b90508083825260208201905060208402830185811115620041e357620041e2620041a1565b5b835b81811015620042105780620041fb888262003714565b845260208401935050602081019050620041e5565b5050509392505050565b600082601f8301126200423257620042316200378b565b5b815162004244848260208601620041a6565b91505092915050565b6000602082840312156200426657620042656200344a565b5b600082015167ffffffffffffffff8111156200428757620042866200344f565b5b62004295848285016200421a565b91505092915050565b6000620042ab826200367e565b9050919050565b620042bd816200429e565b8114620042c957600080fd5b50565b600081519050620042dd81620042b2565b92915050565b600060208284031215620042fc57620042fb6200344a565b5b60006200430c84828501620042cc565b91505092915050565b60006040820190506200432c600083018562003692565b6200433b60208301846200375d565b9392505050565b60006040820190506200435960008301856200375d565b62004368602083018462003d00565b9392505050565b7f596f75206861766520746f20627579206174206c65617374206f6e6520746f6b60008201527f656e210000000000000000000000000000000000000000000000000000000000602082015250565b6000620043cd602383620032fa565b9150620043da826200436f565b604082019050919050565b6000606082019050818103600083015262004401818462003341565b905081810360208301526200441681620043be565b905081810360408301526200442b81620033d5565b905092915050565b7f50726f706f73616c2068617320616c7265616479206265656e2063616e63656c60008201527f6c65642e00000000000000000000000000000000000000000000000000000000602082015250565b600062004491602483620032fa565b91506200449e8262004433565b604082019050919050565b60006060820190508181036000830152620044c5818462003341565b90508181036020830152620044da8162004482565b90508181036040830152620044ef81620033d5565b905092915050565b7f566f74696e6720697320616c7265616479206f70656e2e000000000000000000600082015250565b60006200452f601783620032fa565b91506200453c82620044f7565b602082019050919050565b6000606082019050818103600083015262004563818462003341565b90508181036020830152620045788162004520565b905081810360408301526200458d81620033d5565b905092915050565b6000819050919050565b6000620045c0620045ba620045b48462004595565b6200361b565b62003611565b9050919050565b620045d2816200459f565b82525050565b7f546865206e756d626572206f662070726f706f73616c732073686f756c64206260008201527f6520302e00000000000000000000000000000000000000000000000000000000602082015250565b600062004636602483620032fa565b91506200464382620045d8565b604082019050919050565b600060608201905062004665600083018562003a33565b620046746020830184620045c7565b8181036040830152620046878162004627565b90509392505050565b7f5468697320697320612074657374207369676e616c696e672070726f706f736160008201527f6c00000000000000000000000000000000000000000000000000000000000000602082015250565b6000620046ee60218362003556565b9150620046fb8262004690565b604082019050919050565b62004711816200459f565b82525050565b60006080820190508181036000830152620047328162003590565b905081810360208301526200474781620046df565b905062004758604083018562004706565b62004767606083018462003692565b9392505050565b6000819050919050565b600062004799620047936200478d846200476e565b6200361b565b62003611565b9050919050565b620047ab8162004778565b82525050565b7f546865206e756d626572206f662070726f706f73616c732073686f756c64206260008201527f6520312e00000000000000000000000000000000000000000000000000000000602082015250565b60006200480f602483620032fa565b91506200481c82620047b1565b604082019050919050565b60006060820190506200483e600083018562003a33565b6200484d6020830184620047a0565b8181036040830152620048608162004800565b9050939250505056fe60a06040526040516200617638038062006176833981810160405281019062000029919062000335565b336000806101000a81548173ffffffffffffffffffffffffffffffffffffffff021916908373ffffffffffffffffffffffffffffffffffffffff16021790555081608081815250508060068190555080604051620000879062000187565b6200009391906200043e565b604051809103906000f080158015620000b0573d6000803e3d6000fd5b50600360006101000a81548173ffffffffffffffffffffffffffffffffffffffff021916908373ffffffffffffffffffffffffffffffffffffffff16021790555060008060146101000a81548160ff0219169083151502179055506000600581905550600067ffffffffffffffff81111562000131576200013062000485565b5b6040519080825280602002602001820160405280156200016657816020015b6060815260200190600190039081620001505790505b50600990805190602001906200017e92919062000195565b505050620004b4565b611cd7806200449f83390190565b828054828255906000526020600020908101928215620001e9579160200282015b82811115620001e8578251829080519060200190620001d7929190620001fc565b5091602001919060010190620001b6565b5b509050620001f891906200028b565b5090565b82805482825590600052602060002090810192821562000278579160200282015b82811115620002775782518260006101000a81548173ffffffffffffffffffffffffffffffffffffffff021916908373ffffffffffffffffffffffffffffffffffffffff160217905550916020019190600101906200021d565b5b509050620002879190620002b3565b5090565b5b80821115620002af5760008181620002a59190620002d2565b506001016200028c565b5090565b5b80821115620002ce576000816000905550600101620002b4565b5090565b5080546000825590600052602060002090810190620002f29190620002b3565b50565b600080fd5b6000819050919050565b6200030f81620002fa565b81146200031b57600080fd5b50565b6000815190506200032f8162000304565b92915050565b600080604083850312156200034f576200034e620002f5565b5b60006200035f858286016200031e565b925050602062000372858286016200031e565b9150509250929050565b600082825260208201905092915050565b7f4d61726b00000000000000000000000000000000000000000000000000000000600082015250565b6000620003c56004836200037c565b9150620003d2826200038d565b602082019050919050565b7f524d000000000000000000000000000000000000000000000000000000000000600082015250565b6000620004156002836200037c565b91506200042282620003dd565b602082019050919050565b6200043881620002fa565b82525050565b600060608201905081810360008301526200045981620003b6565b905081810360208301526200046e8162000406565b90506200047f60408301846200042d565b92915050565b7f4e487b7100000000000000000000000000000000000000000000000000000000600052604160045260246000fd5b608051613fac620004f3600039600081816108da01528181611cac01528181611fb0015281816120250152818161267701526129a50152613fac6000f3fe6080604052600436106100e85760003560e01c8063a80db6fc1161008a578063d0febe4c11610059578063d0febe4c146102a5578063d7717750146102af578063e0a8f6f5146102da578063fffefd9114610303576100e8565b8063a80db6fc14610219578063affc067014610244578063bc903cb81461024e578063c631b2921461028e576100e8565b80637b0472f0116100c65780637b0472f01461015d578063892b99a8146101865780638e08a50b146101b15780639ab3f7a6146101dc576100e8565b80633ac0feac146100ed578063649c649c146101185780636c11bcd314610141575b600080fd5b3480156100f957600080fd5b5061010261030d565b60405161010f9190612c9f565b60405180910390f35b34801561012457600080fd5b5061013f600480360381019061013a9190612cf7565b6104da565b005b61015b60048036038101906101569190612d37565b610719565b005b34801561016957600080fd5b50610184600480360381019061017f9190612cf7565b610938565b005b34801561019257600080fd5b5061019b610e37565b6040516101a89190612de3565b60405180910390f35b3480156101bd57600080fd5b506101c6610e61565b6040516101d39190612c9f565b60405180910390f35b3480156101e857600080fd5b5061020360048036038101906101fe9190612ea1565b611012565b6040516102109190612f57565b60405180910390f35b34801561022557600080fd5b5061022e6114a3565b60405161023b9190612c9f565b60405180910390f35b61024c61168c565b005b34801561025a57600080fd5b5061027560048036038101906102709190612d37565b6117a6565b604051610285949392919061301a565b60405180910390f35b34801561029a57600080fd5b506102a361192c565b005b6102ad611eda565b005b3480156102bb57600080fd5b506102c461219b565b6040516102d19190612de3565b60405180910390f35b3480156102e657600080fd5b5061030160048036038101906102fc9190612d37565b6121c1565b005b61030b61252c565b005b6060600060149054906101000a900460ff1661035e576040517f08c379a0000000000000000000000000000000000000000000000000000000008152600401610355906130b9565b60405180910390fd5b6000805b6002805490508110156103e057600060028281548110610385576103846130d9565b5b906000526020600020906006020190508060050160149054906101000a900460ff1680156103b857506000816004015414155b156103cc5782806103c890613137565b9350505b5080806103d890613137565b915050610362565b508067ffffffffffffffff8111156103fb576103fa61317f565b5b6040519080825280602002602001820160405280156104295781602001602082028036833780820191505090505b5091506000805b828110156104d45760006002828154811061044e5761044d6130d9565b5b906000526020600020906006020190508060050160159054906101000a900460ff1615801561048c57508060050160149054906101000a900460ff16155b156104c057828583815181106104a5576104a46130d9565b5b60200260200101818152505081806104bc90613137565b9250505b5081806104cc90613137565b925050610430565b50505090565b6000600282815481106104f0576104ef6130d9565b5b906000526020600020906006020190508060050160149054906101000a900460ff1615610552576040517f08c379a000000000000000000000000000000000000000000000000000000000815260040161054990613220565b60405180910390fd5b826008600084815260200190815260200160002060003373ffffffffffffffffffffffffffffffffffffffff1673ffffffffffffffffffffffffffffffffffffffff1681526020019081526020016000205410156105e5576040517f08c379a00000000000000000000000000000000000000000000000000000000081526004016105dc906132b2565b60405180910390fd5b60006008600084815260200190815260200160002060003373ffffffffffffffffffffffffffffffffffffffff1673ffffffffffffffffffffffffffffffffffffffff168152602001908152602001600020549050836008600085815260200190815260200160002060003373ffffffffffffffffffffffffffffffffffffffff1673ffffffffffffffffffffffffffffffffffffffff168152602001908152602001600020819055506002848261069d91906132d2565b6106a79190613446565b6002826106b49190613446565b6106be91906132d2565b600160003373ffffffffffffffffffffffffffffffffffffffff1673ffffffffffffffffffffffffffffffffffffffff168152602001908152602001600020600082825461070c9190613491565b9250508190555050505050565b600460003373ffffffffffffffffffffffffffffffffffffffff1673ffffffffffffffffffffffffffffffffffffffff16815260200190815260200160002060009054906101000a900460ff166107a5576040517f08c379a000000000000000000000000000000000000000000000000000000000815260040161079c90613533565b60405180910390fd5b80600160003373ffffffffffffffffffffffffffffffffffffffff1673ffffffffffffffffffffffffffffffffffffffff168152602001908152602001600020541015610827576040517f08c379a000000000000000000000000000000000000000000000000000000000815260040161081e9061359f565b60405180910390fd5b600360009054906101000a900473ffffffffffffffffffffffffffffffffffffffff1673ffffffffffffffffffffffffffffffffffffffff16639dc29fac33836040518363ffffffff1660e01b81526004016108849291906135bf565b600060405180830381600087803b15801561089e57600080fd5b505af11580156108b2573d6000803e3d6000fd5b5050505060003390508073ffffffffffffffffffffffffffffffffffffffff166108fc6109087f00000000000000000000000000000000000000000000000000000000000000008561263990919063ffffffff16565b9081150290604051600060405180830381858888f19350505050158015610933573d6000803e3d6000fd5b505050565b600460003373ffffffffffffffffffffffffffffffffffffffff1673ffffffffffffffffffffffffffffffffffffffff16815260200190815260200160002060009054906101000a900460ff166109c4576040517f08c379a00000000000000000000000000000000000000000000000000000000081526004016109bb90613533565b60405180910390fd5b600060149054906101000a900460ff16610a13576040517f08c379a0000000000000000000000000000000000000000000000000000000008152600401610a0a906130b9565b60405180910390fd5b600060028381548110610a2957610a286130d9565b5b9060005260206000209060060201905060006008600085815260200190815260200160002060003373ffffffffffffffffffffffffffffffffffffffff1673ffffffffffffffffffffffffffffffffffffffff16815260200190815260200160002054905060008160028584610a9f9190613491565b610aa99190613446565b610ab391906132d2565b905080600160003373ffffffffffffffffffffffffffffffffffffffff1673ffffffffffffffffffffffffffffffffffffffff168152602001908152602001600020541015610b37576040517f08c379a0000000000000000000000000000000000000000000000000000000008152600401610b2e90613634565b60405180910390fd5b80600360009054906101000a900473ffffffffffffffffffffffffffffffffffffffff1673ffffffffffffffffffffffffffffffffffffffff1663dd62ed3e33306040518363ffffffff1660e01b8152600401610b95929190613654565b602060405180830381865afa158015610bb2573d6000803e3d6000fd5b505050506040513d601f19601f82011682018060405250810190610bd69190613692565b1015610c17576040517f08c379a0000000000000000000000000000000000000000000000000000000008152600401610c0e9061370b565b60405180910390fd5b600360009054906101000a900473ffffffffffffffffffffffffffffffffffffffff1673ffffffffffffffffffffffffffffffffffffffff166323b872dd3330846040518463ffffffff1660e01b8152600401610c769392919061372b565b6020604051808303816000875af1158015610c95573d6000803e3d6000fd5b505050506040513d601f19601f82011682018060405250810190610cb9919061379a565b5080600160003373ffffffffffffffffffffffffffffffffffffffff1673ffffffffffffffffffffffffffffffffffffffff1681526020019081526020016000206000828254610d0991906132d2565b92505081905550836008600087815260200190815260200160002060003373ffffffffffffffffffffffffffffffffffffffff1673ffffffffffffffffffffffffffffffffffffffff1681526020019081526020016000206000828254610d709190613491565b9250508190555083836003016000828254610d8b9190613491565b9250508190555060008203610e1a5760098581548110610dae57610dad6130d9565b5b90600052602060002001339080600181540180825580915050600190039060005260206000200160009091909190916101000a81548173ffffffffffffffffffffffffffffffffffffffff021916908373ffffffffffffffffffffffffffffffffffffffff1602179055505b6000836004015414610e3057610e2f8561264f565b5b5050505050565b6000600360009054906101000a900473ffffffffffffffffffffffffffffffffffffffff16905090565b6060600060149054906101000a900460ff16610eb2576040517f08c379a0000000000000000000000000000000000000000000000000000000008152600401610ea9906130b9565b60405180910390fd5b6000805b600280549050811015610f1857600060028281548110610ed957610ed86130d9565b5b906000526020600020906006020190506000816004015403610f04578280610f0090613137565b9350505b508080610f1090613137565b915050610eb6565b508067ffffffffffffffff811115610f3357610f3261317f565b5b604051908082528060200260200182016040528015610f615781602001602082028036833780820191505090505b5091506000805b8281101561100c57600060028281548110610f8657610f856130d9565b5b906000526020600020906006020190508060050160159054906101000a900460ff16158015610fc457508060050160149054906101000a900460ff16155b15610ff85782858381518110610fdd57610fdc6130d9565b5b6020026020010181815250508180610ff490613137565b9250505b50818061100490613137565b925050610f68565b50505090565b60008060149054906101000a900460ff16611062576040517f08c379a0000000000000000000000000000000000000000000000000000000008152600401611059906130b9565b60405180910390fd5b600460003373ffffffffffffffffffffffffffffffffffffffff1673ffffffffffffffffffffffffffffffffffffffff16815260200190815260200160002060009054906101000a900460ff166110ee576040517f08c379a00000000000000000000000000000000000000000000000000000000081526004016110e590613533565b60405180910390fd5b60008787905011611134576040517f08c379a000000000000000000000000000000000000000000000000000000000815260040161112b90613813565b60405180910390fd5b6000858590501161117a576040517f08c379a00000000000000000000000000000000000000000000000000000000081526004016111719061387f565b60405180910390fd5b61118382612a2a565b6111c2576040517f08c379a00000000000000000000000000000000000000000000000000000000081526004016111b990613911565b60405180910390fd5b60026040518061010001604052803373ffffffffffffffffffffffffffffffffffffffff16815260200189898080601f016020809104026020016040519081016040528093929190818152602001838380828437600081840152601f19601f82011690508083019250505050505050815260200187878080601f016020809104026020016040519081016040528093929190818152602001838380828437600081840152601f19601f820116905080830192505050505050508152602001600081526020018581526020018473ffffffffffffffffffffffffffffffffffffffff16815260200160001515815260200160001515815250908060018154018082558091505060019003906000526020600020906006020160009091909190915060008201518160000160006101000a81548173ffffffffffffffffffffffffffffffffffffffff021916908373ffffffffffffffffffffffffffffffffffffffff1602179055506020820151816001019080519060200190611345929190612a6a565b506040820151816002019080519060200190611362929190612a6a565b50606082015181600301556080820151816004015560a08201518160050160006101000a81548173ffffffffffffffffffffffffffffffffffffffff021916908373ffffffffffffffffffffffffffffffffffffffff16021790555060c08201518160050160146101000a81548160ff02191690831515021790555060e08201518160050160156101000a81548160ff02191690831515021790555050506009600067ffffffffffffffff81111561141d5761141c61317f565b5b60405190808252806020026020018201604052801561144b5781602001602082028036833780820191505090505b50908060018154018082558091505060019003906000526020600020016000909190919091509080519060200190611484929190612af0565b50600160028054905061149791906132d2565b90509695505050505050565b6060600060149054906101000a900460ff166114f4576040517f08c379a00000000000000000000000000000000000000000000000000000000081526004016114eb906130b9565b60405180910390fd5b6000805b6002805490508110156115925760006002828154811061151b5761151a6130d9565b5b906000526020600020906006020190508060050160159054906101000a900460ff1615801561155957508060050160149054906101000a900460ff16155b801561156a57506000816004015414155b1561157e57828061157a90613137565b9350505b50808061158a90613137565b9150506114f8565b508067ffffffffffffffff8111156115ad576115ac61317f565b5b6040519080825280602002602001820160405280156115db5781602001602082028036833780820191505090505b5091506000805b8281101561168657600060028281548110611600576115ff6130d9565b5b906000526020600020906006020190508060050160159054906101000a900460ff1615801561163e57508060050160149054906101000a900460ff16155b156116725782858381518110611657576116566130d9565b5b602002602001018181525050818061166e90613137565b9250505b50818061167e90613137565b9250506115e2565b50505090565b60008054906101000a900473ffffffffffffffffffffffffffffffffffffffff1673ffffffffffffffffffffffffffffffffffffffff163373ffffffffffffffffffffffffffffffffffffffff161461171a576040517f08c379a0000000000000000000000000000000000000000000000000000000008152600401611711906139a3565b60405180910390fd5b600060149054906101000a900460ff161561176a576040517f08c379a000000000000000000000000000000000000000000000000000000000815260040161176190613a0f565b60405180910390fd5b6001600060146101000a81548160ff021916908315150217905550346007819055506000600a819055506000600b819055506000600c81905550565b6060806000806000600286815481106117c2576117c16130d9565b5b90600052602060002090600602019050806001018160020182600401548360050160009054906101000a900473ffffffffffffffffffffffffffffffffffffffff1683805461181090613a5e565b80601f016020809104026020016040519081016040528092919081815260200182805461183c90613a5e565b80156118895780601f1061185e57610100808354040283529160200191611889565b820191906000526020600020905b81548152906001019060200180831161186c57829003601f168201915b5050505050935082805461189c90613a5e565b80601f01602080910402602001604051908101604052809291908181526020018280546118c890613a5e565b80156119155780601f106118ea57610100808354040283529160200191611915565b820191906000526020600020905b8154815290600101906020018083116118f857829003601f168201915b505050505092509450945094509450509193509193565b60008054906101000a900473ffffffffffffffffffffffffffffffffffffffff1673ffffffffffffffffffffffffffffffffffffffff163373ffffffffffffffffffffffffffffffffffffffff16146119ba576040517f08c379a00000000000000000000000000000000000000000000000000000000081526004016119b1906139a3565b60405180910390fd5b6000600c5490506000808214905060008060146101000a81548160ff0219169083151502179055506000600a5490505b600280549050811015611ed457600060028281548110611a0d57611a0c6130d9565b5b90600052602060002090600602019050600015158160050160149054906101000a900460ff16151503611df5578215611a44575a93505b600060098381548110611a5a57611a596130d9565b5b90600052602060002001905060006008600085815260200190815260200160002090506000600b5490505b8280549050811015611d445785158015611aaa5750866003611aa79190613a8f565b5a105b15611ac95784600a8190555080600b8190555050505050505050611ed8565b6000826000858481548110611ae157611ae06130d9565b5b9060005260206000200160009054906101000a900473ffffffffffffffffffffffffffffffffffffffff1673ffffffffffffffffffffffffffffffffffffffff1673ffffffffffffffffffffffffffffffffffffffff168152602001908152602001600020541115611d11576000826000858481548110611b6557611b646130d9565b5b9060005260206000200160009054906101000a900473ffffffffffffffffffffffffffffffffffffffff1673ffffffffffffffffffffffffffffffffffffffff1673ffffffffffffffffffffffffffffffffffffffff1681526020019081526020016000205490506000836000868581548110611be557611be46130d9565b5b9060005260206000200160009054906101000a900473ffffffffffffffffffffffffffffffffffffffff1673ffffffffffffffffffffffffffffffffffffffff1673ffffffffffffffffffffffffffffffffffffffff168152602001908152602001600020819055506000848381548110611c6357611c626130d9565b5b9060005260206000200160009054906101000a900473ffffffffffffffffffffffffffffffffffffffff1690508073ffffffffffffffffffffffffffffffffffffffff166108fc7f0000000000000000000000000000000000000000000000000000000000000000600285611cd89190613446565b611ce29190613a8f565b9081150290604051600060405180830381858888f19350505050158015611d0d573d6000803e3d6000fd5b5050505b8515611d3157600095505a87611d2791906132d2565b965086600c819055505b8080611d3c90613137565b915050611a85565b506000836004015403611df25760008360050160009054906101000a900473ffffffffffffffffffffffffffffffffffffffff1690508073ffffffffffffffffffffffffffffffffffffffff16630d61b5198560040154620186a090886040518463ffffffff1660e01b8152600401611dbd9190612f57565b6000604051808303818589803b158015611dd657600080fd5b5088f1158015611dea573d6000803e3d6000fd5b505050505050505b50505b60028281548110611e0957611e086130d9565b5b9060005260206000209060060201600080820160006101000a81549073ffffffffffffffffffffffffffffffffffffffff0219169055600182016000611e4f9190612b7a565b600282016000611e5f9190612b7a565b600382016000905560048201600090556005820160006101000a81549073ffffffffffffffffffffffffffffffffffffffff02191690556005820160146101000a81549060ff02191690556005820160156101000a81549060ff02191690555050508080611ecc90613137565b9150506119ea565b5050505b565b600460003373ffffffffffffffffffffffffffffffffffffffff1673ffffffffffffffffffffffffffffffffffffffff16815260200190815260200160002060009054906101000a900460ff16611f66576040517f08c379a0000000000000000000000000000000000000000000000000000000008152600401611f5d90613533565b60405180910390fd5b60003411611fa9576040517f08c379a0000000000000000000000000000000000000000000000000000000008152600401611fa090613b5b565b60405180910390fd5b6000611fde7f000000000000000000000000000000000000000000000000000000000000000034612a3e90919063ffffffff16565b1461201e576040517f08c379a000000000000000000000000000000000000000000000000000000000815260040161201590613bed565b60405180910390fd5b60006120537f000000000000000000000000000000000000000000000000000000000000000034612a5490919063ffffffff16565b905060065481111561209a576040517f08c379a000000000000000000000000000000000000000000000000000000000815260040161209190613c59565b60405180910390fd5b600360009054906101000a900473ffffffffffffffffffffffffffffffffffffffff1673ffffffffffffffffffffffffffffffffffffffff166340c10f1933836040518363ffffffff1660e01b81526004016120f79291906135bf565b600060405180830381600087803b15801561211157600080fd5b505af1158015612125573d6000803e3d6000fd5b5050505080600160003373ffffffffffffffffffffffffffffffffffffffff1673ffffffffffffffffffffffffffffffffffffffff16815260200190815260200160002060008282546121789190613491565b92505081905550806006600082825461219191906132d2565b9250508190555050565b600360009054906101000a900473ffffffffffffffffffffffffffffffffffffffff1681565b600060149054906101000a900460ff16612210576040517f08c379a0000000000000000000000000000000000000000000000000000000008152600401612207906130b9565b60405180910390fd5b803373ffffffffffffffffffffffffffffffffffffffff166002828154811061223c5761223b6130d9565b5b906000526020600020906006020160000160009054906101000a900473ffffffffffffffffffffffffffffffffffffffff1673ffffffffffffffffffffffffffffffffffffffff16146122c4576040517f08c379a00000000000000000000000000000000000000000000000000000000081526004016122bb90613ceb565b60405180910390fd5b6000600283815481106122da576122d96130d9565b5b906000526020600020906006020190508060050160149054906101000a900460ff161561233c576040517f08c379a000000000000000000000000000000000000000000000000000000000815260040161233390613d7d565b60405180910390fd5b8060050160159054906101000a900460ff161561238e576040517f08c379a000000000000000000000000000000000000000000000000000000000815260040161238590613e0f565b60405180910390fd5b60018160050160156101000a81548160ff0219169083151502179055506000600984815481106123c1576123c06130d9565b5b90600052602060002001905060005b8180549050811015612525576000600860008781526020019081526020016000206000848481548110612406576124056130d9565b5b9060005260206000200160009054906101000a900473ffffffffffffffffffffffffffffffffffffffff1673ffffffffffffffffffffffffffffffffffffffff1673ffffffffffffffffffffffffffffffffffffffff16815260200190815260200160002054905060028161247b9190613446565b60016000858581548110612492576124916130d9565b5b9060005260206000200160009054906101000a900473ffffffffffffffffffffffffffffffffffffffff1673ffffffffffffffffffffffffffffffffffffffff1673ffffffffffffffffffffffffffffffffffffffff16815260200190815260200160002060008282546125069190613491565b925050819055506000905050808061251d90613137565b9150506123d0565b5050505050565b60001515600460003373ffffffffffffffffffffffffffffffffffffffff1673ffffffffffffffffffffffffffffffffffffffff16815260200190815260200160002060009054906101000a900460ff161515146125bf576040517f08c379a00000000000000000000000000000000000000000000000000000000081526004016125b690613e7b565b60405180910390fd5b6001600460003373ffffffffffffffffffffffffffffffffffffffff1673ffffffffffffffffffffffffffffffffffffffff16815260200190815260200160002060006101000a81548160ff0219169083151502179055506005600081548092919061262a90613137565b9190505550612637611eda565b565b600081836126479190613a8f565b905092915050565b600060028281548110612665576126646130d9565b5b906000526020600020906006020190507f000000000000000000000000000000000000000000000000000000000000000081600301546126a59190613a8f565b6007546126b29190613491565b816004015411156126c35750612a27565b6000600754600a6002805490506126da9190613a8f565b6126e49190613a8f565b6005548360040154600a6126f89190613a8f565b60026127049190613491565b61270e9190613a8f565b6127189190613491565b90506000600754600a84600301546127309190613a8f565b61273a9190613a8f565b905081811161274b57505050612a27565b60008360050160009054906101000a900473ffffffffffffffffffffffffffffffffffffffff1690508073ffffffffffffffffffffffffffffffffffffffff16630d61b5198560040154620186a090886040518463ffffffff1660e01b81526004016127b79190612f57565b6000604051808303818589803b1580156127d057600080fd5b5088f11580156127e4573d6000803e3d6000fd5b50505050505060018460050160146101000a81548160ff02191690831515021790555060006009868154811061281d5761281c6130d9565b5b9060005260206000200190506000805b82805490508110156129fc576000600860008a81526020019081526020016000206000858481548110612863576128626130d9565b5b9060005260206000200160009054906101000a900473ffffffffffffffffffffffffffffffffffffffff1673ffffffffffffffffffffffffffffffffffffffff1673ffffffffffffffffffffffffffffffffffffffff168152602001908152602001600020549050600360009054906101000a900473ffffffffffffffffffffffffffffffffffffffff1673ffffffffffffffffffffffffffffffffffffffff16639dc29fac85848154811061291c5761291b6130d9565b5b9060005260206000200160009054906101000a900473ffffffffffffffffffffffffffffffffffffffff166002846129549190613446565b6040518363ffffffff1660e01b8152600401612971929190613ebc565b600060405180830381600087803b15801561298b57600080fd5b505af115801561299f573d6000803e3d6000fd5b505050507f00000000000000000000000000000000000000000000000000000000000000006002826129d19190613446565b6129db9190613a8f565b836129e69190613491565b92505080806129f490613137565b91505061282d565b50856004015481600754612a109190613491565b612a1a91906132d2565b6007819055505050505050505b50565b600080823b90506000811415915050919050565b60008183612a4c9190613f14565b905092915050565b60008183612a629190613f45565b905092915050565b828054612a7690613a5e565b90600052602060002090601f016020900481019282612a985760008555612adf565b82601f10612ab157805160ff1916838001178555612adf565b82800160010185558215612adf579182015b82811115612ade578251825591602001919060010190612ac3565b5b509050612aec9190612bba565b5090565b828054828255906000526020600020908101928215612b69579160200282015b82811115612b685782518260006101000a81548173ffffffffffffffffffffffffffffffffffffffff021916908373ffffffffffffffffffffffffffffffffffffffff16021790555091602001919060010190612b10565b5b509050612b769190612bba565b5090565b508054612b8690613a5e565b6000825580601f10612b985750612bb7565b601f016020900490600052602060002090810190612bb69190612bba565b5b50565b5b80821115612bd3576000816000905550600101612bbb565b5090565b600081519050919050565b600082825260208201905092915050565b6000819050602082019050919050565b6000819050919050565b612c1681612c03565b82525050565b6000612c288383612c0d565b60208301905092915050565b6000602082019050919050565b6000612c4c82612bd7565b612c568185612be2565b9350612c6183612bf3565b8060005b83811015612c92578151612c798882612c1c565b9750612c8483612c34565b925050600181019050612c65565b5085935050505092915050565b60006020820190508181036000830152612cb98184612c41565b905092915050565b600080fd5b600080fd5b612cd481612c03565b8114612cdf57600080fd5b50565b600081359050612cf181612ccb565b92915050565b60008060408385031215612d0e57612d0d612cc1565b5b6000612d1c85828601612ce2565b9250506020612d2d85828601612ce2565b9150509250929050565b600060208284031215612d4d57612d4c612cc1565b5b6000612d5b84828501612ce2565b91505092915050565b600073ffffffffffffffffffffffffffffffffffffffff82169050919050565b6000819050919050565b6000612da9612da4612d9f84612d64565b612d84565b612d64565b9050919050565b6000612dbb82612d8e565b9050919050565b6000612dcd82612db0565b9050919050565b612ddd81612dc2565b82525050565b6000602082019050612df86000830184612dd4565b92915050565b600080fd5b600080fd5b600080fd5b60008083601f840112612e2357612e22612dfe565b5b8235905067ffffffffffffffff811115612e4057612e3f612e03565b5b602083019150836001820283011115612e5c57612e5b612e08565b5b9250929050565b6000612e6e82612d64565b9050919050565b612e7e81612e63565b8114612e8957600080fd5b50565b600081359050612e9b81612e75565b92915050565b60008060008060008060808789031215612ebe57612ebd612cc1565b5b600087013567ffffffffffffffff811115612edc57612edb612cc6565b5b612ee889828a01612e0d565b9650965050602087013567ffffffffffffffff811115612f0b57612f0a612cc6565b5b612f1789828a01612e0d565b94509450506040612f2a89828a01612ce2565b9250506060612f3b89828a01612e8c565b9150509295509295509295565b612f5181612c03565b82525050565b6000602082019050612f6c6000830184612f48565b92915050565b600081519050919050565b600082825260208201905092915050565b60005b83811015612fac578082015181840152602081019050612f91565b83811115612fbb576000848401525b50505050565b6000601f19601f8301169050919050565b6000612fdd82612f72565b612fe78185612f7d565b9350612ff7818560208601612f8e565b61300081612fc1565b840191505092915050565b61301481612e63565b82525050565b600060808201905081810360008301526130348187612fd2565b905081810360208301526130488186612fd2565b90506130576040830185612f48565b613064606083018461300b565b95945050505050565b7f566f74696e67206973206e6f74206f70656e207965742e000000000000000000600082015250565b60006130a3601783612f7d565b91506130ae8261306d565b602082019050919050565b600060208201905081810360008301526130d281613096565b9050919050565b7f4e487b7100000000000000000000000000000000000000000000000000000000600052603260045260246000fd5b7f4e487b7100000000000000000000000000000000000000000000000000000000600052601160045260246000fd5b600061314282612c03565b91507fffffffffffffffffffffffffffffffffffffffffffffffffffffffffffffffff820361317457613173613108565b5b600182019050919050565b7f4e487b7100000000000000000000000000000000000000000000000000000000600052604160045260246000fd5b7f5468652070726f706f73616c2068617320616c7265616479206265656e20617060008201527f70726f7665640000000000000000000000000000000000000000000000000000602082015250565b600061320a602683612f7d565b9150613215826131ae565b604082019050919050565b60006020820190508181036000830152613239816131fd565b9050919050565b7f5573657220686173206e6f74206361737465642074686174206d75636820766f60008201527f7465732e00000000000000000000000000000000000000000000000000000000602082015250565b600061329c602483612f7d565b91506132a782613240565b604082019050919050565b600060208201905081810360008301526132cb8161328f565b9050919050565b60006132dd82612c03565b91506132e883612c03565b9250828210156132fb576132fa613108565b5b828203905092915050565b60008160011c9050919050565b6000808291508390505b600185111561335d5780860481111561333957613338613108565b5b60018516156133485780820291505b808102905061335685613306565b945061331d565b94509492505050565b6000826133765760019050613432565b816133845760009050613432565b816001811461339a57600281146133a4576133d3565b6001915050613432565b60ff8411156133b6576133b5613108565b5b8360020a9150848211156133cd576133cc613108565b5b50613432565b5060208310610133831016604e8410600b84101617156134085782820a90508381111561340357613402613108565b5b613432565b6134158484846001613313565b9250905081840481111561342c5761342b613108565b5b81810290505b9392505050565b600060ff82169050919050565b600061345182612c03565b915061345c83613439565b92506134897fffffffffffffffffffffffffffffffffffffffffffffffffffffffffffffffff8484613366565b905092915050565b600061349c82612c03565b91506134a783612c03565b9250827fffffffffffffffffffffffffffffffffffffffffffffffffffffffffffffffff038211156134dc576134db613108565b5b828201905092915050565b7f41646472657373206e6f74207265676973746572656421000000000000000000600082015250565b600061351d601783612f7d565b9150613528826134e7565b602082019050919050565b6000602082019050818103600083015261354c81613510565b9050919050565b7f596f7520646f6e2774206f776e20736f206d616e7920746f6b656e7321000000600082015250565b6000613589601d83612f7d565b915061359482613553565b602082019050919050565b600060208201905081810360008301526135b88161357c565b9050919050565b60006040820190506135d4600083018561300b565b6135e16020830184612f48565b9392505050565b7f4e6f7420656e6f75676820746f6b656e73210000000000000000000000000000600082015250565b600061361e601283612f7d565b9150613629826135e8565b602082019050919050565b6000602082019050818103600083015261364d81613611565b9050919050565b6000604082019050613669600083018561300b565b613676602083018461300b565b9392505050565b60008151905061368c81612ccb565b92915050565b6000602082840312156136a8576136a7612cc1565b5b60006136b68482850161367d565b91505092915050565b7f557365206f6620746f6b656e73206e6565647320616c6c6f77616e6365210000600082015250565b60006136f5601e83612f7d565b9150613700826136bf565b602082019050919050565b60006020820190508181036000830152613724816136e8565b9050919050565b6000606082019050613740600083018661300b565b61374d602083018561300b565b61375a6040830184612f48565b949350505050565b60008115159050919050565b61377781613762565b811461378257600080fd5b50565b6000815190506137948161376e565b92915050565b6000602082840312156137b0576137af612cc1565b5b60006137be84828501613785565b91505092915050565b7f5469746c652063616e277420626520656d707479000000000000000000000000600082015250565b60006137fd601483612f7d565b9150613808826137c7565b602082019050919050565b6000602082019050818103600083015261382c816137f0565b9050919050565b7f4465736372697074696f6e2063616e277420626520656d707479000000000000600082015250565b6000613869601a83612f7d565b915061387482613833565b602082019050919050565b600060208201905081810360008301526138988161385c565b9050919050565b7f5468652061646472657373207265636569766564206973206e6f74206120766160008201527f6c696420636f6e74726163742061646472657373000000000000000000000000602082015250565b60006138fb603483612f7d565b91506139068261389f565b604082019050919050565b6000602082019050818103600083015261392a816138ee565b9050919050565b7f4f6e6c7920746865206f776e65722063616e2063616c6c20746869732066756e60008201527f6374696f6e2e0000000000000000000000000000000000000000000000000000602082015250565b600061398d602683612f7d565b915061399882613931565b604082019050919050565b600060208201905081810360008301526139bc81613980565b9050919050565b7f566f74696e6720697320616c7265616479206f70656e2e000000000000000000600082015250565b60006139f9601783612f7d565b9150613a04826139c3565b602082019050919050565b60006020820190508181036000830152613a28816139ec565b9050919050565b7f4e487b7100000000000000000000000000000000000000000000000000000000600052602260045260246000fd5b60006002820490506001821680613a7657607f821691505b602082108103613a8957613a88613a2f565b5b50919050565b6000613a9a82612c03565b9150613aa583612c03565b9250817fffffffffffffffffffffffffffffffffffffffffffffffffffffffffffffffff0483118215151615613ade57613add613108565b5b828202905092915050565b7f596f75206861766520746f20627579206174206c65617374206f6e6520746f6b60008201527f656e210000000000000000000000000000000000000000000000000000000000602082015250565b6000613b45602383612f7d565b9150613b5082613ae9565b604082019050919050565b60006020820190508181036000830152613b7481613b38565b9050919050565b7f57617463682074686520746f6b656e2070726963652c206f6e6c792077686f6c60008201527f6520746f6b656e732063616e20626520626f7567687421000000000000000000602082015250565b6000613bd7603783612f7d565b9150613be282613b7b565b604082019050919050565b60006020820190508181036000830152613c0681613bca565b9050919050565b7f4e6f7420656e6f75676820746f6b656e7320617661696c61626c652100000000600082015250565b6000613c43601c83612f7d565b9150613c4e82613c0d565b602082019050919050565b60006020820190508181036000830152613c7281613c36565b9050919050565b7f4f6e6c7920746865206f776e6572206f66207468652070726f706f73616c206360008201527f616e2063616c6c20746869732066756e6374696f6e2e00000000000000000000602082015250565b6000613cd5603683612f7d565b9150613ce082613c79565b604082019050919050565b60006020820190508181036000830152613d0481613cc8565b9050919050565b7f417070726f7665642070726f706f73616c732063616e27742062652063616e6360008201527f656c6c65642e0000000000000000000000000000000000000000000000000000602082015250565b6000613d67602683612f7d565b9150613d7282613d0b565b604082019050919050565b60006020820190508181036000830152613d9681613d5a565b9050919050565b7f50726f706f73616c2068617320616c7265616479206265656e2063616e63656c60008201527f6c65642e00000000000000000000000000000000000000000000000000000000602082015250565b6000613df9602483612f7d565b9150613e0482613d9d565b604082019050919050565b60006020820190508181036000830152613e2881613dec565b9050919050565b7f5061727469636970616e7420616c726561647920726567697374657265642e00600082015250565b6000613e65601f83612f7d565b9150613e7082613e2f565b602082019050919050565b60006020820190508181036000830152613e9481613e58565b9050919050565b6000613ea682612db0565b9050919050565b613eb681613e9b565b82525050565b6000604082019050613ed16000830185613ead565b613ede6020830184612f48565b9392505050565b7f4e487b7100000000000000000000000000000000000000000000000000000000600052601260045260246000fd5b6000613f1f82612c03565b9150613f2a83612c03565b925082613f3a57613f39613ee5565b5b828206905092915050565b6000613f5082612c03565b9150613f5b83612c03565b925082613f6b57613f6a613ee5565b5b82820490509291505056fea2646970667358221220b5f05fc8a4c91728f07c735e08b0492d0a85edac263e60dcd51bb6595d1a9e8b64736f6c634300080d003360a06040523480156200001157600080fd5b5060405162001cd738038062001cd7833981810160405281019062000037919062000306565b82828160039080519060200190620000519291906200007e565b5080600490805190602001906200006a9291906200007e565b505050806080818152505050505062000404565b8280546200008c90620003cf565b90600052602060002090601f016020900481019282620000b05760008555620000fc565b82601f10620000cb57805160ff1916838001178555620000fc565b82800160010185558215620000fc579182015b82811115620000fb578251825591602001919060010190620000de565b5b5090506200010b91906200010f565b5090565b5b808211156200012a57600081600090555060010162000110565b5090565b6000604051905090565b600080fd5b600080fd5b600080fd5b600080fd5b6000601f19601f8301169050919050565b7f4e487b7100000000000000000000000000000000000000000000000000000000600052604160045260246000fd5b62000197826200014c565b810181811067ffffffffffffffff82111715620001b957620001b86200015d565b5b80604052505050565b6000620001ce6200012e565b9050620001dc82826200018c565b919050565b600067ffffffffffffffff821115620001ff57620001fe6200015d565b5b6200020a826200014c565b9050602081019050919050565b60005b83811015620002375780820151818401526020810190506200021a565b8381111562000247576000848401525b50505050565b6000620002646200025e84620001e1565b620001c2565b90508281526020810184848401111562000283576200028262000147565b5b6200029084828562000217565b509392505050565b600082601f830112620002b057620002af62000142565b5b8151620002c28482602086016200024d565b91505092915050565b6000819050919050565b620002e081620002cb565b8114620002ec57600080fd5b50565b6000815190506200030081620002d5565b92915050565b60008060006060848603121562000322576200032162000138565b5b600084015167ffffffffffffffff8111156200034357620003426200013d565b5b620003518682870162000298565b935050602084015167ffffffffffffffff8111156200037557620003746200013d565b5b620003838682870162000298565b92505060406200039686828701620002ef565b9150509250925092565b7f4e487b7100000000000000000000000000000000000000000000000000000000600052602260045260246000fd5b60006002820490506001821680620003e857607f821691505b602082108103620003fe57620003fd620003a0565b5b50919050565b6080516118b762000420600039600061040401526118b76000f3fe608060405234801561001057600080fd5b50600436106100cf5760003560e01c806340c10f191161008c5780639dc29fac116100665780639dc29fac14610228578063a457c2d714610244578063a9059cbb14610274578063dd62ed3e146102a4576100cf565b806340c10f19146101be57806370a08231146101da57806395d89b411461020a576100cf565b806306fdde03146100d4578063095ea7b3146100f257806318160ddd1461012257806323b872dd14610140578063313ce56714610170578063395093511461018e575b600080fd5b6100dc6102d4565b6040516100e99190610f42565b60405180910390f35b61010c60048036038101906101079190610ffd565b610366565b6040516101199190611058565b60405180910390f35b61012a610389565b6040516101379190611082565b60405180910390f35b61015a6004803603810190610155919061109d565b610393565b6040516101679190611058565b60405180910390f35b6101786103c2565b604051610185919061110c565b60405180910390f35b6101a860048036038101906101a39190610ffd565b6103cb565b6040516101b59190611058565b60405180910390f35b6101d860048036038101906101d39190610ffd565b610402565b005b6101f460048036038101906101ef9190611127565b610485565b6040516102019190611082565b60405180910390f35b6102126104cd565b60405161021f9190610f42565b60405180910390f35b610242600480360381019061023d9190610ffd565b61055f565b005b61025e60048036038101906102599190610ffd565b61056d565b60405161026b9190611058565b60405180910390f35b61028e60048036038101906102899190610ffd565b6105e4565b60405161029b9190611058565b60405180910390f35b6102be60048036038101906102b99190611154565b610607565b6040516102cb9190611082565b60405180910390f35b6060600380546102e3906111c3565b80601f016020809104026020016040519081016040528092919081815260200182805461030f906111c3565b801561035c5780601f106103315761010080835404028352916020019161035c565b820191906000526020600020905b81548152906001019060200180831161033f57829003601f168201915b5050505050905090565b60008061037161068e565b905061037e818585610696565b600191505092915050565b6000600254905090565b60008061039e61068e565b90506103ab85828561085f565b6103b68585856108eb565b60019150509392505050565b60006012905090565b6000806103d661068e565b90506103f78185856103e88589610607565b6103f29190611223565b610696565b600191505092915050565b7f00000000000000000000000000000000000000000000000000000000000000008161042c610389565b6104369190611223565b1115610477576040517f08c379a000000000000000000000000000000000000000000000000000000000815260040161046e906112c5565b60405180910390fd5b6104818282610b6a565b5050565b60008060008373ffffffffffffffffffffffffffffffffffffffff1673ffffffffffffffffffffffffffffffffffffffff168152602001908152602001600020549050919050565b6060600480546104dc906111c3565b80601f0160208091040260200160405190810160405280929190818152602001828054610508906111c3565b80156105555780601f1061052a57610100808354040283529160200191610555565b820191906000526020600020905b81548152906001019060200180831161053857829003601f168201915b5050505050905090565b6105698282610cc9565b5050565b60008061057861068e565b905060006105868286610607565b9050838110156105cb576040517f08c379a00000000000000000000000000000000000000000000000000000000081526004016105c290611357565b60405180910390fd5b6105d88286868403610696565b60019250505092915050565b6000806105ef61068e565b90506105fc8185856108eb565b600191505092915050565b6000600160008473ffffffffffffffffffffffffffffffffffffffff1673ffffffffffffffffffffffffffffffffffffffff16815260200190815260200160002060008373ffffffffffffffffffffffffffffffffffffffff1673ffffffffffffffffffffffffffffffffffffffff16815260200190815260200160002054905092915050565b600033905090565b600073ffffffffffffffffffffffffffffffffffffffff168373ffffffffffffffffffffffffffffffffffffffff1603610705576040517f08c379a00000000000000000000000000000000000000000000000000000000081526004016106fc906113e9565b60405180910390fd5b600073ffffffffffffffffffffffffffffffffffffffff168273ffffffffffffffffffffffffffffffffffffffff1603610774576040517f08c379a000000000000000000000000000000000000000000000000000000000815260040161076b9061147b565b60405180910390fd5b80600160008573ffffffffffffffffffffffffffffffffffffffff1673ffffffffffffffffffffffffffffffffffffffff16815260200190815260200160002060008473ffffffffffffffffffffffffffffffffffffffff1673ffffffffffffffffffffffffffffffffffffffff168152602001908152602001600020819055508173ffffffffffffffffffffffffffffffffffffffff168373ffffffffffffffffffffffffffffffffffffffff167f8c5be1e5ebec7d5bd14f71427d1e84f3dd0314c0f7b2291e5b200ac8c7c3b925836040516108529190611082565b60405180910390a3505050565b600061086b8484610607565b90507fffffffffffffffffffffffffffffffffffffffffffffffffffffffffffffffff81146108e557818110156108d7576040517f08c379a00000000000000000000000000000000000000000000000000000000081526004016108ce906114e7565b60405180910390fd5b6108e48484848403610696565b5b50505050565b600073ffffffffffffffffffffffffffffffffffffffff168373ffffffffffffffffffffffffffffffffffffffff160361095a576040517f08c379a000000000000000000000000000000000000000000000000000000000815260040161095190611579565b60405180910390fd5b600073ffffffffffffffffffffffffffffffffffffffff168273ffffffffffffffffffffffffffffffffffffffff16036109c9576040517f08c379a00000000000000000000000000000000000000000000000000000000081526004016109c09061160b565b60405180910390fd5b6109d4838383610e9f565b60008060008573ffffffffffffffffffffffffffffffffffffffff1673ffffffffffffffffffffffffffffffffffffffff16815260200190815260200160002054905081811015610a5a576040517f08c379a0000000000000000000000000000000000000000000000000000000008152600401610a519061169d565b60405180910390fd5b8181036000808673ffffffffffffffffffffffffffffffffffffffff1673ffffffffffffffffffffffffffffffffffffffff16815260200190815260200160002081905550816000808573ffffffffffffffffffffffffffffffffffffffff1673ffffffffffffffffffffffffffffffffffffffff1681526020019081526020016000206000828254610aed9190611223565b925050819055508273ffffffffffffffffffffffffffffffffffffffff168473ffffffffffffffffffffffffffffffffffffffff167fddf252ad1be2c89b69c2b068fc378daa952ba7f163c4a11628f55a4df523b3ef84604051610b519190611082565b60405180910390a3610b64848484610ea4565b50505050565b600073ffffffffffffffffffffffffffffffffffffffff168273ffffffffffffffffffffffffffffffffffffffff1603610bd9576040517f08c379a0000000000000000000000000000000000000000000000000000000008152600401610bd090611709565b60405180910390fd5b610be560008383610e9f565b8060026000828254610bf79190611223565b92505081905550806000808473ffffffffffffffffffffffffffffffffffffffff1673ffffffffffffffffffffffffffffffffffffffff1681526020019081526020016000206000828254610c4c9190611223565b925050819055508173ffffffffffffffffffffffffffffffffffffffff16600073ffffffffffffffffffffffffffffffffffffffff167fddf252ad1be2c89b69c2b068fc378daa952ba7f163c4a11628f55a4df523b3ef83604051610cb19190611082565b60405180910390a3610cc560008383610ea4565b5050565b600073ffffffffffffffffffffffffffffffffffffffff168273ffffffffffffffffffffffffffffffffffffffff1603610d38576040517f08c379a0000000000000000000000000000000000000000000000000000000008152600401610d2f9061179b565b60405180910390fd5b610d4482600083610e9f565b60008060008473ffffffffffffffffffffffffffffffffffffffff1673ffffffffffffffffffffffffffffffffffffffff16815260200190815260200160002054905081811015610dca576040517f08c379a0000000000000000000000000000000000000000000000000000000008152600401610dc19061182d565b60405180910390fd5b8181036000808573ffffffffffffffffffffffffffffffffffffffff1673ffffffffffffffffffffffffffffffffffffffff168152602001908152602001600020819055508160026000828254610e21919061184d565b92505081905550600073ffffffffffffffffffffffffffffffffffffffff168373ffffffffffffffffffffffffffffffffffffffff167fddf252ad1be2c89b69c2b068fc378daa952ba7f163c4a11628f55a4df523b3ef84604051610e869190611082565b60405180910390a3610e9a83600084610ea4565b505050565b505050565b505050565b600081519050919050565b600082825260208201905092915050565b60005b83811015610ee3578082015181840152602081019050610ec8565b83811115610ef2576000848401525b50505050565b6000601f19601f8301169050919050565b6000610f1482610ea9565b610f1e8185610eb4565b9350610f2e818560208601610ec5565b610f3781610ef8565b840191505092915050565b60006020820190508181036000830152610f5c8184610f09565b905092915050565b600080fd5b600073ffffffffffffffffffffffffffffffffffffffff82169050919050565b6000610f9482610f69565b9050919050565b610fa481610f89565b8114610faf57600080fd5b50565b600081359050610fc181610f9b565b92915050565b6000819050919050565b610fda81610fc7565b8114610fe557600080fd5b50565b600081359050610ff781610fd1565b92915050565b6000806040838503121561101457611013610f64565b5b600061102285828601610fb2565b925050602061103385828601610fe8565b9150509250929050565b60008115159050919050565b6110528161103d565b82525050565b600060208201905061106d6000830184611049565b92915050565b61107c81610fc7565b82525050565b60006020820190506110976000830184611073565b92915050565b6000806000606084860312156110b6576110b5610f64565b5b60006110c486828701610fb2565b93505060206110d586828701610fb2565b92505060406110e686828701610fe8565b9150509250925092565b600060ff82169050919050565b611106816110f0565b82525050565b600060208201905061112160008301846110fd565b92915050565b60006020828403121561113d5761113c610f64565b5b600061114b84828501610fb2565b91505092915050565b6000806040838503121561116b5761116a610f64565b5b600061117985828601610fb2565b925050602061118a85828601610fb2565b9150509250929050565b7f4e487b7100000000000000000000000000000000000000000000000000000000600052602260045260246000fd5b600060028204905060018216806111db57607f821691505b6020821081036111ee576111ed611194565b5b50919050565b7f4e487b7100000000000000000000000000000000000000000000000000000000600052601160045260246000fd5b600061122e82610fc7565b915061123983610fc7565b9250827fffffffffffffffffffffffffffffffffffffffffffffffffffffffffffffffff0382111561126e5761126d6111f4565b5b828201905092915050565b7f4552433230433a20636170206578636565646564000000000000000000000000600082015250565b60006112af601483610eb4565b91506112ba82611279565b602082019050919050565b600060208201905081810360008301526112de816112a2565b9050919050565b7f45524332303a2064656372656173656420616c6c6f77616e63652062656c6f7760008201527f207a65726f000000000000000000000000000000000000000000000000000000602082015250565b6000611341602583610eb4565b915061134c826112e5565b604082019050919050565b6000602082019050818103600083015261137081611334565b9050919050565b7f45524332303a20617070726f76652066726f6d20746865207a65726f2061646460008201527f7265737300000000000000000000000000000000000000000000000000000000602082015250565b60006113d3602483610eb4565b91506113de82611377565b604082019050919050565b60006020820190508181036000830152611402816113c6565b9050919050565b7f45524332303a20617070726f766520746f20746865207a65726f20616464726560008201527f7373000000000000000000000000000000000000000000000000000000000000602082015250565b6000611465602283610eb4565b915061147082611409565b604082019050919050565b6000602082019050818103600083015261149481611458565b9050919050565b7f45524332303a20696e73756666696369656e7420616c6c6f77616e6365000000600082015250565b60006114d1601d83610eb4565b91506114dc8261149b565b602082019050919050565b60006020820190508181036000830152611500816114c4565b9050919050565b7f45524332303a207472616e736665722066726f6d20746865207a65726f20616460008201527f6472657373000000000000000000000000000000000000000000000000000000602082015250565b6000611563602583610eb4565b915061156e82611507565b604082019050919050565b6000602082019050818103600083015261159281611556565b9050919050565b7f45524332303a207472616e7366657220746f20746865207a65726f206164647260008201527f6573730000000000000000000000000000000000000000000000000000000000602082015250565b60006115f5602383610eb4565b915061160082611599565b604082019050919050565b60006020820190508181036000830152611624816115e8565b9050919050565b7f45524332303a207472616e7366657220616d6f756e742065786365656473206260008201527f616c616e63650000000000000000000000000000000000000000000000000000602082015250565b6000611687602683610eb4565b91506116928261162b565b604082019050919050565b600060208201905081810360008301526116b68161167a565b9050919050565b7f45524332303a206d696e7420746f20746865207a65726f206164647265737300600082015250565b60006116f3601f83610eb4565b91506116fe826116bd565b602082019050919050565b60006020820190508181036000830152611722816116e6565b9050919050565b7f45524332303a206275726e2066726f6d20746865207a65726f2061646472657360008201527f7300000000000000000000000000000000000000000000000000000000000000602082015250565b6000611785602183610eb4565b915061179082611729565b604082019050919050565b600060208201905081810360008301526117b481611778565b9050919050565b7f45524332303a206275726e20616d6f756e7420657863656564732062616c616e60008201527f6365000000000000000000000000000000000000000000000000000000000000602082015250565b6000611817602283610eb4565b9150611822826117bb565b604082019050919050565b600060208201905081810360008301526118468161180a565b9050919050565b600061185882610fc7565b915061186383610fc7565b925082821015611876576118756111f4565b5b82820390509291505056fea26469706673582212208259ae3e9924aaa8d6db38dd93ec266705b3c6d0c8d39f14aacf495e465edd8e64736f6c634300080d0033608060405234801561001057600080fd5b506101a2806100206000396000f3fe60806040526004361061001e5760003560e01c80630d61b51914610023575b600080fd5b61003d600480360381019061003891906100b8565b61003f565b005b7f32c8827c44bf4e71963135be394d95e34ec7302da6f5d8fca5439557863a33f433823460405161007293929190610135565b60405180910390a150565b600080fd5b6000819050919050565b61009581610082565b81146100a057600080fd5b50565b6000813590506100b28161008c565b92915050565b6000602082840312156100ce576100cd61007d565b5b60006100dc848285016100a3565b91505092915050565b600073ffffffffffffffffffffffffffffffffffffffff82169050919050565b6000610110826100e5565b9050919050565b61012081610105565b82525050565b61012f81610082565b82525050565b600060608201905061014a6000830186610117565b6101576020830185610126565b6101646040830184610126565b94935050505056fea26469706673582212208ae18623bc99b0484242dda1afea310faccd9ba0fde5b11d0e9a37874b9d88a564736f6c634300080d0033a2646970667358221220a649a967cb994e82eb1571bd1123c8f1fe258150e5db442fea4053674d76a25664736f6c634300080d0033",
			"opcodes": "PUSH1 0x80 PUSH1 0x40 MSTORE PUSH20 0x0 PUSH4 0xCE88B145 PUSH1 0x0 PUSH1 0x40 MLOAD DUP3 PUSH4 0xFFFFFFFF AND PUSH1 0xE0 SHL DUP2 MSTORE PUSH1 0x4 ADD PUSH3 0x3E SWAP2 SWAP1 PUSH3 0x425 JUMP JUMPDEST PUSH1 0x20 PUSH1 0x40 MLOAD DUP1 DUP4 SUB DUP2 DUP7 GAS DELEGATECALL ISZERO DUP1 ISZERO PUSH3 0x5C JUMPI RETURNDATASIZE PUSH1 0x0 DUP1 RETURNDATACOPY RETURNDATASIZE PUSH1 0x0 REVERT JUMPDEST POP POP POP POP PUSH1 0x40 MLOAD RETURNDATASIZE PUSH1 0x1F NOT PUSH1 0x1F DUP3 ADD AND DUP3 ADD DUP1 PUSH1 0x40 MSTORE POP DUP2 ADD SWAP1 PUSH3 0x82 SWAP2 SWAP1 PUSH3 0x4AC JUMP JUMPDEST PUSH1 0x1 PUSH1 0x0 PUSH2 0x100 EXP DUP2 SLOAD DUP2 PUSH20 0xFFFFFFFFFFFFFFFFFFFFFFFFFFFFFFFFFFFFFFFF MUL NOT AND SWAP1 DUP4 PUSH20 0xFFFFFFFFFFFFFFFFFFFFFFFFFFFFFFFFFFFFFFFF AND MUL OR SWAP1 SSTORE POP PUSH20 0x0 PUSH4 0xCE88B145 PUSH1 0x1 PUSH1 0x40 MLOAD DUP3 PUSH4 0xFFFFFFFF AND PUSH1 0xE0 SHL DUP2 MSTORE PUSH1 0x4 ADD PUSH3 0xFC SWAP2 SWAP1 PUSH3 0x521 JUMP JUMPDEST PUSH1 0x20 PUSH1 0x40 MLOAD DUP1 DUP4 SUB DUP2 DUP7 GAS DELEGATECALL ISZERO DUP1 ISZERO PUSH3 0x11A JUMPI RETURNDATASIZE PUSH1 0x0 DUP1 RETURNDATACOPY RETURNDATASIZE PUSH1 0x0 REVERT JUMPDEST POP POP POP POP PUSH1 0x40 MLOAD RETURNDATASIZE PUSH1 0x1F NOT PUSH1 0x1F DUP3 ADD AND DUP3 ADD DUP1 PUSH1 0x40 MSTORE POP DUP2 ADD SWAP1 PUSH3 0x140 SWAP2 SWAP1 PUSH3 0x4AC JUMP JUMPDEST PUSH1 0x2 PUSH1 0x0 PUSH2 0x100 EXP DUP2 SLOAD DUP2 PUSH20 0xFFFFFFFFFFFFFFFFFFFFFFFFFFFFFFFFFFFFFFFF MUL NOT AND SWAP1 DUP4 PUSH20 0xFFFFFFFFFFFFFFFFFFFFFFFFFFFFFFFFFFFFFFFF AND MUL OR SWAP1 SSTORE POP PUSH20 0x0 PUSH4 0xCE88B145 PUSH1 0x2 PUSH1 0x40 MLOAD DUP3 PUSH4 0xFFFFFFFF AND PUSH1 0xE0 SHL DUP2 MSTORE PUSH1 0x4 ADD PUSH3 0x1BA SWAP2 SWAP1 PUSH3 0x581 JUMP JUMPDEST PUSH1 0x20 PUSH1 0x40 MLOAD DUP1 DUP4 SUB DUP2 DUP7 GAS DELEGATECALL ISZERO DUP1 ISZERO PUSH3 0x1D8 JUMPI RETURNDATASIZE PUSH1 0x0 DUP1 RETURNDATACOPY RETURNDATASIZE PUSH1 0x0 REVERT JUMPDEST POP POP POP POP PUSH1 0x40 MLOAD RETURNDATASIZE PUSH1 0x1F NOT PUSH1 0x1F DUP3 ADD AND DUP3 ADD DUP1 PUSH1 0x40 MSTORE POP DUP2 ADD SWAP1 PUSH3 0x1FE SWAP2 SWAP1 PUSH3 0x4AC JUMP JUMPDEST PUSH1 0x3 PUSH1 0x0 PUSH2 0x100 EXP DUP2 SLOAD DUP2 PUSH20 0xFFFFFFFFFFFFFFFFFFFFFFFFFFFFFFFFFFFFFFFF MUL NOT AND SWAP1 DUP4 PUSH20 0xFFFFFFFFFFFFFFFFFFFFFFFFFFFFFFFFFFFFFFFF AND MUL OR SWAP1 SSTORE POP PUSH20 0x0 PUSH4 0xCE88B145 PUSH1 0x3 PUSH1 0x40 MLOAD DUP3 PUSH4 0xFFFFFFFF AND PUSH1 0xE0 SHL DUP2 MSTORE PUSH1 0x4 ADD PUSH3 0x278 SWAP2 SWAP1 PUSH3 0x5E1 JUMP JUMPDEST PUSH1 0x20 PUSH1 0x40 MLOAD DUP1 DUP4 SUB DUP2 DUP7 GAS DELEGATECALL ISZERO DUP1 ISZERO PUSH3 0x296 JUMPI RETURNDATASIZE PUSH1 0x0 DUP1 RETURNDATACOPY RETURNDATASIZE PUSH1 0x0 REVERT JUMPDEST POP POP POP POP PUSH1 0x40 MLOAD RETURNDATASIZE PUSH1 0x1F NOT PUSH1 0x1F DUP3 ADD AND DUP3 ADD DUP1 PUSH1 0x40 MSTORE POP DUP2 ADD SWAP1 PUSH3 0x2BC SWAP2 SWAP1 PUSH3 0x4AC JUMP JUMPDEST PUSH1 0x4 PUSH1 0x0 PUSH2 0x100 EXP DUP2 SLOAD DUP2 PUSH20 0xFFFFFFFFFFFFFFFFFFFFFFFFFFFFFFFFFFFFFFFF MUL NOT AND SWAP1 DUP4 PUSH20 0xFFFFFFFFFFFFFFFFFFFFFFFFFFFFFFFFFFFFFFFF AND MUL OR SWAP1 SSTORE POP PUSH20 0x0 PUSH4 0xCE88B145 PUSH1 0x4 PUSH1 0x40 MLOAD DUP3 PUSH4 0xFFFFFFFF AND PUSH1 0xE0 SHL DUP2 MSTORE PUSH1 0x4 ADD PUSH3 0x336 SWAP2 SWAP1 PUSH3 0x641 JUMP JUMPDEST PUSH1 0x20 PUSH1 0x40 MLOAD DUP1 DUP4 SUB DUP2 DUP7 GAS DELEGATECALL ISZERO DUP1 ISZERO PUSH3 0x354 JUMPI RETURNDATASIZE PUSH1 0x0 DUP1 RETURNDATACOPY RETURNDATASIZE PUSH1 0x0 REVERT JUMPDEST POP POP POP POP PUSH1 0x40 MLOAD RETURNDATASIZE PUSH1 0x1F NOT PUSH1 0x1F DUP3 ADD AND DUP3 ADD DUP1 PUSH1 0x40 MSTORE POP DUP2 ADD SWAP1 PUSH3 0x37A SWAP2 SWAP1 PUSH3 0x4AC JUMP JUMPDEST PUSH1 0x5 PUSH1 0x0 PUSH2 0x100 EXP DUP2 SLOAD DUP2 PUSH20 0xFFFFFFFFFFFFFFFFFFFFFFFFFFFFFFFFFFFFFFFF MUL NOT AND SWAP1 DUP4 PUSH20 0xFFFFFFFFFFFFFFFFFFFFFFFFFFFFFFFFFFFFFFFF AND MUL OR SWAP1 SSTORE POP CALLVALUE DUP1 ISZERO PUSH3 0x3C7 JUMPI PUSH1 0x0 DUP1 REVERT JUMPDEST POP PUSH3 0x65E JUMP JUMPDEST PUSH1 0x0 DUP2 SWAP1 POP SWAP2 SWAP1 POP JUMP JUMPDEST PUSH1 0x0 DUP2 SWAP1 POP SWAP2 SWAP1 POP JUMP JUMPDEST PUSH1 0x0 DUP2 SWAP1 POP SWAP2 SWAP1 POP JUMP JUMPDEST PUSH1 0x0 PUSH3 0x40D PUSH3 0x407 PUSH3 0x401 DUP5 PUSH3 0x3CE JUMP JUMPDEST PUSH3 0x3E2 JUMP JUMPDEST PUSH3 0x3D8 JUMP JUMPDEST SWAP1 POP SWAP2 SWAP1 POP JUMP JUMPDEST PUSH3 0x41F DUP2 PUSH3 0x3EC JUMP JUMPDEST DUP3 MSTORE POP POP JUMP JUMPDEST PUSH1 0x0 PUSH1 0x20 DUP3 ADD SWAP1 POP PUSH3 0x43C PUSH1 0x0 DUP4 ADD DUP5 PUSH3 0x414 JUMP JUMPDEST SWAP3 SWAP2 POP POP JUMP JUMPDEST PUSH1 0x0 DUP1 REVERT JUMPDEST PUSH1 0x0 PUSH20 0xFFFFFFFFFFFFFFFFFFFFFFFFFFFFFFFFFFFFFFFF DUP3 AND SWAP1 POP SWAP2 SWAP1 POP JUMP JUMPDEST PUSH1 0x0 PUSH3 0x474 DUP3 PUSH3 0x447 JUMP JUMPDEST SWAP1 POP SWAP2 SWAP1 POP JUMP JUMPDEST PUSH3 0x486 DUP2 PUSH3 0x467 JUMP JUMPDEST DUP2 EQ PUSH3 0x492 JUMPI PUSH1 0x0 DUP1 REVERT JUMPDEST POP JUMP JUMPDEST PUSH1 0x0 DUP2 MLOAD SWAP1 POP PUSH3 0x4A6 DUP2 PUSH3 0x47B JUMP JUMPDEST SWAP3 SWAP2 POP POP JUMP JUMPDEST PUSH1 0x0 PUSH1 0x20 DUP3 DUP5 SUB SLT ISZERO PUSH3 0x4C5 JUMPI PUSH3 0x4C4 PUSH3 0x442 JUMP JUMPDEST JUMPDEST PUSH1 0x0 PUSH3 0x4D5 DUP5 DUP3 DUP6 ADD PUSH3 0x495 JUMP JUMPDEST SWAP2 POP POP SWAP3 SWAP2 POP POP JUMP JUMPDEST PUSH1 0x0 DUP2 SWAP1 POP SWAP2 SWAP1 POP JUMP JUMPDEST PUSH1 0x0 PUSH3 0x509 PUSH3 0x503 PUSH3 0x4FD DUP5 PUSH3 0x4DE JUMP JUMPDEST PUSH3 0x3E2 JUMP JUMPDEST PUSH3 0x3D8 JUMP JUMPDEST SWAP1 POP SWAP2 SWAP1 POP JUMP JUMPDEST PUSH3 0x51B DUP2 PUSH3 0x4E8 JUMP JUMPDEST DUP3 MSTORE POP POP JUMP JUMPDEST PUSH1 0x0 PUSH1 0x20 DUP3 ADD SWAP1 POP PUSH3 0x538 PUSH1 0x0 DUP4 ADD DUP5 PUSH3 0x510 JUMP JUMPDEST SWAP3 SWAP2 POP POP JUMP JUMPDEST PUSH1 0x0 DUP2 SWAP1 POP SWAP2 SWAP1 POP JUMP JUMPDEST PUSH1 0x0 PUSH3 0x569 PUSH3 0x563 PUSH3 0x55D DUP5 PUSH3 0x53E JUMP JUMPDEST PUSH3 0x3E2 JUMP JUMPDEST PUSH3 0x3D8 JUMP JUMPDEST SWAP1 POP SWAP2 SWAP1 POP JUMP JUMPDEST PUSH3 0x57B DUP2 PUSH3 0x548 JUMP JUMPDEST DUP3 MSTORE POP POP JUMP JUMPDEST PUSH1 0x0 PUSH1 0x20 DUP3 ADD SWAP1 POP PUSH3 0x598 PUSH1 0x0 DUP4 ADD DUP5 PUSH3 0x570 JUMP JUMPDEST SWAP3 SWAP2 POP POP JUMP JUMPDEST PUSH1 0x0 DUP2 SWAP1 POP SWAP2 SWAP1 POP JUMP JUMPDEST PUSH1 0x0 PUSH3 0x5C9 PUSH3 0x5C3 PUSH3 0x5BD DUP5 PUSH3 0x59E JUMP JUMPDEST PUSH3 0x3E2 JUMP JUMPDEST PUSH3 0x3D8 JUMP JUMPDEST SWAP1 POP SWAP2 SWAP1 POP JUMP JUMPDEST PUSH3 0x5DB DUP2 PUSH3 0x5A8 JUMP JUMPDEST DUP3 MSTORE POP POP JUMP JUMPDEST PUSH1 0x0 PUSH1 0x20 DUP3 ADD SWAP1 POP PUSH3 0x5F8 PUSH1 0x0 DUP4 ADD DUP5 PUSH3 0x5D0 JUMP JUMPDEST SWAP3 SWAP2 POP POP JUMP JUMPDEST PUSH1 0x0 DUP2 SWAP1 POP SWAP2 SWAP1 POP JUMP JUMPDEST PUSH1 0x0 PUSH3 0x629 PUSH3 0x623 PUSH3 0x61D DUP5 PUSH3 0x5FE JUMP JUMPDEST PUSH3 0x3E2 JUMP JUMPDEST PUSH3 0x3D8 JUMP JUMPDEST SWAP1 POP SWAP2 SWAP1 POP JUMP JUMPDEST PUSH3 0x63B DUP2 PUSH3 0x608 JUMP JUMPDEST DUP3 MSTORE POP POP JUMP JUMPDEST PUSH1 0x0 PUSH1 0x20 DUP3 ADD SWAP1 POP PUSH3 0x658 PUSH1 0x0 DUP4 ADD DUP5 PUSH3 0x630 JUMP JUMPDEST SWAP3 SWAP2 POP POP JUMP JUMPDEST PUSH2 0xABD7 DUP1 PUSH3 0x66E PUSH1 0x0 CODECOPY PUSH1 0x0 RETURN INVALID PUSH1 0x80 PUSH1 0x40 MSTORE PUSH1 0x4 CALLDATASIZE LT PUSH3 0xB6 JUMPI PUSH1 0x0 CALLDATALOAD PUSH1 0xE0 SHR DUP1 PUSH4 0x742BAC29 GT PUSH3 0x6D JUMPI DUP1 PUSH4 0x742BAC29 EQ PUSH3 0x11F JUMPI DUP1 PUSH4 0x74CCF335 EQ PUSH3 0x12B JUMPI DUP1 PUSH4 0xC78780FE EQ PUSH3 0x137 JUMPI DUP1 PUSH4 0xD1C1A5FD EQ PUSH3 0x151 JUMPI DUP1 PUSH4 0xE0A0D22E EQ PUSH3 0x15D JUMPI DUP1 PUSH4 0xFEC77B8F EQ PUSH3 0x177 JUMPI PUSH3 0xB6 JUMP JUMPDEST DUP1 PUSH4 0x15242369 EQ PUSH3 0xBB JUMPI DUP1 PUSH4 0x1DE7844F EQ PUSH3 0xD5 JUMPI DUP1 PUSH4 0x3D516AF7 EQ PUSH3 0xE1 JUMPI DUP1 PUSH4 0x61469ED9 EQ PUSH3 0xED JUMPI DUP1 PUSH4 0x6331E7D4 EQ PUSH3 0xF9 JUMPI DUP1 PUSH4 0x71A86634 EQ PUSH3 0x113 JUMPI JUMPDEST PUSH1 0x0 DUP1 REVERT JUMPDEST CALLVALUE DUP1 ISZERO PUSH3 0xC8 JUMPI PUSH1 0x0 DUP1 REVERT JUMPDEST POP PUSH3 0xD3 PUSH3 0x183 JUMP JUMPDEST STOP JUMPDEST PUSH3 0xDF PUSH3 0x3D2 JUMP JUMPDEST STOP JUMPDEST PUSH3 0xEB PUSH3 0x83A JUMP JUMPDEST STOP JUMPDEST PUSH3 0xF7 PUSH3 0xA01 JUMP JUMPDEST STOP JUMPDEST CALLVALUE DUP1 ISZERO PUSH3 0x106 JUMPI PUSH1 0x0 DUP1 REVERT JUMPDEST POP PUSH3 0x111 PUSH3 0xC4E JUMP JUMPDEST STOP JUMPDEST PUSH3 0x11D PUSH3 0xCCD JUMP JUMPDEST STOP JUMPDEST PUSH3 0x129 PUSH3 0x180E JUMP JUMPDEST STOP JUMPDEST PUSH3 0x135 PUSH3 0x1DF5 JUMP JUMPDEST STOP JUMPDEST CALLVALUE DUP1 ISZERO PUSH3 0x144 JUMPI PUSH1 0x0 DUP1 REVERT JUMPDEST POP PUSH3 0x14F PUSH3 0x2042 JUMP JUMPDEST STOP JUMPDEST PUSH3 0x15B PUSH3 0x2457 JUMP JUMPDEST STOP JUMPDEST CALLVALUE DUP1 ISZERO PUSH3 0x16A JUMPI PUSH1 0x0 DUP1 REVERT JUMPDEST POP PUSH3 0x175 PUSH3 0x2889 JUMP JUMPDEST STOP JUMPDEST PUSH3 0x181 PUSH3 0x2AD2 JUMP JUMPDEST STOP JUMPDEST PUSH1 0x0 DUP1 SLOAD SWAP1 PUSH2 0x100 EXP SWAP1 DIV PUSH20 0xFFFFFFFFFFFFFFFFFFFFFFFFFFFFFFFFFFFFFFFF AND PUSH20 0xFFFFFFFFFFFFFFFFFFFFFFFFFFFFFFFFFFFFFFFF AND PUSH4 0xFFFEFD91 PUSH2 0x3E8 PUSH1 0x40 MLOAD DUP3 PUSH4 0xFFFFFFFF AND PUSH1 0xE0 SHL DUP2 MSTORE PUSH1 0x4 ADD PUSH1 0x0 PUSH1 0x40 MLOAD DUP1 DUP4 SUB DUP2 DUP6 DUP9 DUP1 EXTCODESIZE ISZERO DUP1 ISZERO PUSH3 0x1EE JUMPI PUSH1 0x0 DUP1 REVERT JUMPDEST POP GAS CALL ISZERO DUP1 ISZERO PUSH3 0x203 JUMPI RETURNDATASIZE PUSH1 0x0 DUP1 RETURNDATACOPY RETURNDATASIZE PUSH1 0x0 REVERT JUMPDEST POP POP POP POP POP PUSH1 0x0 DUP1 SLOAD SWAP1 PUSH2 0x100 EXP SWAP1 DIV PUSH20 0xFFFFFFFFFFFFFFFFFFFFFFFFFFFFFFFFFFFFFFFF AND PUSH20 0xFFFFFFFFFFFFFFFFFFFFFFFFFFFFFFFFFFFFFFFF AND PUSH4 0xFFFEFD91 PUSH2 0x3E8 PUSH1 0x40 MLOAD DUP3 PUSH4 0xFFFFFFFF AND PUSH1 0xE0 SHL DUP2 MSTORE PUSH1 0x4 ADD PUSH1 0x0 PUSH1 0x40 MLOAD DUP1 DUP4 SUB DUP2 DUP6 DUP9 DUP1 EXTCODESIZE ISZERO DUP1 ISZERO PUSH3 0x273 JUMPI PUSH1 0x0 DUP1 REVERT JUMPDEST POP GAS CALL SWAP4 POP POP POP POP DUP1 ISZERO PUSH3 0x286 JUMPI POP PUSH1 0x1 JUMPDEST PUSH3 0x350 JUMPI PUSH3 0x295 PUSH3 0x31AF JUMP JUMPDEST DUP1 PUSH4 0x8C379A0 SUB PUSH3 0x33E JUMPI POP PUSH3 0x2AC PUSH3 0x3254 JUMP JUMPDEST DUP1 PUSH3 0x2B9 JUMPI POP PUSH3 0x340 JUMP JUMPDEST PUSH20 0x0 PUSH4 0xE8C2CB16 DUP3 PUSH1 0x40 MLOAD DUP3 PUSH4 0xFFFFFFFF AND PUSH1 0xE0 SHL DUP2 MSTORE PUSH1 0x4 ADD PUSH3 0x2F2 SWAP2 SWAP1 PUSH3 0x33FC JUMP JUMPDEST PUSH1 0x20 PUSH1 0x40 MLOAD DUP1 DUP4 SUB DUP2 DUP7 GAS DELEGATECALL ISZERO DUP1 ISZERO PUSH3 0x310 JUMPI RETURNDATASIZE PUSH1 0x0 DUP1 RETURNDATACOPY RETURNDATASIZE PUSH1 0x0 REVERT JUMPDEST POP POP POP POP PUSH1 0x40 MLOAD RETURNDATASIZE PUSH1 0x1F NOT PUSH1 0x1F DUP3 ADD AND DUP3 ADD DUP1 PUSH1 0x40 MSTORE POP DUP2 ADD SWAP1 PUSH3 0x336 SWAP2 SWAP1 PUSH3 0x3491 JUMP JUMPDEST POP POP PUSH3 0x34A JUMP JUMPDEST POP JUMPDEST RETURNDATASIZE PUSH1 0x0 DUP1 RETURNDATACOPY RETURNDATASIZE PUSH1 0x0 REVERT JUMPDEST PUSH3 0x3D0 JUMP JUMPDEST PUSH20 0x0 PUSH4 0x39DF137F PUSH1 0x0 PUSH1 0x40 MLOAD DUP3 PUSH4 0xFFFFFFFF AND PUSH1 0xE0 SHL DUP2 MSTORE PUSH1 0x4 ADD PUSH3 0x38A SWAP2 SWAP1 PUSH3 0x3524 JUMP JUMPDEST PUSH1 0x20 PUSH1 0x40 MLOAD DUP1 DUP4 SUB DUP2 DUP7 GAS DELEGATECALL ISZERO DUP1 ISZERO PUSH3 0x3A8 JUMPI RETURNDATASIZE PUSH1 0x0 DUP1 RETURNDATACOPY RETURNDATASIZE PUSH1 0x0 REVERT JUMPDEST POP POP POP POP PUSH1 0x40 MLOAD RETURNDATASIZE PUSH1 0x1F NOT PUSH1 0x1F DUP3 ADD AND DUP3 ADD DUP1 PUSH1 0x40 MSTORE POP DUP2 ADD SWAP1 PUSH3 0x3CE SWAP2 SWAP1 PUSH3 0x3491 JUMP JUMPDEST POP JUMPDEST JUMP JUMPDEST PUSH1 0x0 DUP1 SLOAD SWAP1 PUSH2 0x100 EXP SWAP1 DIV PUSH20 0xFFFFFFFFFFFFFFFFFFFFFFFFFFFFFFFFFFFFFFFF AND PUSH20 0xFFFFFFFFFFFFFFFFFFFFFFFFFFFFFFFFFFFFFFFF AND PUSH4 0xAFFC0670 PUSH1 0x40 MLOAD DUP2 PUSH4 0xFFFFFFFF AND PUSH1 0xE0 SHL DUP2 MSTORE PUSH1 0x4 ADD PUSH1 0x0 PUSH1 0x40 MLOAD DUP1 DUP4 SUB DUP2 PUSH1 0x0 DUP8 DUP1 EXTCODESIZE ISZERO DUP1 ISZERO PUSH3 0x43B JUMPI PUSH1 0x0 DUP1 REVERT JUMPDEST POP GAS CALL ISZERO DUP1 ISZERO PUSH3 0x450 JUMPI RETURNDATASIZE PUSH1 0x0 DUP1 RETURNDATACOPY RETURNDATASIZE PUSH1 0x0 REVERT JUMPDEST POP POP POP POP PUSH1 0x0 DUP1 SLOAD SWAP1 PUSH2 0x100 EXP SWAP1 DIV PUSH20 0xFFFFFFFFFFFFFFFFFFFFFFFFFFFFFFFFFFFFFFFF AND PUSH20 0xFFFFFFFFFFFFFFFFFFFFFFFFFFFFFFFFFFFFFFFF AND PUSH4 0xFFFEFD91 PUSH2 0x3E8 PUSH1 0x40 MLOAD DUP3 PUSH4 0xFFFFFFFF AND PUSH1 0xE0 SHL DUP2 MSTORE PUSH1 0x4 ADD PUSH1 0x0 PUSH1 0x40 MLOAD DUP1 DUP4 SUB DUP2 DUP6 DUP9 DUP1 EXTCODESIZE ISZERO DUP1 ISZERO PUSH3 0x4BF JUMPI PUSH1 0x0 DUP1 REVERT JUMPDEST POP GAS CALL ISZERO DUP1 ISZERO PUSH3 0x4D4 JUMPI RETURNDATASIZE PUSH1 0x0 DUP1 RETURNDATACOPY RETURNDATASIZE PUSH1 0x0 REVERT JUMPDEST POP POP POP POP POP PUSH1 0x0 DUP1 PUSH1 0x0 SWAP1 SLOAD SWAP1 PUSH2 0x100 EXP SWAP1 DIV PUSH20 0xFFFFFFFFFFFFFFFFFFFFFFFFFFFFFFFFFFFFFFFF AND PUSH20 0xFFFFFFFFFFFFFFFFFFFFFFFFFFFFFFFFFFFFFFFF AND PUSH4 0x9AB3F7A6 PUSH2 0x3E8 ADDRESS PUSH1 0x40 MLOAD DUP4 PUSH4 0xFFFFFFFF AND PUSH1 0xE0 SHL DUP2 MSTORE PUSH1 0x4 ADD PUSH3 0x53B SWAP3 SWAP2 SWAP1 PUSH3 0x36A3 JUMP JUMPDEST PUSH1 0x20 PUSH1 0x40 MLOAD DUP1 DUP4 SUB DUP2 PUSH1 0x0 DUP8 GAS CALL ISZERO DUP1 ISZERO PUSH3 0x55B JUMPI RETURNDATASIZE PUSH1 0x0 DUP1 RETURNDATACOPY RETURNDATASIZE PUSH1 0x0 REVERT JUMPDEST POP POP POP POP PUSH1 0x40 MLOAD RETURNDATASIZE PUSH1 0x1F NOT PUSH1 0x1F DUP3 ADD AND DUP3 ADD DUP1 PUSH1 0x40 MSTORE POP DUP2 ADD SWAP1 PUSH3 0x581 SWAP2 SWAP1 PUSH3 0x372B JUMP JUMPDEST SWAP1 POP PUSH1 0x0 DUP1 PUSH1 0x0 DUP1 PUSH1 0x0 DUP1 SLOAD SWAP1 PUSH2 0x100 EXP SWAP1 DIV PUSH20 0xFFFFFFFFFFFFFFFFFFFFFFFFFFFFFFFFFFFFFFFF AND PUSH20 0xFFFFFFFFFFFFFFFFFFFFFFFFFFFFFFFFFFFFFFFF AND PUSH4 0xBC903CB8 DUP7 PUSH1 0x40 MLOAD DUP3 PUSH4 0xFFFFFFFF AND PUSH1 0xE0 SHL DUP2 MSTORE PUSH1 0x4 ADD PUSH3 0x5E4 SWAP2 SWAP1 PUSH3 0x376E JUMP JUMPDEST PUSH1 0x0 PUSH1 0x40 MLOAD DUP1 DUP4 SUB DUP2 DUP7 GAS STATICCALL ISZERO DUP1 ISZERO PUSH3 0x602 JUMPI RETURNDATASIZE PUSH1 0x0 DUP1 RETURNDATACOPY RETURNDATASIZE PUSH1 0x0 REVERT JUMPDEST POP POP POP POP PUSH1 0x40 MLOAD RETURNDATASIZE PUSH1 0x0 DUP3 RETURNDATACOPY RETURNDATASIZE PUSH1 0x1F NOT PUSH1 0x1F DUP3 ADD AND DUP3 ADD DUP1 PUSH1 0x40 MSTORE POP DUP2 ADD SWAP1 PUSH3 0x62D SWAP2 SWAP1 PUSH3 0x3899 JUMP JUMPDEST SWAP4 POP SWAP4 POP SWAP4 POP SWAP4 POP PUSH20 0x0 PUSH4 0xE8C2CB16 DUP6 PUSH1 0x40 MLOAD DUP3 PUSH4 0xFFFFFFFF AND PUSH1 0xE0 SHL DUP2 MSTORE PUSH1 0x4 ADD PUSH3 0x66E SWAP2 SWAP1 PUSH3 0x3970 JUMP JUMPDEST PUSH1 0x20 PUSH1 0x40 MLOAD DUP1 DUP4 SUB DUP2 DUP7 GAS DELEGATECALL ISZERO DUP1 ISZERO PUSH3 0x68C JUMPI RETURNDATASIZE PUSH1 0x0 DUP1 RETURNDATACOPY RETURNDATASIZE PUSH1 0x0 REVERT JUMPDEST POP POP POP POP PUSH1 0x40 MLOAD RETURNDATASIZE PUSH1 0x1F NOT PUSH1 0x1F DUP3 ADD AND DUP3 ADD DUP1 PUSH1 0x40 MSTORE POP DUP2 ADD SWAP1 PUSH3 0x6B2 SWAP2 SWAP1 PUSH3 0x3491 JUMP JUMPDEST POP PUSH20 0x0 PUSH4 0xE8C2CB16 DUP5 PUSH1 0x40 MLOAD DUP3 PUSH4 0xFFFFFFFF AND PUSH1 0xE0 SHL DUP2 MSTORE PUSH1 0x4 ADD PUSH3 0x6EC SWAP2 SWAP1 PUSH3 0x39E5 JUMP JUMPDEST PUSH1 0x20 PUSH1 0x40 MLOAD DUP1 DUP4 SUB DUP2 DUP7 GAS DELEGATECALL ISZERO DUP1 ISZERO PUSH3 0x70A JUMPI RETURNDATASIZE PUSH1 0x0 DUP1 RETURNDATACOPY RETURNDATASIZE PUSH1 0x0 REVERT JUMPDEST POP POP POP POP PUSH1 0x40 MLOAD RETURNDATASIZE PUSH1 0x1F NOT PUSH1 0x1F DUP3 ADD AND DUP3 ADD DUP1 PUSH1 0x40 MSTORE POP DUP2 ADD SWAP1 PUSH3 0x730 SWAP2 SWAP1 PUSH3 0x3491 JUMP JUMPDEST POP PUSH20 0x0 PUSH4 0xABCD7960 DUP4 PUSH2 0x3E8 PUSH1 0x40 MLOAD DUP4 PUSH4 0xFFFFFFFF AND PUSH1 0xE0 SHL DUP2 MSTORE PUSH1 0x4 ADD PUSH3 0x76E SWAP3 SWAP2 SWAP1 PUSH3 0x3A55 JUMP JUMPDEST PUSH1 0x20 PUSH1 0x40 MLOAD DUP1 DUP4 SUB DUP2 DUP7 GAS DELEGATECALL ISZERO DUP1 ISZERO PUSH3 0x78C JUMPI RETURNDATASIZE PUSH1 0x0 DUP1 RETURNDATACOPY RETURNDATASIZE PUSH1 0x0 REVERT JUMPDEST POP POP POP POP PUSH1 0x40 MLOAD RETURNDATASIZE PUSH1 0x1F NOT PUSH1 0x1F DUP3 ADD AND DUP3 ADD DUP1 PUSH1 0x40 MSTORE POP DUP2 ADD SWAP1 PUSH3 0x7B2 SWAP2 SWAP1 PUSH3 0x3491 JUMP JUMPDEST POP PUSH20 0x0 PUSH4 0xBFBA5DD6 DUP3 ADDRESS PUSH1 0x40 MLOAD DUP4 PUSH4 0xFFFFFFFF AND PUSH1 0xE0 SHL DUP2 MSTORE PUSH1 0x4 ADD PUSH3 0x7EE SWAP3 SWAP2 SWAP1 PUSH3 0x3AA8 JUMP JUMPDEST PUSH1 0x20 PUSH1 0x40 MLOAD DUP1 DUP4 SUB DUP2 DUP7 GAS DELEGATECALL ISZERO DUP1 ISZERO PUSH3 0x80C JUMPI RETURNDATASIZE PUSH1 0x0 DUP1 RETURNDATACOPY RETURNDATASIZE PUSH1 0x0 REVERT JUMPDEST POP POP POP POP PUSH1 0x40 MLOAD RETURNDATASIZE PUSH1 0x1F NOT PUSH1 0x1F DUP3 ADD AND DUP3 ADD DUP1 PUSH1 0x40 MSTORE POP DUP2 ADD SWAP1 PUSH3 0x832 SWAP2 SWAP1 PUSH3 0x3491 JUMP JUMPDEST POP POP POP POP POP POP JUMP JUMPDEST PUSH1 0x0 DUP1 SLOAD SWAP1 PUSH2 0x100 EXP SWAP1 DIV PUSH20 0xFFFFFFFFFFFFFFFFFFFFFFFFFFFFFFFFFFFFFFFF AND PUSH20 0xFFFFFFFFFFFFFFFFFFFFFFFFFFFFFFFFFFFFFFFF AND PUSH4 0xD0FEBE4C PUSH1 0x40 MLOAD DUP2 PUSH4 0xFFFFFFFF AND PUSH1 0xE0 SHL DUP2 MSTORE PUSH1 0x4 ADD PUSH1 0x0 PUSH1 0x40 MLOAD DUP1 DUP4 SUB DUP2 PUSH1 0x0 DUP8 DUP1 EXTCODESIZE ISZERO DUP1 ISZERO PUSH3 0x8A3 JUMPI PUSH1 0x0 DUP1 REVERT JUMPDEST POP GAS CALL SWAP3 POP POP POP DUP1 ISZERO PUSH3 0x8B5 JUMPI POP PUSH1 0x1 JUMPDEST PUSH3 0x97F JUMPI PUSH3 0x8C4 PUSH3 0x31AF JUMP JUMPDEST DUP1 PUSH4 0x8C379A0 SUB PUSH3 0x96D JUMPI POP PUSH3 0x8DB PUSH3 0x3254 JUMP JUMPDEST DUP1 PUSH3 0x8E8 JUMPI POP PUSH3 0x96F JUMP JUMPDEST PUSH20 0x0 PUSH4 0xE8C2CB16 DUP3 PUSH1 0x40 MLOAD DUP3 PUSH4 0xFFFFFFFF AND PUSH1 0xE0 SHL DUP2 MSTORE PUSH1 0x4 ADD PUSH3 0x921 SWAP2 SWAP1 PUSH3 0x3B3A JUMP JUMPDEST PUSH1 0x20 PUSH1 0x40 MLOAD DUP1 DUP4 SUB DUP2 DUP7 GAS DELEGATECALL ISZERO DUP1 ISZERO PUSH3 0x93F JUMPI RETURNDATASIZE PUSH1 0x0 DUP1 RETURNDATACOPY RETURNDATASIZE PUSH1 0x0 REVERT JUMPDEST POP POP POP POP PUSH1 0x40 MLOAD RETURNDATASIZE PUSH1 0x1F NOT PUSH1 0x1F DUP3 ADD AND DUP3 ADD DUP1 PUSH1 0x40 MSTORE POP DUP2 ADD SWAP1 PUSH3 0x965 SWAP2 SWAP1 PUSH3 0x3491 JUMP JUMPDEST POP POP PUSH3 0x979 JUMP JUMPDEST POP JUMPDEST RETURNDATASIZE PUSH1 0x0 DUP1 RETURNDATACOPY RETURNDATASIZE PUSH1 0x0 REVERT JUMPDEST PUSH3 0x9FF JUMP JUMPDEST PUSH20 0x0 PUSH4 0x39DF137F PUSH1 0x0 PUSH1 0x40 MLOAD DUP3 PUSH4 0xFFFFFFFF AND PUSH1 0xE0 SHL DUP2 MSTORE PUSH1 0x4 ADD PUSH3 0x9B9 SWAP2 SWAP1 PUSH3 0x3BD8 JUMP JUMPDEST PUSH1 0x20 PUSH1 0x40 MLOAD DUP1 DUP4 SUB DUP2 DUP7 GAS DELEGATECALL ISZERO DUP1 ISZERO PUSH3 0x9D7 JUMPI RETURNDATASIZE PUSH1 0x0 DUP1 RETURNDATACOPY RETURNDATASIZE PUSH1 0x0 REVERT JUMPDEST POP POP POP POP PUSH1 0x40 MLOAD RETURNDATASIZE PUSH1 0x1F NOT PUSH1 0x1F DUP3 ADD AND DUP3 ADD DUP1 PUSH1 0x40 MSTORE POP DUP2 ADD SWAP1 PUSH3 0x9FD SWAP2 SWAP1 PUSH3 0x3491 JUMP JUMPDEST POP JUMPDEST JUMP JUMPDEST PUSH1 0x0 DUP1 SLOAD SWAP1 PUSH2 0x100 EXP SWAP1 DIV PUSH20 0xFFFFFFFFFFFFFFFFFFFFFFFFFFFFFFFFFFFFFFFF AND PUSH20 0xFFFFFFFFFFFFFFFFFFFFFFFFFFFFFFFFFFFFFFFF AND PUSH4 0xFFFEFD91 PUSH1 0xA PUSH1 0x40 MLOAD DUP3 PUSH4 0xFFFFFFFF AND PUSH1 0xE0 SHL DUP2 MSTORE PUSH1 0x4 ADD PUSH1 0x0 PUSH1 0x40 MLOAD DUP1 DUP4 SUB DUP2 DUP6 DUP9 DUP1 EXTCODESIZE ISZERO DUP1 ISZERO PUSH3 0xA6B JUMPI PUSH1 0x0 DUP1 REVERT JUMPDEST POP GAS CALL ISZERO DUP1 ISZERO PUSH3 0xA80 JUMPI RETURNDATASIZE PUSH1 0x0 DUP1 RETURNDATACOPY RETURNDATASIZE PUSH1 0x0 REVERT JUMPDEST POP POP POP POP POP PUSH1 0x0 DUP1 SLOAD SWAP1 PUSH2 0x100 EXP SWAP1 DIV PUSH20 0xFFFFFFFFFFFFFFFFFFFFFFFFFFFFFFFFFFFFFFFF AND PUSH20 0xFFFFFFFFFFFFFFFFFFFFFFFFFFFFFFFFFFFFFFFF AND PUSH4 0xD0FEBE4C PUSH1 0x5 PUSH1 0x40 MLOAD DUP3 PUSH4 0xFFFFFFFF AND PUSH1 0xE0 SHL DUP2 MSTORE PUSH1 0x4 ADD PUSH1 0x0 PUSH1 0x40 MLOAD DUP1 DUP4 SUB DUP2 DUP6 DUP9 DUP1 EXTCODESIZE ISZERO DUP1 ISZERO PUSH3 0xAEF JUMPI PUSH1 0x0 DUP1 REVERT JUMPDEST POP GAS CALL SWAP4 POP POP POP POP DUP1 ISZERO PUSH3 0xB02 JUMPI POP PUSH1 0x1 JUMPDEST PUSH3 0xBCC JUMPI PUSH3 0xB11 PUSH3 0x31AF JUMP JUMPDEST DUP1 PUSH4 0x8C379A0 SUB PUSH3 0xBBA JUMPI POP PUSH3 0xB28 PUSH3 0x3254 JUMP JUMPDEST DUP1 PUSH3 0xB35 JUMPI POP PUSH3 0xBBC JUMP JUMPDEST PUSH20 0x0 PUSH4 0xE8C2CB16 DUP3 PUSH1 0x40 MLOAD DUP3 PUSH4 0xFFFFFFFF AND PUSH1 0xE0 SHL DUP2 MSTORE PUSH1 0x4 ADD PUSH3 0xB6E SWAP2 SWAP1 PUSH3 0x3C80 JUMP JUMPDEST PUSH1 0x20 PUSH1 0x40 MLOAD DUP1 DUP4 SUB DUP2 DUP7 GAS DELEGATECALL ISZERO DUP1 ISZERO PUSH3 0xB8C JUMPI RETURNDATASIZE PUSH1 0x0 DUP1 RETURNDATACOPY RETURNDATASIZE PUSH1 0x0 REVERT JUMPDEST POP POP POP POP PUSH1 0x40 MLOAD RETURNDATASIZE PUSH1 0x1F NOT PUSH1 0x1F DUP3 ADD AND DUP3 ADD DUP1 PUSH1 0x40 MSTORE POP DUP2 ADD SWAP1 PUSH3 0xBB2 SWAP2 SWAP1 PUSH3 0x3491 JUMP JUMPDEST POP POP PUSH3 0xBC6 JUMP JUMPDEST POP JUMPDEST RETURNDATASIZE PUSH1 0x0 DUP1 RETURNDATACOPY RETURNDATASIZE PUSH1 0x0 REVERT JUMPDEST PUSH3 0xC4C JUMP JUMPDEST PUSH20 0x0 PUSH4 0x39DF137F PUSH1 0x0 PUSH1 0x40 MLOAD DUP3 PUSH4 0xFFFFFFFF AND PUSH1 0xE0 SHL DUP2 MSTORE PUSH1 0x4 ADD PUSH3 0xC06 SWAP2 SWAP1 PUSH3 0x3BD8 JUMP JUMPDEST PUSH1 0x20 PUSH1 0x40 MLOAD DUP1 DUP4 SUB DUP2 DUP7 GAS DELEGATECALL ISZERO DUP1 ISZERO PUSH3 0xC24 JUMPI RETURNDATASIZE PUSH1 0x0 DUP1 RETURNDATACOPY RETURNDATASIZE PUSH1 0x0 REVERT JUMPDEST POP POP POP POP PUSH1 0x40 MLOAD RETURNDATASIZE PUSH1 0x1F NOT PUSH1 0x1F DUP3 ADD AND DUP3 ADD DUP1 PUSH1 0x40 MSTORE POP DUP2 ADD SWAP1 PUSH3 0xC4A SWAP2 SWAP1 PUSH3 0x3491 JUMP JUMPDEST POP JUMPDEST JUMP JUMPDEST PUSH1 0xA PUSH2 0x2710 PUSH1 0x40 MLOAD PUSH3 0xC61 SWAP1 PUSH3 0x3186 JUMP JUMPDEST PUSH3 0xC6E SWAP3 SWAP2 SWAP1 PUSH3 0x3D54 JUMP JUMPDEST PUSH1 0x40 MLOAD DUP1 SWAP2 SUB SWAP1 PUSH1 0x0 CREATE DUP1 ISZERO DUP1 ISZERO PUSH3 0xC8B JUMPI RETURNDATASIZE PUSH1 0x0 DUP1 RETURNDATACOPY RETURNDATASIZE PUSH1 0x0 REVERT JUMPDEST POP PUSH1 0x0 DUP1 PUSH2 0x100 EXP DUP2 SLOAD DUP2 PUSH20 0xFFFFFFFFFFFFFFFFFFFFFFFFFFFFFFFFFFFFFFFF MUL NOT AND SWAP1 DUP4 PUSH20 0xFFFFFFFFFFFFFFFFFFFFFFFFFFFFFFFFFFFFFFFF AND MUL OR SWAP1 SSTORE POP JUMP JUMPDEST PUSH1 0x0 DUP1 SLOAD SWAP1 PUSH2 0x100 EXP SWAP1 DIV PUSH20 0xFFFFFFFFFFFFFFFFFFFFFFFFFFFFFFFFFFFFFFFF AND PUSH20 0xFFFFFFFFFFFFFFFFFFFFFFFFFFFFFFFFFFFFFFFF AND PUSH4 0x9AB3F7A6 PUSH2 0x3E8 PUSH1 0x0 PUSH1 0x40 MLOAD DUP4 PUSH4 0xFFFFFFFF AND PUSH1 0xE0 SHL DUP2 MSTORE PUSH1 0x4 ADD PUSH3 0xD2D SWAP3 SWAP2 SWAP1 PUSH3 0x3DD1 JUMP JUMPDEST PUSH1 0x20 PUSH1 0x40 MLOAD DUP1 DUP4 SUB DUP2 PUSH1 0x0 DUP8 GAS CALL SWAP3 POP POP POP DUP1 ISZERO PUSH3 0xD6C JUMPI POP PUSH1 0x40 MLOAD RETURNDATASIZE PUSH1 0x1F NOT PUSH1 0x1F DUP3 ADD AND DUP3 ADD DUP1 PUSH1 0x40 MSTORE POP DUP2 ADD SWAP1 PUSH3 0xD69 SWAP2 SWAP1 PUSH3 0x372B JUMP JUMPDEST PUSH1 0x1 JUMPDEST PUSH3 0xE36 JUMPI PUSH3 0xD7B PUSH3 0x31AF JUMP JUMPDEST DUP1 PUSH4 0x8C379A0 SUB PUSH3 0xE24 JUMPI POP PUSH3 0xD92 PUSH3 0x3254 JUMP JUMPDEST DUP1 PUSH3 0xD9F JUMPI POP PUSH3 0xE26 JUMP JUMPDEST PUSH20 0x0 PUSH4 0xE8C2CB16 DUP3 PUSH1 0x40 MLOAD DUP3 PUSH4 0xFFFFFFFF AND PUSH1 0xE0 SHL DUP2 MSTORE PUSH1 0x4 ADD PUSH3 0xDD8 SWAP2 SWAP1 PUSH3 0x3E78 JUMP JUMPDEST PUSH1 0x20 PUSH1 0x40 MLOAD DUP1 DUP4 SUB DUP2 DUP7 GAS DELEGATECALL ISZERO DUP1 ISZERO PUSH3 0xDF6 JUMPI RETURNDATASIZE PUSH1 0x0 DUP1 RETURNDATACOPY RETURNDATASIZE PUSH1 0x0 REVERT JUMPDEST POP POP POP POP PUSH1 0x40 MLOAD RETURNDATASIZE PUSH1 0x1F NOT PUSH1 0x1F DUP3 ADD AND DUP3 ADD DUP1 PUSH1 0x40 MSTORE POP DUP2 ADD SWAP1 PUSH3 0xE1C SWAP2 SWAP1 PUSH3 0x3491 JUMP JUMPDEST POP POP PUSH3 0xE30 JUMP JUMPDEST POP JUMPDEST RETURNDATASIZE PUSH1 0x0 DUP1 RETURNDATACOPY RETURNDATASIZE PUSH1 0x0 REVERT JUMPDEST PUSH3 0xEB7 JUMP JUMPDEST POP PUSH20 0x0 PUSH4 0x39DF137F PUSH1 0x0 PUSH1 0x40 MLOAD DUP3 PUSH4 0xFFFFFFFF AND PUSH1 0xE0 SHL DUP2 MSTORE PUSH1 0x4 ADD PUSH3 0xE71 SWAP2 SWAP1 PUSH3 0x3524 JUMP JUMPDEST PUSH1 0x20 PUSH1 0x40 MLOAD DUP1 DUP4 SUB DUP2 DUP7 GAS DELEGATECALL ISZERO DUP1 ISZERO PUSH3 0xE8F JUMPI RETURNDATASIZE PUSH1 0x0 DUP1 RETURNDATACOPY RETURNDATASIZE PUSH1 0x0 REVERT JUMPDEST POP POP POP POP PUSH1 0x40 MLOAD RETURNDATASIZE PUSH1 0x1F NOT PUSH1 0x1F DUP3 ADD AND DUP3 ADD DUP1 PUSH1 0x40 MSTORE POP DUP2 ADD SWAP1 PUSH3 0xEB5 SWAP2 SWAP1 PUSH3 0x3491 JUMP JUMPDEST POP JUMPDEST PUSH1 0x0 DUP1 SLOAD SWAP1 PUSH2 0x100 EXP SWAP1 DIV PUSH20 0xFFFFFFFFFFFFFFFFFFFFFFFFFFFFFFFFFFFFFFFF AND PUSH20 0xFFFFFFFFFFFFFFFFFFFFFFFFFFFFFFFFFFFFFFFF AND PUSH4 0xAFFC0670 PUSH1 0x40 MLOAD DUP2 PUSH4 0xFFFFFFFF AND PUSH1 0xE0 SHL DUP2 MSTORE PUSH1 0x4 ADD PUSH1 0x0 PUSH1 0x40 MLOAD DUP1 DUP4 SUB DUP2 PUSH1 0x0 DUP8 DUP1 EXTCODESIZE ISZERO DUP1 ISZERO PUSH3 0xF20 JUMPI PUSH1 0x0 DUP1 REVERT JUMPDEST POP GAS CALL ISZERO DUP1 ISZERO PUSH3 0xF35 JUMPI RETURNDATASIZE PUSH1 0x0 DUP1 RETURNDATACOPY RETURNDATASIZE PUSH1 0x0 REVERT JUMPDEST POP POP POP POP PUSH1 0x0 DUP1 SLOAD SWAP1 PUSH2 0x100 EXP SWAP1 DIV PUSH20 0xFFFFFFFFFFFFFFFFFFFFFFFFFFFFFFFFFFFFFFFF AND PUSH20 0xFFFFFFFFFFFFFFFFFFFFFFFFFFFFFFFFFFFFFFFF AND PUSH4 0x9AB3F7A6 PUSH2 0x3E8 PUSH1 0x0 PUSH1 0x40 MLOAD DUP4 PUSH4 0xFFFFFFFF AND PUSH1 0xE0 SHL DUP2 MSTORE PUSH1 0x4 ADD PUSH3 0xF99 SWAP3 SWAP2 SWAP1 PUSH3 0x3DD1 JUMP JUMPDEST PUSH1 0x20 PUSH1 0x40 MLOAD DUP1 DUP4 SUB DUP2 PUSH1 0x0 DUP8 GAS CALL SWAP3 POP POP POP DUP1 ISZERO PUSH3 0xFD8 JUMPI POP PUSH1 0x40 MLOAD RETURNDATASIZE PUSH1 0x1F NOT PUSH1 0x1F DUP3 ADD AND DUP3 ADD DUP1 PUSH1 0x40 MSTORE POP DUP2 ADD SWAP1 PUSH3 0xFD5 SWAP2 SWAP1 PUSH3 0x372B JUMP JUMPDEST PUSH1 0x1 JUMPDEST PUSH3 0x10A2 JUMPI PUSH3 0xFE7 PUSH3 0x31AF JUMP JUMPDEST DUP1 PUSH4 0x8C379A0 SUB PUSH3 0x1090 JUMPI POP PUSH3 0xFFE PUSH3 0x3254 JUMP JUMPDEST DUP1 PUSH3 0x100B JUMPI POP PUSH3 0x1092 JUMP JUMPDEST PUSH20 0x0 PUSH4 0xE8C2CB16 DUP3 PUSH1 0x40 MLOAD DUP3 PUSH4 0xFFFFFFFF AND PUSH1 0xE0 SHL DUP2 MSTORE PUSH1 0x4 ADD PUSH3 0x1044 SWAP2 SWAP1 PUSH3 0x3B3A JUMP JUMPDEST PUSH1 0x20 PUSH1 0x40 MLOAD DUP1 DUP4 SUB DUP2 DUP7 GAS DELEGATECALL ISZERO DUP1 ISZERO PUSH3 0x1062 JUMPI RETURNDATASIZE PUSH1 0x0 DUP1 RETURNDATACOPY RETURNDATASIZE PUSH1 0x0 REVERT JUMPDEST POP POP POP POP PUSH1 0x40 MLOAD RETURNDATASIZE PUSH1 0x1F NOT PUSH1 0x1F DUP3 ADD AND DUP3 ADD DUP1 PUSH1 0x40 MSTORE POP DUP2 ADD SWAP1 PUSH3 0x1088 SWAP2 SWAP1 PUSH3 0x3491 JUMP JUMPDEST POP POP PUSH3 0x109C JUMP JUMPDEST POP JUMPDEST RETURNDATASIZE PUSH1 0x0 DUP1 RETURNDATACOPY RETURNDATASIZE PUSH1 0x0 REVERT JUMPDEST PUSH3 0x1123 JUMP JUMPDEST POP PUSH20 0x0 PUSH4 0x39DF137F PUSH1 0x0 PUSH1 0x40 MLOAD DUP3 PUSH4 0xFFFFFFFF AND PUSH1 0xE0 SHL DUP2 MSTORE PUSH1 0x4 ADD PUSH3 0x10DD SWAP2 SWAP1 PUSH3 0x3524 JUMP JUMPDEST PUSH1 0x20 PUSH1 0x40 MLOAD DUP1 DUP4 SUB DUP2 DUP7 GAS DELEGATECALL ISZERO DUP1 ISZERO PUSH3 0x10FB JUMPI RETURNDATASIZE PUSH1 0x0 DUP1 RETURNDATACOPY RETURNDATASIZE PUSH1 0x0 REVERT JUMPDEST POP POP POP POP PUSH1 0x40 MLOAD RETURNDATASIZE PUSH1 0x1F NOT PUSH1 0x1F DUP3 ADD AND DUP3 ADD DUP1 PUSH1 0x40 MSTORE POP DUP2 ADD SWAP1 PUSH3 0x1121 SWAP2 SWAP1 PUSH3 0x3491 JUMP JUMPDEST POP JUMPDEST PUSH1 0x0 DUP1 SLOAD SWAP1 PUSH2 0x100 EXP SWAP1 DIV PUSH20 0xFFFFFFFFFFFFFFFFFFFFFFFFFFFFFFFFFFFFFFFF AND PUSH20 0xFFFFFFFFFFFFFFFFFFFFFFFFFFFFFFFFFFFFFFFF AND PUSH4 0xFFFEFD91 PUSH2 0x3E8 PUSH1 0x40 MLOAD DUP3 PUSH4 0xFFFFFFFF AND PUSH1 0xE0 SHL DUP2 MSTORE PUSH1 0x4 ADD PUSH1 0x0 PUSH1 0x40 MLOAD DUP1 DUP4 SUB DUP2 DUP6 DUP9 DUP1 EXTCODESIZE ISZERO DUP1 ISZERO PUSH3 0x118E JUMPI PUSH1 0x0 DUP1 REVERT JUMPDEST POP GAS CALL ISZERO DUP1 ISZERO PUSH3 0x11A3 JUMPI RETURNDATASIZE PUSH1 0x0 DUP1 RETURNDATACOPY RETURNDATASIZE PUSH1 0x0 REVERT JUMPDEST POP POP POP POP POP PUSH1 0x0 DUP1 SLOAD SWAP1 PUSH2 0x100 EXP SWAP1 DIV PUSH20 0xFFFFFFFFFFFFFFFFFFFFFFFFFFFFFFFFFFFFFFFF AND PUSH20 0xFFFFFFFFFFFFFFFFFFFFFFFFFFFFFFFFFFFFFFFF AND PUSH4 0x9AB3F7A6 PUSH2 0x3E8 PUSH1 0x0 PUSH1 0x40 MLOAD DUP4 PUSH4 0xFFFFFFFF AND PUSH1 0xE0 SHL DUP2 MSTORE PUSH1 0x4 ADD PUSH3 0x1208 SWAP3 SWAP2 SWAP1 PUSH3 0x3EED JUMP JUMPDEST PUSH1 0x20 PUSH1 0x40 MLOAD DUP1 DUP4 SUB DUP2 PUSH1 0x0 DUP8 GAS CALL SWAP3 POP POP POP DUP1 ISZERO PUSH3 0x1247 JUMPI POP PUSH1 0x40 MLOAD RETURNDATASIZE PUSH1 0x1F NOT PUSH1 0x1F DUP3 ADD AND DUP3 ADD DUP1 PUSH1 0x40 MSTORE POP DUP2 ADD SWAP1 PUSH3 0x1244 SWAP2 SWAP1 PUSH3 0x372B JUMP JUMPDEST PUSH1 0x1 JUMPDEST PUSH3 0x1311 JUMPI PUSH3 0x1256 PUSH3 0x31AF JUMP JUMPDEST DUP1 PUSH4 0x8C379A0 SUB PUSH3 0x12FF JUMPI POP PUSH3 0x126D PUSH3 0x3254 JUMP JUMPDEST DUP1 PUSH3 0x127A JUMPI POP PUSH3 0x1301 JUMP JUMPDEST PUSH20 0x0 PUSH4 0xE8C2CB16 DUP3 PUSH1 0x40 MLOAD DUP3 PUSH4 0xFFFFFFFF AND PUSH1 0xE0 SHL DUP2 MSTORE PUSH1 0x4 ADD PUSH3 0x12B3 SWAP2 SWAP1 PUSH3 0x3F6B JUMP JUMPDEST PUSH1 0x20 PUSH1 0x40 MLOAD DUP1 DUP4 SUB DUP2 DUP7 GAS DELEGATECALL ISZERO DUP1 ISZERO PUSH3 0x12D1 JUMPI RETURNDATASIZE PUSH1 0x0 DUP1 RETURNDATACOPY RETURNDATASIZE PUSH1 0x0 REVERT JUMPDEST POP POP POP POP PUSH1 0x40 MLOAD RETURNDATASIZE PUSH1 0x1F NOT PUSH1 0x1F DUP3 ADD AND DUP3 ADD DUP1 PUSH1 0x40 MSTORE POP DUP2 ADD SWAP1 PUSH3 0x12F7 SWAP2 SWAP1 PUSH3 0x3491 JUMP JUMPDEST POP POP PUSH3 0x130B JUMP JUMPDEST POP JUMPDEST RETURNDATASIZE PUSH1 0x0 DUP1 RETURNDATACOPY RETURNDATASIZE PUSH1 0x0 REVERT JUMPDEST PUSH3 0x1392 JUMP JUMPDEST POP PUSH20 0x0 PUSH4 0x39DF137F PUSH1 0x0 PUSH1 0x40 MLOAD DUP3 PUSH4 0xFFFFFFFF AND PUSH1 0xE0 SHL DUP2 MSTORE PUSH1 0x4 ADD PUSH3 0x134C SWAP2 SWAP1 PUSH3 0x3524 JUMP JUMPDEST PUSH1 0x20 PUSH1 0x40 MLOAD DUP1 DUP4 SUB DUP2 DUP7 GAS DELEGATECALL ISZERO DUP1 ISZERO PUSH3 0x136A JUMPI RETURNDATASIZE PUSH1 0x0 DUP1 RETURNDATACOPY RETURNDATASIZE PUSH1 0x0 REVERT JUMPDEST POP POP POP POP PUSH1 0x40 MLOAD RETURNDATASIZE PUSH1 0x1F NOT PUSH1 0x1F DUP3 ADD AND DUP3 ADD DUP1 PUSH1 0x40 MSTORE POP DUP2 ADD SWAP1 PUSH3 0x1390 SWAP2 SWAP1 PUSH3 0x3491 JUMP JUMPDEST POP JUMPDEST PUSH1 0x0 DUP1 SLOAD SWAP1 PUSH2 0x100 EXP SWAP1 DIV PUSH20 0xFFFFFFFFFFFFFFFFFFFFFFFFFFFFFFFFFFFFFFFF AND PUSH20 0xFFFFFFFFFFFFFFFFFFFFFFFFFFFFFFFFFFFFFFFF AND PUSH4 0x9AB3F7A6 PUSH2 0x3E8 PUSH1 0x0 PUSH1 0x40 MLOAD DUP4 PUSH4 0xFFFFFFFF AND PUSH1 0xE0 SHL DUP2 MSTORE PUSH1 0x4 ADD PUSH3 0x13F2 SWAP3 SWAP2 SWAP1 PUSH3 0x3FB9 JUMP JUMPDEST PUSH1 0x20 PUSH1 0x40 MLOAD DUP1 DUP4 SUB DUP2 PUSH1 0x0 DUP8 GAS CALL SWAP3 POP POP POP DUP1 ISZERO PUSH3 0x1431 JUMPI POP PUSH1 0x40 MLOAD RETURNDATASIZE PUSH1 0x1F NOT PUSH1 0x1F DUP3 ADD AND DUP3 ADD DUP1 PUSH1 0x40 MSTORE POP DUP2 ADD SWAP1 PUSH3 0x142E SWAP2 SWAP1 PUSH3 0x372B JUMP JUMPDEST PUSH1 0x1 JUMPDEST PUSH3 0x14FB JUMPI PUSH3 0x1440 PUSH3 0x31AF JUMP JUMPDEST DUP1 PUSH4 0x8C379A0 SUB PUSH3 0x14E9 JUMPI POP PUSH3 0x1457 PUSH3 0x3254 JUMP JUMPDEST DUP1 PUSH3 0x1464 JUMPI POP PUSH3 0x14EB JUMP JUMPDEST PUSH20 0x0 PUSH4 0xE8C2CB16 DUP3 PUSH1 0x40 MLOAD DUP3 PUSH4 0xFFFFFFFF AND PUSH1 0xE0 SHL DUP2 MSTORE PUSH1 0x4 ADD PUSH3 0x149D SWAP2 SWAP1 PUSH3 0x4060 JUMP JUMPDEST PUSH1 0x20 PUSH1 0x40 MLOAD DUP1 DUP4 SUB DUP2 DUP7 GAS DELEGATECALL ISZERO DUP1 ISZERO PUSH3 0x14BB JUMPI RETURNDATASIZE PUSH1 0x0 DUP1 RETURNDATACOPY RETURNDATASIZE PUSH1 0x0 REVERT JUMPDEST POP POP POP POP PUSH1 0x40 MLOAD RETURNDATASIZE PUSH1 0x1F NOT PUSH1 0x1F DUP3 ADD AND DUP3 ADD DUP1 PUSH1 0x40 MSTORE POP DUP2 ADD SWAP1 PUSH3 0x14E1 SWAP2 SWAP1 PUSH3 0x3491 JUMP JUMPDEST POP POP PUSH3 0x14F5 JUMP JUMPDEST POP JUMPDEST RETURNDATASIZE PUSH1 0x0 DUP1 RETURNDATACOPY RETURNDATASIZE PUSH1 0x0 REVERT JUMPDEST PUSH3 0x157C JUMP JUMPDEST POP PUSH20 0x0 PUSH4 0x39DF137F PUSH1 0x0 PUSH1 0x40 MLOAD DUP3 PUSH4 0xFFFFFFFF AND PUSH1 0xE0 SHL DUP2 MSTORE PUSH1 0x4 ADD PUSH3 0x1536 SWAP2 SWAP1 PUSH3 0x3524 JUMP JUMPDEST PUSH1 0x20 PUSH1 0x40 MLOAD DUP1 DUP4 SUB DUP2 DUP7 GAS DELEGATECALL ISZERO DUP1 ISZERO PUSH3 0x1554 JUMPI RETURNDATASIZE PUSH1 0x0 DUP1 RETURNDATACOPY RETURNDATASIZE PUSH1 0x0 REVERT JUMPDEST POP POP POP POP PUSH1 0x40 MLOAD RETURNDATASIZE PUSH1 0x1F NOT PUSH1 0x1F DUP3 ADD AND DUP3 ADD DUP1 PUSH1 0x40 MSTORE POP DUP2 ADD SWAP1 PUSH3 0x157A SWAP2 SWAP1 PUSH3 0x3491 JUMP JUMPDEST POP JUMPDEST PUSH1 0x0 DUP1 SLOAD SWAP1 PUSH2 0x100 EXP SWAP1 DIV PUSH20 0xFFFFFFFFFFFFFFFFFFFFFFFFFFFFFFFFFFFFFFFF AND PUSH20 0xFFFFFFFFFFFFFFFFFFFFFFFFFFFFFFFFFFFFFFFF AND PUSH4 0x9AB3F7A6 PUSH2 0x3E8 PUSH1 0x0 PUSH1 0x40 MLOAD DUP4 PUSH4 0xFFFFFFFF AND PUSH1 0xE0 SHL DUP2 MSTORE PUSH1 0x4 ADD PUSH3 0x15DC SWAP3 SWAP2 SWAP1 PUSH3 0x36A3 JUMP JUMPDEST PUSH1 0x20 PUSH1 0x40 MLOAD DUP1 DUP4 SUB DUP2 PUSH1 0x0 DUP8 GAS CALL SWAP3 POP POP POP DUP1 ISZERO PUSH3 0x161B JUMPI POP PUSH1 0x40 MLOAD RETURNDATASIZE PUSH1 0x1F NOT PUSH1 0x1F DUP3 ADD AND DUP3 ADD DUP1 PUSH1 0x40 MSTORE POP DUP2 ADD SWAP1 PUSH3 0x1618 SWAP2 SWAP1 PUSH3 0x372B JUMP JUMPDEST PUSH1 0x1 JUMPDEST PUSH3 0x16E5 JUMPI PUSH3 0x162A PUSH3 0x31AF JUMP JUMPDEST DUP1 PUSH4 0x8C379A0 SUB PUSH3 0x16D3 JUMPI POP PUSH3 0x1641 PUSH3 0x3254 JUMP JUMPDEST DUP1 PUSH3 0x164E JUMPI POP PUSH3 0x16D5 JUMP JUMPDEST PUSH20 0x0 PUSH4 0xE8C2CB16 DUP3 PUSH1 0x40 MLOAD DUP3 PUSH4 0xFFFFFFFF AND PUSH1 0xE0 SHL DUP2 MSTORE PUSH1 0x4 ADD PUSH3 0x1687 SWAP2 SWAP1 PUSH3 0x4124 JUMP JUMPDEST PUSH1 0x20 PUSH1 0x40 MLOAD DUP1 DUP4 SUB DUP2 DUP7 GAS DELEGATECALL ISZERO DUP1 ISZERO PUSH3 0x16A5 JUMPI RETURNDATASIZE PUSH1 0x0 DUP1 RETURNDATACOPY RETURNDATASIZE PUSH1 0x0 REVERT JUMPDEST POP POP POP POP PUSH1 0x40 MLOAD RETURNDATASIZE PUSH1 0x1F NOT PUSH1 0x1F DUP3 ADD AND DUP3 ADD DUP1 PUSH1 0x40 MSTORE POP DUP2 ADD SWAP1 PUSH3 0x16CB SWAP2 SWAP1 PUSH3 0x3491 JUMP JUMPDEST POP POP PUSH3 0x16DF JUMP JUMPDEST POP JUMPDEST RETURNDATASIZE PUSH1 0x0 DUP1 RETURNDATACOPY RETURNDATASIZE PUSH1 0x0 REVERT JUMPDEST PUSH3 0x1766 JUMP JUMPDEST POP PUSH20 0x0 PUSH4 0x39DF137F PUSH1 0x0 PUSH1 0x40 MLOAD DUP3 PUSH4 0xFFFFFFFF AND PUSH1 0xE0 SHL DUP2 MSTORE PUSH1 0x4 ADD PUSH3 0x1720 SWAP2 SWAP1 PUSH3 0x3524 JUMP JUMPDEST PUSH1 0x20 PUSH1 0x40 MLOAD DUP1 DUP4 SUB DUP2 DUP7 GAS DELEGATECALL ISZERO DUP1 ISZERO PUSH3 0x173E JUMPI RETURNDATASIZE PUSH1 0x0 DUP1 RETURNDATACOPY RETURNDATASIZE PUSH1 0x0 REVERT JUMPDEST POP POP POP POP PUSH1 0x40 MLOAD RETURNDATASIZE PUSH1 0x1F NOT PUSH1 0x1F DUP3 ADD AND DUP3 ADD DUP1 PUSH1 0x40 MSTORE POP DUP2 ADD SWAP1 PUSH3 0x1764 SWAP2 SWAP1 PUSH3 0x3491 JUMP JUMPDEST POP JUMPDEST PUSH1 0x0 DUP1 SLOAD SWAP1 PUSH2 0x100 EXP SWAP1 DIV PUSH20 0xFFFFFFFFFFFFFFFFFFFFFFFFFFFFFFFFFFFFFFFF AND PUSH20 0xFFFFFFFFFFFFFFFFFFFFFFFFFFFFFFFFFFFFFFFF AND PUSH4 0x9AB3F7A6 PUSH2 0x3E8 ADDRESS PUSH1 0x40 MLOAD DUP4 PUSH4 0xFFFFFFFF AND PUSH1 0xE0 SHL DUP2 MSTORE PUSH1 0x4 ADD PUSH3 0x17C5 SWAP3 SWAP2 SWAP1 PUSH3 0x36A3 JUMP JUMPDEST PUSH1 0x20 PUSH1 0x40 MLOAD DUP1 DUP4 SUB DUP2 PUSH1 0x0 DUP8 GAS CALL ISZERO DUP1 ISZERO PUSH3 0x17E5 JUMPI RETURNDATASIZE PUSH1 0x0 DUP1 RETURNDATACOPY RETURNDATASIZE PUSH1 0x0 REVERT JUMPDEST POP POP POP POP PUSH1 0x40 MLOAD RETURNDATASIZE PUSH1 0x1F NOT PUSH1 0x1F DUP3 ADD AND DUP3 ADD DUP1 PUSH1 0x40 MSTORE POP DUP2 ADD SWAP1 PUSH3 0x180B SWAP2 SWAP1 PUSH3 0x372B JUMP JUMPDEST POP JUMP JUMPDEST PUSH1 0x0 DUP1 SLOAD SWAP1 PUSH2 0x100 EXP SWAP1 DIV PUSH20 0xFFFFFFFFFFFFFFFFFFFFFFFFFFFFFFFFFFFFFFFF AND PUSH20 0xFFFFFFFFFFFFFFFFFFFFFFFFFFFFFFFFFFFFFFFF AND PUSH4 0xAFFC0670 PUSH2 0x2710 PUSH1 0x40 MLOAD DUP3 PUSH4 0xFFFFFFFF AND PUSH1 0xE0 SHL DUP2 MSTORE PUSH1 0x4 ADD PUSH1 0x0 PUSH1 0x40 MLOAD DUP1 DUP4 SUB DUP2 DUP6 DUP9 DUP1 EXTCODESIZE ISZERO DUP1 ISZERO PUSH3 0x1879 JUMPI PUSH1 0x0 DUP1 REVERT JUMPDEST POP GAS CALL ISZERO DUP1 ISZERO PUSH3 0x188E JUMPI RETURNDATASIZE PUSH1 0x0 DUP1 RETURNDATACOPY RETURNDATASIZE PUSH1 0x0 REVERT JUMPDEST POP POP POP POP POP PUSH1 0x0 DUP1 SLOAD SWAP1 PUSH2 0x100 EXP SWAP1 DIV PUSH20 0xFFFFFFFFFFFFFFFFFFFFFFFFFFFFFFFFFFFFFFFF AND PUSH20 0xFFFFFFFFFFFFFFFFFFFFFFFFFFFFFFFFFFFFFFFF AND PUSH4 0xFFFEFD91 PUSH2 0x2710 PUSH1 0x40 MLOAD DUP3 PUSH4 0xFFFFFFFF AND PUSH1 0xE0 SHL DUP2 MSTORE PUSH1 0x4 ADD PUSH1 0x0 PUSH1 0x40 MLOAD DUP1 DUP4 SUB DUP2 DUP6 DUP9 DUP1 EXTCODESIZE ISZERO DUP1 ISZERO PUSH3 0x18FE JUMPI PUSH1 0x0 DUP1 REVERT JUMPDEST POP GAS CALL ISZERO DUP1 ISZERO PUSH3 0x1913 JUMPI RETURNDATASIZE PUSH1 0x0 DUP1 RETURNDATACOPY RETURNDATASIZE PUSH1 0x0 REVERT JUMPDEST POP POP POP POP POP PUSH1 0x0 PUSH1 0x40 MLOAD PUSH3 0x1928 SWAP1 PUSH3 0x3194 JUMP JUMPDEST PUSH1 0x40 MLOAD DUP1 SWAP2 SUB SWAP1 PUSH1 0x0 CREATE DUP1 ISZERO DUP1 ISZERO PUSH3 0x1945 JUMPI RETURNDATASIZE PUSH1 0x0 DUP1 RETURNDATACOPY RETURNDATASIZE PUSH1 0x0 REVERT JUMPDEST POP SWAP1 POP PUSH1 0x0 DUP1 PUSH1 0x0 SWAP1 SLOAD SWAP1 PUSH2 0x100 EXP SWAP1 DIV PUSH20 0xFFFFFFFFFFFFFFFFFFFFFFFFFFFFFFFFFFFFFFFF AND PUSH20 0xFFFFFFFFFFFFFFFFFFFFFFFFFFFFFFFFFFFFFFFF AND PUSH4 0x9AB3F7A6 PUSH2 0x3E8 DUP5 PUSH1 0x40 MLOAD DUP4 PUSH4 0xFFFFFFFF AND PUSH1 0xE0 SHL DUP2 MSTORE PUSH1 0x4 ADD PUSH3 0x19AA SWAP3 SWAP2 SWAP1 PUSH3 0x36A3 JUMP JUMPDEST PUSH1 0x20 PUSH1 0x40 MLOAD DUP1 DUP4 SUB DUP2 PUSH1 0x0 DUP8 GAS CALL ISZERO DUP1 ISZERO PUSH3 0x19CA JUMPI RETURNDATASIZE PUSH1 0x0 DUP1 RETURNDATACOPY RETURNDATASIZE PUSH1 0x0 REVERT JUMPDEST POP POP POP POP PUSH1 0x40 MLOAD RETURNDATASIZE PUSH1 0x1F NOT PUSH1 0x1F DUP3 ADD AND DUP3 ADD DUP1 PUSH1 0x40 MSTORE POP DUP2 ADD SWAP1 PUSH3 0x19F0 SWAP2 SWAP1 PUSH3 0x372B JUMP JUMPDEST SWAP1 POP PUSH1 0x0 DUP1 SLOAD SWAP1 PUSH2 0x100 EXP SWAP1 DIV PUSH20 0xFFFFFFFFFFFFFFFFFFFFFFFFFFFFFFFFFFFFFFFF AND PUSH20 0xFFFFFFFFFFFFFFFFFFFFFFFFFFFFFFFFFFFFFFFF AND PUSH4 0xD0FEBE4C PUSH2 0x3E8 PUSH1 0x40 MLOAD DUP3 PUSH4 0xFFFFFFFF AND PUSH1 0xE0 SHL DUP2 MSTORE PUSH1 0x4 ADD PUSH1 0x0 PUSH1 0x40 MLOAD DUP1 DUP4 SUB DUP2 DUP6 DUP9 DUP1 EXTCODESIZE ISZERO DUP1 ISZERO PUSH3 0x1A5D JUMPI PUSH1 0x0 DUP1 REVERT JUMPDEST POP GAS CALL ISZERO DUP1 ISZERO PUSH3 0x1A72 JUMPI RETURNDATASIZE PUSH1 0x0 DUP1 RETURNDATACOPY RETURNDATASIZE PUSH1 0x0 REVERT JUMPDEST POP POP POP POP POP PUSH1 0x0 DUP1 SLOAD SWAP1 PUSH2 0x100 EXP SWAP1 DIV PUSH20 0xFFFFFFFFFFFFFFFFFFFFFFFFFFFFFFFFFFFFFFFF AND PUSH20 0xFFFFFFFFFFFFFFFFFFFFFFFFFFFFFFFFFFFFFFFF AND PUSH4 0xA80DB6FC PUSH1 0x40 MLOAD DUP2 PUSH4 0xFFFFFFFF AND PUSH1 0xE0 SHL DUP2 MSTORE PUSH1 0x4 ADD PUSH1 0x0 PUSH1 0x40 MLOAD DUP1 DUP4 SUB DUP2 DUP7 GAS STATICCALL ISZERO DUP1 ISZERO PUSH3 0x1AE3 JUMPI RETURNDATASIZE PUSH1 0x0 DUP1 RETURNDATACOPY RETURNDATASIZE PUSH1 0x0 REVERT JUMPDEST POP POP POP POP PUSH1 0x40 MLOAD RETURNDATASIZE PUSH1 0x0 DUP3 RETURNDATACOPY RETURNDATASIZE PUSH1 0x1F NOT PUSH1 0x1F DUP3 ADD AND DUP3 ADD DUP1 PUSH1 0x40 MSTORE POP DUP2 ADD SWAP1 PUSH3 0x1B0E SWAP2 SWAP1 PUSH3 0x424D JUMP JUMPDEST POP PUSH1 0x0 DUP1 SLOAD SWAP1 PUSH2 0x100 EXP SWAP1 DIV PUSH20 0xFFFFFFFFFFFFFFFFFFFFFFFFFFFFFFFFFFFFFFFF AND PUSH20 0xFFFFFFFFFFFFFFFFFFFFFFFFFFFFFFFFFFFFFFFF AND PUSH4 0xD7717750 PUSH1 0x40 MLOAD DUP2 PUSH4 0xFFFFFFFF AND PUSH1 0xE0 SHL DUP2 MSTORE PUSH1 0x4 ADD PUSH1 0x20 PUSH1 0x40 MLOAD DUP1 DUP4 SUB DUP2 DUP7 GAS STATICCALL ISZERO DUP1 ISZERO PUSH3 0x1B7B JUMPI RETURNDATASIZE PUSH1 0x0 DUP1 RETURNDATACOPY RETURNDATASIZE PUSH1 0x0 REVERT JUMPDEST POP POP POP POP PUSH1 0x40 MLOAD RETURNDATASIZE PUSH1 0x1F NOT PUSH1 0x1F DUP3 ADD AND DUP3 ADD DUP1 PUSH1 0x40 MSTORE POP DUP2 ADD SWAP1 PUSH3 0x1BA1 SWAP2 SWAP1 PUSH3 0x42E3 JUMP JUMPDEST PUSH20 0xFFFFFFFFFFFFFFFFFFFFFFFFFFFFFFFFFFFFFFFF AND PUSH4 0x95EA7B3 PUSH1 0x0 DUP1 SLOAD SWAP1 PUSH2 0x100 EXP SWAP1 DIV PUSH20 0xFFFFFFFFFFFFFFFFFFFFFFFFFFFFFFFFFFFFFFFF AND PUSH1 0x64 PUSH1 0x40 MLOAD DUP4 PUSH4 0xFFFFFFFF AND PUSH1 0xE0 SHL DUP2 MSTORE PUSH1 0x4 ADD PUSH3 0x1BFE SWAP3 SWAP2 SWAP1 PUSH3 0x4315 JUMP JUMPDEST PUSH1 0x20 PUSH1 0x40 MLOAD DUP1 DUP4 SUB DUP2 PUSH1 0x0 DUP8 GAS CALL ISZERO DUP1 ISZERO PUSH3 0x1C1E JUMPI RETURNDATASIZE PUSH1 0x0 DUP1 RETURNDATACOPY RETURNDATASIZE PUSH1 0x0 REVERT JUMPDEST POP POP POP POP PUSH1 0x40 MLOAD RETURNDATASIZE PUSH1 0x1F NOT PUSH1 0x1F DUP3 ADD AND DUP3 ADD DUP1 PUSH1 0x40 MSTORE POP DUP2 ADD SWAP1 PUSH3 0x1C44 SWAP2 SWAP1 PUSH3 0x3491 JUMP JUMPDEST POP PUSH1 0x0 DUP1 SLOAD SWAP1 PUSH2 0x100 EXP SWAP1 DIV PUSH20 0xFFFFFFFFFFFFFFFFFFFFFFFFFFFFFFFFFFFFFFFF AND PUSH20 0xFFFFFFFFFFFFFFFFFFFFFFFFFFFFFFFFFFFFFFFF AND PUSH4 0x7B0472F0 DUP3 PUSH1 0xA PUSH1 0x40 MLOAD DUP4 PUSH4 0xFFFFFFFF AND PUSH1 0xE0 SHL DUP2 MSTORE PUSH1 0x4 ADD PUSH3 0x1CA3 SWAP3 SWAP2 SWAP1 PUSH3 0x4342 JUMP JUMPDEST PUSH1 0x0 PUSH1 0x40 MLOAD DUP1 DUP4 SUB DUP2 PUSH1 0x0 DUP8 DUP1 EXTCODESIZE ISZERO DUP1 ISZERO PUSH3 0x1CBE JUMPI PUSH1 0x0 DUP1 REVERT JUMPDEST POP GAS CALL ISZERO DUP1 ISZERO PUSH3 0x1CD3 JUMPI RETURNDATASIZE PUSH1 0x0 DUP1 RETURNDATACOPY RETURNDATASIZE PUSH1 0x0 REVERT JUMPDEST POP POP POP POP PUSH1 0x0 DUP1 SLOAD SWAP1 PUSH2 0x100 EXP SWAP1 DIV PUSH20 0xFFFFFFFFFFFFFFFFFFFFFFFFFFFFFFFFFFFFFFFF AND PUSH20 0xFFFFFFFFFFFFFFFFFFFFFFFFFFFFFFFFFFFFFFFF AND PUSH4 0x8E08A50B PUSH1 0x40 MLOAD DUP2 PUSH4 0xFFFFFFFF AND PUSH1 0xE0 SHL DUP2 MSTORE PUSH1 0x4 ADD PUSH1 0x0 PUSH1 0x40 MLOAD DUP1 DUP4 SUB DUP2 DUP7 GAS STATICCALL ISZERO DUP1 ISZERO PUSH3 0x1D43 JUMPI RETURNDATASIZE PUSH1 0x0 DUP1 RETURNDATACOPY RETURNDATASIZE PUSH1 0x0 REVERT JUMPDEST POP POP POP POP PUSH1 0x40 MLOAD RETURNDATASIZE PUSH1 0x0 DUP3 RETURNDATACOPY RETURNDATASIZE PUSH1 0x1F NOT PUSH1 0x1F DUP3 ADD AND DUP3 ADD DUP1 PUSH1 0x40 MSTORE POP DUP2 ADD SWAP1 PUSH3 0x1D6E SWAP2 SWAP1 PUSH3 0x424D JUMP JUMPDEST POP PUSH1 0x0 DUP1 SLOAD SWAP1 PUSH2 0x100 EXP SWAP1 DIV PUSH20 0xFFFFFFFFFFFFFFFFFFFFFFFFFFFFFFFFFFFFFFFF AND PUSH20 0xFFFFFFFFFFFFFFFFFFFFFFFFFFFFFFFFFFFFFFFF AND PUSH4 0xC631B292 PUSH1 0x40 MLOAD DUP2 PUSH4 0xFFFFFFFF AND PUSH1 0xE0 SHL DUP2 MSTORE PUSH1 0x4 ADD PUSH1 0x0 PUSH1 0x40 MLOAD DUP1 DUP4 SUB DUP2 PUSH1 0x0 DUP8 DUP1 EXTCODESIZE ISZERO DUP1 ISZERO PUSH3 0x1DD8 JUMPI PUSH1 0x0 DUP1 REVERT JUMPDEST POP GAS CALL ISZERO DUP1 ISZERO PUSH3 0x1DED JUMPI RETURNDATASIZE PUSH1 0x0 DUP1 RETURNDATACOPY RETURNDATASIZE PUSH1 0x0 REVERT JUMPDEST POP POP POP POP POP POP JUMP JUMPDEST PUSH1 0x0 DUP1 SLOAD SWAP1 PUSH2 0x100 EXP SWAP1 DIV PUSH20 0xFFFFFFFFFFFFFFFFFFFFFFFFFFFFFFFFFFFFFFFF AND PUSH20 0xFFFFFFFFFFFFFFFFFFFFFFFFFFFFFFFFFFFFFFFF AND PUSH4 0xFFFEFD91 PUSH1 0xA PUSH1 0x40 MLOAD DUP3 PUSH4 0xFFFFFFFF AND PUSH1 0xE0 SHL DUP2 MSTORE PUSH1 0x4 ADD PUSH1 0x0 PUSH1 0x40 MLOAD DUP1 DUP4 SUB DUP2 DUP6 DUP9 DUP1 EXTCODESIZE ISZERO DUP1 ISZERO PUSH3 0x1E5F JUMPI PUSH1 0x0 DUP1 REVERT JUMPDEST POP GAS CALL ISZERO DUP1 ISZERO PUSH3 0x1E74 JUMPI RETURNDATASIZE PUSH1 0x0 DUP1 RETURNDATACOPY RETURNDATASIZE PUSH1 0x0 REVERT JUMPDEST POP POP POP POP POP PUSH1 0x0 DUP1 SLOAD SWAP1 PUSH2 0x100 EXP SWAP1 DIV PUSH20 0xFFFFFFFFFFFFFFFFFFFFFFFFFFFFFFFFFFFFFFFF AND PUSH20 0xFFFFFFFFFFFFFFFFFFFFFFFFFFFFFFFFFFFFFFFF AND PUSH4 0xD0FEBE4C PUSH1 0x0 PUSH1 0x40 MLOAD DUP3 PUSH4 0xFFFFFFFF AND PUSH1 0xE0 SHL DUP2 MSTORE PUSH1 0x4 ADD PUSH1 0x0 PUSH1 0x40 MLOAD DUP1 DUP4 SUB DUP2 DUP6 DUP9 DUP1 EXTCODESIZE ISZERO DUP1 ISZERO PUSH3 0x1EE3 JUMPI PUSH1 0x0 DUP1 REVERT JUMPDEST POP GAS CALL SWAP4 POP POP POP POP DUP1 ISZERO PUSH3 0x1EF6 JUMPI POP PUSH1 0x1 JUMPDEST PUSH3 0x1FC0 JUMPI PUSH3 0x1F05 PUSH3 0x31AF JUMP JUMPDEST DUP1 PUSH4 0x8C379A0 SUB PUSH3 0x1FAE JUMPI POP PUSH3 0x1F1C PUSH3 0x3254 JUMP JUMPDEST DUP1 PUSH3 0x1F29 JUMPI POP PUSH3 0x1FB0 JUMP JUMPDEST PUSH20 0x0 PUSH4 0xE8C2CB16 DUP3 PUSH1 0x40 MLOAD DUP3 PUSH4 0xFFFFFFFF AND PUSH1 0xE0 SHL DUP2 MSTORE PUSH1 0x4 ADD PUSH3 0x1F62 SWAP2 SWAP1 PUSH3 0x43E5 JUMP JUMPDEST PUSH1 0x20 PUSH1 0x40 MLOAD DUP1 DUP4 SUB DUP2 DUP7 GAS DELEGATECALL ISZERO DUP1 ISZERO PUSH3 0x1F80 JUMPI RETURNDATASIZE PUSH1 0x0 DUP1 RETURNDATACOPY RETURNDATASIZE PUSH1 0x0 REVERT JUMPDEST POP POP POP POP PUSH1 0x40 MLOAD RETURNDATASIZE PUSH1 0x1F NOT PUSH1 0x1F DUP3 ADD AND DUP3 ADD DUP1 PUSH1 0x40 MSTORE POP DUP2 ADD SWAP1 PUSH3 0x1FA6 SWAP2 SWAP1 PUSH3 0x3491 JUMP JUMPDEST POP POP PUSH3 0x1FBA JUMP JUMPDEST POP JUMPDEST RETURNDATASIZE PUSH1 0x0 DUP1 RETURNDATACOPY RETURNDATASIZE PUSH1 0x0 REVERT JUMPDEST PUSH3 0x2040 JUMP JUMPDEST PUSH20 0x0 PUSH4 0x39DF137F PUSH1 0x0 PUSH1 0x40 MLOAD DUP3 PUSH4 0xFFFFFFFF AND PUSH1 0xE0 SHL DUP2 MSTORE PUSH1 0x4 ADD PUSH3 0x1FFA SWAP2 SWAP1 PUSH3 0x3BD8 JUMP JUMPDEST PUSH1 0x20 PUSH1 0x40 MLOAD DUP1 DUP4 SUB DUP2 DUP7 GAS DELEGATECALL ISZERO DUP1 ISZERO PUSH3 0x2018 JUMPI RETURNDATASIZE PUSH1 0x0 DUP1 RETURNDATACOPY RETURNDATASIZE PUSH1 0x0 REVERT JUMPDEST POP POP POP POP PUSH1 0x40 MLOAD RETURNDATASIZE PUSH1 0x1F NOT PUSH1 0x1F DUP3 ADD AND DUP3 ADD DUP1 PUSH1 0x40 MSTORE POP DUP2 ADD SWAP1 PUSH3 0x203E SWAP2 SWAP1 PUSH3 0x3491 JUMP JUMPDEST POP JUMPDEST JUMP JUMPDEST PUSH1 0x0 DUP1 SLOAD SWAP1 PUSH2 0x100 EXP SWAP1 DIV PUSH20 0xFFFFFFFFFFFFFFFFFFFFFFFFFFFFFFFFFFFFFFFF AND PUSH20 0xFFFFFFFFFFFFFFFFFFFFFFFFFFFFFFFFFFFFFFFF AND PUSH4 0xAFFC0670 PUSH1 0x40 MLOAD DUP2 PUSH4 0xFFFFFFFF AND PUSH1 0xE0 SHL DUP2 MSTORE PUSH1 0x4 ADD PUSH1 0x0 PUSH1 0x40 MLOAD DUP1 DUP4 SUB DUP2 PUSH1 0x0 DUP8 DUP1 EXTCODESIZE ISZERO DUP1 ISZERO PUSH3 0x20AB JUMPI PUSH1 0x0 DUP1 REVERT JUMPDEST POP GAS CALL ISZERO DUP1 ISZERO PUSH3 0x20C0 JUMPI RETURNDATASIZE PUSH1 0x0 DUP1 RETURNDATACOPY RETURNDATASIZE PUSH1 0x0 REVERT JUMPDEST POP POP POP POP PUSH1 0x0 DUP1 SLOAD SWAP1 PUSH2 0x100 EXP SWAP1 DIV PUSH20 0xFFFFFFFFFFFFFFFFFFFFFFFFFFFFFFFFFFFFFFFF AND PUSH20 0xFFFFFFFFFFFFFFFFFFFFFFFFFFFFFFFFFFFFFFFF AND PUSH4 0xFFFEFD91 PUSH2 0x3E8 PUSH1 0x40 MLOAD DUP3 PUSH4 0xFFFFFFFF AND PUSH1 0xE0 SHL DUP2 MSTORE PUSH1 0x4 ADD PUSH1 0x0 PUSH1 0x40 MLOAD DUP1 DUP4 SUB DUP2 DUP6 DUP9 DUP1 EXTCODESIZE ISZERO DUP1 ISZERO PUSH3 0x212F JUMPI PUSH1 0x0 DUP1 REVERT JUMPDEST POP GAS CALL ISZERO DUP1 ISZERO PUSH3 0x2144 JUMPI RETURNDATASIZE PUSH1 0x0 DUP1 RETURNDATACOPY RETURNDATASIZE PUSH1 0x0 REVERT JUMPDEST POP POP POP POP POP PUSH1 0x0 DUP1 PUSH1 0x0 SWAP1 SLOAD SWAP1 PUSH2 0x100 EXP SWAP1 DIV PUSH20 0xFFFFFFFFFFFFFFFFFFFFFFFFFFFFFFFFFFFFFFFF AND PUSH20 0xFFFFFFFFFFFFFFFFFFFFFFFFFFFFFFFFFFFFFFFF AND PUSH4 0x9AB3F7A6 PUSH2 0x3E8 ADDRESS PUSH1 0x40 MLOAD DUP4 PUSH4 0xFFFFFFFF AND PUSH1 0xE0 SHL DUP2 MSTORE PUSH1 0x4 ADD PUSH3 0x21AB SWAP3 SWAP2 SWAP1 PUSH3 0x36A3 JUMP JUMPDEST PUSH1 0x20 PUSH1 0x40 MLOAD DUP1 DUP4 SUB DUP2 PUSH1 0x0 DUP8 GAS CALL ISZERO DUP1 ISZERO PUSH3 0x21CB JUMPI RETURNDATASIZE PUSH1 0x0 DUP1 RETURNDATACOPY RETURNDATASIZE PUSH1 0x0 REVERT JUMPDEST POP POP POP POP PUSH1 0x40 MLOAD RETURNDATASIZE PUSH1 0x1F NOT PUSH1 0x1F DUP3 ADD AND DUP3 ADD DUP1 PUSH1 0x40 MSTORE POP DUP2 ADD SWAP1 PUSH3 0x21F1 SWAP2 SWAP1 PUSH3 0x372B JUMP JUMPDEST SWAP1 POP PUSH1 0x0 DUP1 SLOAD SWAP1 PUSH2 0x100 EXP SWAP1 DIV PUSH20 0xFFFFFFFFFFFFFFFFFFFFFFFFFFFFFFFFFFFFFFFF AND PUSH20 0xFFFFFFFFFFFFFFFFFFFFFFFFFFFFFFFFFFFFFFFF AND PUSH4 0xE0A8F6F5 DUP3 PUSH1 0x40 MLOAD DUP3 PUSH4 0xFFFFFFFF AND PUSH1 0xE0 SHL DUP2 MSTORE PUSH1 0x4 ADD PUSH3 0x224E SWAP2 SWAP1 PUSH3 0x376E JUMP JUMPDEST PUSH1 0x0 PUSH1 0x40 MLOAD DUP1 DUP4 SUB DUP2 PUSH1 0x0 DUP8 DUP1 EXTCODESIZE ISZERO DUP1 ISZERO PUSH3 0x2269 JUMPI PUSH1 0x0 DUP1 REVERT JUMPDEST POP GAS CALL ISZERO DUP1 ISZERO PUSH3 0x227E JUMPI RETURNDATASIZE PUSH1 0x0 DUP1 RETURNDATACOPY RETURNDATASIZE PUSH1 0x0 REVERT JUMPDEST POP POP POP POP PUSH1 0x0 DUP1 SLOAD SWAP1 PUSH2 0x100 EXP SWAP1 DIV PUSH20 0xFFFFFFFFFFFFFFFFFFFFFFFFFFFFFFFFFFFFFFFF AND PUSH20 0xFFFFFFFFFFFFFFFFFFFFFFFFFFFFFFFFFFFFFFFF AND PUSH4 0xE0A8F6F5 DUP3 PUSH1 0x40 MLOAD DUP3 PUSH4 0xFFFFFFFF AND PUSH1 0xE0 SHL DUP2 MSTORE PUSH1 0x4 ADD PUSH3 0x22DD SWAP2 SWAP1 PUSH3 0x376E JUMP JUMPDEST PUSH1 0x0 PUSH1 0x40 MLOAD DUP1 DUP4 SUB DUP2 PUSH1 0x0 DUP8 DUP1 EXTCODESIZE ISZERO DUP1 ISZERO PUSH3 0x22F8 JUMPI PUSH1 0x0 DUP1 REVERT JUMPDEST POP GAS CALL SWAP3 POP POP POP DUP1 ISZERO PUSH3 0x230A JUMPI POP PUSH1 0x1 JUMPDEST PUSH3 0x23D4 JUMPI PUSH3 0x2319 PUSH3 0x31AF JUMP JUMPDEST DUP1 PUSH4 0x8C379A0 SUB PUSH3 0x23C2 JUMPI POP PUSH3 0x2330 PUSH3 0x3254 JUMP JUMPDEST DUP1 PUSH3 0x233D JUMPI POP PUSH3 0x23C4 JUMP JUMPDEST PUSH20 0x0 PUSH4 0xE8C2CB16 DUP3 PUSH1 0x40 MLOAD DUP3 PUSH4 0xFFFFFFFF AND PUSH1 0xE0 SHL DUP2 MSTORE PUSH1 0x4 ADD PUSH3 0x2376 SWAP2 SWAP1 PUSH3 0x44A9 JUMP JUMPDEST PUSH1 0x20 PUSH1 0x40 MLOAD DUP1 DUP4 SUB DUP2 DUP7 GAS DELEGATECALL ISZERO DUP1 ISZERO PUSH3 0x2394 JUMPI RETURNDATASIZE PUSH1 0x0 DUP1 RETURNDATACOPY RETURNDATASIZE PUSH1 0x0 REVERT JUMPDEST POP POP POP POP PUSH1 0x40 MLOAD RETURNDATASIZE PUSH1 0x1F NOT PUSH1 0x1F DUP3 ADD AND DUP3 ADD DUP1 PUSH1 0x40 MSTORE POP DUP2 ADD SWAP1 PUSH3 0x23BA SWAP2 SWAP1 PUSH3 0x3491 JUMP JUMPDEST POP POP PUSH3 0x23CE JUMP JUMPDEST POP JUMPDEST RETURNDATASIZE PUSH1 0x0 DUP1 RETURNDATACOPY RETURNDATASIZE PUSH1 0x0 REVERT JUMPDEST PUSH3 0x2454 JUMP JUMPDEST PUSH20 0x0 PUSH4 0x39DF137F PUSH1 0x0 PUSH1 0x40 MLOAD DUP3 PUSH4 0xFFFFFFFF AND PUSH1 0xE0 SHL DUP2 MSTORE PUSH1 0x4 ADD PUSH3 0x240E SWAP2 SWAP1 PUSH3 0x3524 JUMP JUMPDEST PUSH1 0x20 PUSH1 0x40 MLOAD DUP1 DUP4 SUB DUP2 DUP7 GAS DELEGATECALL ISZERO DUP1 ISZERO PUSH3 0x242C JUMPI RETURNDATASIZE PUSH1 0x0 DUP1 RETURNDATACOPY RETURNDATASIZE PUSH1 0x0 REVERT JUMPDEST POP POP POP POP PUSH1 0x40 MLOAD RETURNDATASIZE PUSH1 0x1F NOT PUSH1 0x1F DUP3 ADD AND DUP3 ADD DUP1 PUSH1 0x40 MSTORE POP DUP2 ADD SWAP1 PUSH3 0x2452 SWAP2 SWAP1 PUSH3 0x3491 JUMP JUMPDEST POP JUMPDEST POP JUMP JUMPDEST PUSH1 0x0 DUP1 SLOAD SWAP1 PUSH2 0x100 EXP SWAP1 DIV PUSH20 0xFFFFFFFFFFFFFFFFFFFFFFFFFFFFFFFFFFFFFFFF AND PUSH20 0xFFFFFFFFFFFFFFFFFFFFFFFFFFFFFFFFFFFFFFFF AND PUSH4 0xAFFC0670 PUSH2 0x2710 PUSH1 0x40 MLOAD DUP3 PUSH4 0xFFFFFFFF AND PUSH1 0xE0 SHL DUP2 MSTORE PUSH1 0x4 ADD PUSH1 0x0 PUSH1 0x40 MLOAD DUP1 DUP4 SUB DUP2 DUP6 DUP9 DUP1 EXTCODESIZE ISZERO DUP1 ISZERO PUSH3 0x24C2 JUMPI PUSH1 0x0 DUP1 REVERT JUMPDEST POP GAS CALL ISZERO DUP1 ISZERO PUSH3 0x24D7 JUMPI RETURNDATASIZE PUSH1 0x0 DUP1 RETURNDATACOPY RETURNDATASIZE PUSH1 0x0 REVERT JUMPDEST POP POP POP POP POP PUSH1 0x0 DUP1 SLOAD SWAP1 PUSH2 0x100 EXP SWAP1 DIV PUSH20 0xFFFFFFFFFFFFFFFFFFFFFFFFFFFFFFFFFFFFFFFF AND PUSH20 0xFFFFFFFFFFFFFFFFFFFFFFFFFFFFFFFFFFFFFFFF AND PUSH4 0xFFFEFD91 PUSH2 0x2710 PUSH1 0x40 MLOAD DUP3 PUSH4 0xFFFFFFFF AND PUSH1 0xE0 SHL DUP2 MSTORE PUSH1 0x4 ADD PUSH1 0x0 PUSH1 0x40 MLOAD DUP1 DUP4 SUB DUP2 DUP6 DUP9 DUP1 EXTCODESIZE ISZERO DUP1 ISZERO PUSH3 0x2547 JUMPI PUSH1 0x0 DUP1 REVERT JUMPDEST POP GAS CALL ISZERO DUP1 ISZERO PUSH3 0x255C JUMPI RETURNDATASIZE PUSH1 0x0 DUP1 RETURNDATACOPY RETURNDATASIZE PUSH1 0x0 REVERT JUMPDEST POP POP POP POP POP PUSH1 0x0 PUSH1 0x40 MLOAD PUSH3 0x2571 SWAP1 PUSH3 0x3194 JUMP JUMPDEST PUSH1 0x40 MLOAD DUP1 SWAP2 SUB SWAP1 PUSH1 0x0 CREATE DUP1 ISZERO DUP1 ISZERO PUSH3 0x258E JUMPI RETURNDATASIZE PUSH1 0x0 DUP1 RETURNDATACOPY RETURNDATASIZE PUSH1 0x0 REVERT JUMPDEST POP SWAP1 POP PUSH1 0x0 DUP1 PUSH1 0x0 SWAP1 SLOAD SWAP1 PUSH2 0x100 EXP SWAP1 DIV PUSH20 0xFFFFFFFFFFFFFFFFFFFFFFFFFFFFFFFFFFFFFFFF AND PUSH20 0xFFFFFFFFFFFFFFFFFFFFFFFFFFFFFFFFFFFFFFFF AND PUSH4 0x9AB3F7A6 PUSH2 0x3E8 DUP5 PUSH1 0x40 MLOAD DUP4 PUSH4 0xFFFFFFFF AND PUSH1 0xE0 SHL DUP2 MSTORE PUSH1 0x4 ADD PUSH3 0x25F3 SWAP3 SWAP2 SWAP1 PUSH3 0x36A3 JUMP JUMPDEST PUSH1 0x20 PUSH1 0x40 MLOAD DUP1 DUP4 SUB DUP2 PUSH1 0x0 DUP8 GAS CALL ISZERO DUP1 ISZERO PUSH3 0x2613 JUMPI RETURNDATASIZE PUSH1 0x0 DUP1 RETURNDATACOPY RETURNDATASIZE PUSH1 0x0 REVERT JUMPDEST POP POP POP POP PUSH1 0x40 MLOAD RETURNDATASIZE PUSH1 0x1F NOT PUSH1 0x1F DUP3 ADD AND DUP3 ADD DUP1 PUSH1 0x40 MSTORE POP DUP2 ADD SWAP1 PUSH3 0x2639 SWAP2 SWAP1 PUSH3 0x372B JUMP JUMPDEST SWAP1 POP PUSH1 0x0 DUP1 SLOAD SWAP1 PUSH2 0x100 EXP SWAP1 DIV PUSH20 0xFFFFFFFFFFFFFFFFFFFFFFFFFFFFFFFFFFFFFFFF AND PUSH20 0xFFFFFFFFFFFFFFFFFFFFFFFFFFFFFFFFFFFFFFFF AND PUSH4 0xD7717750 PUSH1 0x40 MLOAD DUP2 PUSH4 0xFFFFFFFF AND PUSH1 0xE0 SHL DUP2 MSTORE PUSH1 0x4 ADD PUSH1 0x20 PUSH1 0x40 MLOAD DUP1 DUP4 SUB DUP2 DUP7 GAS STATICCALL ISZERO DUP1 ISZERO PUSH3 0x26A7 JUMPI RETURNDATASIZE PUSH1 0x0 DUP1 RETURNDATACOPY RETURNDATASIZE PUSH1 0x0 REVERT JUMPDEST POP POP POP POP PUSH1 0x40 MLOAD RETURNDATASIZE PUSH1 0x1F NOT PUSH1 0x1F DUP3 ADD AND DUP3 ADD DUP1 PUSH1 0x40 MSTORE POP DUP2 ADD SWAP1 PUSH3 0x26CD SWAP2 SWAP1 PUSH3 0x42E3 JUMP JUMPDEST PUSH20 0xFFFFFFFFFFFFFFFFFFFFFFFFFFFFFFFFFFFFFFFF AND PUSH4 0x95EA7B3 PUSH1 0x0 DUP1 SLOAD SWAP1 PUSH2 0x100 EXP SWAP1 DIV PUSH20 0xFFFFFFFFFFFFFFFFFFFFFFFFFFFFFFFFFFFFFFFF AND PUSH1 0x64 PUSH1 0x40 MLOAD DUP4 PUSH4 0xFFFFFFFF AND PUSH1 0xE0 SHL DUP2 MSTORE PUSH1 0x4 ADD PUSH3 0x272A SWAP3 SWAP2 SWAP1 PUSH3 0x4315 JUMP JUMPDEST PUSH1 0x20 PUSH1 0x40 MLOAD DUP1 DUP4 SUB DUP2 PUSH1 0x0 DUP8 GAS CALL ISZERO DUP1 ISZERO PUSH3 0x274A JUMPI RETURNDATASIZE PUSH1 0x0 DUP1 RETURNDATACOPY RETURNDATASIZE PUSH1 0x0 REVERT JUMPDEST POP POP POP POP PUSH1 0x40 MLOAD RETURNDATASIZE PUSH1 0x1F NOT PUSH1 0x1F DUP3 ADD AND DUP3 ADD DUP1 PUSH1 0x40 MSTORE POP DUP2 ADD SWAP1 PUSH3 0x2770 SWAP2 SWAP1 PUSH3 0x3491 JUMP JUMPDEST POP PUSH1 0x0 DUP1 SLOAD SWAP1 PUSH2 0x100 EXP SWAP1 DIV PUSH20 0xFFFFFFFFFFFFFFFFFFFFFFFFFFFFFFFFFFFFFFFF AND PUSH20 0xFFFFFFFFFFFFFFFFFFFFFFFFFFFFFFFFFFFFFFFF AND PUSH4 0x7B0472F0 DUP3 PUSH1 0xA PUSH1 0x40 MLOAD DUP4 PUSH4 0xFFFFFFFF AND PUSH1 0xE0 SHL DUP2 MSTORE PUSH1 0x4 ADD PUSH3 0x27CF SWAP3 SWAP2 SWAP1 PUSH3 0x4342 JUMP JUMPDEST PUSH1 0x0 PUSH1 0x40 MLOAD DUP1 DUP4 SUB DUP2 PUSH1 0x0 DUP8 DUP1 EXTCODESIZE ISZERO DUP1 ISZERO PUSH3 0x27EA JUMPI PUSH1 0x0 DUP1 REVERT JUMPDEST POP GAS CALL ISZERO DUP1 ISZERO PUSH3 0x27FF JUMPI RETURNDATASIZE PUSH1 0x0 DUP1 RETURNDATACOPY RETURNDATASIZE PUSH1 0x0 REVERT JUMPDEST POP POP POP POP PUSH1 0x0 DUP1 SLOAD SWAP1 PUSH2 0x100 EXP SWAP1 DIV PUSH20 0xFFFFFFFFFFFFFFFFFFFFFFFFFFFFFFFFFFFFFFFF AND PUSH20 0xFFFFFFFFFFFFFFFFFFFFFFFFFFFFFFFFFFFFFFFF AND PUSH4 0xC631B292 PUSH1 0x40 MLOAD DUP2 PUSH4 0xFFFFFFFF AND PUSH1 0xE0 SHL DUP2 MSTORE PUSH1 0x4 ADD PUSH1 0x0 PUSH1 0x40 MLOAD DUP1 DUP4 SUB DUP2 PUSH1 0x0 DUP8 DUP1 EXTCODESIZE ISZERO DUP1 ISZERO PUSH3 0x286C JUMPI PUSH1 0x0 DUP1 REVERT JUMPDEST POP GAS CALL ISZERO DUP1 ISZERO PUSH3 0x2881 JUMPI RETURNDATASIZE PUSH1 0x0 DUP1 RETURNDATACOPY RETURNDATASIZE PUSH1 0x0 REVERT JUMPDEST POP POP POP POP POP POP JUMP JUMPDEST PUSH1 0x0 DUP1 SLOAD SWAP1 PUSH2 0x100 EXP SWAP1 DIV PUSH20 0xFFFFFFFFFFFFFFFFFFFFFFFFFFFFFFFFFFFFFFFF AND PUSH20 0xFFFFFFFFFFFFFFFFFFFFFFFFFFFFFFFFFFFFFFFF AND PUSH4 0xAFFC0670 PUSH1 0x40 MLOAD DUP2 PUSH4 0xFFFFFFFF AND PUSH1 0xE0 SHL DUP2 MSTORE PUSH1 0x4 ADD PUSH1 0x0 PUSH1 0x40 MLOAD DUP1 DUP4 SUB DUP2 PUSH1 0x0 DUP8 DUP1 EXTCODESIZE ISZERO DUP1 ISZERO PUSH3 0x28F2 JUMPI PUSH1 0x0 DUP1 REVERT JUMPDEST POP GAS CALL ISZERO DUP1 ISZERO PUSH3 0x2907 JUMPI RETURNDATASIZE PUSH1 0x0 DUP1 RETURNDATACOPY RETURNDATASIZE PUSH1 0x0 REVERT JUMPDEST POP POP POP POP PUSH1 0x0 DUP1 SLOAD SWAP1 PUSH2 0x100 EXP SWAP1 DIV PUSH20 0xFFFFFFFFFFFFFFFFFFFFFFFFFFFFFFFFFFFFFFFF AND PUSH20 0xFFFFFFFFFFFFFFFFFFFFFFFFFFFFFFFFFFFFFFFF AND PUSH4 0xAFFC0670 PUSH1 0x40 MLOAD DUP2 PUSH4 0xFFFFFFFF AND PUSH1 0xE0 SHL DUP2 MSTORE PUSH1 0x4 ADD PUSH1 0x0 PUSH1 0x40 MLOAD DUP1 DUP4 SUB DUP2 PUSH1 0x0 DUP8 DUP1 EXTCODESIZE ISZERO DUP1 ISZERO PUSH3 0x2974 JUMPI PUSH1 0x0 DUP1 REVERT JUMPDEST POP GAS CALL SWAP3 POP POP POP DUP1 ISZERO PUSH3 0x2986 JUMPI POP PUSH1 0x1 JUMPDEST PUSH3 0x2A50 JUMPI PUSH3 0x2995 PUSH3 0x31AF JUMP JUMPDEST DUP1 PUSH4 0x8C379A0 SUB PUSH3 0x2A3E JUMPI POP PUSH3 0x29AC PUSH3 0x3254 JUMP JUMPDEST DUP1 PUSH3 0x29B9 JUMPI POP PUSH3 0x2A40 JUMP JUMPDEST PUSH20 0x0 PUSH4 0xE8C2CB16 DUP3 PUSH1 0x40 MLOAD DUP3 PUSH4 0xFFFFFFFF AND PUSH1 0xE0 SHL DUP2 MSTORE PUSH1 0x4 ADD PUSH3 0x29F2 SWAP2 SWAP1 PUSH3 0x4547 JUMP JUMPDEST PUSH1 0x20 PUSH1 0x40 MLOAD DUP1 DUP4 SUB DUP2 DUP7 GAS DELEGATECALL ISZERO DUP1 ISZERO PUSH3 0x2A10 JUMPI RETURNDATASIZE PUSH1 0x0 DUP1 RETURNDATACOPY RETURNDATASIZE PUSH1 0x0 REVERT JUMPDEST POP POP POP POP PUSH1 0x40 MLOAD RETURNDATASIZE PUSH1 0x1F NOT PUSH1 0x1F DUP3 ADD AND DUP3 ADD DUP1 PUSH1 0x40 MSTORE POP DUP2 ADD SWAP1 PUSH3 0x2A36 SWAP2 SWAP1 PUSH3 0x3491 JUMP JUMPDEST POP POP PUSH3 0x2A4A JUMP JUMPDEST POP JUMPDEST RETURNDATASIZE PUSH1 0x0 DUP1 RETURNDATACOPY RETURNDATASIZE PUSH1 0x0 REVERT JUMPDEST PUSH3 0x2AD0 JUMP JUMPDEST PUSH20 0x0 PUSH4 0x39DF137F PUSH1 0x0 PUSH1 0x40 MLOAD DUP3 PUSH4 0xFFFFFFFF AND PUSH1 0xE0 SHL DUP2 MSTORE PUSH1 0x4 ADD PUSH3 0x2A8A SWAP2 SWAP1 PUSH3 0x3524 JUMP JUMPDEST PUSH1 0x20 PUSH1 0x40 MLOAD DUP1 DUP4 SUB DUP2 DUP7 GAS DELEGATECALL ISZERO DUP1 ISZERO PUSH3 0x2AA8 JUMPI RETURNDATASIZE PUSH1 0x0 DUP1 RETURNDATACOPY RETURNDATASIZE PUSH1 0x0 REVERT JUMPDEST POP POP POP POP PUSH1 0x40 MLOAD RETURNDATASIZE PUSH1 0x1F NOT PUSH1 0x1F DUP3 ADD AND DUP3 ADD DUP1 PUSH1 0x40 MSTORE POP DUP2 ADD SWAP1 PUSH3 0x2ACE SWAP2 SWAP1 PUSH3 0x3491 JUMP JUMPDEST POP JUMPDEST JUMP JUMPDEST PUSH1 0x0 DUP1 SLOAD SWAP1 PUSH2 0x100 EXP SWAP1 DIV PUSH20 0xFFFFFFFFFFFFFFFFFFFFFFFFFFFFFFFFFFFFFFFF AND PUSH20 0xFFFFFFFFFFFFFFFFFFFFFFFFFFFFFFFFFFFFFFFF AND PUSH4 0xAFFC0670 PUSH1 0x40 MLOAD DUP2 PUSH4 0xFFFFFFFF AND PUSH1 0xE0 SHL DUP2 MSTORE PUSH1 0x4 ADD PUSH1 0x0 PUSH1 0x40 MLOAD DUP1 DUP4 SUB DUP2 PUSH1 0x0 DUP8 DUP1 EXTCODESIZE ISZERO DUP1 ISZERO PUSH3 0x2B3B JUMPI PUSH1 0x0 DUP1 REVERT JUMPDEST POP GAS CALL ISZERO DUP1 ISZERO PUSH3 0x2B50 JUMPI RETURNDATASIZE PUSH1 0x0 DUP1 RETURNDATACOPY RETURNDATASIZE PUSH1 0x0 REVERT JUMPDEST POP POP POP POP PUSH1 0x0 DUP1 SLOAD SWAP1 PUSH2 0x100 EXP SWAP1 DIV PUSH20 0xFFFFFFFFFFFFFFFFFFFFFFFFFFFFFFFFFFFFFFFF AND PUSH20 0xFFFFFFFFFFFFFFFFFFFFFFFFFFFFFFFFFFFFFFFF AND PUSH4 0xFFFEFD91 PUSH2 0x3E8 PUSH1 0x40 MLOAD DUP3 PUSH4 0xFFFFFFFF AND PUSH1 0xE0 SHL DUP2 MSTORE PUSH1 0x4 ADD PUSH1 0x0 PUSH1 0x40 MLOAD DUP1 DUP4 SUB DUP2 DUP6 DUP9 DUP1 EXTCODESIZE ISZERO DUP1 ISZERO PUSH3 0x2BBF JUMPI PUSH1 0x0 DUP1 REVERT JUMPDEST POP GAS CALL ISZERO DUP1 ISZERO PUSH3 0x2BD4 JUMPI RETURNDATASIZE PUSH1 0x0 DUP1 RETURNDATACOPY RETURNDATASIZE PUSH1 0x0 REVERT JUMPDEST POP POP POP POP POP PUSH20 0x0 PUSH4 0xABCD7960 PUSH1 0x0 DUP1 SLOAD SWAP1 PUSH2 0x100 EXP SWAP1 DIV PUSH20 0xFFFFFFFFFFFFFFFFFFFFFFFFFFFFFFFFFFFFFFFF AND PUSH20 0xFFFFFFFFFFFFFFFFFFFFFFFFFFFFFFFFFFFFFFFF AND PUSH4 0xA80DB6FC PUSH1 0x40 MLOAD DUP2 PUSH4 0xFFFFFFFF AND PUSH1 0xE0 SHL DUP2 MSTORE PUSH1 0x4 ADD PUSH1 0x0 PUSH1 0x40 MLOAD DUP1 DUP4 SUB DUP2 DUP7 GAS STATICCALL ISZERO DUP1 ISZERO PUSH3 0x2C5F JUMPI RETURNDATASIZE PUSH1 0x0 DUP1 RETURNDATACOPY RETURNDATASIZE PUSH1 0x0 REVERT JUMPDEST POP POP POP POP PUSH1 0x40 MLOAD RETURNDATASIZE PUSH1 0x0 DUP3 RETURNDATACOPY RETURNDATASIZE PUSH1 0x1F NOT PUSH1 0x1F DUP3 ADD AND DUP3 ADD DUP1 PUSH1 0x40 MSTORE POP DUP2 ADD SWAP1 PUSH3 0x2C8A SWAP2 SWAP1 PUSH3 0x424D JUMP JUMPDEST MLOAD PUSH1 0x0 PUSH1 0x40 MLOAD DUP4 PUSH4 0xFFFFFFFF AND PUSH1 0xE0 SHL DUP2 MSTORE PUSH1 0x4 ADD PUSH3 0x2CAC SWAP3 SWAP2 SWAP1 PUSH3 0x464E JUMP JUMPDEST PUSH1 0x20 PUSH1 0x40 MLOAD DUP1 DUP4 SUB DUP2 DUP7 GAS DELEGATECALL ISZERO DUP1 ISZERO PUSH3 0x2CCA JUMPI RETURNDATASIZE PUSH1 0x0 DUP1 RETURNDATACOPY RETURNDATASIZE PUSH1 0x0 REVERT JUMPDEST POP POP POP POP PUSH1 0x40 MLOAD RETURNDATASIZE PUSH1 0x1F NOT PUSH1 0x1F DUP3 ADD AND DUP3 ADD DUP1 PUSH1 0x40 MSTORE POP DUP2 ADD SWAP1 PUSH3 0x2CF0 SWAP2 SWAP1 PUSH3 0x3491 JUMP JUMPDEST POP PUSH20 0x0 PUSH4 0xABCD7960 PUSH1 0x0 DUP1 SLOAD SWAP1 PUSH2 0x100 EXP SWAP1 DIV PUSH20 0xFFFFFFFFFFFFFFFFFFFFFFFFFFFFFFFFFFFFFFFF AND PUSH20 0xFFFFFFFFFFFFFFFFFFFFFFFFFFFFFFFFFFFFFFFF AND PUSH4 0x3AC0FEAC PUSH1 0x40 MLOAD DUP2 PUSH4 0xFFFFFFFF AND PUSH1 0xE0 SHL DUP2 MSTORE PUSH1 0x4 ADD PUSH1 0x0 PUSH1 0x40 MLOAD DUP1 DUP4 SUB DUP2 DUP7 GAS STATICCALL ISZERO DUP1 ISZERO PUSH3 0x2D77 JUMPI RETURNDATASIZE PUSH1 0x0 DUP1 RETURNDATACOPY RETURNDATASIZE PUSH1 0x0 REVERT JUMPDEST POP POP POP POP PUSH1 0x40 MLOAD RETURNDATASIZE PUSH1 0x0 DUP3 RETURNDATACOPY RETURNDATASIZE PUSH1 0x1F NOT PUSH1 0x1F DUP3 ADD AND DUP3 ADD DUP1 PUSH1 0x40 MSTORE POP DUP2 ADD SWAP1 PUSH3 0x2DA2 SWAP2 SWAP1 PUSH3 0x424D JUMP JUMPDEST MLOAD PUSH1 0x0 PUSH1 0x40 MLOAD DUP4 PUSH4 0xFFFFFFFF AND PUSH1 0xE0 SHL DUP2 MSTORE PUSH1 0x4 ADD PUSH3 0x2DC4 SWAP3 SWAP2 SWAP1 PUSH3 0x464E JUMP JUMPDEST PUSH1 0x20 PUSH1 0x40 MLOAD DUP1 DUP4 SUB DUP2 DUP7 GAS DELEGATECALL ISZERO DUP1 ISZERO PUSH3 0x2DE2 JUMPI RETURNDATASIZE PUSH1 0x0 DUP1 RETURNDATACOPY RETURNDATASIZE PUSH1 0x0 REVERT JUMPDEST POP POP POP POP PUSH1 0x40 MLOAD RETURNDATASIZE PUSH1 0x1F NOT PUSH1 0x1F DUP3 ADD AND DUP3 ADD DUP1 PUSH1 0x40 MSTORE POP DUP2 ADD SWAP1 PUSH3 0x2E08 SWAP2 SWAP1 PUSH3 0x3491 JUMP JUMPDEST POP PUSH1 0x0 DUP1 SLOAD SWAP1 PUSH2 0x100 EXP SWAP1 DIV PUSH20 0xFFFFFFFFFFFFFFFFFFFFFFFFFFFFFFFFFFFFFFFF AND PUSH20 0xFFFFFFFFFFFFFFFFFFFFFFFFFFFFFFFFFFFFFFFF AND PUSH4 0x9AB3F7A6 PUSH2 0x3E8 ADDRESS PUSH1 0x40 MLOAD DUP4 PUSH4 0xFFFFFFFF AND PUSH1 0xE0 SHL DUP2 MSTORE PUSH1 0x4 ADD PUSH3 0x2E68 SWAP3 SWAP2 SWAP1 PUSH3 0x36A3 JUMP JUMPDEST PUSH1 0x20 PUSH1 0x40 MLOAD DUP1 DUP4 SUB DUP2 PUSH1 0x0 DUP8 GAS CALL ISZERO DUP1 ISZERO PUSH3 0x2E88 JUMPI RETURNDATASIZE PUSH1 0x0 DUP1 RETURNDATACOPY RETURNDATASIZE PUSH1 0x0 REVERT JUMPDEST POP POP POP POP PUSH1 0x40 MLOAD RETURNDATASIZE PUSH1 0x1F NOT PUSH1 0x1F DUP3 ADD AND DUP3 ADD DUP1 PUSH1 0x40 MSTORE POP DUP2 ADD SWAP1 PUSH3 0x2EAE SWAP2 SWAP1 PUSH3 0x372B JUMP JUMPDEST POP PUSH1 0x0 DUP1 SLOAD SWAP1 PUSH2 0x100 EXP SWAP1 DIV PUSH20 0xFFFFFFFFFFFFFFFFFFFFFFFFFFFFFFFFFFFFFFFF AND PUSH20 0xFFFFFFFFFFFFFFFFFFFFFFFFFFFFFFFFFFFFFFFF AND PUSH4 0x9AB3F7A6 PUSH1 0x0 ADDRESS PUSH1 0x40 MLOAD DUP4 PUSH4 0xFFFFFFFF AND PUSH1 0xE0 SHL DUP2 MSTORE PUSH1 0x4 ADD PUSH3 0x2F0D SWAP3 SWAP2 SWAP1 PUSH3 0x4717 JUMP JUMPDEST PUSH1 0x20 PUSH1 0x40 MLOAD DUP1 DUP4 SUB DUP2 PUSH1 0x0 DUP8 GAS CALL ISZERO DUP1 ISZERO PUSH3 0x2F2D JUMPI RETURNDATASIZE PUSH1 0x0 DUP1 RETURNDATACOPY RETURNDATASIZE PUSH1 0x0 REVERT JUMPDEST POP POP POP POP PUSH1 0x40 MLOAD RETURNDATASIZE PUSH1 0x1F NOT PUSH1 0x1F DUP3 ADD AND DUP3 ADD DUP1 PUSH1 0x40 MSTORE POP DUP2 ADD SWAP1 PUSH3 0x2F53 SWAP2 SWAP1 PUSH3 0x372B JUMP JUMPDEST POP PUSH20 0x0 PUSH4 0xABCD7960 PUSH1 0x0 DUP1 SLOAD SWAP1 PUSH2 0x100 EXP SWAP1 DIV PUSH20 0xFFFFFFFFFFFFFFFFFFFFFFFFFFFFFFFFFFFFFFFF AND PUSH20 0xFFFFFFFFFFFFFFFFFFFFFFFFFFFFFFFFFFFFFFFF AND PUSH4 0xA80DB6FC PUSH1 0x40 MLOAD DUP2 PUSH4 0xFFFFFFFF AND PUSH1 0xE0 SHL DUP2 MSTORE PUSH1 0x4 ADD PUSH1 0x0 PUSH1 0x40 MLOAD DUP1 DUP4 SUB DUP2 DUP7 GAS STATICCALL ISZERO DUP1 ISZERO PUSH3 0x2FDA JUMPI RETURNDATASIZE PUSH1 0x0 DUP1 RETURNDATACOPY RETURNDATASIZE PUSH1 0x0 REVERT JUMPDEST POP POP POP POP PUSH1 0x40 MLOAD RETURNDATASIZE PUSH1 0x0 DUP3 RETURNDATACOPY RETURNDATASIZE PUSH1 0x1F NOT PUSH1 0x1F DUP3 ADD AND DUP3 ADD DUP1 PUSH1 0x40 MSTORE POP DUP2 ADD SWAP1 PUSH3 0x3005 SWAP2 SWAP1 PUSH3 0x424D JUMP JUMPDEST MLOAD PUSH1 0x1 PUSH1 0x40 MLOAD DUP4 PUSH4 0xFFFFFFFF AND PUSH1 0xE0 SHL DUP2 MSTORE PUSH1 0x4 ADD PUSH3 0x3027 SWAP3 SWAP2 SWAP1 PUSH3 0x4827 JUMP JUMPDEST PUSH1 0x20 PUSH1 0x40 MLOAD DUP1 DUP4 SUB DUP2 DUP7 GAS DELEGATECALL ISZERO DUP1 ISZERO PUSH3 0x3045 JUMPI RETURNDATASIZE PUSH1 0x0 DUP1 RETURNDATACOPY RETURNDATASIZE PUSH1 0x0 REVERT JUMPDEST POP POP POP POP PUSH1 0x40 MLOAD RETURNDATASIZE PUSH1 0x1F NOT PUSH1 0x1F DUP3 ADD AND DUP3 ADD DUP1 PUSH1 0x40 MSTORE POP DUP2 ADD SWAP1 PUSH3 0x306B SWAP2 SWAP1 PUSH3 0x3491 JUMP JUMPDEST POP PUSH20 0x0 PUSH4 0xABCD7960 PUSH1 0x0 DUP1 SLOAD SWAP1 PUSH2 0x100 EXP SWAP1 DIV PUSH20 0xFFFFFFFFFFFFFFFFFFFFFFFFFFFFFFFFFFFFFFFF AND PUSH20 0xFFFFFFFFFFFFFFFFFFFFFFFFFFFFFFFFFFFFFFFF AND PUSH4 0x8E08A50B PUSH1 0x40 MLOAD DUP2 PUSH4 0xFFFFFFFF AND PUSH1 0xE0 SHL DUP2 MSTORE PUSH1 0x4 ADD PUSH1 0x0 PUSH1 0x40 MLOAD DUP1 DUP4 SUB DUP2 DUP7 GAS STATICCALL ISZERO DUP1 ISZERO PUSH3 0x30F2 JUMPI RETURNDATASIZE PUSH1 0x0 DUP1 RETURNDATACOPY RETURNDATASIZE PUSH1 0x0 REVERT JUMPDEST POP POP POP POP PUSH1 0x40 MLOAD RETURNDATASIZE PUSH1 0x0 DUP3 RETURNDATACOPY RETURNDATASIZE PUSH1 0x1F NOT PUSH1 0x1F DUP3 ADD AND DUP3 ADD DUP1 PUSH1 0x40 MSTORE POP DUP2 ADD SWAP1 PUSH3 0x311D SWAP2 SWAP1 PUSH3 0x424D JUMP JUMPDEST MLOAD PUSH1 0x1 PUSH1 0x40 MLOAD DUP4 PUSH4 0xFFFFFFFF AND PUSH1 0xE0 SHL DUP2 MSTORE PUSH1 0x4 ADD PUSH3 0x313F SWAP3 SWAP2 SWAP1 PUSH3 0x4827 JUMP JUMPDEST PUSH1 0x20 PUSH1 0x40 MLOAD DUP1 DUP4 SUB DUP2 DUP7 GAS DELEGATECALL ISZERO DUP1 ISZERO PUSH3 0x315D JUMPI RETURNDATASIZE PUSH1 0x0 DUP1 RETURNDATACOPY RETURNDATASIZE PUSH1 0x0 REVERT JUMPDEST POP POP POP POP PUSH1 0x40 MLOAD RETURNDATASIZE PUSH1 0x1F NOT PUSH1 0x1F DUP3 ADD AND DUP3 ADD DUP1 PUSH1 0x40 MSTORE POP DUP2 ADD SWAP1 PUSH3 0x3183 SWAP2 SWAP1 PUSH3 0x3491 JUMP JUMPDEST POP JUMP JUMPDEST PUSH2 0x6176 DUP1 PUSH3 0x486A DUP4 CODECOPY ADD SWAP1 JUMP JUMPDEST PUSH2 0x1C2 DUP1 PUSH3 0xA9E0 DUP4 CODECOPY ADD SWAP1 JUMP JUMPDEST PUSH1 0x0 DUP2 PUSH1 0xE0 SHR SWAP1 POP SWAP2 SWAP1 POP JUMP JUMPDEST PUSH1 0x0 PUSH1 0x3 RETURNDATASIZE GT ISZERO PUSH3 0x31D1 JUMPI PUSH1 0x4 PUSH1 0x0 DUP1 RETURNDATACOPY PUSH3 0x31CE PUSH1 0x0 MLOAD PUSH3 0x31A2 JUMP JUMPDEST SWAP1 POP JUMPDEST SWAP1 JUMP JUMPDEST PUSH1 0x0 PUSH1 0x40 MLOAD SWAP1 POP SWAP1 JUMP JUMPDEST PUSH1 0x0 PUSH1 0x1F NOT PUSH1 0x1F DUP4 ADD AND SWAP1 POP SWAP2 SWAP1 POP JUMP JUMPDEST PUSH32 0x4E487B7100000000000000000000000000000000000000000000000000000000 PUSH1 0x0 MSTORE PUSH1 0x41 PUSH1 0x4 MSTORE PUSH1 0x24 PUSH1 0x0 REVERT JUMPDEST PUSH3 0x3229 DUP3 PUSH3 0x31DE JUMP JUMPDEST DUP2 ADD DUP2 DUP2 LT PUSH8 0xFFFFFFFFFFFFFFFF DUP3 GT OR ISZERO PUSH3 0x324B JUMPI PUSH3 0x324A PUSH3 0x31EF JUMP JUMPDEST JUMPDEST DUP1 PUSH1 0x40 MSTORE POP POP POP JUMP JUMPDEST PUSH1 0x0 PUSH1 0x44 RETURNDATASIZE LT PUSH3 0x32EC JUMPI PUSH3 0x3269 PUSH3 0x31D4 JUMP JUMPDEST PUSH1 0x4 RETURNDATASIZE SUB PUSH1 0x4 DUP3 RETURNDATACOPY DUP1 MLOAD RETURNDATASIZE PUSH1 0x24 DUP3 ADD GT PUSH8 0xFFFFFFFFFFFFFFFF DUP3 GT OR ISZERO PUSH3 0x3293 JUMPI POP POP PUSH3 0x32EC JUMP JUMPDEST DUP1 DUP3 ADD DUP1 MLOAD PUSH8 0xFFFFFFFFFFFFFFFF DUP2 GT ISZERO PUSH3 0x32B3 JUMPI POP POP POP POP PUSH3 0x32EC JUMP JUMPDEST DUP1 PUSH1 0x20 DUP4 ADD ADD PUSH1 0x4 RETURNDATASIZE SUB DUP6 ADD DUP2 GT ISZERO PUSH3 0x32D2 JUMPI POP POP POP POP POP PUSH3 0x32EC JUMP JUMPDEST PUSH3 0x32E3 DUP3 PUSH1 0x20 ADD DUP6 ADD DUP7 PUSH3 0x321E JUMP JUMPDEST DUP3 SWAP6 POP POP POP POP POP POP JUMPDEST SWAP1 JUMP JUMPDEST PUSH1 0x0 DUP2 MLOAD SWAP1 POP SWAP2 SWAP1 POP JUMP JUMPDEST PUSH1 0x0 DUP3 DUP3 MSTORE PUSH1 0x20 DUP3 ADD SWAP1 POP SWAP3 SWAP2 POP POP JUMP JUMPDEST PUSH1 0x0 JUMPDEST DUP4 DUP2 LT ISZERO PUSH3 0x332B JUMPI DUP1 DUP3 ADD MLOAD DUP2 DUP5 ADD MSTORE PUSH1 0x20 DUP2 ADD SWAP1 POP PUSH3 0x330E JUMP JUMPDEST DUP4 DUP2 GT ISZERO PUSH3 0x333B JUMPI PUSH1 0x0 DUP5 DUP5 ADD MSTORE JUMPDEST POP POP POP POP JUMP JUMPDEST PUSH1 0x0 PUSH3 0x334E DUP3 PUSH3 0x32EF JUMP JUMPDEST PUSH3 0x335A DUP2 DUP6 PUSH3 0x32FA JUMP JUMPDEST SWAP4 POP PUSH3 0x336C DUP2 DUP6 PUSH1 0x20 DUP7 ADD PUSH3 0x330B JUMP JUMPDEST PUSH3 0x3377 DUP2 PUSH3 0x31DE JUMP JUMPDEST DUP5 ADD SWAP2 POP POP SWAP3 SWAP2 POP POP JUMP JUMPDEST PUSH32 0x5061727469636970616E7420616C726561647920726567697374657265642E00 PUSH1 0x0 DUP3 ADD MSTORE POP JUMP JUMPDEST PUSH1 0x0 PUSH3 0x33BA PUSH1 0x1F DUP4 PUSH3 0x32FA JUMP JUMPDEST SWAP2 POP PUSH3 0x33C7 DUP3 PUSH3 0x3382 JUMP JUMPDEST PUSH1 0x20 DUP3 ADD SWAP1 POP SWAP2 SWAP1 POP JUMP JUMPDEST POP JUMP JUMPDEST PUSH1 0x0 PUSH3 0x33E4 PUSH1 0x0 DUP4 PUSH3 0x32FA JUMP JUMPDEST SWAP2 POP PUSH3 0x33F1 DUP3 PUSH3 0x33D2 JUMP JUMPDEST PUSH1 0x0 DUP3 ADD SWAP1 POP SWAP2 SWAP1 POP JUMP JUMPDEST PUSH1 0x0 PUSH1 0x60 DUP3 ADD SWAP1 POP DUP2 DUP2 SUB PUSH1 0x0 DUP4 ADD MSTORE PUSH3 0x3418 DUP2 DUP5 PUSH3 0x3341 JUMP JUMPDEST SWAP1 POP DUP2 DUP2 SUB PUSH1 0x20 DUP4 ADD MSTORE PUSH3 0x342D DUP2 PUSH3 0x33AB JUMP JUMPDEST SWAP1 POP DUP2 DUP2 SUB PUSH1 0x40 DUP4 ADD MSTORE PUSH3 0x3442 DUP2 PUSH3 0x33D5 JUMP JUMPDEST SWAP1 POP SWAP3 SWAP2 POP POP JUMP JUMPDEST PUSH1 0x0 DUP1 REVERT JUMPDEST PUSH1 0x0 DUP1 REVERT JUMPDEST PUSH1 0x0 DUP2 ISZERO ISZERO SWAP1 POP SWAP2 SWAP1 POP JUMP JUMPDEST PUSH3 0x346B DUP2 PUSH3 0x3454 JUMP JUMPDEST DUP2 EQ PUSH3 0x3477 JUMPI PUSH1 0x0 DUP1 REVERT JUMPDEST POP JUMP JUMPDEST PUSH1 0x0 DUP2 MLOAD SWAP1 POP PUSH3 0x348B DUP2 PUSH3 0x3460 JUMP JUMPDEST SWAP3 SWAP2 POP POP JUMP JUMPDEST PUSH1 0x0 PUSH1 0x20 DUP3 DUP5 SUB SLT ISZERO PUSH3 0x34AA JUMPI PUSH3 0x34A9 PUSH3 0x344A JUMP JUMPDEST JUMPDEST PUSH1 0x0 PUSH3 0x34BA DUP5 DUP3 DUP6 ADD PUSH3 0x347A JUMP JUMPDEST SWAP2 POP POP SWAP3 SWAP2 POP POP JUMP JUMPDEST PUSH3 0x34CE DUP2 PUSH3 0x3454 JUMP JUMPDEST DUP3 MSTORE POP POP JUMP JUMPDEST PUSH32 0x43616C6C2073686F756C64206661696C2E000000000000000000000000000000 PUSH1 0x0 DUP3 ADD MSTORE POP JUMP JUMPDEST PUSH1 0x0 PUSH3 0x350C PUSH1 0x11 DUP4 PUSH3 0x32FA JUMP JUMPDEST SWAP2 POP PUSH3 0x3519 DUP3 PUSH3 0x34D4 JUMP JUMPDEST PUSH1 0x20 DUP3 ADD SWAP1 POP SWAP2 SWAP1 POP JUMP JUMPDEST PUSH1 0x0 PUSH1 0x40 DUP3 ADD SWAP1 POP PUSH3 0x353B PUSH1 0x0 DUP4 ADD DUP5 PUSH3 0x34C3 JUMP JUMPDEST DUP2 DUP2 SUB PUSH1 0x20 DUP4 ADD MSTORE PUSH3 0x354E DUP2 PUSH3 0x34FD JUMP JUMPDEST SWAP1 POP SWAP3 SWAP2 POP POP JUMP JUMPDEST PUSH1 0x0 DUP3 DUP3 MSTORE PUSH1 0x20 DUP3 ADD SWAP1 POP SWAP3 SWAP2 POP POP JUMP JUMPDEST PUSH32 0x50726F706F73616C205469746C65000000000000000000000000000000000000 PUSH1 0x0 DUP3 ADD MSTORE POP JUMP JUMPDEST PUSH1 0x0 PUSH3 0x359F PUSH1 0xE DUP4 PUSH3 0x3556 JUMP JUMPDEST SWAP2 POP PUSH3 0x35AC DUP3 PUSH3 0x3567 JUMP JUMPDEST PUSH1 0x20 DUP3 ADD SWAP1 POP SWAP2 SWAP1 POP JUMP JUMPDEST PUSH32 0x54686973206973206120746573742070726F706F73616C000000000000000000 PUSH1 0x0 DUP3 ADD MSTORE POP JUMP JUMPDEST PUSH1 0x0 PUSH3 0x35EF PUSH1 0x17 DUP4 PUSH3 0x3556 JUMP JUMPDEST SWAP2 POP PUSH3 0x35FC DUP3 PUSH3 0x35B7 JUMP JUMPDEST PUSH1 0x20 DUP3 ADD SWAP1 POP SWAP2 SWAP1 POP JUMP JUMPDEST PUSH1 0x0 DUP2 SWAP1 POP SWAP2 SWAP1 POP JUMP JUMPDEST PUSH1 0x0 DUP2 SWAP1 POP SWAP2 SWAP1 POP JUMP JUMPDEST PUSH1 0x0 DUP2 SWAP1 POP SWAP2 SWAP1 POP JUMP JUMPDEST PUSH1 0x0 PUSH3 0x3646 PUSH3 0x3640 PUSH3 0x363A DUP5 PUSH3 0x3607 JUMP JUMPDEST PUSH3 0x361B JUMP JUMPDEST PUSH3 0x3611 JUMP JUMPDEST SWAP1 POP SWAP2 SWAP1 POP JUMP JUMPDEST PUSH3 0x3658 DUP2 PUSH3 0x3625 JUMP JUMPDEST DUP3 MSTORE POP POP JUMP JUMPDEST PUSH1 0x0 PUSH20 0xFFFFFFFFFFFFFFFFFFFFFFFFFFFFFFFFFFFFFFFF DUP3 AND SWAP1 POP SWAP2 SWAP1 POP JUMP JUMPDEST PUSH1 0x0 PUSH3 0x368B DUP3 PUSH3 0x365E JUMP JUMPDEST SWAP1 POP SWAP2 SWAP1 POP JUMP JUMPDEST PUSH3 0x369D DUP2 PUSH3 0x367E JUMP JUMPDEST DUP3 MSTORE POP POP JUMP JUMPDEST PUSH1 0x0 PUSH1 0x80 DUP3 ADD SWAP1 POP DUP2 DUP2 SUB PUSH1 0x0 DUP4 ADD MSTORE PUSH3 0x36BE DUP2 PUSH3 0x3590 JUMP JUMPDEST SWAP1 POP DUP2 DUP2 SUB PUSH1 0x20 DUP4 ADD MSTORE PUSH3 0x36D3 DUP2 PUSH3 0x35E0 JUMP JUMPDEST SWAP1 POP PUSH3 0x36E4 PUSH1 0x40 DUP4 ADD DUP6 PUSH3 0x364D JUMP JUMPDEST PUSH3 0x36F3 PUSH1 0x60 DUP4 ADD DUP5 PUSH3 0x3692 JUMP JUMPDEST SWAP4 SWAP3 POP POP POP JUMP JUMPDEST PUSH3 0x3705 DUP2 PUSH3 0x3611 JUMP JUMPDEST DUP2 EQ PUSH3 0x3711 JUMPI PUSH1 0x0 DUP1 REVERT JUMPDEST POP JUMP JUMPDEST PUSH1 0x0 DUP2 MLOAD SWAP1 POP PUSH3 0x3725 DUP2 PUSH3 0x36FA JUMP JUMPDEST SWAP3 SWAP2 POP POP JUMP JUMPDEST PUSH1 0x0 PUSH1 0x20 DUP3 DUP5 SUB SLT ISZERO PUSH3 0x3744 JUMPI PUSH3 0x3743 PUSH3 0x344A JUMP JUMPDEST JUMPDEST PUSH1 0x0 PUSH3 0x3754 DUP5 DUP3 DUP6 ADD PUSH3 0x3714 JUMP JUMPDEST SWAP2 POP POP SWAP3 SWAP2 POP POP JUMP JUMPDEST PUSH3 0x3768 DUP2 PUSH3 0x3611 JUMP JUMPDEST DUP3 MSTORE POP POP JUMP JUMPDEST PUSH1 0x0 PUSH1 0x20 DUP3 ADD SWAP1 POP PUSH3 0x3785 PUSH1 0x0 DUP4 ADD DUP5 PUSH3 0x375D JUMP JUMPDEST SWAP3 SWAP2 POP POP JUMP JUMPDEST PUSH1 0x0 DUP1 REVERT JUMPDEST PUSH1 0x0 DUP1 REVERT JUMPDEST PUSH1 0x0 PUSH3 0x37A1 PUSH3 0x31D4 JUMP JUMPDEST SWAP1 POP PUSH3 0x37AF DUP3 DUP3 PUSH3 0x321E JUMP JUMPDEST SWAP2 SWAP1 POP JUMP JUMPDEST PUSH1 0x0 PUSH8 0xFFFFFFFFFFFFFFFF DUP3 GT ISZERO PUSH3 0x37D2 JUMPI PUSH3 0x37D1 PUSH3 0x31EF JUMP JUMPDEST JUMPDEST PUSH3 0x37DD DUP3 PUSH3 0x31DE JUMP JUMPDEST SWAP1 POP PUSH1 0x20 DUP2 ADD SWAP1 POP SWAP2 SWAP1 POP JUMP JUMPDEST PUSH1 0x0 PUSH3 0x3801 PUSH3 0x37FB DUP5 PUSH3 0x37B4 JUMP JUMPDEST PUSH3 0x3795 JUMP JUMPDEST SWAP1 POP DUP3 DUP2 MSTORE PUSH1 0x20 DUP2 ADD DUP5 DUP5 DUP5 ADD GT ISZERO PUSH3 0x3820 JUMPI PUSH3 0x381F PUSH3 0x3790 JUMP JUMPDEST JUMPDEST PUSH3 0x382D DUP5 DUP3 DUP6 PUSH3 0x330B JUMP JUMPDEST POP SWAP4 SWAP3 POP POP POP JUMP JUMPDEST PUSH1 0x0 DUP3 PUSH1 0x1F DUP4 ADD SLT PUSH3 0x384D JUMPI PUSH3 0x384C PUSH3 0x378B JUMP JUMPDEST JUMPDEST DUP2 MLOAD PUSH3 0x385F DUP5 DUP3 PUSH1 0x20 DUP7 ADD PUSH3 0x37EA JUMP JUMPDEST SWAP2 POP POP SWAP3 SWAP2 POP POP JUMP JUMPDEST PUSH3 0x3873 DUP2 PUSH3 0x367E JUMP JUMPDEST DUP2 EQ PUSH3 0x387F JUMPI PUSH1 0x0 DUP1 REVERT JUMPDEST POP JUMP JUMPDEST PUSH1 0x0 DUP2 MLOAD SWAP1 POP PUSH3 0x3893 DUP2 PUSH3 0x3868 JUMP JUMPDEST SWAP3 SWAP2 POP POP JUMP JUMPDEST PUSH1 0x0 DUP1 PUSH1 0x0 DUP1 PUSH1 0x80 DUP6 DUP8 SUB SLT ISZERO PUSH3 0x38B6 JUMPI PUSH3 0x38B5 PUSH3 0x344A JUMP JUMPDEST JUMPDEST PUSH1 0x0 DUP6 ADD MLOAD PUSH8 0xFFFFFFFFFFFFFFFF DUP2 GT ISZERO PUSH3 0x38D7 JUMPI PUSH3 0x38D6 PUSH3 0x344F JUMP JUMPDEST JUMPDEST PUSH3 0x38E5 DUP8 DUP3 DUP9 ADD PUSH3 0x3835 JUMP JUMPDEST SWAP5 POP POP PUSH1 0x20 DUP6 ADD MLOAD PUSH8 0xFFFFFFFFFFFFFFFF DUP2 GT ISZERO PUSH3 0x3909 JUMPI PUSH3 0x3908 PUSH3 0x344F JUMP JUMPDEST JUMPDEST PUSH3 0x3917 DUP8 DUP3 DUP9 ADD PUSH3 0x3835 JUMP JUMPDEST SWAP4 POP POP PUSH1 0x40 PUSH3 0x392A DUP8 DUP3 DUP9 ADD PUSH3 0x3714 JUMP JUMPDEST SWAP3 POP POP PUSH1 0x60 PUSH3 0x393D DUP8 DUP3 DUP9 ADD PUSH3 0x3882 JUMP JUMPDEST SWAP2 POP POP SWAP3 SWAP6 SWAP2 SWAP5 POP SWAP3 POP JUMP JUMPDEST PUSH1 0x0 PUSH3 0x3958 PUSH1 0xE DUP4 PUSH3 0x32FA JUMP JUMPDEST SWAP2 POP PUSH3 0x3965 DUP3 PUSH3 0x3567 JUMP JUMPDEST PUSH1 0x20 DUP3 ADD SWAP1 POP SWAP2 SWAP1 POP JUMP JUMPDEST PUSH1 0x0 PUSH1 0x60 DUP3 ADD SWAP1 POP DUP2 DUP2 SUB PUSH1 0x0 DUP4 ADD MSTORE PUSH3 0x398C DUP2 DUP5 PUSH3 0x3341 JUMP JUMPDEST SWAP1 POP DUP2 DUP2 SUB PUSH1 0x20 DUP4 ADD MSTORE PUSH3 0x39A1 DUP2 PUSH3 0x3949 JUMP JUMPDEST SWAP1 POP DUP2 DUP2 SUB PUSH1 0x40 DUP4 ADD MSTORE PUSH3 0x39B6 DUP2 PUSH3 0x33D5 JUMP JUMPDEST SWAP1 POP SWAP3 SWAP2 POP POP JUMP JUMPDEST PUSH1 0x0 PUSH3 0x39CD PUSH1 0x17 DUP4 PUSH3 0x32FA JUMP JUMPDEST SWAP2 POP PUSH3 0x39DA DUP3 PUSH3 0x35B7 JUMP JUMPDEST PUSH1 0x20 DUP3 ADD SWAP1 POP SWAP2 SWAP1 POP JUMP JUMPDEST PUSH1 0x0 PUSH1 0x60 DUP3 ADD SWAP1 POP DUP2 DUP2 SUB PUSH1 0x0 DUP4 ADD MSTORE PUSH3 0x3A01 DUP2 DUP5 PUSH3 0x3341 JUMP JUMPDEST SWAP1 POP DUP2 DUP2 SUB PUSH1 0x20 DUP4 ADD MSTORE PUSH3 0x3A16 DUP2 PUSH3 0x39BE JUMP JUMPDEST SWAP1 POP DUP2 DUP2 SUB PUSH1 0x40 DUP4 ADD MSTORE PUSH3 0x3A2B DUP2 PUSH3 0x33D5 JUMP JUMPDEST SWAP1 POP SWAP3 SWAP2 POP POP JUMP JUMPDEST PUSH3 0x3A3E DUP2 PUSH3 0x3611 JUMP JUMPDEST DUP3 MSTORE POP POP JUMP JUMPDEST PUSH3 0x3A4F DUP2 PUSH3 0x3625 JUMP JUMPDEST DUP3 MSTORE POP POP JUMP JUMPDEST PUSH1 0x0 PUSH1 0x60 DUP3 ADD SWAP1 POP PUSH3 0x3A6C PUSH1 0x0 DUP4 ADD DUP6 PUSH3 0x3A33 JUMP JUMPDEST PUSH3 0x3A7B PUSH1 0x20 DUP4 ADD DUP5 PUSH3 0x3A44 JUMP JUMPDEST DUP2 DUP2 SUB PUSH1 0x40 DUP4 ADD MSTORE PUSH3 0x3A8E DUP2 PUSH3 0x33D5 JUMP JUMPDEST SWAP1 POP SWAP4 SWAP3 POP POP POP JUMP JUMPDEST PUSH3 0x3AA2 DUP2 PUSH3 0x367E JUMP JUMPDEST DUP3 MSTORE POP POP JUMP JUMPDEST PUSH1 0x0 PUSH1 0x60 DUP3 ADD SWAP1 POP PUSH3 0x3ABF PUSH1 0x0 DUP4 ADD DUP6 PUSH3 0x3A97 JUMP JUMPDEST PUSH3 0x3ACE PUSH1 0x20 DUP4 ADD DUP5 PUSH3 0x3A97 JUMP JUMPDEST DUP2 DUP2 SUB PUSH1 0x40 DUP4 ADD MSTORE PUSH3 0x3AE1 DUP2 PUSH3 0x33D5 JUMP JUMPDEST SWAP1 POP SWAP4 SWAP3 POP POP POP JUMP JUMPDEST PUSH32 0x41646472657373206E6F74207265676973746572656421000000000000000000 PUSH1 0x0 DUP3 ADD MSTORE POP JUMP JUMPDEST PUSH1 0x0 PUSH3 0x3B22 PUSH1 0x17 DUP4 PUSH3 0x32FA JUMP JUMPDEST SWAP2 POP PUSH3 0x3B2F DUP3 PUSH3 0x3AEA JUMP JUMPDEST PUSH1 0x20 DUP3 ADD SWAP1 POP SWAP2 SWAP1 POP JUMP JUMPDEST PUSH1 0x0 PUSH1 0x60 DUP3 ADD SWAP1 POP DUP2 DUP2 SUB PUSH1 0x0 DUP4 ADD MSTORE PUSH3 0x3B56 DUP2 DUP5 PUSH3 0x3341 JUMP JUMPDEST SWAP1 POP DUP2 DUP2 SUB PUSH1 0x20 DUP4 ADD MSTORE PUSH3 0x3B6B DUP2 PUSH3 0x3B13 JUMP JUMPDEST SWAP1 POP DUP2 DUP2 SUB PUSH1 0x40 DUP4 ADD MSTORE PUSH3 0x3B80 DUP2 PUSH3 0x33D5 JUMP JUMPDEST SWAP1 POP SWAP3 SWAP2 POP POP JUMP JUMPDEST PUSH32 0x43616C6C2073686F756C64206661696C00000000000000000000000000000000 PUSH1 0x0 DUP3 ADD MSTORE POP JUMP JUMPDEST PUSH1 0x0 PUSH3 0x3BC0 PUSH1 0x10 DUP4 PUSH3 0x32FA JUMP JUMPDEST SWAP2 POP PUSH3 0x3BCD DUP3 PUSH3 0x3B88 JUMP JUMPDEST PUSH1 0x20 DUP3 ADD SWAP1 POP SWAP2 SWAP1 POP JUMP JUMPDEST PUSH1 0x0 PUSH1 0x40 DUP3 ADD SWAP1 POP PUSH3 0x3BEF PUSH1 0x0 DUP4 ADD DUP5 PUSH3 0x34C3 JUMP JUMPDEST DUP2 DUP2 SUB PUSH1 0x20 DUP4 ADD MSTORE PUSH3 0x3C02 DUP2 PUSH3 0x3BB1 JUMP JUMPDEST SWAP1 POP SWAP3 SWAP2 POP POP JUMP JUMPDEST PUSH32 0x57617463682074686520746F6B656E2070726963652C206F6E6C792077686F6C PUSH1 0x0 DUP3 ADD MSTORE PUSH32 0x6520746F6B656E732063616E20626520626F7567687421000000000000000000 PUSH1 0x20 DUP3 ADD MSTORE POP JUMP JUMPDEST PUSH1 0x0 PUSH3 0x3C68 PUSH1 0x37 DUP4 PUSH3 0x32FA JUMP JUMPDEST SWAP2 POP PUSH3 0x3C75 DUP3 PUSH3 0x3C0A JUMP JUMPDEST PUSH1 0x40 DUP3 ADD SWAP1 POP SWAP2 SWAP1 POP JUMP JUMPDEST PUSH1 0x0 PUSH1 0x60 DUP3 ADD SWAP1 POP DUP2 DUP2 SUB PUSH1 0x0 DUP4 ADD MSTORE PUSH3 0x3C9C DUP2 DUP5 PUSH3 0x3341 JUMP JUMPDEST SWAP1 POP DUP2 DUP2 SUB PUSH1 0x20 DUP4 ADD MSTORE PUSH3 0x3CB1 DUP2 PUSH3 0x3C59 JUMP JUMPDEST SWAP1 POP DUP2 DUP2 SUB PUSH1 0x40 DUP4 ADD MSTORE PUSH3 0x3CC6 DUP2 PUSH3 0x33D5 JUMP JUMPDEST SWAP1 POP SWAP3 SWAP2 POP POP JUMP JUMPDEST PUSH1 0x0 DUP2 SWAP1 POP SWAP2 SWAP1 POP JUMP JUMPDEST PUSH1 0x0 PUSH3 0x3CF9 PUSH3 0x3CF3 PUSH3 0x3CED DUP5 PUSH3 0x3CCE JUMP JUMPDEST PUSH3 0x361B JUMP JUMPDEST PUSH3 0x3611 JUMP JUMPDEST SWAP1 POP SWAP2 SWAP1 POP JUMP JUMPDEST PUSH3 0x3D0B DUP2 PUSH3 0x3CD8 JUMP JUMPDEST DUP3 MSTORE POP POP JUMP JUMPDEST PUSH1 0x0 DUP2 SWAP1 POP SWAP2 SWAP1 POP JUMP JUMPDEST PUSH1 0x0 PUSH3 0x3D3C PUSH3 0x3D36 PUSH3 0x3D30 DUP5 PUSH3 0x3D11 JUMP JUMPDEST PUSH3 0x361B JUMP JUMPDEST PUSH3 0x3611 JUMP JUMPDEST SWAP1 POP SWAP2 SWAP1 POP JUMP JUMPDEST PUSH3 0x3D4E DUP2 PUSH3 0x3D1B JUMP JUMPDEST DUP3 MSTORE POP POP JUMP JUMPDEST PUSH1 0x0 PUSH1 0x40 DUP3 ADD SWAP1 POP PUSH3 0x3D6B PUSH1 0x0 DUP4 ADD DUP6 PUSH3 0x3D00 JUMP JUMPDEST PUSH3 0x3D7A PUSH1 0x20 DUP4 ADD DUP5 PUSH3 0x3D43 JUMP JUMPDEST SWAP4 SWAP3 POP POP POP JUMP JUMPDEST PUSH32 0x5469746C652063616E277420626520656D707479000000000000000000000000 PUSH1 0x0 DUP3 ADD MSTORE POP JUMP JUMPDEST PUSH1 0x0 PUSH3 0x3DB9 PUSH1 0x14 DUP4 PUSH3 0x3556 JUMP JUMPDEST SWAP2 POP PUSH3 0x3DC6 DUP3 PUSH3 0x3D81 JUMP JUMPDEST PUSH1 0x20 DUP3 ADD SWAP1 POP SWAP2 SWAP1 POP JUMP JUMPDEST PUSH1 0x0 PUSH1 0x80 DUP3 ADD SWAP1 POP DUP2 DUP2 SUB PUSH1 0x0 DUP4 ADD MSTORE PUSH3 0x3DEC DUP2 PUSH3 0x3DAA JUMP JUMPDEST SWAP1 POP DUP2 DUP2 SUB PUSH1 0x20 DUP4 ADD MSTORE PUSH3 0x3E01 DUP2 PUSH3 0x35E0 JUMP JUMPDEST SWAP1 POP PUSH3 0x3E12 PUSH1 0x40 DUP4 ADD DUP6 PUSH3 0x364D JUMP JUMPDEST PUSH3 0x3E21 PUSH1 0x60 DUP4 ADD DUP5 PUSH3 0x3692 JUMP JUMPDEST SWAP4 SWAP3 POP POP POP JUMP JUMPDEST PUSH32 0x566F74696E67206973206E6F74206F70656E207965742E000000000000000000 PUSH1 0x0 DUP3 ADD MSTORE POP JUMP JUMPDEST PUSH1 0x0 PUSH3 0x3E60 PUSH1 0x17 DUP4 PUSH3 0x32FA JUMP JUMPDEST SWAP2 POP PUSH3 0x3E6D DUP3 PUSH3 0x3E28 JUMP JUMPDEST PUSH1 0x20 DUP3 ADD SWAP1 POP SWAP2 SWAP1 POP JUMP JUMPDEST PUSH1 0x0 PUSH1 0x60 DUP3 ADD SWAP1 POP DUP2 DUP2 SUB PUSH1 0x0 DUP4 ADD MSTORE PUSH3 0x3E94 DUP2 DUP5 PUSH3 0x3341 JUMP JUMPDEST SWAP1 POP DUP2 DUP2 SUB PUSH1 0x20 DUP4 ADD MSTORE PUSH3 0x3EA9 DUP2 PUSH3 0x3E51 JUMP JUMPDEST SWAP1 POP DUP2 DUP2 SUB PUSH1 0x40 DUP4 ADD MSTORE PUSH3 0x3EBE DUP2 PUSH3 0x33D5 JUMP JUMPDEST SWAP1 POP SWAP3 SWAP2 POP POP JUMP JUMPDEST PUSH1 0x0 PUSH3 0x3ED5 PUSH1 0x0 DUP4 PUSH3 0x3556 JUMP JUMPDEST SWAP2 POP PUSH3 0x3EE2 DUP3 PUSH3 0x33D2 JUMP JUMPDEST PUSH1 0x0 DUP3 ADD SWAP1 POP SWAP2 SWAP1 POP JUMP JUMPDEST PUSH1 0x0 PUSH1 0x80 DUP3 ADD SWAP1 POP DUP2 DUP2 SUB PUSH1 0x0 DUP4 ADD MSTORE PUSH3 0x3F08 DUP2 PUSH3 0x3EC6 JUMP JUMPDEST SWAP1 POP DUP2 DUP2 SUB PUSH1 0x20 DUP4 ADD MSTORE PUSH3 0x3F1D DUP2 PUSH3 0x35E0 JUMP JUMPDEST SWAP1 POP PUSH3 0x3F2E PUSH1 0x40 DUP4 ADD DUP6 PUSH3 0x364D JUMP JUMPDEST PUSH3 0x3F3D PUSH1 0x60 DUP4 ADD DUP5 PUSH3 0x3692 JUMP JUMPDEST SWAP4 SWAP3 POP POP POP JUMP JUMPDEST PUSH1 0x0 PUSH3 0x3F53 PUSH1 0x14 DUP4 PUSH3 0x32FA JUMP JUMPDEST SWAP2 POP PUSH3 0x3F60 DUP3 PUSH3 0x3D81 JUMP JUMPDEST PUSH1 0x20 DUP3 ADD SWAP1 POP SWAP2 SWAP1 POP JUMP JUMPDEST PUSH1 0x0 PUSH1 0x60 DUP3 ADD SWAP1 POP DUP2 DUP2 SUB PUSH1 0x0 DUP4 ADD MSTORE PUSH3 0x3F87 DUP2 DUP5 PUSH3 0x3341 JUMP JUMPDEST SWAP1 POP DUP2 DUP2 SUB PUSH1 0x20 DUP4 ADD MSTORE PUSH3 0x3F9C DUP2 PUSH3 0x3F44 JUMP JUMPDEST SWAP1 POP DUP2 DUP2 SUB PUSH1 0x40 DUP4 ADD MSTORE PUSH3 0x3FB1 DUP2 PUSH3 0x33D5 JUMP JUMPDEST SWAP1 POP SWAP3 SWAP2 POP POP JUMP JUMPDEST PUSH1 0x0 PUSH1 0x80 DUP3 ADD SWAP1 POP DUP2 DUP2 SUB PUSH1 0x0 DUP4 ADD MSTORE PUSH3 0x3FD4 DUP2 PUSH3 0x3590 JUMP JUMPDEST SWAP1 POP DUP2 DUP2 SUB PUSH1 0x20 DUP4 ADD MSTORE PUSH3 0x3FE9 DUP2 PUSH3 0x3EC6 JUMP JUMPDEST SWAP1 POP PUSH3 0x3FFA PUSH1 0x40 DUP4 ADD DUP6 PUSH3 0x364D JUMP JUMPDEST PUSH3 0x4009 PUSH1 0x60 DUP4 ADD DUP5 PUSH3 0x3692 JUMP JUMPDEST SWAP4 SWAP3 POP POP POP JUMP JUMPDEST PUSH32 0x4465736372697074696F6E2063616E277420626520656D707479000000000000 PUSH1 0x0 DUP3 ADD MSTORE POP JUMP JUMPDEST PUSH1 0x0 PUSH3 0x4048 PUSH1 0x1A DUP4 PUSH3 0x32FA JUMP JUMPDEST SWAP2 POP PUSH3 0x4055 DUP3 PUSH3 0x4010 JUMP JUMPDEST PUSH1 0x20 DUP3 ADD SWAP1 POP SWAP2 SWAP1 POP JUMP JUMPDEST PUSH1 0x0 PUSH1 0x60 DUP3 ADD SWAP1 POP DUP2 DUP2 SUB PUSH1 0x0 DUP4 ADD MSTORE PUSH3 0x407C DUP2 DUP5 PUSH3 0x3341 JUMP JUMPDEST SWAP1 POP DUP2 DUP2 SUB PUSH1 0x20 DUP4 ADD MSTORE PUSH3 0x4091 DUP2 PUSH3 0x4039 JUMP JUMPDEST SWAP1 POP DUP2 DUP2 SUB PUSH1 0x40 DUP4 ADD MSTORE PUSH3 0x40A6 DUP2 PUSH3 0x33D5 JUMP JUMPDEST SWAP1 POP SWAP3 SWAP2 POP POP JUMP JUMPDEST PUSH32 0x5468652061646472657373207265636569766564206973206E6F742061207661 PUSH1 0x0 DUP3 ADD MSTORE PUSH32 0x6C696420636F6E74726163742061646472657373000000000000000000000000 PUSH1 0x20 DUP3 ADD MSTORE POP JUMP JUMPDEST PUSH1 0x0 PUSH3 0x410C PUSH1 0x34 DUP4 PUSH3 0x32FA JUMP JUMPDEST SWAP2 POP PUSH3 0x4119 DUP3 PUSH3 0x40AE JUMP JUMPDEST PUSH1 0x40 DUP3 ADD SWAP1 POP SWAP2 SWAP1 POP JUMP JUMPDEST PUSH1 0x0 PUSH1 0x60 DUP3 ADD SWAP1 POP DUP2 DUP2 SUB PUSH1 0x0 DUP4 ADD MSTORE PUSH3 0x4140 DUP2 DUP5 PUSH3 0x3341 JUMP JUMPDEST SWAP1 POP DUP2 DUP2 SUB PUSH1 0x20 DUP4 ADD MSTORE PUSH3 0x4155 DUP2 PUSH3 0x40FD JUMP JUMPDEST SWAP1 POP DUP2 DUP2 SUB PUSH1 0x40 DUP4 ADD MSTORE PUSH3 0x416A DUP2 PUSH3 0x33D5 JUMP JUMPDEST SWAP1 POP SWAP3 SWAP2 POP POP JUMP JUMPDEST PUSH1 0x0 PUSH8 0xFFFFFFFFFFFFFFFF DUP3 GT ISZERO PUSH3 0x4190 JUMPI PUSH3 0x418F PUSH3 0x31EF JUMP JUMPDEST JUMPDEST PUSH1 0x20 DUP3 MUL SWAP1 POP PUSH1 0x20 DUP2 ADD SWAP1 POP SWAP2 SWAP1 POP JUMP JUMPDEST PUSH1 0x0 DUP1 REVERT JUMPDEST PUSH1 0x0 PUSH3 0x41BD PUSH3 0x41B7 DUP5 PUSH3 0x4172 JUMP JUMPDEST PUSH3 0x3795 JUMP JUMPDEST SWAP1 POP DUP1 DUP4 DUP3 MSTORE PUSH1 0x20 DUP3 ADD SWAP1 POP PUSH1 0x20 DUP5 MUL DUP4 ADD DUP6 DUP2 GT ISZERO PUSH3 0x41E3 JUMPI PUSH3 0x41E2 PUSH3 0x41A1 JUMP JUMPDEST JUMPDEST DUP4 JUMPDEST DUP2 DUP2 LT ISZERO PUSH3 0x4210 JUMPI DUP1 PUSH3 0x41FB DUP9 DUP3 PUSH3 0x3714 JUMP JUMPDEST DUP5 MSTORE PUSH1 0x20 DUP5 ADD SWAP4 POP POP PUSH1 0x20 DUP2 ADD SWAP1 POP PUSH3 0x41E5 JUMP JUMPDEST POP POP POP SWAP4 SWAP3 POP POP POP JUMP JUMPDEST PUSH1 0x0 DUP3 PUSH1 0x1F DUP4 ADD SLT PUSH3 0x4232 JUMPI PUSH3 0x4231 PUSH3 0x378B JUMP JUMPDEST JUMPDEST DUP2 MLOAD PUSH3 0x4244 DUP5 DUP3 PUSH1 0x20 DUP7 ADD PUSH3 0x41A6 JUMP JUMPDEST SWAP2 POP POP SWAP3 SWAP2 POP POP JUMP JUMPDEST PUSH1 0x0 PUSH1 0x20 DUP3 DUP5 SUB SLT ISZERO PUSH3 0x4266 JUMPI PUSH3 0x4265 PUSH3 0x344A JUMP JUMPDEST JUMPDEST PUSH1 0x0 DUP3 ADD MLOAD PUSH8 0xFFFFFFFFFFFFFFFF DUP2 GT ISZERO PUSH3 0x4287 JUMPI PUSH3 0x4286 PUSH3 0x344F JUMP JUMPDEST JUMPDEST PUSH3 0x4295 DUP5 DUP3 DUP6 ADD PUSH3 0x421A JUMP JUMPDEST SWAP2 POP POP SWAP3 SWAP2 POP POP JUMP JUMPDEST PUSH1 0x0 PUSH3 0x42AB DUP3 PUSH3 0x367E JUMP JUMPDEST SWAP1 POP SWAP2 SWAP1 POP JUMP JUMPDEST PUSH3 0x42BD DUP2 PUSH3 0x429E JUMP JUMPDEST DUP2 EQ PUSH3 0x42C9 JUMPI PUSH1 0x0 DUP1 REVERT JUMPDEST POP JUMP JUMPDEST PUSH1 0x0 DUP2 MLOAD SWAP1 POP PUSH3 0x42DD DUP2 PUSH3 0x42B2 JUMP JUMPDEST SWAP3 SWAP2 POP POP JUMP JUMPDEST PUSH1 0x0 PUSH1 0x20 DUP3 DUP5 SUB SLT ISZERO PUSH3 0x42FC JUMPI PUSH3 0x42FB PUSH3 0x344A JUMP JUMPDEST JUMPDEST PUSH1 0x0 PUSH3 0x430C DUP5 DUP3 DUP6 ADD PUSH3 0x42CC JUMP JUMPDEST SWAP2 POP POP SWAP3 SWAP2 POP POP JUMP JUMPDEST PUSH1 0x0 PUSH1 0x40 DUP3 ADD SWAP1 POP PUSH3 0x432C PUSH1 0x0 DUP4 ADD DUP6 PUSH3 0x3692 JUMP JUMPDEST PUSH3 0x433B PUSH1 0x20 DUP4 ADD DUP5 PUSH3 0x375D JUMP JUMPDEST SWAP4 SWAP3 POP POP POP JUMP JUMPDEST PUSH1 0x0 PUSH1 0x40 DUP3 ADD SWAP1 POP PUSH3 0x4359 PUSH1 0x0 DUP4 ADD DUP6 PUSH3 0x375D JUMP JUMPDEST PUSH3 0x4368 PUSH1 0x20 DUP4 ADD DUP5 PUSH3 0x3D00 JUMP JUMPDEST SWAP4 SWAP3 POP POP POP JUMP JUMPDEST PUSH32 0x596F75206861766520746F20627579206174206C65617374206F6E6520746F6B PUSH1 0x0 DUP3 ADD MSTORE PUSH32 0x656E210000000000000000000000000000000000000000000000000000000000 PUSH1 0x20 DUP3 ADD MSTORE POP JUMP JUMPDEST PUSH1 0x0 PUSH3 0x43CD PUSH1 0x23 DUP4 PUSH3 0x32FA JUMP JUMPDEST SWAP2 POP PUSH3 0x43DA DUP3 PUSH3 0x436F JUMP JUMPDEST PUSH1 0x40 DUP3 ADD SWAP1 POP SWAP2 SWAP1 POP JUMP JUMPDEST PUSH1 0x0 PUSH1 0x60 DUP3 ADD SWAP1 POP DUP2 DUP2 SUB PUSH1 0x0 DUP4 ADD MSTORE PUSH3 0x4401 DUP2 DUP5 PUSH3 0x3341 JUMP JUMPDEST SWAP1 POP DUP2 DUP2 SUB PUSH1 0x20 DUP4 ADD MSTORE PUSH3 0x4416 DUP2 PUSH3 0x43BE JUMP JUMPDEST SWAP1 POP DUP2 DUP2 SUB PUSH1 0x40 DUP4 ADD MSTORE PUSH3 0x442B DUP2 PUSH3 0x33D5 JUMP JUMPDEST SWAP1 POP SWAP3 SWAP2 POP POP JUMP JUMPDEST PUSH32 0x50726F706F73616C2068617320616C7265616479206265656E2063616E63656C PUSH1 0x0 DUP3 ADD MSTORE PUSH32 0x6C65642E00000000000000000000000000000000000000000000000000000000 PUSH1 0x20 DUP3 ADD MSTORE POP JUMP JUMPDEST PUSH1 0x0 PUSH3 0x4491 PUSH1 0x24 DUP4 PUSH3 0x32FA JUMP JUMPDEST SWAP2 POP PUSH3 0x449E DUP3 PUSH3 0x4433 JUMP JUMPDEST PUSH1 0x40 DUP3 ADD SWAP1 POP SWAP2 SWAP1 POP JUMP JUMPDEST PUSH1 0x0 PUSH1 0x60 DUP3 ADD SWAP1 POP DUP2 DUP2 SUB PUSH1 0x0 DUP4 ADD MSTORE PUSH3 0x44C5 DUP2 DUP5 PUSH3 0x3341 JUMP JUMPDEST SWAP1 POP DUP2 DUP2 SUB PUSH1 0x20 DUP4 ADD MSTORE PUSH3 0x44DA DUP2 PUSH3 0x4482 JUMP JUMPDEST SWAP1 POP DUP2 DUP2 SUB PUSH1 0x40 DUP4 ADD MSTORE PUSH3 0x44EF DUP2 PUSH3 0x33D5 JUMP JUMPDEST SWAP1 POP SWAP3 SWAP2 POP POP JUMP JUMPDEST PUSH32 0x566F74696E6720697320616C7265616479206F70656E2E000000000000000000 PUSH1 0x0 DUP3 ADD MSTORE POP JUMP JUMPDEST PUSH1 0x0 PUSH3 0x452F PUSH1 0x17 DUP4 PUSH3 0x32FA JUMP JUMPDEST SWAP2 POP PUSH3 0x453C DUP3 PUSH3 0x44F7 JUMP JUMPDEST PUSH1 0x20 DUP3 ADD SWAP1 POP SWAP2 SWAP1 POP JUMP JUMPDEST PUSH1 0x0 PUSH1 0x60 DUP3 ADD SWAP1 POP DUP2 DUP2 SUB PUSH1 0x0 DUP4 ADD MSTORE PUSH3 0x4563 DUP2 DUP5 PUSH3 0x3341 JUMP JUMPDEST SWAP1 POP DUP2 DUP2 SUB PUSH1 0x20 DUP4 ADD MSTORE PUSH3 0x4578 DUP2 PUSH3 0x4520 JUMP JUMPDEST SWAP1 POP DUP2 DUP2 SUB PUSH1 0x40 DUP4 ADD MSTORE PUSH3 0x458D DUP2 PUSH3 0x33D5 JUMP JUMPDEST SWAP1 POP SWAP3 SWAP2 POP POP JUMP JUMPDEST PUSH1 0x0 DUP2 SWAP1 POP SWAP2 SWAP1 POP JUMP JUMPDEST PUSH1 0x0 PUSH3 0x45C0 PUSH3 0x45BA PUSH3 0x45B4 DUP5 PUSH3 0x4595 JUMP JUMPDEST PUSH3 0x361B JUMP JUMPDEST PUSH3 0x3611 JUMP JUMPDEST SWAP1 POP SWAP2 SWAP1 POP JUMP JUMPDEST PUSH3 0x45D2 DUP2 PUSH3 0x459F JUMP JUMPDEST DUP3 MSTORE POP POP JUMP JUMPDEST PUSH32 0x546865206E756D626572206F662070726F706F73616C732073686F756C642062 PUSH1 0x0 DUP3 ADD MSTORE PUSH32 0x6520302E00000000000000000000000000000000000000000000000000000000 PUSH1 0x20 DUP3 ADD MSTORE POP JUMP JUMPDEST PUSH1 0x0 PUSH3 0x4636 PUSH1 0x24 DUP4 PUSH3 0x32FA JUMP JUMPDEST SWAP2 POP PUSH3 0x4643 DUP3 PUSH3 0x45D8 JUMP JUMPDEST PUSH1 0x40 DUP3 ADD SWAP1 POP SWAP2 SWAP1 POP JUMP JUMPDEST PUSH1 0x0 PUSH1 0x60 DUP3 ADD SWAP1 POP PUSH3 0x4665 PUSH1 0x0 DUP4 ADD DUP6 PUSH3 0x3A33 JUMP JUMPDEST PUSH3 0x4674 PUSH1 0x20 DUP4 ADD DUP5 PUSH3 0x45C7 JUMP JUMPDEST DUP2 DUP2 SUB PUSH1 0x40 DUP4 ADD MSTORE PUSH3 0x4687 DUP2 PUSH3 0x4627 JUMP JUMPDEST SWAP1 POP SWAP4 SWAP3 POP POP POP JUMP JUMPDEST PUSH32 0x5468697320697320612074657374207369676E616C696E672070726F706F7361 PUSH1 0x0 DUP3 ADD MSTORE PUSH32 0x6C00000000000000000000000000000000000000000000000000000000000000 PUSH1 0x20 DUP3 ADD MSTORE POP JUMP JUMPDEST PUSH1 0x0 PUSH3 0x46EE PUSH1 0x21 DUP4 PUSH3 0x3556 JUMP JUMPDEST SWAP2 POP PUSH3 0x46FB DUP3 PUSH3 0x4690 JUMP JUMPDEST PUSH1 0x40 DUP3 ADD SWAP1 POP SWAP2 SWAP1 POP JUMP JUMPDEST PUSH3 0x4711 DUP2 PUSH3 0x459F JUMP JUMPDEST DUP3 MSTORE POP POP JUMP JUMPDEST PUSH1 0x0 PUSH1 0x80 DUP3 ADD SWAP1 POP DUP2 DUP2 SUB PUSH1 0x0 DUP4 ADD MSTORE PUSH3 0x4732 DUP2 PUSH3 0x3590 JUMP JUMPDEST SWAP1 POP DUP2 DUP2 SUB PUSH1 0x20 DUP4 ADD MSTORE PUSH3 0x4747 DUP2 PUSH3 0x46DF JUMP JUMPDEST SWAP1 POP PUSH3 0x4758 PUSH1 0x40 DUP4 ADD DUP6 PUSH3 0x4706 JUMP JUMPDEST PUSH3 0x4767 PUSH1 0x60 DUP4 ADD DUP5 PUSH3 0x3692 JUMP JUMPDEST SWAP4 SWAP3 POP POP POP JUMP JUMPDEST PUSH1 0x0 DUP2 SWAP1 POP SWAP2 SWAP1 POP JUMP JUMPDEST PUSH1 0x0 PUSH3 0x4799 PUSH3 0x4793 PUSH3 0x478D DUP5 PUSH3 0x476E JUMP JUMPDEST PUSH3 0x361B JUMP JUMPDEST PUSH3 0x3611 JUMP JUMPDEST SWAP1 POP SWAP2 SWAP1 POP JUMP JUMPDEST PUSH3 0x47AB DUP2 PUSH3 0x4778 JUMP JUMPDEST DUP3 MSTORE POP POP JUMP JUMPDEST PUSH32 0x546865206E756D626572206F662070726F706F73616C732073686F756C642062 PUSH1 0x0 DUP3 ADD MSTORE PUSH32 0x6520312E00000000000000000000000000000000000000000000000000000000 PUSH1 0x20 DUP3 ADD MSTORE POP JUMP JUMPDEST PUSH1 0x0 PUSH3 0x480F PUSH1 0x24 DUP4 PUSH3 0x32FA JUMP JUMPDEST SWAP2 POP PUSH3 0x481C DUP3 PUSH3 0x47B1 JUMP JUMPDEST PUSH1 0x40 DUP3 ADD SWAP1 POP SWAP2 SWAP1 POP JUMP JUMPDEST PUSH1 0x0 PUSH1 0x60 DUP3 ADD SWAP1 POP PUSH3 0x483E PUSH1 0x0 DUP4 ADD DUP6 PUSH3 0x3A33 JUMP JUMPDEST PUSH3 0x484D PUSH1 0x20 DUP4 ADD DUP5 PUSH3 0x47A0 JUMP JUMPDEST DUP2 DUP2 SUB PUSH1 0x40 DUP4 ADD MSTORE PUSH3 0x4860 DUP2 PUSH3 0x4800 JUMP JUMPDEST SWAP1 POP SWAP4 SWAP3 POP POP POP JUMP INVALID PUSH1 0xA0 PUSH1 0x40 MSTORE PUSH1 0x40 MLOAD PUSH3 0x6176 CODESIZE SUB DUP1 PUSH3 0x6176 DUP4 CODECOPY DUP2 DUP2 ADD PUSH1 0x40 MSTORE DUP2 ADD SWAP1 PUSH3 0x29 SWAP2 SWAP1 PUSH3 0x335 JUMP JUMPDEST CALLER PUSH1 0x0 DUP1 PUSH2 0x100 EXP DUP2 SLOAD DUP2 PUSH20 0xFFFFFFFFFFFFFFFFFFFFFFFFFFFFFFFFFFFFFFFF MUL NOT AND SWAP1 DUP4 PUSH20 0xFFFFFFFFFFFFFFFFFFFFFFFFFFFFFFFFFFFFFFFF AND MUL OR SWAP1 SSTORE POP DUP2 PUSH1 0x80 DUP2 DUP2 MSTORE POP POP DUP1 PUSH1 0x6 DUP2 SWAP1 SSTORE POP DUP1 PUSH1 0x40 MLOAD PUSH3 0x87 SWAP1 PUSH3 0x187 JUMP JUMPDEST PUSH3 0x93 SWAP2 SWAP1 PUSH3 0x43E JUMP JUMPDEST PUSH1 0x40 MLOAD DUP1 SWAP2 SUB SWAP1 PUSH1 0x0 CREATE DUP1 ISZERO DUP1 ISZERO PUSH3 0xB0 JUMPI RETURNDATASIZE PUSH1 0x0 DUP1 RETURNDATACOPY RETURNDATASIZE PUSH1 0x0 REVERT JUMPDEST POP PUSH1 0x3 PUSH1 0x0 PUSH2 0x100 EXP DUP2 SLOAD DUP2 PUSH20 0xFFFFFFFFFFFFFFFFFFFFFFFFFFFFFFFFFFFFFFFF MUL NOT AND SWAP1 DUP4 PUSH20 0xFFFFFFFFFFFFFFFFFFFFFFFFFFFFFFFFFFFFFFFF AND MUL OR SWAP1 SSTORE POP PUSH1 0x0 DUP1 PUSH1 0x14 PUSH2 0x100 EXP DUP2 SLOAD DUP2 PUSH1 0xFF MUL NOT AND SWAP1 DUP4 ISZERO ISZERO MUL OR SWAP1 SSTORE POP PUSH1 0x0 PUSH1 0x5 DUP2 SWAP1 SSTORE POP PUSH1 0x0 PUSH8 0xFFFFFFFFFFFFFFFF DUP2 GT ISZERO PUSH3 0x131 JUMPI PUSH3 0x130 PUSH3 0x485 JUMP JUMPDEST JUMPDEST PUSH1 0x40 MLOAD SWAP1 DUP1 DUP3 MSTORE DUP1 PUSH1 0x20 MUL PUSH1 0x20 ADD DUP3 ADD PUSH1 0x40 MSTORE DUP1 ISZERO PUSH3 0x166 JUMPI DUP2 PUSH1 0x20 ADD JUMPDEST PUSH1 0x60 DUP2 MSTORE PUSH1 0x20 ADD SWAP1 PUSH1 0x1 SWAP1 SUB SWAP1 DUP2 PUSH3 0x150 JUMPI SWAP1 POP JUMPDEST POP PUSH1 0x9 SWAP1 DUP1 MLOAD SWAP1 PUSH1 0x20 ADD SWAP1 PUSH3 0x17E SWAP3 SWAP2 SWAP1 PUSH3 0x195 JUMP JUMPDEST POP POP POP PUSH3 0x4B4 JUMP JUMPDEST PUSH2 0x1CD7 DUP1 PUSH3 0x449F DUP4 CODECOPY ADD SWAP1 JUMP JUMPDEST DUP3 DUP1 SLOAD DUP3 DUP3 SSTORE SWAP1 PUSH1 0x0 MSTORE PUSH1 0x20 PUSH1 0x0 KECCAK256 SWAP1 DUP2 ADD SWAP3 DUP3 ISZERO PUSH3 0x1E9 JUMPI SWAP2 PUSH1 0x20 MUL DUP3 ADD JUMPDEST DUP3 DUP2 GT ISZERO PUSH3 0x1E8 JUMPI DUP3 MLOAD DUP3 SWAP1 DUP1 MLOAD SWAP1 PUSH1 0x20 ADD SWAP1 PUSH3 0x1D7 SWAP3 SWAP2 SWAP1 PUSH3 0x1FC JUMP JUMPDEST POP SWAP2 PUSH1 0x20 ADD SWAP2 SWAP1 PUSH1 0x1 ADD SWAP1 PUSH3 0x1B6 JUMP JUMPDEST JUMPDEST POP SWAP1 POP PUSH3 0x1F8 SWAP2 SWAP1 PUSH3 0x28B JUMP JUMPDEST POP SWAP1 JUMP JUMPDEST DUP3 DUP1 SLOAD DUP3 DUP3 SSTORE SWAP1 PUSH1 0x0 MSTORE PUSH1 0x20 PUSH1 0x0 KECCAK256 SWAP1 DUP2 ADD SWAP3 DUP3 ISZERO PUSH3 0x278 JUMPI SWAP2 PUSH1 0x20 MUL DUP3 ADD JUMPDEST DUP3 DUP2 GT ISZERO PUSH3 0x277 JUMPI DUP3 MLOAD DUP3 PUSH1 0x0 PUSH2 0x100 EXP DUP2 SLOAD DUP2 PUSH20 0xFFFFFFFFFFFFFFFFFFFFFFFFFFFFFFFFFFFFFFFF MUL NOT AND SWAP1 DUP4 PUSH20 0xFFFFFFFFFFFFFFFFFFFFFFFFFFFFFFFFFFFFFFFF AND MUL OR SWAP1 SSTORE POP SWAP2 PUSH1 0x20 ADD SWAP2 SWAP1 PUSH1 0x1 ADD SWAP1 PUSH3 0x21D JUMP JUMPDEST JUMPDEST POP SWAP1 POP PUSH3 0x287 SWAP2 SWAP1 PUSH3 0x2B3 JUMP JUMPDEST POP SWAP1 JUMP JUMPDEST JUMPDEST DUP1 DUP3 GT ISZERO PUSH3 0x2AF JUMPI PUSH1 0x0 DUP2 DUP2 PUSH3 0x2A5 SWAP2 SWAP1 PUSH3 0x2D2 JUMP JUMPDEST POP PUSH1 0x1 ADD PUSH3 0x28C JUMP JUMPDEST POP SWAP1 JUMP JUMPDEST JUMPDEST DUP1 DUP3 GT ISZERO PUSH3 0x2CE JUMPI PUSH1 0x0 DUP2 PUSH1 0x0 SWAP1 SSTORE POP PUSH1 0x1 ADD PUSH3 0x2B4 JUMP JUMPDEST POP SWAP1 JUMP JUMPDEST POP DUP1 SLOAD PUSH1 0x0 DUP3 SSTORE SWAP1 PUSH1 0x0 MSTORE PUSH1 0x20 PUSH1 0x0 KECCAK256 SWAP1 DUP2 ADD SWAP1 PUSH3 0x2F2 SWAP2 SWAP1 PUSH3 0x2B3 JUMP JUMPDEST POP JUMP JUMPDEST PUSH1 0x0 DUP1 REVERT JUMPDEST PUSH1 0x0 DUP2 SWAP1 POP SWAP2 SWAP1 POP JUMP JUMPDEST PUSH3 0x30F DUP2 PUSH3 0x2FA JUMP JUMPDEST DUP2 EQ PUSH3 0x31B JUMPI PUSH1 0x0 DUP1 REVERT JUMPDEST POP JUMP JUMPDEST PUSH1 0x0 DUP2 MLOAD SWAP1 POP PUSH3 0x32F DUP2 PUSH3 0x304 JUMP JUMPDEST SWAP3 SWAP2 POP POP JUMP JUMPDEST PUSH1 0x0 DUP1 PUSH1 0x40 DUP4 DUP6 SUB SLT ISZERO PUSH3 0x34F JUMPI PUSH3 0x34E PUSH3 0x2F5 JUMP JUMPDEST JUMPDEST PUSH1 0x0 PUSH3 0x35F DUP6 DUP3 DUP7 ADD PUSH3 0x31E JUMP JUMPDEST SWAP3 POP POP PUSH1 0x20 PUSH3 0x372 DUP6 DUP3 DUP7 ADD PUSH3 0x31E JUMP JUMPDEST SWAP2 POP POP SWAP3 POP SWAP3 SWAP1 POP JUMP JUMPDEST PUSH1 0x0 DUP3 DUP3 MSTORE PUSH1 0x20 DUP3 ADD SWAP1 POP SWAP3 SWAP2 POP POP JUMP JUMPDEST PUSH32 0x4D61726B00000000000000000000000000000000000000000000000000000000 PUSH1 0x0 DUP3 ADD MSTORE POP JUMP JUMPDEST PUSH1 0x0 PUSH3 0x3C5 PUSH1 0x4 DUP4 PUSH3 0x37C JUMP JUMPDEST SWAP2 POP PUSH3 0x3D2 DUP3 PUSH3 0x38D JUMP JUMPDEST PUSH1 0x20 DUP3 ADD SWAP1 POP SWAP2 SWAP1 POP JUMP JUMPDEST PUSH32 0x524D000000000000000000000000000000000000000000000000000000000000 PUSH1 0x0 DUP3 ADD MSTORE POP JUMP JUMPDEST PUSH1 0x0 PUSH3 0x415 PUSH1 0x2 DUP4 PUSH3 0x37C JUMP JUMPDEST SWAP2 POP PUSH3 0x422 DUP3 PUSH3 0x3DD JUMP JUMPDEST PUSH1 0x20 DUP3 ADD SWAP1 POP SWAP2 SWAP1 POP JUMP JUMPDEST PUSH3 0x438 DUP2 PUSH3 0x2FA JUMP JUMPDEST DUP3 MSTORE POP POP JUMP JUMPDEST PUSH1 0x0 PUSH1 0x60 DUP3 ADD SWAP1 POP DUP2 DUP2 SUB PUSH1 0x0 DUP4 ADD MSTORE PUSH3 0x459 DUP2 PUSH3 0x3B6 JUMP JUMPDEST SWAP1 POP DUP2 DUP2 SUB PUSH1 0x20 DUP4 ADD MSTORE PUSH3 0x46E DUP2 PUSH3 0x406 JUMP JUMPDEST SWAP1 POP PUSH3 0x47F PUSH1 0x40 DUP4 ADD DUP5 PUSH3 0x42D JUMP JUMPDEST SWAP3 SWAP2 POP POP JUMP JUMPDEST PUSH32 0x4E487B7100000000000000000000000000000000000000000000000000000000 PUSH1 0x0 MSTORE PUSH1 0x41 PUSH1 0x4 MSTORE PUSH1 0x24 PUSH1 0x0 REVERT JUMPDEST PUSH1 0x80 MLOAD PUSH2 0x3FAC PUSH3 0x4F3 PUSH1 0x0 CODECOPY PUSH1 0x0 DUP2 DUP2 PUSH2 0x8DA ADD MSTORE DUP2 DUP2 PUSH2 0x1CAC ADD MSTORE DUP2 DUP2 PUSH2 0x1FB0 ADD MSTORE DUP2 DUP2 PUSH2 0x2025 ADD MSTORE DUP2 DUP2 PUSH2 0x2677 ADD MSTORE PUSH2 0x29A5 ADD MSTORE PUSH2 0x3FAC PUSH1 0x0 RETURN INVALID PUSH1 0x80 PUSH1 0x40 MSTORE PUSH1 0x4 CALLDATASIZE LT PUSH2 0xE8 JUMPI PUSH1 0x0 CALLDATALOAD PUSH1 0xE0 SHR DUP1 PUSH4 0xA80DB6FC GT PUSH2 0x8A JUMPI DUP1 PUSH4 0xD0FEBE4C GT PUSH2 0x59 JUMPI DUP1 PUSH4 0xD0FEBE4C EQ PUSH2 0x2A5 JUMPI DUP1 PUSH4 0xD7717750 EQ PUSH2 0x2AF JUMPI DUP1 PUSH4 0xE0A8F6F5 EQ PUSH2 0x2DA JUMPI DUP1 PUSH4 0xFFFEFD91 EQ PUSH2 0x303 JUMPI PUSH2 0xE8 JUMP JUMPDEST DUP1 PUSH4 0xA80DB6FC EQ PUSH2 0x219 JUMPI DUP1 PUSH4 0xAFFC0670 EQ PUSH2 0x244 JUMPI DUP1 PUSH4 0xBC903CB8 EQ PUSH2 0x24E JUMPI DUP1 PUSH4 0xC631B292 EQ PUSH2 0x28E JUMPI PUSH2 0xE8 JUMP JUMPDEST DUP1 PUSH4 0x7B0472F0 GT PUSH2 0xC6 JUMPI DUP1 PUSH4 0x7B0472F0 EQ PUSH2 0x15D JUMPI DUP1 PUSH4 0x892B99A8 EQ PUSH2 0x186 JUMPI DUP1 PUSH4 0x8E08A50B EQ PUSH2 0x1B1 JUMPI DUP1 PUSH4 0x9AB3F7A6 EQ PUSH2 0x1DC JUMPI PUSH2 0xE8 JUMP JUMPDEST DUP1 PUSH4 0x3AC0FEAC EQ PUSH2 0xED JUMPI DUP1 PUSH4 0x649C649C EQ PUSH2 0x118 JUMPI DUP1 PUSH4 0x6C11BCD3 EQ PUSH2 0x141 JUMPI JUMPDEST PUSH1 0x0 DUP1 REVERT JUMPDEST CALLVALUE DUP1 ISZERO PUSH2 0xF9 JUMPI PUSH1 0x0 DUP1 REVERT JUMPDEST POP PUSH2 0x102 PUSH2 0x30D JUMP JUMPDEST PUSH1 0x40 MLOAD PUSH2 0x10F SWAP2 SWAP1 PUSH2 0x2C9F JUMP JUMPDEST PUSH1 0x40 MLOAD DUP1 SWAP2 SUB SWAP1 RETURN JUMPDEST CALLVALUE DUP1 ISZERO PUSH2 0x124 JUMPI PUSH1 0x0 DUP1 REVERT JUMPDEST POP PUSH2 0x13F PUSH1 0x4 DUP1 CALLDATASIZE SUB DUP2 ADD SWAP1 PUSH2 0x13A SWAP2 SWAP1 PUSH2 0x2CF7 JUMP JUMPDEST PUSH2 0x4DA JUMP JUMPDEST STOP JUMPDEST PUSH2 0x15B PUSH1 0x4 DUP1 CALLDATASIZE SUB DUP2 ADD SWAP1 PUSH2 0x156 SWAP2 SWAP1 PUSH2 0x2D37 JUMP JUMPDEST PUSH2 0x719 JUMP JUMPDEST STOP JUMPDEST CALLVALUE DUP1 ISZERO PUSH2 0x169 JUMPI PUSH1 0x0 DUP1 REVERT JUMPDEST POP PUSH2 0x184 PUSH1 0x4 DUP1 CALLDATASIZE SUB DUP2 ADD SWAP1 PUSH2 0x17F SWAP2 SWAP1 PUSH2 0x2CF7 JUMP JUMPDEST PUSH2 0x938 JUMP JUMPDEST STOP JUMPDEST CALLVALUE DUP1 ISZERO PUSH2 0x192 JUMPI PUSH1 0x0 DUP1 REVERT JUMPDEST POP PUSH2 0x19B PUSH2 0xE37 JUMP JUMPDEST PUSH1 0x40 MLOAD PUSH2 0x1A8 SWAP2 SWAP1 PUSH2 0x2DE3 JUMP JUMPDEST PUSH1 0x40 MLOAD DUP1 SWAP2 SUB SWAP1 RETURN JUMPDEST CALLVALUE DUP1 ISZERO PUSH2 0x1BD JUMPI PUSH1 0x0 DUP1 REVERT JUMPDEST POP PUSH2 0x1C6 PUSH2 0xE61 JUMP JUMPDEST PUSH1 0x40 MLOAD PUSH2 0x1D3 SWAP2 SWAP1 PUSH2 0x2C9F JUMP JUMPDEST PUSH1 0x40 MLOAD DUP1 SWAP2 SUB SWAP1 RETURN JUMPDEST CALLVALUE DUP1 ISZERO PUSH2 0x1E8 JUMPI PUSH1 0x0 DUP1 REVERT JUMPDEST POP PUSH2 0x203 PUSH1 0x4 DUP1 CALLDATASIZE SUB DUP2 ADD SWAP1 PUSH2 0x1FE SWAP2 SWAP1 PUSH2 0x2EA1 JUMP JUMPDEST PUSH2 0x1012 JUMP JUMPDEST PUSH1 0x40 MLOAD PUSH2 0x210 SWAP2 SWAP1 PUSH2 0x2F57 JUMP JUMPDEST PUSH1 0x40 MLOAD DUP1 SWAP2 SUB SWAP1 RETURN JUMPDEST CALLVALUE DUP1 ISZERO PUSH2 0x225 JUMPI PUSH1 0x0 DUP1 REVERT JUMPDEST POP PUSH2 0x22E PUSH2 0x14A3 JUMP JUMPDEST PUSH1 0x40 MLOAD PUSH2 0x23B SWAP2 SWAP1 PUSH2 0x2C9F JUMP JUMPDEST PUSH1 0x40 MLOAD DUP1 SWAP2 SUB SWAP1 RETURN JUMPDEST PUSH2 0x24C PUSH2 0x168C JUMP JUMPDEST STOP JUMPDEST CALLVALUE DUP1 ISZERO PUSH2 0x25A JUMPI PUSH1 0x0 DUP1 REVERT JUMPDEST POP PUSH2 0x275 PUSH1 0x4 DUP1 CALLDATASIZE SUB DUP2 ADD SWAP1 PUSH2 0x270 SWAP2 SWAP1 PUSH2 0x2D37 JUMP JUMPDEST PUSH2 0x17A6 JUMP JUMPDEST PUSH1 0x40 MLOAD PUSH2 0x285 SWAP5 SWAP4 SWAP3 SWAP2 SWAP1 PUSH2 0x301A JUMP JUMPDEST PUSH1 0x40 MLOAD DUP1 SWAP2 SUB SWAP1 RETURN JUMPDEST CALLVALUE DUP1 ISZERO PUSH2 0x29A JUMPI PUSH1 0x0 DUP1 REVERT JUMPDEST POP PUSH2 0x2A3 PUSH2 0x192C JUMP JUMPDEST STOP JUMPDEST PUSH2 0x2AD PUSH2 0x1EDA JUMP JUMPDEST STOP JUMPDEST CALLVALUE DUP1 ISZERO PUSH2 0x2BB JUMPI PUSH1 0x0 DUP1 REVERT JUMPDEST POP PUSH2 0x2C4 PUSH2 0x219B JUMP JUMPDEST PUSH1 0x40 MLOAD PUSH2 0x2D1 SWAP2 SWAP1 PUSH2 0x2DE3 JUMP JUMPDEST PUSH1 0x40 MLOAD DUP1 SWAP2 SUB SWAP1 RETURN JUMPDEST CALLVALUE DUP1 ISZERO PUSH2 0x2E6 JUMPI PUSH1 0x0 DUP1 REVERT JUMPDEST POP PUSH2 0x301 PUSH1 0x4 DUP1 CALLDATASIZE SUB DUP2 ADD SWAP1 PUSH2 0x2FC SWAP2 SWAP1 PUSH2 0x2D37 JUMP JUMPDEST PUSH2 0x21C1 JUMP JUMPDEST STOP JUMPDEST PUSH2 0x30B PUSH2 0x252C JUMP JUMPDEST STOP JUMPDEST PUSH1 0x60 PUSH1 0x0 PUSH1 0x14 SWAP1 SLOAD SWAP1 PUSH2 0x100 EXP SWAP1 DIV PUSH1 0xFF AND PUSH2 0x35E JUMPI PUSH1 0x40 MLOAD PUSH32 0x8C379A000000000000000000000000000000000000000000000000000000000 DUP2 MSTORE PUSH1 0x4 ADD PUSH2 0x355 SWAP1 PUSH2 0x30B9 JUMP JUMPDEST PUSH1 0x40 MLOAD DUP1 SWAP2 SUB SWAP1 REVERT JUMPDEST PUSH1 0x0 DUP1 JUMPDEST PUSH1 0x2 DUP1 SLOAD SWAP1 POP DUP2 LT ISZERO PUSH2 0x3E0 JUMPI PUSH1 0x0 PUSH1 0x2 DUP3 DUP2 SLOAD DUP2 LT PUSH2 0x385 JUMPI PUSH2 0x384 PUSH2 0x30D9 JUMP JUMPDEST JUMPDEST SWAP1 PUSH1 0x0 MSTORE PUSH1 0x20 PUSH1 0x0 KECCAK256 SWAP1 PUSH1 0x6 MUL ADD SWAP1 POP DUP1 PUSH1 0x5 ADD PUSH1 0x14 SWAP1 SLOAD SWAP1 PUSH2 0x100 EXP SWAP1 DIV PUSH1 0xFF AND DUP1 ISZERO PUSH2 0x3B8 JUMPI POP PUSH1 0x0 DUP2 PUSH1 0x4 ADD SLOAD EQ ISZERO JUMPDEST ISZERO PUSH2 0x3CC JUMPI DUP3 DUP1 PUSH2 0x3C8 SWAP1 PUSH2 0x3137 JUMP JUMPDEST SWAP4 POP POP JUMPDEST POP DUP1 DUP1 PUSH2 0x3D8 SWAP1 PUSH2 0x3137 JUMP JUMPDEST SWAP2 POP POP PUSH2 0x362 JUMP JUMPDEST POP DUP1 PUSH8 0xFFFFFFFFFFFFFFFF DUP2 GT ISZERO PUSH2 0x3FB JUMPI PUSH2 0x3FA PUSH2 0x317F JUMP JUMPDEST JUMPDEST PUSH1 0x40 MLOAD SWAP1 DUP1 DUP3 MSTORE DUP1 PUSH1 0x20 MUL PUSH1 0x20 ADD DUP3 ADD PUSH1 0x40 MSTORE DUP1 ISZERO PUSH2 0x429 JUMPI DUP2 PUSH1 0x20 ADD PUSH1 0x20 DUP3 MUL DUP1 CALLDATASIZE DUP4 CALLDATACOPY DUP1 DUP3 ADD SWAP2 POP POP SWAP1 POP JUMPDEST POP SWAP2 POP PUSH1 0x0 DUP1 JUMPDEST DUP3 DUP2 LT ISZERO PUSH2 0x4D4 JUMPI PUSH1 0x0 PUSH1 0x2 DUP3 DUP2 SLOAD DUP2 LT PUSH2 0x44E JUMPI PUSH2 0x44D PUSH2 0x30D9 JUMP JUMPDEST JUMPDEST SWAP1 PUSH1 0x0 MSTORE PUSH1 0x20 PUSH1 0x0 KECCAK256 SWAP1 PUSH1 0x6 MUL ADD SWAP1 POP DUP1 PUSH1 0x5 ADD PUSH1 0x15 SWAP1 SLOAD SWAP1 PUSH2 0x100 EXP SWAP1 DIV PUSH1 0xFF AND ISZERO DUP1 ISZERO PUSH2 0x48C JUMPI POP DUP1 PUSH1 0x5 ADD PUSH1 0x14 SWAP1 SLOAD SWAP1 PUSH2 0x100 EXP SWAP1 DIV PUSH1 0xFF AND ISZERO JUMPDEST ISZERO PUSH2 0x4C0 JUMPI DUP3 DUP6 DUP4 DUP2 MLOAD DUP2 LT PUSH2 0x4A5 JUMPI PUSH2 0x4A4 PUSH2 0x30D9 JUMP JUMPDEST JUMPDEST PUSH1 0x20 MUL PUSH1 0x20 ADD ADD DUP2 DUP2 MSTORE POP POP DUP2 DUP1 PUSH2 0x4BC SWAP1 PUSH2 0x3137 JUMP JUMPDEST SWAP3 POP POP JUMPDEST POP DUP2 DUP1 PUSH2 0x4CC SWAP1 PUSH2 0x3137 JUMP JUMPDEST SWAP3 POP POP PUSH2 0x430 JUMP JUMPDEST POP POP POP SWAP1 JUMP JUMPDEST PUSH1 0x0 PUSH1 0x2 DUP3 DUP2 SLOAD DUP2 LT PUSH2 0x4F0 JUMPI PUSH2 0x4EF PUSH2 0x30D9 JUMP JUMPDEST JUMPDEST SWAP1 PUSH1 0x0 MSTORE PUSH1 0x20 PUSH1 0x0 KECCAK256 SWAP1 PUSH1 0x6 MUL ADD SWAP1 POP DUP1 PUSH1 0x5 ADD PUSH1 0x14 SWAP1 SLOAD SWAP1 PUSH2 0x100 EXP SWAP1 DIV PUSH1 0xFF AND ISZERO PUSH2 0x552 JUMPI PUSH1 0x40 MLOAD PUSH32 0x8C379A000000000000000000000000000000000000000000000000000000000 DUP2 MSTORE PUSH1 0x4 ADD PUSH2 0x549 SWAP1 PUSH2 0x3220 JUMP JUMPDEST PUSH1 0x40 MLOAD DUP1 SWAP2 SUB SWAP1 REVERT JUMPDEST DUP3 PUSH1 0x8 PUSH1 0x0 DUP5 DUP2 MSTORE PUSH1 0x20 ADD SWAP1 DUP2 MSTORE PUSH1 0x20 ADD PUSH1 0x0 KECCAK256 PUSH1 0x0 CALLER PUSH20 0xFFFFFFFFFFFFFFFFFFFFFFFFFFFFFFFFFFFFFFFF AND PUSH20 0xFFFFFFFFFFFFFFFFFFFFFFFFFFFFFFFFFFFFFFFF AND DUP2 MSTORE PUSH1 0x20 ADD SWAP1 DUP2 MSTORE PUSH1 0x20 ADD PUSH1 0x0 KECCAK256 SLOAD LT ISZERO PUSH2 0x5E5 JUMPI PUSH1 0x40 MLOAD PUSH32 0x8C379A000000000000000000000000000000000000000000000000000000000 DUP2 MSTORE PUSH1 0x4 ADD PUSH2 0x5DC SWAP1 PUSH2 0x32B2 JUMP JUMPDEST PUSH1 0x40 MLOAD DUP1 SWAP2 SUB SWAP1 REVERT JUMPDEST PUSH1 0x0 PUSH1 0x8 PUSH1 0x0 DUP5 DUP2 MSTORE PUSH1 0x20 ADD SWAP1 DUP2 MSTORE PUSH1 0x20 ADD PUSH1 0x0 KECCAK256 PUSH1 0x0 CALLER PUSH20 0xFFFFFFFFFFFFFFFFFFFFFFFFFFFFFFFFFFFFFFFF AND PUSH20 0xFFFFFFFFFFFFFFFFFFFFFFFFFFFFFFFFFFFFFFFF AND DUP2 MSTORE PUSH1 0x20 ADD SWAP1 DUP2 MSTORE PUSH1 0x20 ADD PUSH1 0x0 KECCAK256 SLOAD SWAP1 POP DUP4 PUSH1 0x8 PUSH1 0x0 DUP6 DUP2 MSTORE PUSH1 0x20 ADD SWAP1 DUP2 MSTORE PUSH1 0x20 ADD PUSH1 0x0 KECCAK256 PUSH1 0x0 CALLER PUSH20 0xFFFFFFFFFFFFFFFFFFFFFFFFFFFFFFFFFFFFFFFF AND PUSH20 0xFFFFFFFFFFFFFFFFFFFFFFFFFFFFFFFFFFFFFFFF AND DUP2 MSTORE PUSH1 0x20 ADD SWAP1 DUP2 MSTORE PUSH1 0x20 ADD PUSH1 0x0 KECCAK256 DUP2 SWAP1 SSTORE POP PUSH1 0x2 DUP5 DUP3 PUSH2 0x69D SWAP2 SWAP1 PUSH2 0x32D2 JUMP JUMPDEST PUSH2 0x6A7 SWAP2 SWAP1 PUSH2 0x3446 JUMP JUMPDEST PUSH1 0x2 DUP3 PUSH2 0x6B4 SWAP2 SWAP1 PUSH2 0x3446 JUMP JUMPDEST PUSH2 0x6BE SWAP2 SWAP1 PUSH2 0x32D2 JUMP JUMPDEST PUSH1 0x1 PUSH1 0x0 CALLER PUSH20 0xFFFFFFFFFFFFFFFFFFFFFFFFFFFFFFFFFFFFFFFF AND PUSH20 0xFFFFFFFFFFFFFFFFFFFFFFFFFFFFFFFFFFFFFFFF AND DUP2 MSTORE PUSH1 0x20 ADD SWAP1 DUP2 MSTORE PUSH1 0x20 ADD PUSH1 0x0 KECCAK256 PUSH1 0x0 DUP3 DUP3 SLOAD PUSH2 0x70C SWAP2 SWAP1 PUSH2 0x3491 JUMP JUMPDEST SWAP3 POP POP DUP2 SWAP1 SSTORE POP POP POP POP POP JUMP JUMPDEST PUSH1 0x4 PUSH1 0x0 CALLER PUSH20 0xFFFFFFFFFFFFFFFFFFFFFFFFFFFFFFFFFFFFFFFF AND PUSH20 0xFFFFFFFFFFFFFFFFFFFFFFFFFFFFFFFFFFFFFFFF AND DUP2 MSTORE PUSH1 0x20 ADD SWAP1 DUP2 MSTORE PUSH1 0x20 ADD PUSH1 0x0 KECCAK256 PUSH1 0x0 SWAP1 SLOAD SWAP1 PUSH2 0x100 EXP SWAP1 DIV PUSH1 0xFF AND PUSH2 0x7A5 JUMPI PUSH1 0x40 MLOAD PUSH32 0x8C379A000000000000000000000000000000000000000000000000000000000 DUP2 MSTORE PUSH1 0x4 ADD PUSH2 0x79C SWAP1 PUSH2 0x3533 JUMP JUMPDEST PUSH1 0x40 MLOAD DUP1 SWAP2 SUB SWAP1 REVERT JUMPDEST DUP1 PUSH1 0x1 PUSH1 0x0 CALLER PUSH20 0xFFFFFFFFFFFFFFFFFFFFFFFFFFFFFFFFFFFFFFFF AND PUSH20 0xFFFFFFFFFFFFFFFFFFFFFFFFFFFFFFFFFFFFFFFF AND DUP2 MSTORE PUSH1 0x20 ADD SWAP1 DUP2 MSTORE PUSH1 0x20 ADD PUSH1 0x0 KECCAK256 SLOAD LT ISZERO PUSH2 0x827 JUMPI PUSH1 0x40 MLOAD PUSH32 0x8C379A000000000000000000000000000000000000000000000000000000000 DUP2 MSTORE PUSH1 0x4 ADD PUSH2 0x81E SWAP1 PUSH2 0x359F JUMP JUMPDEST PUSH1 0x40 MLOAD DUP1 SWAP2 SUB SWAP1 REVERT JUMPDEST PUSH1 0x3 PUSH1 0x0 SWAP1 SLOAD SWAP1 PUSH2 0x100 EXP SWAP1 DIV PUSH20 0xFFFFFFFFFFFFFFFFFFFFFFFFFFFFFFFFFFFFFFFF AND PUSH20 0xFFFFFFFFFFFFFFFFFFFFFFFFFFFFFFFFFFFFFFFF AND PUSH4 0x9DC29FAC CALLER DUP4 PUSH1 0x40 MLOAD DUP4 PUSH4 0xFFFFFFFF AND PUSH1 0xE0 SHL DUP2 MSTORE PUSH1 0x4 ADD PUSH2 0x884 SWAP3 SWAP2 SWAP1 PUSH2 0x35BF JUMP JUMPDEST PUSH1 0x0 PUSH1 0x40 MLOAD DUP1 DUP4 SUB DUP2 PUSH1 0x0 DUP8 DUP1 EXTCODESIZE ISZERO DUP1 ISZERO PUSH2 0x89E JUMPI PUSH1 0x0 DUP1 REVERT JUMPDEST POP GAS CALL ISZERO DUP1 ISZERO PUSH2 0x8B2 JUMPI RETURNDATASIZE PUSH1 0x0 DUP1 RETURNDATACOPY RETURNDATASIZE PUSH1 0x0 REVERT JUMPDEST POP POP POP POP PUSH1 0x0 CALLER SWAP1 POP DUP1 PUSH20 0xFFFFFFFFFFFFFFFFFFFFFFFFFFFFFFFFFFFFFFFF AND PUSH2 0x8FC PUSH2 0x908 PUSH32 0x0 DUP6 PUSH2 0x2639 SWAP1 SWAP2 SWAP1 PUSH4 0xFFFFFFFF AND JUMP JUMPDEST SWAP1 DUP2 ISZERO MUL SWAP1 PUSH1 0x40 MLOAD PUSH1 0x0 PUSH1 0x40 MLOAD DUP1 DUP4 SUB DUP2 DUP6 DUP9 DUP9 CALL SWAP4 POP POP POP POP ISZERO DUP1 ISZERO PUSH2 0x933 JUMPI RETURNDATASIZE PUSH1 0x0 DUP1 RETURNDATACOPY RETURNDATASIZE PUSH1 0x0 REVERT JUMPDEST POP POP POP JUMP JUMPDEST PUSH1 0x4 PUSH1 0x0 CALLER PUSH20 0xFFFFFFFFFFFFFFFFFFFFFFFFFFFFFFFFFFFFFFFF AND PUSH20 0xFFFFFFFFFFFFFFFFFFFFFFFFFFFFFFFFFFFFFFFF AND DUP2 MSTORE PUSH1 0x20 ADD SWAP1 DUP2 MSTORE PUSH1 0x20 ADD PUSH1 0x0 KECCAK256 PUSH1 0x0 SWAP1 SLOAD SWAP1 PUSH2 0x100 EXP SWAP1 DIV PUSH1 0xFF AND PUSH2 0x9C4 JUMPI PUSH1 0x40 MLOAD PUSH32 0x8C379A000000000000000000000000000000000000000000000000000000000 DUP2 MSTORE PUSH1 0x4 ADD PUSH2 0x9BB SWAP1 PUSH2 0x3533 JUMP JUMPDEST PUSH1 0x40 MLOAD DUP1 SWAP2 SUB SWAP1 REVERT JUMPDEST PUSH1 0x0 PUSH1 0x14 SWAP1 SLOAD SWAP1 PUSH2 0x100 EXP SWAP1 DIV PUSH1 0xFF AND PUSH2 0xA13 JUMPI PUSH1 0x40 MLOAD PUSH32 0x8C379A000000000000000000000000000000000000000000000000000000000 DUP2 MSTORE PUSH1 0x4 ADD PUSH2 0xA0A SWAP1 PUSH2 0x30B9 JUMP JUMPDEST PUSH1 0x40 MLOAD DUP1 SWAP2 SUB SWAP1 REVERT JUMPDEST PUSH1 0x0 PUSH1 0x2 DUP4 DUP2 SLOAD DUP2 LT PUSH2 0xA29 JUMPI PUSH2 0xA28 PUSH2 0x30D9 JUMP JUMPDEST JUMPDEST SWAP1 PUSH1 0x0 MSTORE PUSH1 0x20 PUSH1 0x0 KECCAK256 SWAP1 PUSH1 0x6 MUL ADD SWAP1 POP PUSH1 0x0 PUSH1 0x8 PUSH1 0x0 DUP6 DUP2 MSTORE PUSH1 0x20 ADD SWAP1 DUP2 MSTORE PUSH1 0x20 ADD PUSH1 0x0 KECCAK256 PUSH1 0x0 CALLER PUSH20 0xFFFFFFFFFFFFFFFFFFFFFFFFFFFFFFFFFFFFFFFF AND PUSH20 0xFFFFFFFFFFFFFFFFFFFFFFFFFFFFFFFFFFFFFFFF AND DUP2 MSTORE PUSH1 0x20 ADD SWAP1 DUP2 MSTORE PUSH1 0x20 ADD PUSH1 0x0 KECCAK256 SLOAD SWAP1 POP PUSH1 0x0 DUP2 PUSH1 0x2 DUP6 DUP5 PUSH2 0xA9F SWAP2 SWAP1 PUSH2 0x3491 JUMP JUMPDEST PUSH2 0xAA9 SWAP2 SWAP1 PUSH2 0x3446 JUMP JUMPDEST PUSH2 0xAB3 SWAP2 SWAP1 PUSH2 0x32D2 JUMP JUMPDEST SWAP1 POP DUP1 PUSH1 0x1 PUSH1 0x0 CALLER PUSH20 0xFFFFFFFFFFFFFFFFFFFFFFFFFFFFFFFFFFFFFFFF AND PUSH20 0xFFFFFFFFFFFFFFFFFFFFFFFFFFFFFFFFFFFFFFFF AND DUP2 MSTORE PUSH1 0x20 ADD SWAP1 DUP2 MSTORE PUSH1 0x20 ADD PUSH1 0x0 KECCAK256 SLOAD LT ISZERO PUSH2 0xB37 JUMPI PUSH1 0x40 MLOAD PUSH32 0x8C379A000000000000000000000000000000000000000000000000000000000 DUP2 MSTORE PUSH1 0x4 ADD PUSH2 0xB2E SWAP1 PUSH2 0x3634 JUMP JUMPDEST PUSH1 0x40 MLOAD DUP1 SWAP2 SUB SWAP1 REVERT JUMPDEST DUP1 PUSH1 0x3 PUSH1 0x0 SWAP1 SLOAD SWAP1 PUSH2 0x100 EXP SWAP1 DIV PUSH20 0xFFFFFFFFFFFFFFFFFFFFFFFFFFFFFFFFFFFFFFFF AND PUSH20 0xFFFFFFFFFFFFFFFFFFFFFFFFFFFFFFFFFFFFFFFF AND PUSH4 0xDD62ED3E CALLER ADDRESS PUSH1 0x40 MLOAD DUP4 PUSH4 0xFFFFFFFF AND PUSH1 0xE0 SHL DUP2 MSTORE PUSH1 0x4 ADD PUSH2 0xB95 SWAP3 SWAP2 SWAP1 PUSH2 0x3654 JUMP JUMPDEST PUSH1 0x20 PUSH1 0x40 MLOAD DUP1 DUP4 SUB DUP2 DUP7 GAS STATICCALL ISZERO DUP1 ISZERO PUSH2 0xBB2 JUMPI RETURNDATASIZE PUSH1 0x0 DUP1 RETURNDATACOPY RETURNDATASIZE PUSH1 0x0 REVERT JUMPDEST POP POP POP POP PUSH1 0x40 MLOAD RETURNDATASIZE PUSH1 0x1F NOT PUSH1 0x1F DUP3 ADD AND DUP3 ADD DUP1 PUSH1 0x40 MSTORE POP DUP2 ADD SWAP1 PUSH2 0xBD6 SWAP2 SWAP1 PUSH2 0x3692 JUMP JUMPDEST LT ISZERO PUSH2 0xC17 JUMPI PUSH1 0x40 MLOAD PUSH32 0x8C379A000000000000000000000000000000000000000000000000000000000 DUP2 MSTORE PUSH1 0x4 ADD PUSH2 0xC0E SWAP1 PUSH2 0x370B JUMP JUMPDEST PUSH1 0x40 MLOAD DUP1 SWAP2 SUB SWAP1 REVERT JUMPDEST PUSH1 0x3 PUSH1 0x0 SWAP1 SLOAD SWAP1 PUSH2 0x100 EXP SWAP1 DIV PUSH20 0xFFFFFFFFFFFFFFFFFFFFFFFFFFFFFFFFFFFFFFFF AND PUSH20 0xFFFFFFFFFFFFFFFFFFFFFFFFFFFFFFFFFFFFFFFF AND PUSH4 0x23B872DD CALLER ADDRESS DUP5 PUSH1 0x40 MLOAD DUP5 PUSH4 0xFFFFFFFF AND PUSH1 0xE0 SHL DUP2 MSTORE PUSH1 0x4 ADD PUSH2 0xC76 SWAP4 SWAP3 SWAP2 SWAP1 PUSH2 0x372B JUMP JUMPDEST PUSH1 0x20 PUSH1 0x40 MLOAD DUP1 DUP4 SUB DUP2 PUSH1 0x0 DUP8 GAS CALL ISZERO DUP1 ISZERO PUSH2 0xC95 JUMPI RETURNDATASIZE PUSH1 0x0 DUP1 RETURNDATACOPY RETURNDATASIZE PUSH1 0x0 REVERT JUMPDEST POP POP POP POP PUSH1 0x40 MLOAD RETURNDATASIZE PUSH1 0x1F NOT PUSH1 0x1F DUP3 ADD AND DUP3 ADD DUP1 PUSH1 0x40 MSTORE POP DUP2 ADD SWAP1 PUSH2 0xCB9 SWAP2 SWAP1 PUSH2 0x379A JUMP JUMPDEST POP DUP1 PUSH1 0x1 PUSH1 0x0 CALLER PUSH20 0xFFFFFFFFFFFFFFFFFFFFFFFFFFFFFFFFFFFFFFFF AND PUSH20 0xFFFFFFFFFFFFFFFFFFFFFFFFFFFFFFFFFFFFFFFF AND DUP2 MSTORE PUSH1 0x20 ADD SWAP1 DUP2 MSTORE PUSH1 0x20 ADD PUSH1 0x0 KECCAK256 PUSH1 0x0 DUP3 DUP3 SLOAD PUSH2 0xD09 SWAP2 SWAP1 PUSH2 0x32D2 JUMP JUMPDEST SWAP3 POP POP DUP2 SWAP1 SSTORE POP DUP4 PUSH1 0x8 PUSH1 0x0 DUP8 DUP2 MSTORE PUSH1 0x20 ADD SWAP1 DUP2 MSTORE PUSH1 0x20 ADD PUSH1 0x0 KECCAK256 PUSH1 0x0 CALLER PUSH20 0xFFFFFFFFFFFFFFFFFFFFFFFFFFFFFFFFFFFFFFFF AND PUSH20 0xFFFFFFFFFFFFFFFFFFFFFFFFFFFFFFFFFFFFFFFF AND DUP2 MSTORE PUSH1 0x20 ADD SWAP1 DUP2 MSTORE PUSH1 0x20 ADD PUSH1 0x0 KECCAK256 PUSH1 0x0 DUP3 DUP3 SLOAD PUSH2 0xD70 SWAP2 SWAP1 PUSH2 0x3491 JUMP JUMPDEST SWAP3 POP POP DUP2 SWAP1 SSTORE POP DUP4 DUP4 PUSH1 0x3 ADD PUSH1 0x0 DUP3 DUP3 SLOAD PUSH2 0xD8B SWAP2 SWAP1 PUSH2 0x3491 JUMP JUMPDEST SWAP3 POP POP DUP2 SWAP1 SSTORE POP PUSH1 0x0 DUP3 SUB PUSH2 0xE1A JUMPI PUSH1 0x9 DUP6 DUP2 SLOAD DUP2 LT PUSH2 0xDAE JUMPI PUSH2 0xDAD PUSH2 0x30D9 JUMP JUMPDEST JUMPDEST SWAP1 PUSH1 0x0 MSTORE PUSH1 0x20 PUSH1 0x0 KECCAK256 ADD CALLER SWAP1 DUP1 PUSH1 0x1 DUP2 SLOAD ADD DUP1 DUP3 SSTORE DUP1 SWAP2 POP POP PUSH1 0x1 SWAP1 SUB SWAP1 PUSH1 0x0 MSTORE PUSH1 0x20 PUSH1 0x0 KECCAK256 ADD PUSH1 0x0 SWAP1 SWAP2 SWAP1 SWAP2 SWAP1 SWAP2 PUSH2 0x100 EXP DUP2 SLOAD DUP2 PUSH20 0xFFFFFFFFFFFFFFFFFFFFFFFFFFFFFFFFFFFFFFFF MUL NOT AND SWAP1 DUP4 PUSH20 0xFFFFFFFFFFFFFFFFFFFFFFFFFFFFFFFFFFFFFFFF AND MUL OR SWAP1 SSTORE POP JUMPDEST PUSH1 0x0 DUP4 PUSH1 0x4 ADD SLOAD EQ PUSH2 0xE30 JUMPI PUSH2 0xE2F DUP6 PUSH2 0x264F JUMP JUMPDEST JUMPDEST POP POP POP POP POP JUMP JUMPDEST PUSH1 0x0 PUSH1 0x3 PUSH1 0x0 SWAP1 SLOAD SWAP1 PUSH2 0x100 EXP SWAP1 DIV PUSH20 0xFFFFFFFFFFFFFFFFFFFFFFFFFFFFFFFFFFFFFFFF AND SWAP1 POP SWAP1 JUMP JUMPDEST PUSH1 0x60 PUSH1 0x0 PUSH1 0x14 SWAP1 SLOAD SWAP1 PUSH2 0x100 EXP SWAP1 DIV PUSH1 0xFF AND PUSH2 0xEB2 JUMPI PUSH1 0x40 MLOAD PUSH32 0x8C379A000000000000000000000000000000000000000000000000000000000 DUP2 MSTORE PUSH1 0x4 ADD PUSH2 0xEA9 SWAP1 PUSH2 0x30B9 JUMP JUMPDEST PUSH1 0x40 MLOAD DUP1 SWAP2 SUB SWAP1 REVERT JUMPDEST PUSH1 0x0 DUP1 JUMPDEST PUSH1 0x2 DUP1 SLOAD SWAP1 POP DUP2 LT ISZERO PUSH2 0xF18 JUMPI PUSH1 0x0 PUSH1 0x2 DUP3 DUP2 SLOAD DUP2 LT PUSH2 0xED9 JUMPI PUSH2 0xED8 PUSH2 0x30D9 JUMP JUMPDEST JUMPDEST SWAP1 PUSH1 0x0 MSTORE PUSH1 0x20 PUSH1 0x0 KECCAK256 SWAP1 PUSH1 0x6 MUL ADD SWAP1 POP PUSH1 0x0 DUP2 PUSH1 0x4 ADD SLOAD SUB PUSH2 0xF04 JUMPI DUP3 DUP1 PUSH2 0xF00 SWAP1 PUSH2 0x3137 JUMP JUMPDEST SWAP4 POP POP JUMPDEST POP DUP1 DUP1 PUSH2 0xF10 SWAP1 PUSH2 0x3137 JUMP JUMPDEST SWAP2 POP POP PUSH2 0xEB6 JUMP JUMPDEST POP DUP1 PUSH8 0xFFFFFFFFFFFFFFFF DUP2 GT ISZERO PUSH2 0xF33 JUMPI PUSH2 0xF32 PUSH2 0x317F JUMP JUMPDEST JUMPDEST PUSH1 0x40 MLOAD SWAP1 DUP1 DUP3 MSTORE DUP1 PUSH1 0x20 MUL PUSH1 0x20 ADD DUP3 ADD PUSH1 0x40 MSTORE DUP1 ISZERO PUSH2 0xF61 JUMPI DUP2 PUSH1 0x20 ADD PUSH1 0x20 DUP3 MUL DUP1 CALLDATASIZE DUP4 CALLDATACOPY DUP1 DUP3 ADD SWAP2 POP POP SWAP1 POP JUMPDEST POP SWAP2 POP PUSH1 0x0 DUP1 JUMPDEST DUP3 DUP2 LT ISZERO PUSH2 0x100C JUMPI PUSH1 0x0 PUSH1 0x2 DUP3 DUP2 SLOAD DUP2 LT PUSH2 0xF86 JUMPI PUSH2 0xF85 PUSH2 0x30D9 JUMP JUMPDEST JUMPDEST SWAP1 PUSH1 0x0 MSTORE PUSH1 0x20 PUSH1 0x0 KECCAK256 SWAP1 PUSH1 0x6 MUL ADD SWAP1 POP DUP1 PUSH1 0x5 ADD PUSH1 0x15 SWAP1 SLOAD SWAP1 PUSH2 0x100 EXP SWAP1 DIV PUSH1 0xFF AND ISZERO DUP1 ISZERO PUSH2 0xFC4 JUMPI POP DUP1 PUSH1 0x5 ADD PUSH1 0x14 SWAP1 SLOAD SWAP1 PUSH2 0x100 EXP SWAP1 DIV PUSH1 0xFF AND ISZERO JUMPDEST ISZERO PUSH2 0xFF8 JUMPI DUP3 DUP6 DUP4 DUP2 MLOAD DUP2 LT PUSH2 0xFDD JUMPI PUSH2 0xFDC PUSH2 0x30D9 JUMP JUMPDEST JUMPDEST PUSH1 0x20 MUL PUSH1 0x20 ADD ADD DUP2 DUP2 MSTORE POP POP DUP2 DUP1 PUSH2 0xFF4 SWAP1 PUSH2 0x3137 JUMP JUMPDEST SWAP3 POP POP JUMPDEST POP DUP2 DUP1 PUSH2 0x1004 SWAP1 PUSH2 0x3137 JUMP JUMPDEST SWAP3 POP POP PUSH2 0xF68 JUMP JUMPDEST POP POP POP SWAP1 JUMP JUMPDEST PUSH1 0x0 DUP1 PUSH1 0x14 SWAP1 SLOAD SWAP1 PUSH2 0x100 EXP SWAP1 DIV PUSH1 0xFF AND PUSH2 0x1062 JUMPI PUSH1 0x40 MLOAD PUSH32 0x8C379A000000000000000000000000000000000000000000000000000000000 DUP2 MSTORE PUSH1 0x4 ADD PUSH2 0x1059 SWAP1 PUSH2 0x30B9 JUMP JUMPDEST PUSH1 0x40 MLOAD DUP1 SWAP2 SUB SWAP1 REVERT JUMPDEST PUSH1 0x4 PUSH1 0x0 CALLER PUSH20 0xFFFFFFFFFFFFFFFFFFFFFFFFFFFFFFFFFFFFFFFF AND PUSH20 0xFFFFFFFFFFFFFFFFFFFFFFFFFFFFFFFFFFFFFFFF AND DUP2 MSTORE PUSH1 0x20 ADD SWAP1 DUP2 MSTORE PUSH1 0x20 ADD PUSH1 0x0 KECCAK256 PUSH1 0x0 SWAP1 SLOAD SWAP1 PUSH2 0x100 EXP SWAP1 DIV PUSH1 0xFF AND PUSH2 0x10EE JUMPI PUSH1 0x40 MLOAD PUSH32 0x8C379A000000000000000000000000000000000000000000000000000000000 DUP2 MSTORE PUSH1 0x4 ADD PUSH2 0x10E5 SWAP1 PUSH2 0x3533 JUMP JUMPDEST PUSH1 0x40 MLOAD DUP1 SWAP2 SUB SWAP1 REVERT JUMPDEST PUSH1 0x0 DUP8 DUP8 SWAP1 POP GT PUSH2 0x1134 JUMPI PUSH1 0x40 MLOAD PUSH32 0x8C379A000000000000000000000000000000000000000000000000000000000 DUP2 MSTORE PUSH1 0x4 ADD PUSH2 0x112B SWAP1 PUSH2 0x3813 JUMP JUMPDEST PUSH1 0x40 MLOAD DUP1 SWAP2 SUB SWAP1 REVERT JUMPDEST PUSH1 0x0 DUP6 DUP6 SWAP1 POP GT PUSH2 0x117A JUMPI PUSH1 0x40 MLOAD PUSH32 0x8C379A000000000000000000000000000000000000000000000000000000000 DUP2 MSTORE PUSH1 0x4 ADD PUSH2 0x1171 SWAP1 PUSH2 0x387F JUMP JUMPDEST PUSH1 0x40 MLOAD DUP1 SWAP2 SUB SWAP1 REVERT JUMPDEST PUSH2 0x1183 DUP3 PUSH2 0x2A2A JUMP JUMPDEST PUSH2 0x11C2 JUMPI PUSH1 0x40 MLOAD PUSH32 0x8C379A000000000000000000000000000000000000000000000000000000000 DUP2 MSTORE PUSH1 0x4 ADD PUSH2 0x11B9 SWAP1 PUSH2 0x3911 JUMP JUMPDEST PUSH1 0x40 MLOAD DUP1 SWAP2 SUB SWAP1 REVERT JUMPDEST PUSH1 0x2 PUSH1 0x40 MLOAD DUP1 PUSH2 0x100 ADD PUSH1 0x40 MSTORE DUP1 CALLER PUSH20 0xFFFFFFFFFFFFFFFFFFFFFFFFFFFFFFFFFFFFFFFF AND DUP2 MSTORE PUSH1 0x20 ADD DUP10 DUP10 DUP1 DUP1 PUSH1 0x1F ADD PUSH1 0x20 DUP1 SWAP2 DIV MUL PUSH1 0x20 ADD PUSH1 0x40 MLOAD SWAP1 DUP2 ADD PUSH1 0x40 MSTORE DUP1 SWAP4 SWAP3 SWAP2 SWAP1 DUP2 DUP2 MSTORE PUSH1 0x20 ADD DUP4 DUP4 DUP1 DUP3 DUP5 CALLDATACOPY PUSH1 0x0 DUP2 DUP5 ADD MSTORE PUSH1 0x1F NOT PUSH1 0x1F DUP3 ADD AND SWAP1 POP DUP1 DUP4 ADD SWAP3 POP POP POP POP POP POP POP DUP2 MSTORE PUSH1 0x20 ADD DUP8 DUP8 DUP1 DUP1 PUSH1 0x1F ADD PUSH1 0x20 DUP1 SWAP2 DIV MUL PUSH1 0x20 ADD PUSH1 0x40 MLOAD SWAP1 DUP2 ADD PUSH1 0x40 MSTORE DUP1 SWAP4 SWAP3 SWAP2 SWAP1 DUP2 DUP2 MSTORE PUSH1 0x20 ADD DUP4 DUP4 DUP1 DUP3 DUP5 CALLDATACOPY PUSH1 0x0 DUP2 DUP5 ADD MSTORE PUSH1 0x1F NOT PUSH1 0x1F DUP3 ADD AND SWAP1 POP DUP1 DUP4 ADD SWAP3 POP POP POP POP POP POP POP DUP2 MSTORE PUSH1 0x20 ADD PUSH1 0x0 DUP2 MSTORE PUSH1 0x20 ADD DUP6 DUP2 MSTORE PUSH1 0x20 ADD DUP5 PUSH20 0xFFFFFFFFFFFFFFFFFFFFFFFFFFFFFFFFFFFFFFFF AND DUP2 MSTORE PUSH1 0x20 ADD PUSH1 0x0 ISZERO ISZERO DUP2 MSTORE PUSH1 0x20 ADD PUSH1 0x0 ISZERO ISZERO DUP2 MSTORE POP SWAP1 DUP1 PUSH1 0x1 DUP2 SLOAD ADD DUP1 DUP3 SSTORE DUP1 SWAP2 POP POP PUSH1 0x1 SWAP1 SUB SWAP1 PUSH1 0x0 MSTORE PUSH1 0x20 PUSH1 0x0 KECCAK256 SWAP1 PUSH1 0x6 MUL ADD PUSH1 0x0 SWAP1 SWAP2 SWAP1 SWAP2 SWAP1 SWAP2 POP PUSH1 0x0 DUP3 ADD MLOAD DUP2 PUSH1 0x0 ADD PUSH1 0x0 PUSH2 0x100 EXP DUP2 SLOAD DUP2 PUSH20 0xFFFFFFFFFFFFFFFFFFFFFFFFFFFFFFFFFFFFFFFF MUL NOT AND SWAP1 DUP4 PUSH20 0xFFFFFFFFFFFFFFFFFFFFFFFFFFFFFFFFFFFFFFFF AND MUL OR SWAP1 SSTORE POP PUSH1 0x20 DUP3 ADD MLOAD DUP2 PUSH1 0x1 ADD SWAP1 DUP1 MLOAD SWAP1 PUSH1 0x20 ADD SWAP1 PUSH2 0x1345 SWAP3 SWAP2 SWAP1 PUSH2 0x2A6A JUMP JUMPDEST POP PUSH1 0x40 DUP3 ADD MLOAD DUP2 PUSH1 0x2 ADD SWAP1 DUP1 MLOAD SWAP1 PUSH1 0x20 ADD SWAP1 PUSH2 0x1362 SWAP3 SWAP2 SWAP1 PUSH2 0x2A6A JUMP JUMPDEST POP PUSH1 0x60 DUP3 ADD MLOAD DUP2 PUSH1 0x3 ADD SSTORE PUSH1 0x80 DUP3 ADD MLOAD DUP2 PUSH1 0x4 ADD SSTORE PUSH1 0xA0 DUP3 ADD MLOAD DUP2 PUSH1 0x5 ADD PUSH1 0x0 PUSH2 0x100 EXP DUP2 SLOAD DUP2 PUSH20 0xFFFFFFFFFFFFFFFFFFFFFFFFFFFFFFFFFFFFFFFF MUL NOT AND SWAP1 DUP4 PUSH20 0xFFFFFFFFFFFFFFFFFFFFFFFFFFFFFFFFFFFFFFFF AND MUL OR SWAP1 SSTORE POP PUSH1 0xC0 DUP3 ADD MLOAD DUP2 PUSH1 0x5 ADD PUSH1 0x14 PUSH2 0x100 EXP DUP2 SLOAD DUP2 PUSH1 0xFF MUL NOT AND SWAP1 DUP4 ISZERO ISZERO MUL OR SWAP1 SSTORE POP PUSH1 0xE0 DUP3 ADD MLOAD DUP2 PUSH1 0x5 ADD PUSH1 0x15 PUSH2 0x100 EXP DUP2 SLOAD DUP2 PUSH1 0xFF MUL NOT AND SWAP1 DUP4 ISZERO ISZERO MUL OR SWAP1 SSTORE POP POP POP PUSH1 0x9 PUSH1 0x0 PUSH8 0xFFFFFFFFFFFFFFFF DUP2 GT ISZERO PUSH2 0x141D JUMPI PUSH2 0x141C PUSH2 0x317F JUMP JUMPDEST JUMPDEST PUSH1 0x40 MLOAD SWAP1 DUP1 DUP3 MSTORE DUP1 PUSH1 0x20 MUL PUSH1 0x20 ADD DUP3 ADD PUSH1 0x40 MSTORE DUP1 ISZERO PUSH2 0x144B JUMPI DUP2 PUSH1 0x20 ADD PUSH1 0x20 DUP3 MUL DUP1 CALLDATASIZE DUP4 CALLDATACOPY DUP1 DUP3 ADD SWAP2 POP POP SWAP1 POP JUMPDEST POP SWAP1 DUP1 PUSH1 0x1 DUP2 SLOAD ADD DUP1 DUP3 SSTORE DUP1 SWAP2 POP POP PUSH1 0x1 SWAP1 SUB SWAP1 PUSH1 0x0 MSTORE PUSH1 0x20 PUSH1 0x0 KECCAK256 ADD PUSH1 0x0 SWAP1 SWAP2 SWAP1 SWAP2 SWAP1 SWAP2 POP SWAP1 DUP1 MLOAD SWAP1 PUSH1 0x20 ADD SWAP1 PUSH2 0x1484 SWAP3 SWAP2 SWAP1 PUSH2 0x2AF0 JUMP JUMPDEST POP PUSH1 0x1 PUSH1 0x2 DUP1 SLOAD SWAP1 POP PUSH2 0x1497 SWAP2 SWAP1 PUSH2 0x32D2 JUMP JUMPDEST SWAP1 POP SWAP7 SWAP6 POP POP POP POP POP POP JUMP JUMPDEST PUSH1 0x60 PUSH1 0x0 PUSH1 0x14 SWAP1 SLOAD SWAP1 PUSH2 0x100 EXP SWAP1 DIV PUSH1 0xFF AND PUSH2 0x14F4 JUMPI PUSH1 0x40 MLOAD PUSH32 0x8C379A000000000000000000000000000000000000000000000000000000000 DUP2 MSTORE PUSH1 0x4 ADD PUSH2 0x14EB SWAP1 PUSH2 0x30B9 JUMP JUMPDEST PUSH1 0x40 MLOAD DUP1 SWAP2 SUB SWAP1 REVERT JUMPDEST PUSH1 0x0 DUP1 JUMPDEST PUSH1 0x2 DUP1 SLOAD SWAP1 POP DUP2 LT ISZERO PUSH2 0x1592 JUMPI PUSH1 0x0 PUSH1 0x2 DUP3 DUP2 SLOAD DUP2 LT PUSH2 0x151B JUMPI PUSH2 0x151A PUSH2 0x30D9 JUMP JUMPDEST JUMPDEST SWAP1 PUSH1 0x0 MSTORE PUSH1 0x20 PUSH1 0x0 KECCAK256 SWAP1 PUSH1 0x6 MUL ADD SWAP1 POP DUP1 PUSH1 0x5 ADD PUSH1 0x15 SWAP1 SLOAD SWAP1 PUSH2 0x100 EXP SWAP1 DIV PUSH1 0xFF AND ISZERO DUP1 ISZERO PUSH2 0x1559 JUMPI POP DUP1 PUSH1 0x5 ADD PUSH1 0x14 SWAP1 SLOAD SWAP1 PUSH2 0x100 EXP SWAP1 DIV PUSH1 0xFF AND ISZERO JUMPDEST DUP1 ISZERO PUSH2 0x156A JUMPI POP PUSH1 0x0 DUP2 PUSH1 0x4 ADD SLOAD EQ ISZERO JUMPDEST ISZERO PUSH2 0x157E JUMPI DUP3 DUP1 PUSH2 0x157A SWAP1 PUSH2 0x3137 JUMP JUMPDEST SWAP4 POP POP JUMPDEST POP DUP1 DUP1 PUSH2 0x158A SWAP1 PUSH2 0x3137 JUMP JUMPDEST SWAP2 POP POP PUSH2 0x14F8 JUMP JUMPDEST POP DUP1 PUSH8 0xFFFFFFFFFFFFFFFF DUP2 GT ISZERO PUSH2 0x15AD JUMPI PUSH2 0x15AC PUSH2 0x317F JUMP JUMPDEST JUMPDEST PUSH1 0x40 MLOAD SWAP1 DUP1 DUP3 MSTORE DUP1 PUSH1 0x20 MUL PUSH1 0x20 ADD DUP3 ADD PUSH1 0x40 MSTORE DUP1 ISZERO PUSH2 0x15DB JUMPI DUP2 PUSH1 0x20 ADD PUSH1 0x20 DUP3 MUL DUP1 CALLDATASIZE DUP4 CALLDATACOPY DUP1 DUP3 ADD SWAP2 POP POP SWAP1 POP JUMPDEST POP SWAP2 POP PUSH1 0x0 DUP1 JUMPDEST DUP3 DUP2 LT ISZERO PUSH2 0x1686 JUMPI PUSH1 0x0 PUSH1 0x2 DUP3 DUP2 SLOAD DUP2 LT PUSH2 0x1600 JUMPI PUSH2 0x15FF PUSH2 0x30D9 JUMP JUMPDEST JUMPDEST SWAP1 PUSH1 0x0 MSTORE PUSH1 0x20 PUSH1 0x0 KECCAK256 SWAP1 PUSH1 0x6 MUL ADD SWAP1 POP DUP1 PUSH1 0x5 ADD PUSH1 0x15 SWAP1 SLOAD SWAP1 PUSH2 0x100 EXP SWAP1 DIV PUSH1 0xFF AND ISZERO DUP1 ISZERO PUSH2 0x163E JUMPI POP DUP1 PUSH1 0x5 ADD PUSH1 0x14 SWAP1 SLOAD SWAP1 PUSH2 0x100 EXP SWAP1 DIV PUSH1 0xFF AND ISZERO JUMPDEST ISZERO PUSH2 0x1672 JUMPI DUP3 DUP6 DUP4 DUP2 MLOAD DUP2 LT PUSH2 0x1657 JUMPI PUSH2 0x1656 PUSH2 0x30D9 JUMP JUMPDEST JUMPDEST PUSH1 0x20 MUL PUSH1 0x20 ADD ADD DUP2 DUP2 MSTORE POP POP DUP2 DUP1 PUSH2 0x166E SWAP1 PUSH2 0x3137 JUMP JUMPDEST SWAP3 POP POP JUMPDEST POP DUP2 DUP1 PUSH2 0x167E SWAP1 PUSH2 0x3137 JUMP JUMPDEST SWAP3 POP POP PUSH2 0x15E2 JUMP JUMPDEST POP POP POP SWAP1 JUMP JUMPDEST PUSH1 0x0 DUP1 SLOAD SWAP1 PUSH2 0x100 EXP SWAP1 DIV PUSH20 0xFFFFFFFFFFFFFFFFFFFFFFFFFFFFFFFFFFFFFFFF AND PUSH20 0xFFFFFFFFFFFFFFFFFFFFFFFFFFFFFFFFFFFFFFFF AND CALLER PUSH20 0xFFFFFFFFFFFFFFFFFFFFFFFFFFFFFFFFFFFFFFFF AND EQ PUSH2 0x171A JUMPI PUSH1 0x40 MLOAD PUSH32 0x8C379A000000000000000000000000000000000000000000000000000000000 DUP2 MSTORE PUSH1 0x4 ADD PUSH2 0x1711 SWAP1 PUSH2 0x39A3 JUMP JUMPDEST PUSH1 0x40 MLOAD DUP1 SWAP2 SUB SWAP1 REVERT JUMPDEST PUSH1 0x0 PUSH1 0x14 SWAP1 SLOAD SWAP1 PUSH2 0x100 EXP SWAP1 DIV PUSH1 0xFF AND ISZERO PUSH2 0x176A JUMPI PUSH1 0x40 MLOAD PUSH32 0x8C379A000000000000000000000000000000000000000000000000000000000 DUP2 MSTORE PUSH1 0x4 ADD PUSH2 0x1761 SWAP1 PUSH2 0x3A0F JUMP JUMPDEST PUSH1 0x40 MLOAD DUP1 SWAP2 SUB SWAP1 REVERT JUMPDEST PUSH1 0x1 PUSH1 0x0 PUSH1 0x14 PUSH2 0x100 EXP DUP2 SLOAD DUP2 PUSH1 0xFF MUL NOT AND SWAP1 DUP4 ISZERO ISZERO MUL OR SWAP1 SSTORE POP CALLVALUE PUSH1 0x7 DUP2 SWAP1 SSTORE POP PUSH1 0x0 PUSH1 0xA DUP2 SWAP1 SSTORE POP PUSH1 0x0 PUSH1 0xB DUP2 SWAP1 SSTORE POP PUSH1 0x0 PUSH1 0xC DUP2 SWAP1 SSTORE POP JUMP JUMPDEST PUSH1 0x60 DUP1 PUSH1 0x0 DUP1 PUSH1 0x0 PUSH1 0x2 DUP7 DUP2 SLOAD DUP2 LT PUSH2 0x17C2 JUMPI PUSH2 0x17C1 PUSH2 0x30D9 JUMP JUMPDEST JUMPDEST SWAP1 PUSH1 0x0 MSTORE PUSH1 0x20 PUSH1 0x0 KECCAK256 SWAP1 PUSH1 0x6 MUL ADD SWAP1 POP DUP1 PUSH1 0x1 ADD DUP2 PUSH1 0x2 ADD DUP3 PUSH1 0x4 ADD SLOAD DUP4 PUSH1 0x5 ADD PUSH1 0x0 SWAP1 SLOAD SWAP1 PUSH2 0x100 EXP SWAP1 DIV PUSH20 0xFFFFFFFFFFFFFFFFFFFFFFFFFFFFFFFFFFFFFFFF AND DUP4 DUP1 SLOAD PUSH2 0x1810 SWAP1 PUSH2 0x3A5E JUMP JUMPDEST DUP1 PUSH1 0x1F ADD PUSH1 0x20 DUP1 SWAP2 DIV MUL PUSH1 0x20 ADD PUSH1 0x40 MLOAD SWAP1 DUP2 ADD PUSH1 0x40 MSTORE DUP1 SWAP3 SWAP2 SWAP1 DUP2 DUP2 MSTORE PUSH1 0x20 ADD DUP3 DUP1 SLOAD PUSH2 0x183C SWAP1 PUSH2 0x3A5E JUMP JUMPDEST DUP1 ISZERO PUSH2 0x1889 JUMPI DUP1 PUSH1 0x1F LT PUSH2 0x185E JUMPI PUSH2 0x100 DUP1 DUP4 SLOAD DIV MUL DUP4 MSTORE SWAP2 PUSH1 0x20 ADD SWAP2 PUSH2 0x1889 JUMP JUMPDEST DUP3 ADD SWAP2 SWAP1 PUSH1 0x0 MSTORE PUSH1 0x20 PUSH1 0x0 KECCAK256 SWAP1 JUMPDEST DUP2 SLOAD DUP2 MSTORE SWAP1 PUSH1 0x1 ADD SWAP1 PUSH1 0x20 ADD DUP1 DUP4 GT PUSH2 0x186C JUMPI DUP3 SWAP1 SUB PUSH1 0x1F AND DUP3 ADD SWAP2 JUMPDEST POP POP POP POP POP SWAP4 POP DUP3 DUP1 SLOAD PUSH2 0x189C SWAP1 PUSH2 0x3A5E JUMP JUMPDEST DUP1 PUSH1 0x1F ADD PUSH1 0x20 DUP1 SWAP2 DIV MUL PUSH1 0x20 ADD PUSH1 0x40 MLOAD SWAP1 DUP2 ADD PUSH1 0x40 MSTORE DUP1 SWAP3 SWAP2 SWAP1 DUP2 DUP2 MSTORE PUSH1 0x20 ADD DUP3 DUP1 SLOAD PUSH2 0x18C8 SWAP1 PUSH2 0x3A5E JUMP JUMPDEST DUP1 ISZERO PUSH2 0x1915 JUMPI DUP1 PUSH1 0x1F LT PUSH2 0x18EA JUMPI PUSH2 0x100 DUP1 DUP4 SLOAD DIV MUL DUP4 MSTORE SWAP2 PUSH1 0x20 ADD SWAP2 PUSH2 0x1915 JUMP JUMPDEST DUP3 ADD SWAP2 SWAP1 PUSH1 0x0 MSTORE PUSH1 0x20 PUSH1 0x0 KECCAK256 SWAP1 JUMPDEST DUP2 SLOAD DUP2 MSTORE SWAP1 PUSH1 0x1 ADD SWAP1 PUSH1 0x20 ADD DUP1 DUP4 GT PUSH2 0x18F8 JUMPI DUP3 SWAP1 SUB PUSH1 0x1F AND DUP3 ADD SWAP2 JUMPDEST POP POP POP POP POP SWAP3 POP SWAP5 POP SWAP5 POP SWAP5 POP SWAP5 POP POP SWAP2 SWAP4 POP SWAP2 SWAP4 JUMP JUMPDEST PUSH1 0x0 DUP1 SLOAD SWAP1 PUSH2 0x100 EXP SWAP1 DIV PUSH20 0xFFFFFFFFFFFFFFFFFFFFFFFFFFFFFFFFFFFFFFFF AND PUSH20 0xFFFFFFFFFFFFFFFFFFFFFFFFFFFFFFFFFFFFFFFF AND CALLER PUSH20 0xFFFFFFFFFFFFFFFFFFFFFFFFFFFFFFFFFFFFFFFF AND EQ PUSH2 0x19BA JUMPI PUSH1 0x40 MLOAD PUSH32 0x8C379A000000000000000000000000000000000000000000000000000000000 DUP2 MSTORE PUSH1 0x4 ADD PUSH2 0x19B1 SWAP1 PUSH2 0x39A3 JUMP JUMPDEST PUSH1 0x40 MLOAD DUP1 SWAP2 SUB SWAP1 REVERT JUMPDEST PUSH1 0x0 PUSH1 0xC SLOAD SWAP1 POP PUSH1 0x0 DUP1 DUP3 EQ SWAP1 POP PUSH1 0x0 DUP1 PUSH1 0x14 PUSH2 0x100 EXP DUP2 SLOAD DUP2 PUSH1 0xFF MUL NOT AND SWAP1 DUP4 ISZERO ISZERO MUL OR SWAP1 SSTORE POP PUSH1 0x0 PUSH1 0xA SLOAD SWAP1 POP JUMPDEST PUSH1 0x2 DUP1 SLOAD SWAP1 POP DUP2 LT ISZERO PUSH2 0x1ED4 JUMPI PUSH1 0x0 PUSH1 0x2 DUP3 DUP2 SLOAD DUP2 LT PUSH2 0x1A0D JUMPI PUSH2 0x1A0C PUSH2 0x30D9 JUMP JUMPDEST JUMPDEST SWAP1 PUSH1 0x0 MSTORE PUSH1 0x20 PUSH1 0x0 KECCAK256 SWAP1 PUSH1 0x6 MUL ADD SWAP1 POP PUSH1 0x0 ISZERO ISZERO DUP2 PUSH1 0x5 ADD PUSH1 0x14 SWAP1 SLOAD SWAP1 PUSH2 0x100 EXP SWAP1 DIV PUSH1 0xFF AND ISZERO ISZERO SUB PUSH2 0x1DF5 JUMPI DUP3 ISZERO PUSH2 0x1A44 JUMPI GAS SWAP4 POP JUMPDEST PUSH1 0x0 PUSH1 0x9 DUP4 DUP2 SLOAD DUP2 LT PUSH2 0x1A5A JUMPI PUSH2 0x1A59 PUSH2 0x30D9 JUMP JUMPDEST JUMPDEST SWAP1 PUSH1 0x0 MSTORE PUSH1 0x20 PUSH1 0x0 KECCAK256 ADD SWAP1 POP PUSH1 0x0 PUSH1 0x8 PUSH1 0x0 DUP6 DUP2 MSTORE PUSH1 0x20 ADD SWAP1 DUP2 MSTORE PUSH1 0x20 ADD PUSH1 0x0 KECCAK256 SWAP1 POP PUSH1 0x0 PUSH1 0xB SLOAD SWAP1 POP JUMPDEST DUP3 DUP1 SLOAD SWAP1 POP DUP2 LT ISZERO PUSH2 0x1D44 JUMPI DUP6 ISZERO DUP1 ISZERO PUSH2 0x1AAA JUMPI POP DUP7 PUSH1 0x3 PUSH2 0x1AA7 SWAP2 SWAP1 PUSH2 0x3A8F JUMP JUMPDEST GAS LT JUMPDEST ISZERO PUSH2 0x1AC9 JUMPI DUP5 PUSH1 0xA DUP2 SWAP1 SSTORE POP DUP1 PUSH1 0xB DUP2 SWAP1 SSTORE POP POP POP POP POP POP POP POP PUSH2 0x1ED8 JUMP JUMPDEST PUSH1 0x0 DUP3 PUSH1 0x0 DUP6 DUP5 DUP2 SLOAD DUP2 LT PUSH2 0x1AE1 JUMPI PUSH2 0x1AE0 PUSH2 0x30D9 JUMP JUMPDEST JUMPDEST SWAP1 PUSH1 0x0 MSTORE PUSH1 0x20 PUSH1 0x0 KECCAK256 ADD PUSH1 0x0 SWAP1 SLOAD SWAP1 PUSH2 0x100 EXP SWAP1 DIV PUSH20 0xFFFFFFFFFFFFFFFFFFFFFFFFFFFFFFFFFFFFFFFF AND PUSH20 0xFFFFFFFFFFFFFFFFFFFFFFFFFFFFFFFFFFFFFFFF AND PUSH20 0xFFFFFFFFFFFFFFFFFFFFFFFFFFFFFFFFFFFFFFFF AND DUP2 MSTORE PUSH1 0x20 ADD SWAP1 DUP2 MSTORE PUSH1 0x20 ADD PUSH1 0x0 KECCAK256 SLOAD GT ISZERO PUSH2 0x1D11 JUMPI PUSH1 0x0 DUP3 PUSH1 0x0 DUP6 DUP5 DUP2 SLOAD DUP2 LT PUSH2 0x1B65 JUMPI PUSH2 0x1B64 PUSH2 0x30D9 JUMP JUMPDEST JUMPDEST SWAP1 PUSH1 0x0 MSTORE PUSH1 0x20 PUSH1 0x0 KECCAK256 ADD PUSH1 0x0 SWAP1 SLOAD SWAP1 PUSH2 0x100 EXP SWAP1 DIV PUSH20 0xFFFFFFFFFFFFFFFFFFFFFFFFFFFFFFFFFFFFFFFF AND PUSH20 0xFFFFFFFFFFFFFFFFFFFFFFFFFFFFFFFFFFFFFFFF AND PUSH20 0xFFFFFFFFFFFFFFFFFFFFFFFFFFFFFFFFFFFFFFFF AND DUP2 MSTORE PUSH1 0x20 ADD SWAP1 DUP2 MSTORE PUSH1 0x20 ADD PUSH1 0x0 KECCAK256 SLOAD SWAP1 POP PUSH1 0x0 DUP4 PUSH1 0x0 DUP7 DUP6 DUP2 SLOAD DUP2 LT PUSH2 0x1BE5 JUMPI PUSH2 0x1BE4 PUSH2 0x30D9 JUMP JUMPDEST JUMPDEST SWAP1 PUSH1 0x0 MSTORE PUSH1 0x20 PUSH1 0x0 KECCAK256 ADD PUSH1 0x0 SWAP1 SLOAD SWAP1 PUSH2 0x100 EXP SWAP1 DIV PUSH20 0xFFFFFFFFFFFFFFFFFFFFFFFFFFFFFFFFFFFFFFFF AND PUSH20 0xFFFFFFFFFFFFFFFFFFFFFFFFFFFFFFFFFFFFFFFF AND PUSH20 0xFFFFFFFFFFFFFFFFFFFFFFFFFFFFFFFFFFFFFFFF AND DUP2 MSTORE PUSH1 0x20 ADD SWAP1 DUP2 MSTORE PUSH1 0x20 ADD PUSH1 0x0 KECCAK256 DUP2 SWAP1 SSTORE POP PUSH1 0x0 DUP5 DUP4 DUP2 SLOAD DUP2 LT PUSH2 0x1C63 JUMPI PUSH2 0x1C62 PUSH2 0x30D9 JUMP JUMPDEST JUMPDEST SWAP1 PUSH1 0x0 MSTORE PUSH1 0x20 PUSH1 0x0 KECCAK256 ADD PUSH1 0x0 SWAP1 SLOAD SWAP1 PUSH2 0x100 EXP SWAP1 DIV PUSH20 0xFFFFFFFFFFFFFFFFFFFFFFFFFFFFFFFFFFFFFFFF AND SWAP1 POP DUP1 PUSH20 0xFFFFFFFFFFFFFFFFFFFFFFFFFFFFFFFFFFFFFFFF AND PUSH2 0x8FC PUSH32 0x0 PUSH1 0x2 DUP6 PUSH2 0x1CD8 SWAP2 SWAP1 PUSH2 0x3446 JUMP JUMPDEST PUSH2 0x1CE2 SWAP2 SWAP1 PUSH2 0x3A8F JUMP JUMPDEST SWAP1 DUP2 ISZERO MUL SWAP1 PUSH1 0x40 MLOAD PUSH1 0x0 PUSH1 0x40 MLOAD DUP1 DUP4 SUB DUP2 DUP6 DUP9 DUP9 CALL SWAP4 POP POP POP POP ISZERO DUP1 ISZERO PUSH2 0x1D0D JUMPI RETURNDATASIZE PUSH1 0x0 DUP1 RETURNDATACOPY RETURNDATASIZE PUSH1 0x0 REVERT JUMPDEST POP POP POP JUMPDEST DUP6 ISZERO PUSH2 0x1D31 JUMPI PUSH1 0x0 SWAP6 POP GAS DUP8 PUSH2 0x1D27 SWAP2 SWAP1 PUSH2 0x32D2 JUMP JUMPDEST SWAP7 POP DUP7 PUSH1 0xC DUP2 SWAP1 SSTORE POP JUMPDEST DUP1 DUP1 PUSH2 0x1D3C SWAP1 PUSH2 0x3137 JUMP JUMPDEST SWAP2 POP POP PUSH2 0x1A85 JUMP JUMPDEST POP PUSH1 0x0 DUP4 PUSH1 0x4 ADD SLOAD SUB PUSH2 0x1DF2 JUMPI PUSH1 0x0 DUP4 PUSH1 0x5 ADD PUSH1 0x0 SWAP1 SLOAD SWAP1 PUSH2 0x100 EXP SWAP1 DIV PUSH20 0xFFFFFFFFFFFFFFFFFFFFFFFFFFFFFFFFFFFFFFFF AND SWAP1 POP DUP1 PUSH20 0xFFFFFFFFFFFFFFFFFFFFFFFFFFFFFFFFFFFFFFFF AND PUSH4 0xD61B519 DUP6 PUSH1 0x4 ADD SLOAD PUSH3 0x186A0 SWAP1 DUP9 PUSH1 0x40 MLOAD DUP5 PUSH4 0xFFFFFFFF AND PUSH1 0xE0 SHL DUP2 MSTORE PUSH1 0x4 ADD PUSH2 0x1DBD SWAP2 SWAP1 PUSH2 0x2F57 JUMP JUMPDEST PUSH1 0x0 PUSH1 0x40 MLOAD DUP1 DUP4 SUB DUP2 DUP6 DUP10 DUP1 EXTCODESIZE ISZERO DUP1 ISZERO PUSH2 0x1DD6 JUMPI PUSH1 0x0 DUP1 REVERT JUMPDEST POP DUP9 CALL ISZERO DUP1 ISZERO PUSH2 0x1DEA JUMPI RETURNDATASIZE PUSH1 0x0 DUP1 RETURNDATACOPY RETURNDATASIZE PUSH1 0x0 REVERT JUMPDEST POP POP POP POP POP POP POP JUMPDEST POP POP JUMPDEST PUSH1 0x2 DUP3 DUP2 SLOAD DUP2 LT PUSH2 0x1E09 JUMPI PUSH2 0x1E08 PUSH2 0x30D9 JUMP JUMPDEST JUMPDEST SWAP1 PUSH1 0x0 MSTORE PUSH1 0x20 PUSH1 0x0 KECCAK256 SWAP1 PUSH1 0x6 MUL ADD PUSH1 0x0 DUP1 DUP3 ADD PUSH1 0x0 PUSH2 0x100 EXP DUP2 SLOAD SWAP1 PUSH20 0xFFFFFFFFFFFFFFFFFFFFFFFFFFFFFFFFFFFFFFFF MUL NOT AND SWAP1 SSTORE PUSH1 0x1 DUP3 ADD PUSH1 0x0 PUSH2 0x1E4F SWAP2 SWAP1 PUSH2 0x2B7A JUMP JUMPDEST PUSH1 0x2 DUP3 ADD PUSH1 0x0 PUSH2 0x1E5F SWAP2 SWAP1 PUSH2 0x2B7A JUMP JUMPDEST PUSH1 0x3 DUP3 ADD PUSH1 0x0 SWAP1 SSTORE PUSH1 0x4 DUP3 ADD PUSH1 0x0 SWAP1 SSTORE PUSH1 0x5 DUP3 ADD PUSH1 0x0 PUSH2 0x100 EXP DUP2 SLOAD SWAP1 PUSH20 0xFFFFFFFFFFFFFFFFFFFFFFFFFFFFFFFFFFFFFFFF MUL NOT AND SWAP1 SSTORE PUSH1 0x5 DUP3 ADD PUSH1 0x14 PUSH2 0x100 EXP DUP2 SLOAD SWAP1 PUSH1 0xFF MUL NOT AND SWAP1 SSTORE PUSH1 0x5 DUP3 ADD PUSH1 0x15 PUSH2 0x100 EXP DUP2 SLOAD SWAP1 PUSH1 0xFF MUL NOT AND SWAP1 SSTORE POP POP POP DUP1 DUP1 PUSH2 0x1ECC SWAP1 PUSH2 0x3137 JUMP JUMPDEST SWAP2 POP POP PUSH2 0x19EA JUMP JUMPDEST POP POP POP JUMPDEST JUMP JUMPDEST PUSH1 0x4 PUSH1 0x0 CALLER PUSH20 0xFFFFFFFFFFFFFFFFFFFFFFFFFFFFFFFFFFFFFFFF AND PUSH20 0xFFFFFFFFFFFFFFFFFFFFFFFFFFFFFFFFFFFFFFFF AND DUP2 MSTORE PUSH1 0x20 ADD SWAP1 DUP2 MSTORE PUSH1 0x20 ADD PUSH1 0x0 KECCAK256 PUSH1 0x0 SWAP1 SLOAD SWAP1 PUSH2 0x100 EXP SWAP1 DIV PUSH1 0xFF AND PUSH2 0x1F66 JUMPI PUSH1 0x40 MLOAD PUSH32 0x8C379A000000000000000000000000000000000000000000000000000000000 DUP2 MSTORE PUSH1 0x4 ADD PUSH2 0x1F5D SWAP1 PUSH2 0x3533 JUMP JUMPDEST PUSH1 0x40 MLOAD DUP1 SWAP2 SUB SWAP1 REVERT JUMPDEST PUSH1 0x0 CALLVALUE GT PUSH2 0x1FA9 JUMPI PUSH1 0x40 MLOAD PUSH32 0x8C379A000000000000000000000000000000000000000000000000000000000 DUP2 MSTORE PUSH1 0x4 ADD PUSH2 0x1FA0 SWAP1 PUSH2 0x3B5B JUMP JUMPDEST PUSH1 0x40 MLOAD DUP1 SWAP2 SUB SWAP1 REVERT JUMPDEST PUSH1 0x0 PUSH2 0x1FDE PUSH32 0x0 CALLVALUE PUSH2 0x2A3E SWAP1 SWAP2 SWAP1 PUSH4 0xFFFFFFFF AND JUMP JUMPDEST EQ PUSH2 0x201E JUMPI PUSH1 0x40 MLOAD PUSH32 0x8C379A000000000000000000000000000000000000000000000000000000000 DUP2 MSTORE PUSH1 0x4 ADD PUSH2 0x2015 SWAP1 PUSH2 0x3BED JUMP JUMPDEST PUSH1 0x40 MLOAD DUP1 SWAP2 SUB SWAP1 REVERT JUMPDEST PUSH1 0x0 PUSH2 0x2053 PUSH32 0x0 CALLVALUE PUSH2 0x2A54 SWAP1 SWAP2 SWAP1 PUSH4 0xFFFFFFFF AND JUMP JUMPDEST SWAP1 POP PUSH1 0x6 SLOAD DUP2 GT ISZERO PUSH2 0x209A JUMPI PUSH1 0x40 MLOAD PUSH32 0x8C379A000000000000000000000000000000000000000000000000000000000 DUP2 MSTORE PUSH1 0x4 ADD PUSH2 0x2091 SWAP1 PUSH2 0x3C59 JUMP JUMPDEST PUSH1 0x40 MLOAD DUP1 SWAP2 SUB SWAP1 REVERT JUMPDEST PUSH1 0x3 PUSH1 0x0 SWAP1 SLOAD SWAP1 PUSH2 0x100 EXP SWAP1 DIV PUSH20 0xFFFFFFFFFFFFFFFFFFFFFFFFFFFFFFFFFFFFFFFF AND PUSH20 0xFFFFFFFFFFFFFFFFFFFFFFFFFFFFFFFFFFFFFFFF AND PUSH4 0x40C10F19 CALLER DUP4 PUSH1 0x40 MLOAD DUP4 PUSH4 0xFFFFFFFF AND PUSH1 0xE0 SHL DUP2 MSTORE PUSH1 0x4 ADD PUSH2 0x20F7 SWAP3 SWAP2 SWAP1 PUSH2 0x35BF JUMP JUMPDEST PUSH1 0x0 PUSH1 0x40 MLOAD DUP1 DUP4 SUB DUP2 PUSH1 0x0 DUP8 DUP1 EXTCODESIZE ISZERO DUP1 ISZERO PUSH2 0x2111 JUMPI PUSH1 0x0 DUP1 REVERT JUMPDEST POP GAS CALL ISZERO DUP1 ISZERO PUSH2 0x2125 JUMPI RETURNDATASIZE PUSH1 0x0 DUP1 RETURNDATACOPY RETURNDATASIZE PUSH1 0x0 REVERT JUMPDEST POP POP POP POP DUP1 PUSH1 0x1 PUSH1 0x0 CALLER PUSH20 0xFFFFFFFFFFFFFFFFFFFFFFFFFFFFFFFFFFFFFFFF AND PUSH20 0xFFFFFFFFFFFFFFFFFFFFFFFFFFFFFFFFFFFFFFFF AND DUP2 MSTORE PUSH1 0x20 ADD SWAP1 DUP2 MSTORE PUSH1 0x20 ADD PUSH1 0x0 KECCAK256 PUSH1 0x0 DUP3 DUP3 SLOAD PUSH2 0x2178 SWAP2 SWAP1 PUSH2 0x3491 JUMP JUMPDEST SWAP3 POP POP DUP2 SWAP1 SSTORE POP DUP1 PUSH1 0x6 PUSH1 0x0 DUP3 DUP3 SLOAD PUSH2 0x2191 SWAP2 SWAP1 PUSH2 0x32D2 JUMP JUMPDEST SWAP3 POP POP DUP2 SWAP1 SSTORE POP POP JUMP JUMPDEST PUSH1 0x3 PUSH1 0x0 SWAP1 SLOAD SWAP1 PUSH2 0x100 EXP SWAP1 DIV PUSH20 0xFFFFFFFFFFFFFFFFFFFFFFFFFFFFFFFFFFFFFFFF AND DUP2 JUMP JUMPDEST PUSH1 0x0 PUSH1 0x14 SWAP1 SLOAD SWAP1 PUSH2 0x100 EXP SWAP1 DIV PUSH1 0xFF AND PUSH2 0x2210 JUMPI PUSH1 0x40 MLOAD PUSH32 0x8C379A000000000000000000000000000000000000000000000000000000000 DUP2 MSTORE PUSH1 0x4 ADD PUSH2 0x2207 SWAP1 PUSH2 0x30B9 JUMP JUMPDEST PUSH1 0x40 MLOAD DUP1 SWAP2 SUB SWAP1 REVERT JUMPDEST DUP1 CALLER PUSH20 0xFFFFFFFFFFFFFFFFFFFFFFFFFFFFFFFFFFFFFFFF AND PUSH1 0x2 DUP3 DUP2 SLOAD DUP2 LT PUSH2 0x223C JUMPI PUSH2 0x223B PUSH2 0x30D9 JUMP JUMPDEST JUMPDEST SWAP1 PUSH1 0x0 MSTORE PUSH1 0x20 PUSH1 0x0 KECCAK256 SWAP1 PUSH1 0x6 MUL ADD PUSH1 0x0 ADD PUSH1 0x0 SWAP1 SLOAD SWAP1 PUSH2 0x100 EXP SWAP1 DIV PUSH20 0xFFFFFFFFFFFFFFFFFFFFFFFFFFFFFFFFFFFFFFFF AND PUSH20 0xFFFFFFFFFFFFFFFFFFFFFFFFFFFFFFFFFFFFFFFF AND EQ PUSH2 0x22C4 JUMPI PUSH1 0x40 MLOAD PUSH32 0x8C379A000000000000000000000000000000000000000000000000000000000 DUP2 MSTORE PUSH1 0x4 ADD PUSH2 0x22BB SWAP1 PUSH2 0x3CEB JUMP JUMPDEST PUSH1 0x40 MLOAD DUP1 SWAP2 SUB SWAP1 REVERT JUMPDEST PUSH1 0x0 PUSH1 0x2 DUP4 DUP2 SLOAD DUP2 LT PUSH2 0x22DA JUMPI PUSH2 0x22D9 PUSH2 0x30D9 JUMP JUMPDEST JUMPDEST SWAP1 PUSH1 0x0 MSTORE PUSH1 0x20 PUSH1 0x0 KECCAK256 SWAP1 PUSH1 0x6 MUL ADD SWAP1 POP DUP1 PUSH1 0x5 ADD PUSH1 0x14 SWAP1 SLOAD SWAP1 PUSH2 0x100 EXP SWAP1 DIV PUSH1 0xFF AND ISZERO PUSH2 0x233C JUMPI PUSH1 0x40 MLOAD PUSH32 0x8C379A000000000000000000000000000000000000000000000000000000000 DUP2 MSTORE PUSH1 0x4 ADD PUSH2 0x2333 SWAP1 PUSH2 0x3D7D JUMP JUMPDEST PUSH1 0x40 MLOAD DUP1 SWAP2 SUB SWAP1 REVERT JUMPDEST DUP1 PUSH1 0x5 ADD PUSH1 0x15 SWAP1 SLOAD SWAP1 PUSH2 0x100 EXP SWAP1 DIV PUSH1 0xFF AND ISZERO PUSH2 0x238E JUMPI PUSH1 0x40 MLOAD PUSH32 0x8C379A000000000000000000000000000000000000000000000000000000000 DUP2 MSTORE PUSH1 0x4 ADD PUSH2 0x2385 SWAP1 PUSH2 0x3E0F JUMP JUMPDEST PUSH1 0x40 MLOAD DUP1 SWAP2 SUB SWAP1 REVERT JUMPDEST PUSH1 0x1 DUP2 PUSH1 0x5 ADD PUSH1 0x15 PUSH2 0x100 EXP DUP2 SLOAD DUP2 PUSH1 0xFF MUL NOT AND SWAP1 DUP4 ISZERO ISZERO MUL OR SWAP1 SSTORE POP PUSH1 0x0 PUSH1 0x9 DUP5 DUP2 SLOAD DUP2 LT PUSH2 0x23C1 JUMPI PUSH2 0x23C0 PUSH2 0x30D9 JUMP JUMPDEST JUMPDEST SWAP1 PUSH1 0x0 MSTORE PUSH1 0x20 PUSH1 0x0 KECCAK256 ADD SWAP1 POP PUSH1 0x0 JUMPDEST DUP2 DUP1 SLOAD SWAP1 POP DUP2 LT ISZERO PUSH2 0x2525 JUMPI PUSH1 0x0 PUSH1 0x8 PUSH1 0x0 DUP8 DUP2 MSTORE PUSH1 0x20 ADD SWAP1 DUP2 MSTORE PUSH1 0x20 ADD PUSH1 0x0 KECCAK256 PUSH1 0x0 DUP5 DUP5 DUP2 SLOAD DUP2 LT PUSH2 0x2406 JUMPI PUSH2 0x2405 PUSH2 0x30D9 JUMP JUMPDEST JUMPDEST SWAP1 PUSH1 0x0 MSTORE PUSH1 0x20 PUSH1 0x0 KECCAK256 ADD PUSH1 0x0 SWAP1 SLOAD SWAP1 PUSH2 0x100 EXP SWAP1 DIV PUSH20 0xFFFFFFFFFFFFFFFFFFFFFFFFFFFFFFFFFFFFFFFF AND PUSH20 0xFFFFFFFFFFFFFFFFFFFFFFFFFFFFFFFFFFFFFFFF AND PUSH20 0xFFFFFFFFFFFFFFFFFFFFFFFFFFFFFFFFFFFFFFFF AND DUP2 MSTORE PUSH1 0x20 ADD SWAP1 DUP2 MSTORE PUSH1 0x20 ADD PUSH1 0x0 KECCAK256 SLOAD SWAP1 POP PUSH1 0x2 DUP2 PUSH2 0x247B SWAP2 SWAP1 PUSH2 0x3446 JUMP JUMPDEST PUSH1 0x1 PUSH1 0x0 DUP6 DUP6 DUP2 SLOAD DUP2 LT PUSH2 0x2492 JUMPI PUSH2 0x2491 PUSH2 0x30D9 JUMP JUMPDEST JUMPDEST SWAP1 PUSH1 0x0 MSTORE PUSH1 0x20 PUSH1 0x0 KECCAK256 ADD PUSH1 0x0 SWAP1 SLOAD SWAP1 PUSH2 0x100 EXP SWAP1 DIV PUSH20 0xFFFFFFFFFFFFFFFFFFFFFFFFFFFFFFFFFFFFFFFF AND PUSH20 0xFFFFFFFFFFFFFFFFFFFFFFFFFFFFFFFFFFFFFFFF AND PUSH20 0xFFFFFFFFFFFFFFFFFFFFFFFFFFFFFFFFFFFFFFFF AND DUP2 MSTORE PUSH1 0x20 ADD SWAP1 DUP2 MSTORE PUSH1 0x20 ADD PUSH1 0x0 KECCAK256 PUSH1 0x0 DUP3 DUP3 SLOAD PUSH2 0x2506 SWAP2 SWAP1 PUSH2 0x3491 JUMP JUMPDEST SWAP3 POP POP DUP2 SWAP1 SSTORE POP PUSH1 0x0 SWAP1 POP POP DUP1 DUP1 PUSH2 0x251D SWAP1 PUSH2 0x3137 JUMP JUMPDEST SWAP2 POP POP PUSH2 0x23D0 JUMP JUMPDEST POP POP POP POP POP JUMP JUMPDEST PUSH1 0x0 ISZERO ISZERO PUSH1 0x4 PUSH1 0x0 CALLER PUSH20 0xFFFFFFFFFFFFFFFFFFFFFFFFFFFFFFFFFFFFFFFF AND PUSH20 0xFFFFFFFFFFFFFFFFFFFFFFFFFFFFFFFFFFFFFFFF AND DUP2 MSTORE PUSH1 0x20 ADD SWAP1 DUP2 MSTORE PUSH1 0x20 ADD PUSH1 0x0 KECCAK256 PUSH1 0x0 SWAP1 SLOAD SWAP1 PUSH2 0x100 EXP SWAP1 DIV PUSH1 0xFF AND ISZERO ISZERO EQ PUSH2 0x25BF JUMPI PUSH1 0x40 MLOAD PUSH32 0x8C379A000000000000000000000000000000000000000000000000000000000 DUP2 MSTORE PUSH1 0x4 ADD PUSH2 0x25B6 SWAP1 PUSH2 0x3E7B JUMP JUMPDEST PUSH1 0x40 MLOAD DUP1 SWAP2 SUB SWAP1 REVERT JUMPDEST PUSH1 0x1 PUSH1 0x4 PUSH1 0x0 CALLER PUSH20 0xFFFFFFFFFFFFFFFFFFFFFFFFFFFFFFFFFFFFFFFF AND PUSH20 0xFFFFFFFFFFFFFFFFFFFFFFFFFFFFFFFFFFFFFFFF AND DUP2 MSTORE PUSH1 0x20 ADD SWAP1 DUP2 MSTORE PUSH1 0x20 ADD PUSH1 0x0 KECCAK256 PUSH1 0x0 PUSH2 0x100 EXP DUP2 SLOAD DUP2 PUSH1 0xFF MUL NOT AND SWAP1 DUP4 ISZERO ISZERO MUL OR SWAP1 SSTORE POP PUSH1 0x5 PUSH1 0x0 DUP2 SLOAD DUP1 SWAP3 SWAP2 SWAP1 PUSH2 0x262A SWAP1 PUSH2 0x3137 JUMP JUMPDEST SWAP2 SWAP1 POP SSTORE POP PUSH2 0x2637 PUSH2 0x1EDA JUMP JUMPDEST JUMP JUMPDEST PUSH1 0x0 DUP2 DUP4 PUSH2 0x2647 SWAP2 SWAP1 PUSH2 0x3A8F JUMP JUMPDEST SWAP1 POP SWAP3 SWAP2 POP POP JUMP JUMPDEST PUSH1 0x0 PUSH1 0x2 DUP3 DUP2 SLOAD DUP2 LT PUSH2 0x2665 JUMPI PUSH2 0x2664 PUSH2 0x30D9 JUMP JUMPDEST JUMPDEST SWAP1 PUSH1 0x0 MSTORE PUSH1 0x20 PUSH1 0x0 KECCAK256 SWAP1 PUSH1 0x6 MUL ADD SWAP1 POP PUSH32 0x0 DUP2 PUSH1 0x3 ADD SLOAD PUSH2 0x26A5 SWAP2 SWAP1 PUSH2 0x3A8F JUMP JUMPDEST PUSH1 0x7 SLOAD PUSH2 0x26B2 SWAP2 SWAP1 PUSH2 0x3491 JUMP JUMPDEST DUP2 PUSH1 0x4 ADD SLOAD GT ISZERO PUSH2 0x26C3 JUMPI POP PUSH2 0x2A27 JUMP JUMPDEST PUSH1 0x0 PUSH1 0x7 SLOAD PUSH1 0xA PUSH1 0x2 DUP1 SLOAD SWAP1 POP PUSH2 0x26DA SWAP2 SWAP1 PUSH2 0x3A8F JUMP JUMPDEST PUSH2 0x26E4 SWAP2 SWAP1 PUSH2 0x3A8F JUMP JUMPDEST PUSH1 0x5 SLOAD DUP4 PUSH1 0x4 ADD SLOAD PUSH1 0xA PUSH2 0x26F8 SWAP2 SWAP1 PUSH2 0x3A8F JUMP JUMPDEST PUSH1 0x2 PUSH2 0x2704 SWAP2 SWAP1 PUSH2 0x3491 JUMP JUMPDEST PUSH2 0x270E SWAP2 SWAP1 PUSH2 0x3A8F JUMP JUMPDEST PUSH2 0x2718 SWAP2 SWAP1 PUSH2 0x3491 JUMP JUMPDEST SWAP1 POP PUSH1 0x0 PUSH1 0x7 SLOAD PUSH1 0xA DUP5 PUSH1 0x3 ADD SLOAD PUSH2 0x2730 SWAP2 SWAP1 PUSH2 0x3A8F JUMP JUMPDEST PUSH2 0x273A SWAP2 SWAP1 PUSH2 0x3A8F JUMP JUMPDEST SWAP1 POP DUP2 DUP2 GT PUSH2 0x274B JUMPI POP POP POP PUSH2 0x2A27 JUMP JUMPDEST PUSH1 0x0 DUP4 PUSH1 0x5 ADD PUSH1 0x0 SWAP1 SLOAD SWAP1 PUSH2 0x100 EXP SWAP1 DIV PUSH20 0xFFFFFFFFFFFFFFFFFFFFFFFFFFFFFFFFFFFFFFFF AND SWAP1 POP DUP1 PUSH20 0xFFFFFFFFFFFFFFFFFFFFFFFFFFFFFFFFFFFFFFFF AND PUSH4 0xD61B519 DUP6 PUSH1 0x4 ADD SLOAD PUSH3 0x186A0 SWAP1 DUP9 PUSH1 0x40 MLOAD DUP5 PUSH4 0xFFFFFFFF AND PUSH1 0xE0 SHL DUP2 MSTORE PUSH1 0x4 ADD PUSH2 0x27B7 SWAP2 SWAP1 PUSH2 0x2F57 JUMP JUMPDEST PUSH1 0x0 PUSH1 0x40 MLOAD DUP1 DUP4 SUB DUP2 DUP6 DUP10 DUP1 EXTCODESIZE ISZERO DUP1 ISZERO PUSH2 0x27D0 JUMPI PUSH1 0x0 DUP1 REVERT JUMPDEST POP DUP9 CALL ISZERO DUP1 ISZERO PUSH2 0x27E4 JUMPI RETURNDATASIZE PUSH1 0x0 DUP1 RETURNDATACOPY RETURNDATASIZE PUSH1 0x0 REVERT JUMPDEST POP POP POP POP POP POP PUSH1 0x1 DUP5 PUSH1 0x5 ADD PUSH1 0x14 PUSH2 0x100 EXP DUP2 SLOAD DUP2 PUSH1 0xFF MUL NOT AND SWAP1 DUP4 ISZERO ISZERO MUL OR SWAP1 SSTORE POP PUSH1 0x0 PUSH1 0x9 DUP7 DUP2 SLOAD DUP2 LT PUSH2 0x281D JUMPI PUSH2 0x281C PUSH2 0x30D9 JUMP JUMPDEST JUMPDEST SWAP1 PUSH1 0x0 MSTORE PUSH1 0x20 PUSH1 0x0 KECCAK256 ADD SWAP1 POP PUSH1 0x0 DUP1 JUMPDEST DUP3 DUP1 SLOAD SWAP1 POP DUP2 LT ISZERO PUSH2 0x29FC JUMPI PUSH1 0x0 PUSH1 0x8 PUSH1 0x0 DUP11 DUP2 MSTORE PUSH1 0x20 ADD SWAP1 DUP2 MSTORE PUSH1 0x20 ADD PUSH1 0x0 KECCAK256 PUSH1 0x0 DUP6 DUP5 DUP2 SLOAD DUP2 LT PUSH2 0x2863 JUMPI PUSH2 0x2862 PUSH2 0x30D9 JUMP JUMPDEST JUMPDEST SWAP1 PUSH1 0x0 MSTORE PUSH1 0x20 PUSH1 0x0 KECCAK256 ADD PUSH1 0x0 SWAP1 SLOAD SWAP1 PUSH2 0x100 EXP SWAP1 DIV PUSH20 0xFFFFFFFFFFFFFFFFFFFFFFFFFFFFFFFFFFFFFFFF AND PUSH20 0xFFFFFFFFFFFFFFFFFFFFFFFFFFFFFFFFFFFFFFFF AND PUSH20 0xFFFFFFFFFFFFFFFFFFFFFFFFFFFFFFFFFFFFFFFF AND DUP2 MSTORE PUSH1 0x20 ADD SWAP1 DUP2 MSTORE PUSH1 0x20 ADD PUSH1 0x0 KECCAK256 SLOAD SWAP1 POP PUSH1 0x3 PUSH1 0x0 SWAP1 SLOAD SWAP1 PUSH2 0x100 EXP SWAP1 DIV PUSH20 0xFFFFFFFFFFFFFFFFFFFFFFFFFFFFFFFFFFFFFFFF AND PUSH20 0xFFFFFFFFFFFFFFFFFFFFFFFFFFFFFFFFFFFFFFFF AND PUSH4 0x9DC29FAC DUP6 DUP5 DUP2 SLOAD DUP2 LT PUSH2 0x291C JUMPI PUSH2 0x291B PUSH2 0x30D9 JUMP JUMPDEST JUMPDEST SWAP1 PUSH1 0x0 MSTORE PUSH1 0x20 PUSH1 0x0 KECCAK256 ADD PUSH1 0x0 SWAP1 SLOAD SWAP1 PUSH2 0x100 EXP SWAP1 DIV PUSH20 0xFFFFFFFFFFFFFFFFFFFFFFFFFFFFFFFFFFFFFFFF AND PUSH1 0x2 DUP5 PUSH2 0x2954 SWAP2 SWAP1 PUSH2 0x3446 JUMP JUMPDEST PUSH1 0x40 MLOAD DUP4 PUSH4 0xFFFFFFFF AND PUSH1 0xE0 SHL DUP2 MSTORE PUSH1 0x4 ADD PUSH2 0x2971 SWAP3 SWAP2 SWAP1 PUSH2 0x3EBC JUMP JUMPDEST PUSH1 0x0 PUSH1 0x40 MLOAD DUP1 DUP4 SUB DUP2 PUSH1 0x0 DUP8 DUP1 EXTCODESIZE ISZERO DUP1 ISZERO PUSH2 0x298B JUMPI PUSH1 0x0 DUP1 REVERT JUMPDEST POP GAS CALL ISZERO DUP1 ISZERO PUSH2 0x299F JUMPI RETURNDATASIZE PUSH1 0x0 DUP1 RETURNDATACOPY RETURNDATASIZE PUSH1 0x0 REVERT JUMPDEST POP POP POP POP PUSH32 0x0 PUSH1 0x2 DUP3 PUSH2 0x29D1 SWAP2 SWAP1 PUSH2 0x3446 JUMP JUMPDEST PUSH2 0x29DB SWAP2 SWAP1 PUSH2 0x3A8F JUMP JUMPDEST DUP4 PUSH2 0x29E6 SWAP2 SWAP1 PUSH2 0x3491 JUMP JUMPDEST SWAP3 POP POP DUP1 DUP1 PUSH2 0x29F4 SWAP1 PUSH2 0x3137 JUMP JUMPDEST SWAP2 POP POP PUSH2 0x282D JUMP JUMPDEST POP DUP6 PUSH1 0x4 ADD SLOAD DUP2 PUSH1 0x7 SLOAD PUSH2 0x2A10 SWAP2 SWAP1 PUSH2 0x3491 JUMP JUMPDEST PUSH2 0x2A1A SWAP2 SWAP1 PUSH2 0x32D2 JUMP JUMPDEST PUSH1 0x7 DUP2 SWAP1 SSTORE POP POP POP POP POP POP POP JUMPDEST POP JUMP JUMPDEST PUSH1 0x0 DUP1 DUP3 EXTCODESIZE SWAP1 POP PUSH1 0x0 DUP2 EQ ISZERO SWAP2 POP POP SWAP2 SWAP1 POP JUMP JUMPDEST PUSH1 0x0 DUP2 DUP4 PUSH2 0x2A4C SWAP2 SWAP1 PUSH2 0x3F14 JUMP JUMPDEST SWAP1 POP SWAP3 SWAP2 POP POP JUMP JUMPDEST PUSH1 0x0 DUP2 DUP4 PUSH2 0x2A62 SWAP2 SWAP1 PUSH2 0x3F45 JUMP JUMPDEST SWAP1 POP SWAP3 SWAP2 POP POP JUMP JUMPDEST DUP3 DUP1 SLOAD PUSH2 0x2A76 SWAP1 PUSH2 0x3A5E JUMP JUMPDEST SWAP1 PUSH1 0x0 MSTORE PUSH1 0x20 PUSH1 0x0 KECCAK256 SWAP1 PUSH1 0x1F ADD PUSH1 0x20 SWAP1 DIV DUP2 ADD SWAP3 DUP3 PUSH2 0x2A98 JUMPI PUSH1 0x0 DUP6 SSTORE PUSH2 0x2ADF JUMP JUMPDEST DUP3 PUSH1 0x1F LT PUSH2 0x2AB1 JUMPI DUP1 MLOAD PUSH1 0xFF NOT AND DUP4 DUP1 ADD OR DUP6 SSTORE PUSH2 0x2ADF JUMP JUMPDEST DUP3 DUP1 ADD PUSH1 0x1 ADD DUP6 SSTORE DUP3 ISZERO PUSH2 0x2ADF JUMPI SWAP2 DUP3 ADD JUMPDEST DUP3 DUP2 GT ISZERO PUSH2 0x2ADE JUMPI DUP3 MLOAD DUP3 SSTORE SWAP2 PUSH1 0x20 ADD SWAP2 SWAP1 PUSH1 0x1 ADD SWAP1 PUSH2 0x2AC3 JUMP JUMPDEST JUMPDEST POP SWAP1 POP PUSH2 0x2AEC SWAP2 SWAP1 PUSH2 0x2BBA JUMP JUMPDEST POP SWAP1 JUMP JUMPDEST DUP3 DUP1 SLOAD DUP3 DUP3 SSTORE SWAP1 PUSH1 0x0 MSTORE PUSH1 0x20 PUSH1 0x0 KECCAK256 SWAP1 DUP2 ADD SWAP3 DUP3 ISZERO PUSH2 0x2B69 JUMPI SWAP2 PUSH1 0x20 MUL DUP3 ADD JUMPDEST DUP3 DUP2 GT ISZERO PUSH2 0x2B68 JUMPI DUP3 MLOAD DUP3 PUSH1 0x0 PUSH2 0x100 EXP DUP2 SLOAD DUP2 PUSH20 0xFFFFFFFFFFFFFFFFFFFFFFFFFFFFFFFFFFFFFFFF MUL NOT AND SWAP1 DUP4 PUSH20 0xFFFFFFFFFFFFFFFFFFFFFFFFFFFFFFFFFFFFFFFF AND MUL OR SWAP1 SSTORE POP SWAP2 PUSH1 0x20 ADD SWAP2 SWAP1 PUSH1 0x1 ADD SWAP1 PUSH2 0x2B10 JUMP JUMPDEST JUMPDEST POP SWAP1 POP PUSH2 0x2B76 SWAP2 SWAP1 PUSH2 0x2BBA JUMP JUMPDEST POP SWAP1 JUMP JUMPDEST POP DUP1 SLOAD PUSH2 0x2B86 SWAP1 PUSH2 0x3A5E JUMP JUMPDEST PUSH1 0x0 DUP3 SSTORE DUP1 PUSH1 0x1F LT PUSH2 0x2B98 JUMPI POP PUSH2 0x2BB7 JUMP JUMPDEST PUSH1 0x1F ADD PUSH1 0x20 SWAP1 DIV SWAP1 PUSH1 0x0 MSTORE PUSH1 0x20 PUSH1 0x0 KECCAK256 SWAP1 DUP2 ADD SWAP1 PUSH2 0x2BB6 SWAP2 SWAP1 PUSH2 0x2BBA JUMP JUMPDEST JUMPDEST POP JUMP JUMPDEST JUMPDEST DUP1 DUP3 GT ISZERO PUSH2 0x2BD3 JUMPI PUSH1 0x0 DUP2 PUSH1 0x0 SWAP1 SSTORE POP PUSH1 0x1 ADD PUSH2 0x2BBB JUMP JUMPDEST POP SWAP1 JUMP JUMPDEST PUSH1 0x0 DUP2 MLOAD SWAP1 POP SWAP2 SWAP1 POP JUMP JUMPDEST PUSH1 0x0 DUP3 DUP3 MSTORE PUSH1 0x20 DUP3 ADD SWAP1 POP SWAP3 SWAP2 POP POP JUMP JUMPDEST PUSH1 0x0 DUP2 SWAP1 POP PUSH1 0x20 DUP3 ADD SWAP1 POP SWAP2 SWAP1 POP JUMP JUMPDEST PUSH1 0x0 DUP2 SWAP1 POP SWAP2 SWAP1 POP JUMP JUMPDEST PUSH2 0x2C16 DUP2 PUSH2 0x2C03 JUMP JUMPDEST DUP3 MSTORE POP POP JUMP JUMPDEST PUSH1 0x0 PUSH2 0x2C28 DUP4 DUP4 PUSH2 0x2C0D JUMP JUMPDEST PUSH1 0x20 DUP4 ADD SWAP1 POP SWAP3 SWAP2 POP POP JUMP JUMPDEST PUSH1 0x0 PUSH1 0x20 DUP3 ADD SWAP1 POP SWAP2 SWAP1 POP JUMP JUMPDEST PUSH1 0x0 PUSH2 0x2C4C DUP3 PUSH2 0x2BD7 JUMP JUMPDEST PUSH2 0x2C56 DUP2 DUP6 PUSH2 0x2BE2 JUMP JUMPDEST SWAP4 POP PUSH2 0x2C61 DUP4 PUSH2 0x2BF3 JUMP JUMPDEST DUP1 PUSH1 0x0 JUMPDEST DUP4 DUP2 LT ISZERO PUSH2 0x2C92 JUMPI DUP2 MLOAD PUSH2 0x2C79 DUP9 DUP3 PUSH2 0x2C1C JUMP JUMPDEST SWAP8 POP PUSH2 0x2C84 DUP4 PUSH2 0x2C34 JUMP JUMPDEST SWAP3 POP POP PUSH1 0x1 DUP2 ADD SWAP1 POP PUSH2 0x2C65 JUMP JUMPDEST POP DUP6 SWAP4 POP POP POP POP SWAP3 SWAP2 POP POP JUMP JUMPDEST PUSH1 0x0 PUSH1 0x20 DUP3 ADD SWAP1 POP DUP2 DUP2 SUB PUSH1 0x0 DUP4 ADD MSTORE PUSH2 0x2CB9 DUP2 DUP5 PUSH2 0x2C41 JUMP JUMPDEST SWAP1 POP SWAP3 SWAP2 POP POP JUMP JUMPDEST PUSH1 0x0 DUP1 REVERT JUMPDEST PUSH1 0x0 DUP1 REVERT JUMPDEST PUSH2 0x2CD4 DUP2 PUSH2 0x2C03 JUMP JUMPDEST DUP2 EQ PUSH2 0x2CDF JUMPI PUSH1 0x0 DUP1 REVERT JUMPDEST POP JUMP JUMPDEST PUSH1 0x0 DUP2 CALLDATALOAD SWAP1 POP PUSH2 0x2CF1 DUP2 PUSH2 0x2CCB JUMP JUMPDEST SWAP3 SWAP2 POP POP JUMP JUMPDEST PUSH1 0x0 DUP1 PUSH1 0x40 DUP4 DUP6 SUB SLT ISZERO PUSH2 0x2D0E JUMPI PUSH2 0x2D0D PUSH2 0x2CC1 JUMP JUMPDEST JUMPDEST PUSH1 0x0 PUSH2 0x2D1C DUP6 DUP3 DUP7 ADD PUSH2 0x2CE2 JUMP JUMPDEST SWAP3 POP POP PUSH1 0x20 PUSH2 0x2D2D DUP6 DUP3 DUP7 ADD PUSH2 0x2CE2 JUMP JUMPDEST SWAP2 POP POP SWAP3 POP SWAP3 SWAP1 POP JUMP JUMPDEST PUSH1 0x0 PUSH1 0x20 DUP3 DUP5 SUB SLT ISZERO PUSH2 0x2D4D JUMPI PUSH2 0x2D4C PUSH2 0x2CC1 JUMP JUMPDEST JUMPDEST PUSH1 0x0 PUSH2 0x2D5B DUP5 DUP3 DUP6 ADD PUSH2 0x2CE2 JUMP JUMPDEST SWAP2 POP POP SWAP3 SWAP2 POP POP JUMP JUMPDEST PUSH1 0x0 PUSH20 0xFFFFFFFFFFFFFFFFFFFFFFFFFFFFFFFFFFFFFFFF DUP3 AND SWAP1 POP SWAP2 SWAP1 POP JUMP JUMPDEST PUSH1 0x0 DUP2 SWAP1 POP SWAP2 SWAP1 POP JUMP JUMPDEST PUSH1 0x0 PUSH2 0x2DA9 PUSH2 0x2DA4 PUSH2 0x2D9F DUP5 PUSH2 0x2D64 JUMP JUMPDEST PUSH2 0x2D84 JUMP JUMPDEST PUSH2 0x2D64 JUMP JUMPDEST SWAP1 POP SWAP2 SWAP1 POP JUMP JUMPDEST PUSH1 0x0 PUSH2 0x2DBB DUP3 PUSH2 0x2D8E JUMP JUMPDEST SWAP1 POP SWAP2 SWAP1 POP JUMP JUMPDEST PUSH1 0x0 PUSH2 0x2DCD DUP3 PUSH2 0x2DB0 JUMP JUMPDEST SWAP1 POP SWAP2 SWAP1 POP JUMP JUMPDEST PUSH2 0x2DDD DUP2 PUSH2 0x2DC2 JUMP JUMPDEST DUP3 MSTORE POP POP JUMP JUMPDEST PUSH1 0x0 PUSH1 0x20 DUP3 ADD SWAP1 POP PUSH2 0x2DF8 PUSH1 0x0 DUP4 ADD DUP5 PUSH2 0x2DD4 JUMP JUMPDEST SWAP3 SWAP2 POP POP JUMP JUMPDEST PUSH1 0x0 DUP1 REVERT JUMPDEST PUSH1 0x0 DUP1 REVERT JUMPDEST PUSH1 0x0 DUP1 REVERT JUMPDEST PUSH1 0x0 DUP1 DUP4 PUSH1 0x1F DUP5 ADD SLT PUSH2 0x2E23 JUMPI PUSH2 0x2E22 PUSH2 0x2DFE JUMP JUMPDEST JUMPDEST DUP3 CALLDATALOAD SWAP1 POP PUSH8 0xFFFFFFFFFFFFFFFF DUP2 GT ISZERO PUSH2 0x2E40 JUMPI PUSH2 0x2E3F PUSH2 0x2E03 JUMP JUMPDEST JUMPDEST PUSH1 0x20 DUP4 ADD SWAP2 POP DUP4 PUSH1 0x1 DUP3 MUL DUP4 ADD GT ISZERO PUSH2 0x2E5C JUMPI PUSH2 0x2E5B PUSH2 0x2E08 JUMP JUMPDEST JUMPDEST SWAP3 POP SWAP3 SWAP1 POP JUMP JUMPDEST PUSH1 0x0 PUSH2 0x2E6E DUP3 PUSH2 0x2D64 JUMP JUMPDEST SWAP1 POP SWAP2 SWAP1 POP JUMP JUMPDEST PUSH2 0x2E7E DUP2 PUSH2 0x2E63 JUMP JUMPDEST DUP2 EQ PUSH2 0x2E89 JUMPI PUSH1 0x0 DUP1 REVERT JUMPDEST POP JUMP JUMPDEST PUSH1 0x0 DUP2 CALLDATALOAD SWAP1 POP PUSH2 0x2E9B DUP2 PUSH2 0x2E75 JUMP JUMPDEST SWAP3 SWAP2 POP POP JUMP JUMPDEST PUSH1 0x0 DUP1 PUSH1 0x0 DUP1 PUSH1 0x0 DUP1 PUSH1 0x80 DUP8 DUP10 SUB SLT ISZERO PUSH2 0x2EBE JUMPI PUSH2 0x2EBD PUSH2 0x2CC1 JUMP JUMPDEST JUMPDEST PUSH1 0x0 DUP8 ADD CALLDATALOAD PUSH8 0xFFFFFFFFFFFFFFFF DUP2 GT ISZERO PUSH2 0x2EDC JUMPI PUSH2 0x2EDB PUSH2 0x2CC6 JUMP JUMPDEST JUMPDEST PUSH2 0x2EE8 DUP10 DUP3 DUP11 ADD PUSH2 0x2E0D JUMP JUMPDEST SWAP7 POP SWAP7 POP POP PUSH1 0x20 DUP8 ADD CALLDATALOAD PUSH8 0xFFFFFFFFFFFFFFFF DUP2 GT ISZERO PUSH2 0x2F0B JUMPI PUSH2 0x2F0A PUSH2 0x2CC6 JUMP JUMPDEST JUMPDEST PUSH2 0x2F17 DUP10 DUP3 DUP11 ADD PUSH2 0x2E0D JUMP JUMPDEST SWAP5 POP SWAP5 POP POP PUSH1 0x40 PUSH2 0x2F2A DUP10 DUP3 DUP11 ADD PUSH2 0x2CE2 JUMP JUMPDEST SWAP3 POP POP PUSH1 0x60 PUSH2 0x2F3B DUP10 DUP3 DUP11 ADD PUSH2 0x2E8C JUMP JUMPDEST SWAP2 POP POP SWAP3 SWAP6 POP SWAP3 SWAP6 POP SWAP3 SWAP6 JUMP JUMPDEST PUSH2 0x2F51 DUP2 PUSH2 0x2C03 JUMP JUMPDEST DUP3 MSTORE POP POP JUMP JUMPDEST PUSH1 0x0 PUSH1 0x20 DUP3 ADD SWAP1 POP PUSH2 0x2F6C PUSH1 0x0 DUP4 ADD DUP5 PUSH2 0x2F48 JUMP JUMPDEST SWAP3 SWAP2 POP POP JUMP JUMPDEST PUSH1 0x0 DUP2 MLOAD SWAP1 POP SWAP2 SWAP1 POP JUMP JUMPDEST PUSH1 0x0 DUP3 DUP3 MSTORE PUSH1 0x20 DUP3 ADD SWAP1 POP SWAP3 SWAP2 POP POP JUMP JUMPDEST PUSH1 0x0 JUMPDEST DUP4 DUP2 LT ISZERO PUSH2 0x2FAC JUMPI DUP1 DUP3 ADD MLOAD DUP2 DUP5 ADD MSTORE PUSH1 0x20 DUP2 ADD SWAP1 POP PUSH2 0x2F91 JUMP JUMPDEST DUP4 DUP2 GT ISZERO PUSH2 0x2FBB JUMPI PUSH1 0x0 DUP5 DUP5 ADD MSTORE JUMPDEST POP POP POP POP JUMP JUMPDEST PUSH1 0x0 PUSH1 0x1F NOT PUSH1 0x1F DUP4 ADD AND SWAP1 POP SWAP2 SWAP1 POP JUMP JUMPDEST PUSH1 0x0 PUSH2 0x2FDD DUP3 PUSH2 0x2F72 JUMP JUMPDEST PUSH2 0x2FE7 DUP2 DUP6 PUSH2 0x2F7D JUMP JUMPDEST SWAP4 POP PUSH2 0x2FF7 DUP2 DUP6 PUSH1 0x20 DUP7 ADD PUSH2 0x2F8E JUMP JUMPDEST PUSH2 0x3000 DUP2 PUSH2 0x2FC1 JUMP JUMPDEST DUP5 ADD SWAP2 POP POP SWAP3 SWAP2 POP POP JUMP JUMPDEST PUSH2 0x3014 DUP2 PUSH2 0x2E63 JUMP JUMPDEST DUP3 MSTORE POP POP JUMP JUMPDEST PUSH1 0x0 PUSH1 0x80 DUP3 ADD SWAP1 POP DUP2 DUP2 SUB PUSH1 0x0 DUP4 ADD MSTORE PUSH2 0x3034 DUP2 DUP8 PUSH2 0x2FD2 JUMP JUMPDEST SWAP1 POP DUP2 DUP2 SUB PUSH1 0x20 DUP4 ADD MSTORE PUSH2 0x3048 DUP2 DUP7 PUSH2 0x2FD2 JUMP JUMPDEST SWAP1 POP PUSH2 0x3057 PUSH1 0x40 DUP4 ADD DUP6 PUSH2 0x2F48 JUMP JUMPDEST PUSH2 0x3064 PUSH1 0x60 DUP4 ADD DUP5 PUSH2 0x300B JUMP JUMPDEST SWAP6 SWAP5 POP POP POP POP POP JUMP JUMPDEST PUSH32 0x566F74696E67206973206E6F74206F70656E207965742E000000000000000000 PUSH1 0x0 DUP3 ADD MSTORE POP JUMP JUMPDEST PUSH1 0x0 PUSH2 0x30A3 PUSH1 0x17 DUP4 PUSH2 0x2F7D JUMP JUMPDEST SWAP2 POP PUSH2 0x30AE DUP3 PUSH2 0x306D JUMP JUMPDEST PUSH1 0x20 DUP3 ADD SWAP1 POP SWAP2 SWAP1 POP JUMP JUMPDEST PUSH1 0x0 PUSH1 0x20 DUP3 ADD SWAP1 POP DUP2 DUP2 SUB PUSH1 0x0 DUP4 ADD MSTORE PUSH2 0x30D2 DUP2 PUSH2 0x3096 JUMP JUMPDEST SWAP1 POP SWAP2 SWAP1 POP JUMP JUMPDEST PUSH32 0x4E487B7100000000000000000000000000000000000000000000000000000000 PUSH1 0x0 MSTORE PUSH1 0x32 PUSH1 0x4 MSTORE PUSH1 0x24 PUSH1 0x0 REVERT JUMPDEST PUSH32 0x4E487B7100000000000000000000000000000000000000000000000000000000 PUSH1 0x0 MSTORE PUSH1 0x11 PUSH1 0x4 MSTORE PUSH1 0x24 PUSH1 0x0 REVERT JUMPDEST PUSH1 0x0 PUSH2 0x3142 DUP3 PUSH2 0x2C03 JUMP JUMPDEST SWAP2 POP PUSH32 0xFFFFFFFFFFFFFFFFFFFFFFFFFFFFFFFFFFFFFFFFFFFFFFFFFFFFFFFFFFFFFFFF DUP3 SUB PUSH2 0x3174 JUMPI PUSH2 0x3173 PUSH2 0x3108 JUMP JUMPDEST JUMPDEST PUSH1 0x1 DUP3 ADD SWAP1 POP SWAP2 SWAP1 POP JUMP JUMPDEST PUSH32 0x4E487B7100000000000000000000000000000000000000000000000000000000 PUSH1 0x0 MSTORE PUSH1 0x41 PUSH1 0x4 MSTORE PUSH1 0x24 PUSH1 0x0 REVERT JUMPDEST PUSH32 0x5468652070726F706F73616C2068617320616C7265616479206265656E206170 PUSH1 0x0 DUP3 ADD MSTORE PUSH32 0x70726F7665640000000000000000000000000000000000000000000000000000 PUSH1 0x20 DUP3 ADD MSTORE POP JUMP JUMPDEST PUSH1 0x0 PUSH2 0x320A PUSH1 0x26 DUP4 PUSH2 0x2F7D JUMP JUMPDEST SWAP2 POP PUSH2 0x3215 DUP3 PUSH2 0x31AE JUMP JUMPDEST PUSH1 0x40 DUP3 ADD SWAP1 POP SWAP2 SWAP1 POP JUMP JUMPDEST PUSH1 0x0 PUSH1 0x20 DUP3 ADD SWAP1 POP DUP2 DUP2 SUB PUSH1 0x0 DUP4 ADD MSTORE PUSH2 0x3239 DUP2 PUSH2 0x31FD JUMP JUMPDEST SWAP1 POP SWAP2 SWAP1 POP JUMP JUMPDEST PUSH32 0x5573657220686173206E6F74206361737465642074686174206D75636820766F PUSH1 0x0 DUP3 ADD MSTORE PUSH32 0x7465732E00000000000000000000000000000000000000000000000000000000 PUSH1 0x20 DUP3 ADD MSTORE POP JUMP JUMPDEST PUSH1 0x0 PUSH2 0x329C PUSH1 0x24 DUP4 PUSH2 0x2F7D JUMP JUMPDEST SWAP2 POP PUSH2 0x32A7 DUP3 PUSH2 0x3240 JUMP JUMPDEST PUSH1 0x40 DUP3 ADD SWAP1 POP SWAP2 SWAP1 POP JUMP JUMPDEST PUSH1 0x0 PUSH1 0x20 DUP3 ADD SWAP1 POP DUP2 DUP2 SUB PUSH1 0x0 DUP4 ADD MSTORE PUSH2 0x32CB DUP2 PUSH2 0x328F JUMP JUMPDEST SWAP1 POP SWAP2 SWAP1 POP JUMP JUMPDEST PUSH1 0x0 PUSH2 0x32DD DUP3 PUSH2 0x2C03 JUMP JUMPDEST SWAP2 POP PUSH2 0x32E8 DUP4 PUSH2 0x2C03 JUMP JUMPDEST SWAP3 POP DUP3 DUP3 LT ISZERO PUSH2 0x32FB JUMPI PUSH2 0x32FA PUSH2 0x3108 JUMP JUMPDEST JUMPDEST DUP3 DUP3 SUB SWAP1 POP SWAP3 SWAP2 POP POP JUMP JUMPDEST PUSH1 0x0 DUP2 PUSH1 0x1 SHR SWAP1 POP SWAP2 SWAP1 POP JUMP JUMPDEST PUSH1 0x0 DUP1 DUP3 SWAP2 POP DUP4 SWAP1 POP JUMPDEST PUSH1 0x1 DUP6 GT ISZERO PUSH2 0x335D JUMPI DUP1 DUP7 DIV DUP2 GT ISZERO PUSH2 0x3339 JUMPI PUSH2 0x3338 PUSH2 0x3108 JUMP JUMPDEST JUMPDEST PUSH1 0x1 DUP6 AND ISZERO PUSH2 0x3348 JUMPI DUP1 DUP3 MUL SWAP2 POP JUMPDEST DUP1 DUP2 MUL SWAP1 POP PUSH2 0x3356 DUP6 PUSH2 0x3306 JUMP JUMPDEST SWAP5 POP PUSH2 0x331D JUMP JUMPDEST SWAP5 POP SWAP5 SWAP3 POP POP POP JUMP JUMPDEST PUSH1 0x0 DUP3 PUSH2 0x3376 JUMPI PUSH1 0x1 SWAP1 POP PUSH2 0x3432 JUMP JUMPDEST DUP2 PUSH2 0x3384 JUMPI PUSH1 0x0 SWAP1 POP PUSH2 0x3432 JUMP JUMPDEST DUP2 PUSH1 0x1 DUP2 EQ PUSH2 0x339A JUMPI PUSH1 0x2 DUP2 EQ PUSH2 0x33A4 JUMPI PUSH2 0x33D3 JUMP JUMPDEST PUSH1 0x1 SWAP2 POP POP PUSH2 0x3432 JUMP JUMPDEST PUSH1 0xFF DUP5 GT ISZERO PUSH2 0x33B6 JUMPI PUSH2 0x33B5 PUSH2 0x3108 JUMP JUMPDEST JUMPDEST DUP4 PUSH1 0x2 EXP SWAP2 POP DUP5 DUP3 GT ISZERO PUSH2 0x33CD JUMPI PUSH2 0x33CC PUSH2 0x3108 JUMP JUMPDEST JUMPDEST POP PUSH2 0x3432 JUMP JUMPDEST POP PUSH1 0x20 DUP4 LT PUSH2 0x133 DUP4 LT AND PUSH1 0x4E DUP5 LT PUSH1 0xB DUP5 LT AND OR ISZERO PUSH2 0x3408 JUMPI DUP3 DUP3 EXP SWAP1 POP DUP4 DUP2 GT ISZERO PUSH2 0x3403 JUMPI PUSH2 0x3402 PUSH2 0x3108 JUMP JUMPDEST JUMPDEST PUSH2 0x3432 JUMP JUMPDEST PUSH2 0x3415 DUP5 DUP5 DUP5 PUSH1 0x1 PUSH2 0x3313 JUMP JUMPDEST SWAP3 POP SWAP1 POP DUP2 DUP5 DIV DUP2 GT ISZERO PUSH2 0x342C JUMPI PUSH2 0x342B PUSH2 0x3108 JUMP JUMPDEST JUMPDEST DUP2 DUP2 MUL SWAP1 POP JUMPDEST SWAP4 SWAP3 POP POP POP JUMP JUMPDEST PUSH1 0x0 PUSH1 0xFF DUP3 AND SWAP1 POP SWAP2 SWAP1 POP JUMP JUMPDEST PUSH1 0x0 PUSH2 0x3451 DUP3 PUSH2 0x2C03 JUMP JUMPDEST SWAP2 POP PUSH2 0x345C DUP4 PUSH2 0x3439 JUMP JUMPDEST SWAP3 POP PUSH2 0x3489 PUSH32 0xFFFFFFFFFFFFFFFFFFFFFFFFFFFFFFFFFFFFFFFFFFFFFFFFFFFFFFFFFFFFFFFF DUP5 DUP5 PUSH2 0x3366 JUMP JUMPDEST SWAP1 POP SWAP3 SWAP2 POP POP JUMP JUMPDEST PUSH1 0x0 PUSH2 0x349C DUP3 PUSH2 0x2C03 JUMP JUMPDEST SWAP2 POP PUSH2 0x34A7 DUP4 PUSH2 0x2C03 JUMP JUMPDEST SWAP3 POP DUP3 PUSH32 0xFFFFFFFFFFFFFFFFFFFFFFFFFFFFFFFFFFFFFFFFFFFFFFFFFFFFFFFFFFFFFFFF SUB DUP3 GT ISZERO PUSH2 0x34DC JUMPI PUSH2 0x34DB PUSH2 0x3108 JUMP JUMPDEST JUMPDEST DUP3 DUP3 ADD SWAP1 POP SWAP3 SWAP2 POP POP JUMP JUMPDEST PUSH32 0x41646472657373206E6F74207265676973746572656421000000000000000000 PUSH1 0x0 DUP3 ADD MSTORE POP JUMP JUMPDEST PUSH1 0x0 PUSH2 0x351D PUSH1 0x17 DUP4 PUSH2 0x2F7D JUMP JUMPDEST SWAP2 POP PUSH2 0x3528 DUP3 PUSH2 0x34E7 JUMP JUMPDEST PUSH1 0x20 DUP3 ADD SWAP1 POP SWAP2 SWAP1 POP JUMP JUMPDEST PUSH1 0x0 PUSH1 0x20 DUP3 ADD SWAP1 POP DUP2 DUP2 SUB PUSH1 0x0 DUP4 ADD MSTORE PUSH2 0x354C DUP2 PUSH2 0x3510 JUMP JUMPDEST SWAP1 POP SWAP2 SWAP1 POP JUMP JUMPDEST PUSH32 0x596F7520646F6E2774206F776E20736F206D616E7920746F6B656E7321000000 PUSH1 0x0 DUP3 ADD MSTORE POP JUMP JUMPDEST PUSH1 0x0 PUSH2 0x3589 PUSH1 0x1D DUP4 PUSH2 0x2F7D JUMP JUMPDEST SWAP2 POP PUSH2 0x3594 DUP3 PUSH2 0x3553 JUMP JUMPDEST PUSH1 0x20 DUP3 ADD SWAP1 POP SWAP2 SWAP1 POP JUMP JUMPDEST PUSH1 0x0 PUSH1 0x20 DUP3 ADD SWAP1 POP DUP2 DUP2 SUB PUSH1 0x0 DUP4 ADD MSTORE PUSH2 0x35B8 DUP2 PUSH2 0x357C JUMP JUMPDEST SWAP1 POP SWAP2 SWAP1 POP JUMP JUMPDEST PUSH1 0x0 PUSH1 0x40 DUP3 ADD SWAP1 POP PUSH2 0x35D4 PUSH1 0x0 DUP4 ADD DUP6 PUSH2 0x300B JUMP JUMPDEST PUSH2 0x35E1 PUSH1 0x20 DUP4 ADD DUP5 PUSH2 0x2F48 JUMP JUMPDEST SWAP4 SWAP3 POP POP POP JUMP JUMPDEST PUSH32 0x4E6F7420656E6F75676820746F6B656E73210000000000000000000000000000 PUSH1 0x0 DUP3 ADD MSTORE POP JUMP JUMPDEST PUSH1 0x0 PUSH2 0x361E PUSH1 0x12 DUP4 PUSH2 0x2F7D JUMP JUMPDEST SWAP2 POP PUSH2 0x3629 DUP3 PUSH2 0x35E8 JUMP JUMPDEST PUSH1 0x20 DUP3 ADD SWAP1 POP SWAP2 SWAP1 POP JUMP JUMPDEST PUSH1 0x0 PUSH1 0x20 DUP3 ADD SWAP1 POP DUP2 DUP2 SUB PUSH1 0x0 DUP4 ADD MSTORE PUSH2 0x364D DUP2 PUSH2 0x3611 JUMP JUMPDEST SWAP1 POP SWAP2 SWAP1 POP JUMP JUMPDEST PUSH1 0x0 PUSH1 0x40 DUP3 ADD SWAP1 POP PUSH2 0x3669 PUSH1 0x0 DUP4 ADD DUP6 PUSH2 0x300B JUMP JUMPDEST PUSH2 0x3676 PUSH1 0x20 DUP4 ADD DUP5 PUSH2 0x300B JUMP JUMPDEST SWAP4 SWAP3 POP POP POP JUMP JUMPDEST PUSH1 0x0 DUP2 MLOAD SWAP1 POP PUSH2 0x368C DUP2 PUSH2 0x2CCB JUMP JUMPDEST SWAP3 SWAP2 POP POP JUMP JUMPDEST PUSH1 0x0 PUSH1 0x20 DUP3 DUP5 SUB SLT ISZERO PUSH2 0x36A8 JUMPI PUSH2 0x36A7 PUSH2 0x2CC1 JUMP JUMPDEST JUMPDEST PUSH1 0x0 PUSH2 0x36B6 DUP5 DUP3 DUP6 ADD PUSH2 0x367D JUMP JUMPDEST SWAP2 POP POP SWAP3 SWAP2 POP POP JUMP JUMPDEST PUSH32 0x557365206F6620746F6B656E73206E6565647320616C6C6F77616E6365210000 PUSH1 0x0 DUP3 ADD MSTORE POP JUMP JUMPDEST PUSH1 0x0 PUSH2 0x36F5 PUSH1 0x1E DUP4 PUSH2 0x2F7D JUMP JUMPDEST SWAP2 POP PUSH2 0x3700 DUP3 PUSH2 0x36BF JUMP JUMPDEST PUSH1 0x20 DUP3 ADD SWAP1 POP SWAP2 SWAP1 POP JUMP JUMPDEST PUSH1 0x0 PUSH1 0x20 DUP3 ADD SWAP1 POP DUP2 DUP2 SUB PUSH1 0x0 DUP4 ADD MSTORE PUSH2 0x3724 DUP2 PUSH2 0x36E8 JUMP JUMPDEST SWAP1 POP SWAP2 SWAP1 POP JUMP JUMPDEST PUSH1 0x0 PUSH1 0x60 DUP3 ADD SWAP1 POP PUSH2 0x3740 PUSH1 0x0 DUP4 ADD DUP7 PUSH2 0x300B JUMP JUMPDEST PUSH2 0x374D PUSH1 0x20 DUP4 ADD DUP6 PUSH2 0x300B JUMP JUMPDEST PUSH2 0x375A PUSH1 0x40 DUP4 ADD DUP5 PUSH2 0x2F48 JUMP JUMPDEST SWAP5 SWAP4 POP POP POP POP JUMP JUMPDEST PUSH1 0x0 DUP2 ISZERO ISZERO SWAP1 POP SWAP2 SWAP1 POP JUMP JUMPDEST PUSH2 0x3777 DUP2 PUSH2 0x3762 JUMP JUMPDEST DUP2 EQ PUSH2 0x3782 JUMPI PUSH1 0x0 DUP1 REVERT JUMPDEST POP JUMP JUMPDEST PUSH1 0x0 DUP2 MLOAD SWAP1 POP PUSH2 0x3794 DUP2 PUSH2 0x376E JUMP JUMPDEST SWAP3 SWAP2 POP POP JUMP JUMPDEST PUSH1 0x0 PUSH1 0x20 DUP3 DUP5 SUB SLT ISZERO PUSH2 0x37B0 JUMPI PUSH2 0x37AF PUSH2 0x2CC1 JUMP JUMPDEST JUMPDEST PUSH1 0x0 PUSH2 0x37BE DUP5 DUP3 DUP6 ADD PUSH2 0x3785 JUMP JUMPDEST SWAP2 POP POP SWAP3 SWAP2 POP POP JUMP JUMPDEST PUSH32 0x5469746C652063616E277420626520656D707479000000000000000000000000 PUSH1 0x0 DUP3 ADD MSTORE POP JUMP JUMPDEST PUSH1 0x0 PUSH2 0x37FD PUSH1 0x14 DUP4 PUSH2 0x2F7D JUMP JUMPDEST SWAP2 POP PUSH2 0x3808 DUP3 PUSH2 0x37C7 JUMP JUMPDEST PUSH1 0x20 DUP3 ADD SWAP1 POP SWAP2 SWAP1 POP JUMP JUMPDEST PUSH1 0x0 PUSH1 0x20 DUP3 ADD SWAP1 POP DUP2 DUP2 SUB PUSH1 0x0 DUP4 ADD MSTORE PUSH2 0x382C DUP2 PUSH2 0x37F0 JUMP JUMPDEST SWAP1 POP SWAP2 SWAP1 POP JUMP JUMPDEST PUSH32 0x4465736372697074696F6E2063616E277420626520656D707479000000000000 PUSH1 0x0 DUP3 ADD MSTORE POP JUMP JUMPDEST PUSH1 0x0 PUSH2 0x3869 PUSH1 0x1A DUP4 PUSH2 0x2F7D JUMP JUMPDEST SWAP2 POP PUSH2 0x3874 DUP3 PUSH2 0x3833 JUMP JUMPDEST PUSH1 0x20 DUP3 ADD SWAP1 POP SWAP2 SWAP1 POP JUMP JUMPDEST PUSH1 0x0 PUSH1 0x20 DUP3 ADD SWAP1 POP DUP2 DUP2 SUB PUSH1 0x0 DUP4 ADD MSTORE PUSH2 0x3898 DUP2 PUSH2 0x385C JUMP JUMPDEST SWAP1 POP SWAP2 SWAP1 POP JUMP JUMPDEST PUSH32 0x5468652061646472657373207265636569766564206973206E6F742061207661 PUSH1 0x0 DUP3 ADD MSTORE PUSH32 0x6C696420636F6E74726163742061646472657373000000000000000000000000 PUSH1 0x20 DUP3 ADD MSTORE POP JUMP JUMPDEST PUSH1 0x0 PUSH2 0x38FB PUSH1 0x34 DUP4 PUSH2 0x2F7D JUMP JUMPDEST SWAP2 POP PUSH2 0x3906 DUP3 PUSH2 0x389F JUMP JUMPDEST PUSH1 0x40 DUP3 ADD SWAP1 POP SWAP2 SWAP1 POP JUMP JUMPDEST PUSH1 0x0 PUSH1 0x20 DUP3 ADD SWAP1 POP DUP2 DUP2 SUB PUSH1 0x0 DUP4 ADD MSTORE PUSH2 0x392A DUP2 PUSH2 0x38EE JUMP JUMPDEST SWAP1 POP SWAP2 SWAP1 POP JUMP JUMPDEST PUSH32 0x4F6E6C7920746865206F776E65722063616E2063616C6C20746869732066756E PUSH1 0x0 DUP3 ADD MSTORE PUSH32 0x6374696F6E2E0000000000000000000000000000000000000000000000000000 PUSH1 0x20 DUP3 ADD MSTORE POP JUMP JUMPDEST PUSH1 0x0 PUSH2 0x398D PUSH1 0x26 DUP4 PUSH2 0x2F7D JUMP JUMPDEST SWAP2 POP PUSH2 0x3998 DUP3 PUSH2 0x3931 JUMP JUMPDEST PUSH1 0x40 DUP3 ADD SWAP1 POP SWAP2 SWAP1 POP JUMP JUMPDEST PUSH1 0x0 PUSH1 0x20 DUP3 ADD SWAP1 POP DUP2 DUP2 SUB PUSH1 0x0 DUP4 ADD MSTORE PUSH2 0x39BC DUP2 PUSH2 0x3980 JUMP JUMPDEST SWAP1 POP SWAP2 SWAP1 POP JUMP JUMPDEST PUSH32 0x566F74696E6720697320616C7265616479206F70656E2E000000000000000000 PUSH1 0x0 DUP3 ADD MSTORE POP JUMP JUMPDEST PUSH1 0x0 PUSH2 0x39F9 PUSH1 0x17 DUP4 PUSH2 0x2F7D JUMP JUMPDEST SWAP2 POP PUSH2 0x3A04 DUP3 PUSH2 0x39C3 JUMP JUMPDEST PUSH1 0x20 DUP3 ADD SWAP1 POP SWAP2 SWAP1 POP JUMP JUMPDEST PUSH1 0x0 PUSH1 0x20 DUP3 ADD SWAP1 POP DUP2 DUP2 SUB PUSH1 0x0 DUP4 ADD MSTORE PUSH2 0x3A28 DUP2 PUSH2 0x39EC JUMP JUMPDEST SWAP1 POP SWAP2 SWAP1 POP JUMP JUMPDEST PUSH32 0x4E487B7100000000000000000000000000000000000000000000000000000000 PUSH1 0x0 MSTORE PUSH1 0x22 PUSH1 0x4 MSTORE PUSH1 0x24 PUSH1 0x0 REVERT JUMPDEST PUSH1 0x0 PUSH1 0x2 DUP3 DIV SWAP1 POP PUSH1 0x1 DUP3 AND DUP1 PUSH2 0x3A76 JUMPI PUSH1 0x7F DUP3 AND SWAP2 POP JUMPDEST PUSH1 0x20 DUP3 LT DUP2 SUB PUSH2 0x3A89 JUMPI PUSH2 0x3A88 PUSH2 0x3A2F JUMP JUMPDEST JUMPDEST POP SWAP2 SWAP1 POP JUMP JUMPDEST PUSH1 0x0 PUSH2 0x3A9A DUP3 PUSH2 0x2C03 JUMP JUMPDEST SWAP2 POP PUSH2 0x3AA5 DUP4 PUSH2 0x2C03 JUMP JUMPDEST SWAP3 POP DUP2 PUSH32 0xFFFFFFFFFFFFFFFFFFFFFFFFFFFFFFFFFFFFFFFFFFFFFFFFFFFFFFFFFFFFFFFF DIV DUP4 GT DUP3 ISZERO ISZERO AND ISZERO PUSH2 0x3ADE JUMPI PUSH2 0x3ADD PUSH2 0x3108 JUMP JUMPDEST JUMPDEST DUP3 DUP3 MUL SWAP1 POP SWAP3 SWAP2 POP POP JUMP JUMPDEST PUSH32 0x596F75206861766520746F20627579206174206C65617374206F6E6520746F6B PUSH1 0x0 DUP3 ADD MSTORE PUSH32 0x656E210000000000000000000000000000000000000000000000000000000000 PUSH1 0x20 DUP3 ADD MSTORE POP JUMP JUMPDEST PUSH1 0x0 PUSH2 0x3B45 PUSH1 0x23 DUP4 PUSH2 0x2F7D JUMP JUMPDEST SWAP2 POP PUSH2 0x3B50 DUP3 PUSH2 0x3AE9 JUMP JUMPDEST PUSH1 0x40 DUP3 ADD SWAP1 POP SWAP2 SWAP1 POP JUMP JUMPDEST PUSH1 0x0 PUSH1 0x20 DUP3 ADD SWAP1 POP DUP2 DUP2 SUB PUSH1 0x0 DUP4 ADD MSTORE PUSH2 0x3B74 DUP2 PUSH2 0x3B38 JUMP JUMPDEST SWAP1 POP SWAP2 SWAP1 POP JUMP JUMPDEST PUSH32 0x57617463682074686520746F6B656E2070726963652C206F6E6C792077686F6C PUSH1 0x0 DUP3 ADD MSTORE PUSH32 0x6520746F6B656E732063616E20626520626F7567687421000000000000000000 PUSH1 0x20 DUP3 ADD MSTORE POP JUMP JUMPDEST PUSH1 0x0 PUSH2 0x3BD7 PUSH1 0x37 DUP4 PUSH2 0x2F7D JUMP JUMPDEST SWAP2 POP PUSH2 0x3BE2 DUP3 PUSH2 0x3B7B JUMP JUMPDEST PUSH1 0x40 DUP3 ADD SWAP1 POP SWAP2 SWAP1 POP JUMP JUMPDEST PUSH1 0x0 PUSH1 0x20 DUP3 ADD SWAP1 POP DUP2 DUP2 SUB PUSH1 0x0 DUP4 ADD MSTORE PUSH2 0x3C06 DUP2 PUSH2 0x3BCA JUMP JUMPDEST SWAP1 POP SWAP2 SWAP1 POP JUMP JUMPDEST PUSH32 0x4E6F7420656E6F75676820746F6B656E7320617661696C61626C652100000000 PUSH1 0x0 DUP3 ADD MSTORE POP JUMP JUMPDEST PUSH1 0x0 PUSH2 0x3C43 PUSH1 0x1C DUP4 PUSH2 0x2F7D JUMP JUMPDEST SWAP2 POP PUSH2 0x3C4E DUP3 PUSH2 0x3C0D JUMP JUMPDEST PUSH1 0x20 DUP3 ADD SWAP1 POP SWAP2 SWAP1 POP JUMP JUMPDEST PUSH1 0x0 PUSH1 0x20 DUP3 ADD SWAP1 POP DUP2 DUP2 SUB PUSH1 0x0 DUP4 ADD MSTORE PUSH2 0x3C72 DUP2 PUSH2 0x3C36 JUMP JUMPDEST SWAP1 POP SWAP2 SWAP1 POP JUMP JUMPDEST PUSH32 0x4F6E6C7920746865206F776E6572206F66207468652070726F706F73616C2063 PUSH1 0x0 DUP3 ADD MSTORE PUSH32 0x616E2063616C6C20746869732066756E6374696F6E2E00000000000000000000 PUSH1 0x20 DUP3 ADD MSTORE POP JUMP JUMPDEST PUSH1 0x0 PUSH2 0x3CD5 PUSH1 0x36 DUP4 PUSH2 0x2F7D JUMP JUMPDEST SWAP2 POP PUSH2 0x3CE0 DUP3 PUSH2 0x3C79 JUMP JUMPDEST PUSH1 0x40 DUP3 ADD SWAP1 POP SWAP2 SWAP1 POP JUMP JUMPDEST PUSH1 0x0 PUSH1 0x20 DUP3 ADD SWAP1 POP DUP2 DUP2 SUB PUSH1 0x0 DUP4 ADD MSTORE PUSH2 0x3D04 DUP2 PUSH2 0x3CC8 JUMP JUMPDEST SWAP1 POP SWAP2 SWAP1 POP JUMP JUMPDEST PUSH32 0x417070726F7665642070726F706F73616C732063616E27742062652063616E63 PUSH1 0x0 DUP3 ADD MSTORE PUSH32 0x656C6C65642E0000000000000000000000000000000000000000000000000000 PUSH1 0x20 DUP3 ADD MSTORE POP JUMP JUMPDEST PUSH1 0x0 PUSH2 0x3D67 PUSH1 0x26 DUP4 PUSH2 0x2F7D JUMP JUMPDEST SWAP2 POP PUSH2 0x3D72 DUP3 PUSH2 0x3D0B JUMP JUMPDEST PUSH1 0x40 DUP3 ADD SWAP1 POP SWAP2 SWAP1 POP JUMP JUMPDEST PUSH1 0x0 PUSH1 0x20 DUP3 ADD SWAP1 POP DUP2 DUP2 SUB PUSH1 0x0 DUP4 ADD MSTORE PUSH2 0x3D96 DUP2 PUSH2 0x3D5A JUMP JUMPDEST SWAP1 POP SWAP2 SWAP1 POP JUMP JUMPDEST PUSH32 0x50726F706F73616C2068617320616C7265616479206265656E2063616E63656C PUSH1 0x0 DUP3 ADD MSTORE PUSH32 0x6C65642E00000000000000000000000000000000000000000000000000000000 PUSH1 0x20 DUP3 ADD MSTORE POP JUMP JUMPDEST PUSH1 0x0 PUSH2 0x3DF9 PUSH1 0x24 DUP4 PUSH2 0x2F7D JUMP JUMPDEST SWAP2 POP PUSH2 0x3E04 DUP3 PUSH2 0x3D9D JUMP JUMPDEST PUSH1 0x40 DUP3 ADD SWAP1 POP SWAP2 SWAP1 POP JUMP JUMPDEST PUSH1 0x0 PUSH1 0x20 DUP3 ADD SWAP1 POP DUP2 DUP2 SUB PUSH1 0x0 DUP4 ADD MSTORE PUSH2 0x3E28 DUP2 PUSH2 0x3DEC JUMP JUMPDEST SWAP1 POP SWAP2 SWAP1 POP JUMP JUMPDEST PUSH32 0x5061727469636970616E7420616C726561647920726567697374657265642E00 PUSH1 0x0 DUP3 ADD MSTORE POP JUMP JUMPDEST PUSH1 0x0 PUSH2 0x3E65 PUSH1 0x1F DUP4 PUSH2 0x2F7D JUMP JUMPDEST SWAP2 POP PUSH2 0x3E70 DUP3 PUSH2 0x3E2F JUMP JUMPDEST PUSH1 0x20 DUP3 ADD SWAP1 POP SWAP2 SWAP1 POP JUMP JUMPDEST PUSH1 0x0 PUSH1 0x20 DUP3 ADD SWAP1 POP DUP2 DUP2 SUB PUSH1 0x0 DUP4 ADD MSTORE PUSH2 0x3E94 DUP2 PUSH2 0x3E58 JUMP JUMPDEST SWAP1 POP SWAP2 SWAP1 POP JUMP JUMPDEST PUSH1 0x0 PUSH2 0x3EA6 DUP3 PUSH2 0x2DB0 JUMP JUMPDEST SWAP1 POP SWAP2 SWAP1 POP JUMP JUMPDEST PUSH2 0x3EB6 DUP2 PUSH2 0x3E9B JUMP JUMPDEST DUP3 MSTORE POP POP JUMP JUMPDEST PUSH1 0x0 PUSH1 0x40 DUP3 ADD SWAP1 POP PUSH2 0x3ED1 PUSH1 0x0 DUP4 ADD DUP6 PUSH2 0x3EAD JUMP JUMPDEST PUSH2 0x3EDE PUSH1 0x20 DUP4 ADD DUP5 PUSH2 0x2F48 JUMP JUMPDEST SWAP4 SWAP3 POP POP POP JUMP JUMPDEST PUSH32 0x4E487B7100000000000000000000000000000000000000000000000000000000 PUSH1 0x0 MSTORE PUSH1 0x12 PUSH1 0x4 MSTORE PUSH1 0x24 PUSH1 0x0 REVERT JUMPDEST PUSH1 0x0 PUSH2 0x3F1F DUP3 PUSH2 0x2C03 JUMP JUMPDEST SWAP2 POP PUSH2 0x3F2A DUP4 PUSH2 0x2C03 JUMP JUMPDEST SWAP3 POP DUP3 PUSH2 0x3F3A JUMPI PUSH2 0x3F39 PUSH2 0x3EE5 JUMP JUMPDEST JUMPDEST DUP3 DUP3 MOD SWAP1 POP SWAP3 SWAP2 POP POP JUMP JUMPDEST PUSH1 0x0 PUSH2 0x3F50 DUP3 PUSH2 0x2C03 JUMP JUMPDEST SWAP2 POP PUSH2 0x3F5B DUP4 PUSH2 0x2C03 JUMP JUMPDEST SWAP3 POP DUP3 PUSH2 0x3F6B JUMPI PUSH2 0x3F6A PUSH2 0x3EE5 JUMP JUMPDEST JUMPDEST DUP3 DUP3 DIV SWAP1 POP SWAP3 SWAP2 POP POP JUMP INVALID LOG2 PUSH5 0x6970667358 0x22 SLT KECCAK256 0xB5 CREATE 0x5F 0xC8 LOG4 0xC9 OR 0x28 CREATE PUSH29 0x735E08B0492D0A85EDAC263E60DCD51BB6595D1A9E8B64736F6C634300 ADDMOD 0xD STOP CALLER PUSH1 0xA0 PUSH1 0x40 MSTORE CALLVALUE DUP1 ISZERO PUSH3 0x11 JUMPI PUSH1 0x0 DUP1 REVERT JUMPDEST POP PUSH1 0x40 MLOAD PUSH3 0x1CD7 CODESIZE SUB DUP1 PUSH3 0x1CD7 DUP4 CODECOPY DUP2 DUP2 ADD PUSH1 0x40 MSTORE DUP2 ADD SWAP1 PUSH3 0x37 SWAP2 SWAP1 PUSH3 0x306 JUMP JUMPDEST DUP3 DUP3 DUP2 PUSH1 0x3 SWAP1 DUP1 MLOAD SWAP1 PUSH1 0x20 ADD SWAP1 PUSH3 0x51 SWAP3 SWAP2 SWAP1 PUSH3 0x7E JUMP JUMPDEST POP DUP1 PUSH1 0x4 SWAP1 DUP1 MLOAD SWAP1 PUSH1 0x20 ADD SWAP1 PUSH3 0x6A SWAP3 SWAP2 SWAP1 PUSH3 0x7E JUMP JUMPDEST POP POP POP DUP1 PUSH1 0x80 DUP2 DUP2 MSTORE POP POP POP POP POP PUSH3 0x404 JUMP JUMPDEST DUP3 DUP1 SLOAD PUSH3 0x8C SWAP1 PUSH3 0x3CF JUMP JUMPDEST SWAP1 PUSH1 0x0 MSTORE PUSH1 0x20 PUSH1 0x0 KECCAK256 SWAP1 PUSH1 0x1F ADD PUSH1 0x20 SWAP1 DIV DUP2 ADD SWAP3 DUP3 PUSH3 0xB0 JUMPI PUSH1 0x0 DUP6 SSTORE PUSH3 0xFC JUMP JUMPDEST DUP3 PUSH1 0x1F LT PUSH3 0xCB JUMPI DUP1 MLOAD PUSH1 0xFF NOT AND DUP4 DUP1 ADD OR DUP6 SSTORE PUSH3 0xFC JUMP JUMPDEST DUP3 DUP1 ADD PUSH1 0x1 ADD DUP6 SSTORE DUP3 ISZERO PUSH3 0xFC JUMPI SWAP2 DUP3 ADD JUMPDEST DUP3 DUP2 GT ISZERO PUSH3 0xFB JUMPI DUP3 MLOAD DUP3 SSTORE SWAP2 PUSH1 0x20 ADD SWAP2 SWAP1 PUSH1 0x1 ADD SWAP1 PUSH3 0xDE JUMP JUMPDEST JUMPDEST POP SWAP1 POP PUSH3 0x10B SWAP2 SWAP1 PUSH3 0x10F JUMP JUMPDEST POP SWAP1 JUMP JUMPDEST JUMPDEST DUP1 DUP3 GT ISZERO PUSH3 0x12A JUMPI PUSH1 0x0 DUP2 PUSH1 0x0 SWAP1 SSTORE POP PUSH1 0x1 ADD PUSH3 0x110 JUMP JUMPDEST POP SWAP1 JUMP JUMPDEST PUSH1 0x0 PUSH1 0x40 MLOAD SWAP1 POP SWAP1 JUMP JUMPDEST PUSH1 0x0 DUP1 REVERT JUMPDEST PUSH1 0x0 DUP1 REVERT JUMPDEST PUSH1 0x0 DUP1 REVERT JUMPDEST PUSH1 0x0 DUP1 REVERT JUMPDEST PUSH1 0x0 PUSH1 0x1F NOT PUSH1 0x1F DUP4 ADD AND SWAP1 POP SWAP2 SWAP1 POP JUMP JUMPDEST PUSH32 0x4E487B7100000000000000000000000000000000000000000000000000000000 PUSH1 0x0 MSTORE PUSH1 0x41 PUSH1 0x4 MSTORE PUSH1 0x24 PUSH1 0x0 REVERT JUMPDEST PUSH3 0x197 DUP3 PUSH3 0x14C JUMP JUMPDEST DUP2 ADD DUP2 DUP2 LT PUSH8 0xFFFFFFFFFFFFFFFF DUP3 GT OR ISZERO PUSH3 0x1B9 JUMPI PUSH3 0x1B8 PUSH3 0x15D JUMP JUMPDEST JUMPDEST DUP1 PUSH1 0x40 MSTORE POP POP POP JUMP JUMPDEST PUSH1 0x0 PUSH3 0x1CE PUSH3 0x12E JUMP JUMPDEST SWAP1 POP PUSH3 0x1DC DUP3 DUP3 PUSH3 0x18C JUMP JUMPDEST SWAP2 SWAP1 POP JUMP JUMPDEST PUSH1 0x0 PUSH8 0xFFFFFFFFFFFFFFFF DUP3 GT ISZERO PUSH3 0x1FF JUMPI PUSH3 0x1FE PUSH3 0x15D JUMP JUMPDEST JUMPDEST PUSH3 0x20A DUP3 PUSH3 0x14C JUMP JUMPDEST SWAP1 POP PUSH1 0x20 DUP2 ADD SWAP1 POP SWAP2 SWAP1 POP JUMP JUMPDEST PUSH1 0x0 JUMPDEST DUP4 DUP2 LT ISZERO PUSH3 0x237 JUMPI DUP1 DUP3 ADD MLOAD DUP2 DUP5 ADD MSTORE PUSH1 0x20 DUP2 ADD SWAP1 POP PUSH3 0x21A JUMP JUMPDEST DUP4 DUP2 GT ISZERO PUSH3 0x247 JUMPI PUSH1 0x0 DUP5 DUP5 ADD MSTORE JUMPDEST POP POP POP POP JUMP JUMPDEST PUSH1 0x0 PUSH3 0x264 PUSH3 0x25E DUP5 PUSH3 0x1E1 JUMP JUMPDEST PUSH3 0x1C2 JUMP JUMPDEST SWAP1 POP DUP3 DUP2 MSTORE PUSH1 0x20 DUP2 ADD DUP5 DUP5 DUP5 ADD GT ISZERO PUSH3 0x283 JUMPI PUSH3 0x282 PUSH3 0x147 JUMP JUMPDEST JUMPDEST PUSH3 0x290 DUP5 DUP3 DUP6 PUSH3 0x217 JUMP JUMPDEST POP SWAP4 SWAP3 POP POP POP JUMP JUMPDEST PUSH1 0x0 DUP3 PUSH1 0x1F DUP4 ADD SLT PUSH3 0x2B0 JUMPI PUSH3 0x2AF PUSH3 0x142 JUMP JUMPDEST JUMPDEST DUP2 MLOAD PUSH3 0x2C2 DUP5 DUP3 PUSH1 0x20 DUP7 ADD PUSH3 0x24D JUMP JUMPDEST SWAP2 POP POP SWAP3 SWAP2 POP POP JUMP JUMPDEST PUSH1 0x0 DUP2 SWAP1 POP SWAP2 SWAP1 POP JUMP JUMPDEST PUSH3 0x2E0 DUP2 PUSH3 0x2CB JUMP JUMPDEST DUP2 EQ PUSH3 0x2EC JUMPI PUSH1 0x0 DUP1 REVERT JUMPDEST POP JUMP JUMPDEST PUSH1 0x0 DUP2 MLOAD SWAP1 POP PUSH3 0x300 DUP2 PUSH3 0x2D5 JUMP JUMPDEST SWAP3 SWAP2 POP POP JUMP JUMPDEST PUSH1 0x0 DUP1 PUSH1 0x0 PUSH1 0x60 DUP5 DUP7 SUB SLT ISZERO PUSH3 0x322 JUMPI PUSH3 0x321 PUSH3 0x138 JUMP JUMPDEST JUMPDEST PUSH1 0x0 DUP5 ADD MLOAD PUSH8 0xFFFFFFFFFFFFFFFF DUP2 GT ISZERO PUSH3 0x343 JUMPI PUSH3 0x342 PUSH3 0x13D JUMP JUMPDEST JUMPDEST PUSH3 0x351 DUP7 DUP3 DUP8 ADD PUSH3 0x298 JUMP JUMPDEST SWAP4 POP POP PUSH1 0x20 DUP5 ADD MLOAD PUSH8 0xFFFFFFFFFFFFFFFF DUP2 GT ISZERO PUSH3 0x375 JUMPI PUSH3 0x374 PUSH3 0x13D JUMP JUMPDEST JUMPDEST PUSH3 0x383 DUP7 DUP3 DUP8 ADD PUSH3 0x298 JUMP JUMPDEST SWAP3 POP POP PUSH1 0x40 PUSH3 0x396 DUP7 DUP3 DUP8 ADD PUSH3 0x2EF JUMP JUMPDEST SWAP2 POP POP SWAP3 POP SWAP3 POP SWAP3 JUMP JUMPDEST PUSH32 0x4E487B7100000000000000000000000000000000000000000000000000000000 PUSH1 0x0 MSTORE PUSH1 0x22 PUSH1 0x4 MSTORE PUSH1 0x24 PUSH1 0x0 REVERT JUMPDEST PUSH1 0x0 PUSH1 0x2 DUP3 DIV SWAP1 POP PUSH1 0x1 DUP3 AND DUP1 PUSH3 0x3E8 JUMPI PUSH1 0x7F DUP3 AND SWAP2 POP JUMPDEST PUSH1 0x20 DUP3 LT DUP2 SUB PUSH3 0x3FE JUMPI PUSH3 0x3FD PUSH3 0x3A0 JUMP JUMPDEST JUMPDEST POP SWAP2 SWAP1 POP JUMP JUMPDEST PUSH1 0x80 MLOAD PUSH2 0x18B7 PUSH3 0x420 PUSH1 0x0 CODECOPY PUSH1 0x0 PUSH2 0x404 ADD MSTORE PUSH2 0x18B7 PUSH1 0x0 RETURN INVALID PUSH1 0x80 PUSH1 0x40 MSTORE CALLVALUE DUP1 ISZERO PUSH2 0x10 JUMPI PUSH1 0x0 DUP1 REVERT JUMPDEST POP PUSH1 0x4 CALLDATASIZE LT PUSH2 0xCF JUMPI PUSH1 0x0 CALLDATALOAD PUSH1 0xE0 SHR DUP1 PUSH4 0x40C10F19 GT PUSH2 0x8C JUMPI DUP1 PUSH4 0x9DC29FAC GT PUSH2 0x66 JUMPI DUP1 PUSH4 0x9DC29FAC EQ PUSH2 0x228 JUMPI DUP1 PUSH4 0xA457C2D7 EQ PUSH2 0x244 JUMPI DUP1 PUSH4 0xA9059CBB EQ PUSH2 0x274 JUMPI DUP1 PUSH4 0xDD62ED3E EQ PUSH2 0x2A4 JUMPI PUSH2 0xCF JUMP JUMPDEST DUP1 PUSH4 0x40C10F19 EQ PUSH2 0x1BE JUMPI DUP1 PUSH4 0x70A08231 EQ PUSH2 0x1DA JUMPI DUP1 PUSH4 0x95D89B41 EQ PUSH2 0x20A JUMPI PUSH2 0xCF JUMP JUMPDEST DUP1 PUSH4 0x6FDDE03 EQ PUSH2 0xD4 JUMPI DUP1 PUSH4 0x95EA7B3 EQ PUSH2 0xF2 JUMPI DUP1 PUSH4 0x18160DDD EQ PUSH2 0x122 JUMPI DUP1 PUSH4 0x23B872DD EQ PUSH2 0x140 JUMPI DUP1 PUSH4 0x313CE567 EQ PUSH2 0x170 JUMPI DUP1 PUSH4 0x39509351 EQ PUSH2 0x18E JUMPI JUMPDEST PUSH1 0x0 DUP1 REVERT JUMPDEST PUSH2 0xDC PUSH2 0x2D4 JUMP JUMPDEST PUSH1 0x40 MLOAD PUSH2 0xE9 SWAP2 SWAP1 PUSH2 0xF42 JUMP JUMPDEST PUSH1 0x40 MLOAD DUP1 SWAP2 SUB SWAP1 RETURN JUMPDEST PUSH2 0x10C PUSH1 0x4 DUP1 CALLDATASIZE SUB DUP2 ADD SWAP1 PUSH2 0x107 SWAP2 SWAP1 PUSH2 0xFFD JUMP JUMPDEST PUSH2 0x366 JUMP JUMPDEST PUSH1 0x40 MLOAD PUSH2 0x119 SWAP2 SWAP1 PUSH2 0x1058 JUMP JUMPDEST PUSH1 0x40 MLOAD DUP1 SWAP2 SUB SWAP1 RETURN JUMPDEST PUSH2 0x12A PUSH2 0x389 JUMP JUMPDEST PUSH1 0x40 MLOAD PUSH2 0x137 SWAP2 SWAP1 PUSH2 0x1082 JUMP JUMPDEST PUSH1 0x40 MLOAD DUP1 SWAP2 SUB SWAP1 RETURN JUMPDEST PUSH2 0x15A PUSH1 0x4 DUP1 CALLDATASIZE SUB DUP2 ADD SWAP1 PUSH2 0x155 SWAP2 SWAP1 PUSH2 0x109D JUMP JUMPDEST PUSH2 0x393 JUMP JUMPDEST PUSH1 0x40 MLOAD PUSH2 0x167 SWAP2 SWAP1 PUSH2 0x1058 JUMP JUMPDEST PUSH1 0x40 MLOAD DUP1 SWAP2 SUB SWAP1 RETURN JUMPDEST PUSH2 0x178 PUSH2 0x3C2 JUMP JUMPDEST PUSH1 0x40 MLOAD PUSH2 0x185 SWAP2 SWAP1 PUSH2 0x110C JUMP JUMPDEST PUSH1 0x40 MLOAD DUP1 SWAP2 SUB SWAP1 RETURN JUMPDEST PUSH2 0x1A8 PUSH1 0x4 DUP1 CALLDATASIZE SUB DUP2 ADD SWAP1 PUSH2 0x1A3 SWAP2 SWAP1 PUSH2 0xFFD JUMP JUMPDEST PUSH2 0x3CB JUMP JUMPDEST PUSH1 0x40 MLOAD PUSH2 0x1B5 SWAP2 SWAP1 PUSH2 0x1058 JUMP JUMPDEST PUSH1 0x40 MLOAD DUP1 SWAP2 SUB SWAP1 RETURN JUMPDEST PUSH2 0x1D8 PUSH1 0x4 DUP1 CALLDATASIZE SUB DUP2 ADD SWAP1 PUSH2 0x1D3 SWAP2 SWAP1 PUSH2 0xFFD JUMP JUMPDEST PUSH2 0x402 JUMP JUMPDEST STOP JUMPDEST PUSH2 0x1F4 PUSH1 0x4 DUP1 CALLDATASIZE SUB DUP2 ADD SWAP1 PUSH2 0x1EF SWAP2 SWAP1 PUSH2 0x1127 JUMP JUMPDEST PUSH2 0x485 JUMP JUMPDEST PUSH1 0x40 MLOAD PUSH2 0x201 SWAP2 SWAP1 PUSH2 0x1082 JUMP JUMPDEST PUSH1 0x40 MLOAD DUP1 SWAP2 SUB SWAP1 RETURN JUMPDEST PUSH2 0x212 PUSH2 0x4CD JUMP JUMPDEST PUSH1 0x40 MLOAD PUSH2 0x21F SWAP2 SWAP1 PUSH2 0xF42 JUMP JUMPDEST PUSH1 0x40 MLOAD DUP1 SWAP2 SUB SWAP1 RETURN JUMPDEST PUSH2 0x242 PUSH1 0x4 DUP1 CALLDATASIZE SUB DUP2 ADD SWAP1 PUSH2 0x23D SWAP2 SWAP1 PUSH2 0xFFD JUMP JUMPDEST PUSH2 0x55F JUMP JUMPDEST STOP JUMPDEST PUSH2 0x25E PUSH1 0x4 DUP1 CALLDATASIZE SUB DUP2 ADD SWAP1 PUSH2 0x259 SWAP2 SWAP1 PUSH2 0xFFD JUMP JUMPDEST PUSH2 0x56D JUMP JUMPDEST PUSH1 0x40 MLOAD PUSH2 0x26B SWAP2 SWAP1 PUSH2 0x1058 JUMP JUMPDEST PUSH1 0x40 MLOAD DUP1 SWAP2 SUB SWAP1 RETURN JUMPDEST PUSH2 0x28E PUSH1 0x4 DUP1 CALLDATASIZE SUB DUP2 ADD SWAP1 PUSH2 0x289 SWAP2 SWAP1 PUSH2 0xFFD JUMP JUMPDEST PUSH2 0x5E4 JUMP JUMPDEST PUSH1 0x40 MLOAD PUSH2 0x29B SWAP2 SWAP1 PUSH2 0x1058 JUMP JUMPDEST PUSH1 0x40 MLOAD DUP1 SWAP2 SUB SWAP1 RETURN JUMPDEST PUSH2 0x2BE PUSH1 0x4 DUP1 CALLDATASIZE SUB DUP2 ADD SWAP1 PUSH2 0x2B9 SWAP2 SWAP1 PUSH2 0x1154 JUMP JUMPDEST PUSH2 0x607 JUMP JUMPDEST PUSH1 0x40 MLOAD PUSH2 0x2CB SWAP2 SWAP1 PUSH2 0x1082 JUMP JUMPDEST PUSH1 0x40 MLOAD DUP1 SWAP2 SUB SWAP1 RETURN JUMPDEST PUSH1 0x60 PUSH1 0x3 DUP1 SLOAD PUSH2 0x2E3 SWAP1 PUSH2 0x11C3 JUMP JUMPDEST DUP1 PUSH1 0x1F ADD PUSH1 0x20 DUP1 SWAP2 DIV MUL PUSH1 0x20 ADD PUSH1 0x40 MLOAD SWAP1 DUP2 ADD PUSH1 0x40 MSTORE DUP1 SWAP3 SWAP2 SWAP1 DUP2 DUP2 MSTORE PUSH1 0x20 ADD DUP3 DUP1 SLOAD PUSH2 0x30F SWAP1 PUSH2 0x11C3 JUMP JUMPDEST DUP1 ISZERO PUSH2 0x35C JUMPI DUP1 PUSH1 0x1F LT PUSH2 0x331 JUMPI PUSH2 0x100 DUP1 DUP4 SLOAD DIV MUL DUP4 MSTORE SWAP2 PUSH1 0x20 ADD SWAP2 PUSH2 0x35C JUMP JUMPDEST DUP3 ADD SWAP2 SWAP1 PUSH1 0x0 MSTORE PUSH1 0x20 PUSH1 0x0 KECCAK256 SWAP1 JUMPDEST DUP2 SLOAD DUP2 MSTORE SWAP1 PUSH1 0x1 ADD SWAP1 PUSH1 0x20 ADD DUP1 DUP4 GT PUSH2 0x33F JUMPI DUP3 SWAP1 SUB PUSH1 0x1F AND DUP3 ADD SWAP2 JUMPDEST POP POP POP POP POP SWAP1 POP SWAP1 JUMP JUMPDEST PUSH1 0x0 DUP1 PUSH2 0x371 PUSH2 0x68E JUMP JUMPDEST SWAP1 POP PUSH2 0x37E DUP2 DUP6 DUP6 PUSH2 0x696 JUMP JUMPDEST PUSH1 0x1 SWAP2 POP POP SWAP3 SWAP2 POP POP JUMP JUMPDEST PUSH1 0x0 PUSH1 0x2 SLOAD SWAP1 POP SWAP1 JUMP JUMPDEST PUSH1 0x0 DUP1 PUSH2 0x39E PUSH2 0x68E JUMP JUMPDEST SWAP1 POP PUSH2 0x3AB DUP6 DUP3 DUP6 PUSH2 0x85F JUMP JUMPDEST PUSH2 0x3B6 DUP6 DUP6 DUP6 PUSH2 0x8EB JUMP JUMPDEST PUSH1 0x1 SWAP2 POP POP SWAP4 SWAP3 POP POP POP JUMP JUMPDEST PUSH1 0x0 PUSH1 0x12 SWAP1 POP SWAP1 JUMP JUMPDEST PUSH1 0x0 DUP1 PUSH2 0x3D6 PUSH2 0x68E JUMP JUMPDEST SWAP1 POP PUSH2 0x3F7 DUP2 DUP6 DUP6 PUSH2 0x3E8 DUP6 DUP10 PUSH2 0x607 JUMP JUMPDEST PUSH2 0x3F2 SWAP2 SWAP1 PUSH2 0x1223 JUMP JUMPDEST PUSH2 0x696 JUMP JUMPDEST PUSH1 0x1 SWAP2 POP POP SWAP3 SWAP2 POP POP JUMP JUMPDEST PUSH32 0x0 DUP2 PUSH2 0x42C PUSH2 0x389 JUMP JUMPDEST PUSH2 0x436 SWAP2 SWAP1 PUSH2 0x1223 JUMP JUMPDEST GT ISZERO PUSH2 0x477 JUMPI PUSH1 0x40 MLOAD PUSH32 0x8C379A000000000000000000000000000000000000000000000000000000000 DUP2 MSTORE PUSH1 0x4 ADD PUSH2 0x46E SWAP1 PUSH2 0x12C5 JUMP JUMPDEST PUSH1 0x40 MLOAD DUP1 SWAP2 SUB SWAP1 REVERT JUMPDEST PUSH2 0x481 DUP3 DUP3 PUSH2 0xB6A JUMP JUMPDEST POP POP JUMP JUMPDEST PUSH1 0x0 DUP1 PUSH1 0x0 DUP4 PUSH20 0xFFFFFFFFFFFFFFFFFFFFFFFFFFFFFFFFFFFFFFFF AND PUSH20 0xFFFFFFFFFFFFFFFFFFFFFFFFFFFFFFFFFFFFFFFF AND DUP2 MSTORE PUSH1 0x20 ADD SWAP1 DUP2 MSTORE PUSH1 0x20 ADD PUSH1 0x0 KECCAK256 SLOAD SWAP1 POP SWAP2 SWAP1 POP JUMP JUMPDEST PUSH1 0x60 PUSH1 0x4 DUP1 SLOAD PUSH2 0x4DC SWAP1 PUSH2 0x11C3 JUMP JUMPDEST DUP1 PUSH1 0x1F ADD PUSH1 0x20 DUP1 SWAP2 DIV MUL PUSH1 0x20 ADD PUSH1 0x40 MLOAD SWAP1 DUP2 ADD PUSH1 0x40 MSTORE DUP1 SWAP3 SWAP2 SWAP1 DUP2 DUP2 MSTORE PUSH1 0x20 ADD DUP3 DUP1 SLOAD PUSH2 0x508 SWAP1 PUSH2 0x11C3 JUMP JUMPDEST DUP1 ISZERO PUSH2 0x555 JUMPI DUP1 PUSH1 0x1F LT PUSH2 0x52A JUMPI PUSH2 0x100 DUP1 DUP4 SLOAD DIV MUL DUP4 MSTORE SWAP2 PUSH1 0x20 ADD SWAP2 PUSH2 0x555 JUMP JUMPDEST DUP3 ADD SWAP2 SWAP1 PUSH1 0x0 MSTORE PUSH1 0x20 PUSH1 0x0 KECCAK256 SWAP1 JUMPDEST DUP2 SLOAD DUP2 MSTORE SWAP1 PUSH1 0x1 ADD SWAP1 PUSH1 0x20 ADD DUP1 DUP4 GT PUSH2 0x538 JUMPI DUP3 SWAP1 SUB PUSH1 0x1F AND DUP3 ADD SWAP2 JUMPDEST POP POP POP POP POP SWAP1 POP SWAP1 JUMP JUMPDEST PUSH2 0x569 DUP3 DUP3 PUSH2 0xCC9 JUMP JUMPDEST POP POP JUMP JUMPDEST PUSH1 0x0 DUP1 PUSH2 0x578 PUSH2 0x68E JUMP JUMPDEST SWAP1 POP PUSH1 0x0 PUSH2 0x586 DUP3 DUP7 PUSH2 0x607 JUMP JUMPDEST SWAP1 POP DUP4 DUP2 LT ISZERO PUSH2 0x5CB JUMPI PUSH1 0x40 MLOAD PUSH32 0x8C379A000000000000000000000000000000000000000000000000000000000 DUP2 MSTORE PUSH1 0x4 ADD PUSH2 0x5C2 SWAP1 PUSH2 0x1357 JUMP JUMPDEST PUSH1 0x40 MLOAD DUP1 SWAP2 SUB SWAP1 REVERT JUMPDEST PUSH2 0x5D8 DUP3 DUP7 DUP7 DUP5 SUB PUSH2 0x696 JUMP JUMPDEST PUSH1 0x1 SWAP3 POP POP POP SWAP3 SWAP2 POP POP JUMP JUMPDEST PUSH1 0x0 DUP1 PUSH2 0x5EF PUSH2 0x68E JUMP JUMPDEST SWAP1 POP PUSH2 0x5FC DUP2 DUP6 DUP6 PUSH2 0x8EB JUMP JUMPDEST PUSH1 0x1 SWAP2 POP POP SWAP3 SWAP2 POP POP JUMP JUMPDEST PUSH1 0x0 PUSH1 0x1 PUSH1 0x0 DUP5 PUSH20 0xFFFFFFFFFFFFFFFFFFFFFFFFFFFFFFFFFFFFFFFF AND PUSH20 0xFFFFFFFFFFFFFFFFFFFFFFFFFFFFFFFFFFFFFFFF AND DUP2 MSTORE PUSH1 0x20 ADD SWAP1 DUP2 MSTORE PUSH1 0x20 ADD PUSH1 0x0 KECCAK256 PUSH1 0x0 DUP4 PUSH20 0xFFFFFFFFFFFFFFFFFFFFFFFFFFFFFFFFFFFFFFFF AND PUSH20 0xFFFFFFFFFFFFFFFFFFFFFFFFFFFFFFFFFFFFFFFF AND DUP2 MSTORE PUSH1 0x20 ADD SWAP1 DUP2 MSTORE PUSH1 0x20 ADD PUSH1 0x0 KECCAK256 SLOAD SWAP1 POP SWAP3 SWAP2 POP POP JUMP JUMPDEST PUSH1 0x0 CALLER SWAP1 POP SWAP1 JUMP JUMPDEST PUSH1 0x0 PUSH20 0xFFFFFFFFFFFFFFFFFFFFFFFFFFFFFFFFFFFFFFFF AND DUP4 PUSH20 0xFFFFFFFFFFFFFFFFFFFFFFFFFFFFFFFFFFFFFFFF AND SUB PUSH2 0x705 JUMPI PUSH1 0x40 MLOAD PUSH32 0x8C379A000000000000000000000000000000000000000000000000000000000 DUP2 MSTORE PUSH1 0x4 ADD PUSH2 0x6FC SWAP1 PUSH2 0x13E9 JUMP JUMPDEST PUSH1 0x40 MLOAD DUP1 SWAP2 SUB SWAP1 REVERT JUMPDEST PUSH1 0x0 PUSH20 0xFFFFFFFFFFFFFFFFFFFFFFFFFFFFFFFFFFFFFFFF AND DUP3 PUSH20 0xFFFFFFFFFFFFFFFFFFFFFFFFFFFFFFFFFFFFFFFF AND SUB PUSH2 0x774 JUMPI PUSH1 0x40 MLOAD PUSH32 0x8C379A000000000000000000000000000000000000000000000000000000000 DUP2 MSTORE PUSH1 0x4 ADD PUSH2 0x76B SWAP1 PUSH2 0x147B JUMP JUMPDEST PUSH1 0x40 MLOAD DUP1 SWAP2 SUB SWAP1 REVERT JUMPDEST DUP1 PUSH1 0x1 PUSH1 0x0 DUP6 PUSH20 0xFFFFFFFFFFFFFFFFFFFFFFFFFFFFFFFFFFFFFFFF AND PUSH20 0xFFFFFFFFFFFFFFFFFFFFFFFFFFFFFFFFFFFFFFFF AND DUP2 MSTORE PUSH1 0x20 ADD SWAP1 DUP2 MSTORE PUSH1 0x20 ADD PUSH1 0x0 KECCAK256 PUSH1 0x0 DUP5 PUSH20 0xFFFFFFFFFFFFFFFFFFFFFFFFFFFFFFFFFFFFFFFF AND PUSH20 0xFFFFFFFFFFFFFFFFFFFFFFFFFFFFFFFFFFFFFFFF AND DUP2 MSTORE PUSH1 0x20 ADD SWAP1 DUP2 MSTORE PUSH1 0x20 ADD PUSH1 0x0 KECCAK256 DUP2 SWAP1 SSTORE POP DUP2 PUSH20 0xFFFFFFFFFFFFFFFFFFFFFFFFFFFFFFFFFFFFFFFF AND DUP4 PUSH20 0xFFFFFFFFFFFFFFFFFFFFFFFFFFFFFFFFFFFFFFFF AND PUSH32 0x8C5BE1E5EBEC7D5BD14F71427D1E84F3DD0314C0F7B2291E5B200AC8C7C3B925 DUP4 PUSH1 0x40 MLOAD PUSH2 0x852 SWAP2 SWAP1 PUSH2 0x1082 JUMP JUMPDEST PUSH1 0x40 MLOAD DUP1 SWAP2 SUB SWAP1 LOG3 POP POP POP JUMP JUMPDEST PUSH1 0x0 PUSH2 0x86B DUP5 DUP5 PUSH2 0x607 JUMP JUMPDEST SWAP1 POP PUSH32 0xFFFFFFFFFFFFFFFFFFFFFFFFFFFFFFFFFFFFFFFFFFFFFFFFFFFFFFFFFFFFFFFF DUP2 EQ PUSH2 0x8E5 JUMPI DUP2 DUP2 LT ISZERO PUSH2 0x8D7 JUMPI PUSH1 0x40 MLOAD PUSH32 0x8C379A000000000000000000000000000000000000000000000000000000000 DUP2 MSTORE PUSH1 0x4 ADD PUSH2 0x8CE SWAP1 PUSH2 0x14E7 JUMP JUMPDEST PUSH1 0x40 MLOAD DUP1 SWAP2 SUB SWAP1 REVERT JUMPDEST PUSH2 0x8E4 DUP5 DUP5 DUP5 DUP5 SUB PUSH2 0x696 JUMP JUMPDEST JUMPDEST POP POP POP POP JUMP JUMPDEST PUSH1 0x0 PUSH20 0xFFFFFFFFFFFFFFFFFFFFFFFFFFFFFFFFFFFFFFFF AND DUP4 PUSH20 0xFFFFFFFFFFFFFFFFFFFFFFFFFFFFFFFFFFFFFFFF AND SUB PUSH2 0x95A JUMPI PUSH1 0x40 MLOAD PUSH32 0x8C379A000000000000000000000000000000000000000000000000000000000 DUP2 MSTORE PUSH1 0x4 ADD PUSH2 0x951 SWAP1 PUSH2 0x1579 JUMP JUMPDEST PUSH1 0x40 MLOAD DUP1 SWAP2 SUB SWAP1 REVERT JUMPDEST PUSH1 0x0 PUSH20 0xFFFFFFFFFFFFFFFFFFFFFFFFFFFFFFFFFFFFFFFF AND DUP3 PUSH20 0xFFFFFFFFFFFFFFFFFFFFFFFFFFFFFFFFFFFFFFFF AND SUB PUSH2 0x9C9 JUMPI PUSH1 0x40 MLOAD PUSH32 0x8C379A000000000000000000000000000000000000000000000000000000000 DUP2 MSTORE PUSH1 0x4 ADD PUSH2 0x9C0 SWAP1 PUSH2 0x160B JUMP JUMPDEST PUSH1 0x40 MLOAD DUP1 SWAP2 SUB SWAP1 REVERT JUMPDEST PUSH2 0x9D4 DUP4 DUP4 DUP4 PUSH2 0xE9F JUMP JUMPDEST PUSH1 0x0 DUP1 PUSH1 0x0 DUP6 PUSH20 0xFFFFFFFFFFFFFFFFFFFFFFFFFFFFFFFFFFFFFFFF AND PUSH20 0xFFFFFFFFFFFFFFFFFFFFFFFFFFFFFFFFFFFFFFFF AND DUP2 MSTORE PUSH1 0x20 ADD SWAP1 DUP2 MSTORE PUSH1 0x20 ADD PUSH1 0x0 KECCAK256 SLOAD SWAP1 POP DUP2 DUP2 LT ISZERO PUSH2 0xA5A JUMPI PUSH1 0x40 MLOAD PUSH32 0x8C379A000000000000000000000000000000000000000000000000000000000 DUP2 MSTORE PUSH1 0x4 ADD PUSH2 0xA51 SWAP1 PUSH2 0x169D JUMP JUMPDEST PUSH1 0x40 MLOAD DUP1 SWAP2 SUB SWAP1 REVERT JUMPDEST DUP2 DUP2 SUB PUSH1 0x0 DUP1 DUP7 PUSH20 0xFFFFFFFFFFFFFFFFFFFFFFFFFFFFFFFFFFFFFFFF AND PUSH20 0xFFFFFFFFFFFFFFFFFFFFFFFFFFFFFFFFFFFFFFFF AND DUP2 MSTORE PUSH1 0x20 ADD SWAP1 DUP2 MSTORE PUSH1 0x20 ADD PUSH1 0x0 KECCAK256 DUP2 SWAP1 SSTORE POP DUP2 PUSH1 0x0 DUP1 DUP6 PUSH20 0xFFFFFFFFFFFFFFFFFFFFFFFFFFFFFFFFFFFFFFFF AND PUSH20 0xFFFFFFFFFFFFFFFFFFFFFFFFFFFFFFFFFFFFFFFF AND DUP2 MSTORE PUSH1 0x20 ADD SWAP1 DUP2 MSTORE PUSH1 0x20 ADD PUSH1 0x0 KECCAK256 PUSH1 0x0 DUP3 DUP3 SLOAD PUSH2 0xAED SWAP2 SWAP1 PUSH2 0x1223 JUMP JUMPDEST SWAP3 POP POP DUP2 SWAP1 SSTORE POP DUP3 PUSH20 0xFFFFFFFFFFFFFFFFFFFFFFFFFFFFFFFFFFFFFFFF AND DUP5 PUSH20 0xFFFFFFFFFFFFFFFFFFFFFFFFFFFFFFFFFFFFFFFF AND PUSH32 0xDDF252AD1BE2C89B69C2B068FC378DAA952BA7F163C4A11628F55A4DF523B3EF DUP5 PUSH1 0x40 MLOAD PUSH2 0xB51 SWAP2 SWAP1 PUSH2 0x1082 JUMP JUMPDEST PUSH1 0x40 MLOAD DUP1 SWAP2 SUB SWAP1 LOG3 PUSH2 0xB64 DUP5 DUP5 DUP5 PUSH2 0xEA4 JUMP JUMPDEST POP POP POP POP JUMP JUMPDEST PUSH1 0x0 PUSH20 0xFFFFFFFFFFFFFFFFFFFFFFFFFFFFFFFFFFFFFFFF AND DUP3 PUSH20 0xFFFFFFFFFFFFFFFFFFFFFFFFFFFFFFFFFFFFFFFF AND SUB PUSH2 0xBD9 JUMPI PUSH1 0x40 MLOAD PUSH32 0x8C379A000000000000000000000000000000000000000000000000000000000 DUP2 MSTORE PUSH1 0x4 ADD PUSH2 0xBD0 SWAP1 PUSH2 0x1709 JUMP JUMPDEST PUSH1 0x40 MLOAD DUP1 SWAP2 SUB SWAP1 REVERT JUMPDEST PUSH2 0xBE5 PUSH1 0x0 DUP4 DUP4 PUSH2 0xE9F JUMP JUMPDEST DUP1 PUSH1 0x2 PUSH1 0x0 DUP3 DUP3 SLOAD PUSH2 0xBF7 SWAP2 SWAP1 PUSH2 0x1223 JUMP JUMPDEST SWAP3 POP POP DUP2 SWAP1 SSTORE POP DUP1 PUSH1 0x0 DUP1 DUP5 PUSH20 0xFFFFFFFFFFFFFFFFFFFFFFFFFFFFFFFFFFFFFFFF AND PUSH20 0xFFFFFFFFFFFFFFFFFFFFFFFFFFFFFFFFFFFFFFFF AND DUP2 MSTORE PUSH1 0x20 ADD SWAP1 DUP2 MSTORE PUSH1 0x20 ADD PUSH1 0x0 KECCAK256 PUSH1 0x0 DUP3 DUP3 SLOAD PUSH2 0xC4C SWAP2 SWAP1 PUSH2 0x1223 JUMP JUMPDEST SWAP3 POP POP DUP2 SWAP1 SSTORE POP DUP2 PUSH20 0xFFFFFFFFFFFFFFFFFFFFFFFFFFFFFFFFFFFFFFFF AND PUSH1 0x0 PUSH20 0xFFFFFFFFFFFFFFFFFFFFFFFFFFFFFFFFFFFFFFFF AND PUSH32 0xDDF252AD1BE2C89B69C2B068FC378DAA952BA7F163C4A11628F55A4DF523B3EF DUP4 PUSH1 0x40 MLOAD PUSH2 0xCB1 SWAP2 SWAP1 PUSH2 0x1082 JUMP JUMPDEST PUSH1 0x40 MLOAD DUP1 SWAP2 SUB SWAP1 LOG3 PUSH2 0xCC5 PUSH1 0x0 DUP4 DUP4 PUSH2 0xEA4 JUMP JUMPDEST POP POP JUMP JUMPDEST PUSH1 0x0 PUSH20 0xFFFFFFFFFFFFFFFFFFFFFFFFFFFFFFFFFFFFFFFF AND DUP3 PUSH20 0xFFFFFFFFFFFFFFFFFFFFFFFFFFFFFFFFFFFFFFFF AND SUB PUSH2 0xD38 JUMPI PUSH1 0x40 MLOAD PUSH32 0x8C379A000000000000000000000000000000000000000000000000000000000 DUP2 MSTORE PUSH1 0x4 ADD PUSH2 0xD2F SWAP1 PUSH2 0x179B JUMP JUMPDEST PUSH1 0x40 MLOAD DUP1 SWAP2 SUB SWAP1 REVERT JUMPDEST PUSH2 0xD44 DUP3 PUSH1 0x0 DUP4 PUSH2 0xE9F JUMP JUMPDEST PUSH1 0x0 DUP1 PUSH1 0x0 DUP5 PUSH20 0xFFFFFFFFFFFFFFFFFFFFFFFFFFFFFFFFFFFFFFFF AND PUSH20 0xFFFFFFFFFFFFFFFFFFFFFFFFFFFFFFFFFFFFFFFF AND DUP2 MSTORE PUSH1 0x20 ADD SWAP1 DUP2 MSTORE PUSH1 0x20 ADD PUSH1 0x0 KECCAK256 SLOAD SWAP1 POP DUP2 DUP2 LT ISZERO PUSH2 0xDCA JUMPI PUSH1 0x40 MLOAD PUSH32 0x8C379A000000000000000000000000000000000000000000000000000000000 DUP2 MSTORE PUSH1 0x4 ADD PUSH2 0xDC1 SWAP1 PUSH2 0x182D JUMP JUMPDEST PUSH1 0x40 MLOAD DUP1 SWAP2 SUB SWAP1 REVERT JUMPDEST DUP2 DUP2 SUB PUSH1 0x0 DUP1 DUP6 PUSH20 0xFFFFFFFFFFFFFFFFFFFFFFFFFFFFFFFFFFFFFFFF AND PUSH20 0xFFFFFFFFFFFFFFFFFFFFFFFFFFFFFFFFFFFFFFFF AND DUP2 MSTORE PUSH1 0x20 ADD SWAP1 DUP2 MSTORE PUSH1 0x20 ADD PUSH1 0x0 KECCAK256 DUP2 SWAP1 SSTORE POP DUP2 PUSH1 0x2 PUSH1 0x0 DUP3 DUP3 SLOAD PUSH2 0xE21 SWAP2 SWAP1 PUSH2 0x184D JUMP JUMPDEST SWAP3 POP POP DUP2 SWAP1 SSTORE POP PUSH1 0x0 PUSH20 0xFFFFFFFFFFFFFFFFFFFFFFFFFFFFFFFFFFFFFFFF AND DUP4 PUSH20 0xFFFFFFFFFFFFFFFFFFFFFFFFFFFFFFFFFFFFFFFF AND PUSH32 0xDDF252AD1BE2C89B69C2B068FC378DAA952BA7F163C4A11628F55A4DF523B3EF DUP5 PUSH1 0x40 MLOAD PUSH2 0xE86 SWAP2 SWAP1 PUSH2 0x1082 JUMP JUMPDEST PUSH1 0x40 MLOAD DUP1 SWAP2 SUB SWAP1 LOG3 PUSH2 0xE9A DUP4 PUSH1 0x0 DUP5 PUSH2 0xEA4 JUMP JUMPDEST POP POP POP JUMP JUMPDEST POP POP POP JUMP JUMPDEST POP POP POP JUMP JUMPDEST PUSH1 0x0 DUP2 MLOAD SWAP1 POP SWAP2 SWAP1 POP JUMP JUMPDEST PUSH1 0x0 DUP3 DUP3 MSTORE PUSH1 0x20 DUP3 ADD SWAP1 POP SWAP3 SWAP2 POP POP JUMP JUMPDEST PUSH1 0x0 JUMPDEST DUP4 DUP2 LT ISZERO PUSH2 0xEE3 JUMPI DUP1 DUP3 ADD MLOAD DUP2 DUP5 ADD MSTORE PUSH1 0x20 DUP2 ADD SWAP1 POP PUSH2 0xEC8 JUMP JUMPDEST DUP4 DUP2 GT ISZERO PUSH2 0xEF2 JUMPI PUSH1 0x0 DUP5 DUP5 ADD MSTORE JUMPDEST POP POP POP POP JUMP JUMPDEST PUSH1 0x0 PUSH1 0x1F NOT PUSH1 0x1F DUP4 ADD AND SWAP1 POP SWAP2 SWAP1 POP JUMP JUMPDEST PUSH1 0x0 PUSH2 0xF14 DUP3 PUSH2 0xEA9 JUMP JUMPDEST PUSH2 0xF1E DUP2 DUP6 PUSH2 0xEB4 JUMP JUMPDEST SWAP4 POP PUSH2 0xF2E DUP2 DUP6 PUSH1 0x20 DUP7 ADD PUSH2 0xEC5 JUMP JUMPDEST PUSH2 0xF37 DUP2 PUSH2 0xEF8 JUMP JUMPDEST DUP5 ADD SWAP2 POP POP SWAP3 SWAP2 POP POP JUMP JUMPDEST PUSH1 0x0 PUSH1 0x20 DUP3 ADD SWAP1 POP DUP2 DUP2 SUB PUSH1 0x0 DUP4 ADD MSTORE PUSH2 0xF5C DUP2 DUP5 PUSH2 0xF09 JUMP JUMPDEST SWAP1 POP SWAP3 SWAP2 POP POP JUMP JUMPDEST PUSH1 0x0 DUP1 REVERT JUMPDEST PUSH1 0x0 PUSH20 0xFFFFFFFFFFFFFFFFFFFFFFFFFFFFFFFFFFFFFFFF DUP3 AND SWAP1 POP SWAP2 SWAP1 POP JUMP JUMPDEST PUSH1 0x0 PUSH2 0xF94 DUP3 PUSH2 0xF69 JUMP JUMPDEST SWAP1 POP SWAP2 SWAP1 POP JUMP JUMPDEST PUSH2 0xFA4 DUP2 PUSH2 0xF89 JUMP JUMPDEST DUP2 EQ PUSH2 0xFAF JUMPI PUSH1 0x0 DUP1 REVERT JUMPDEST POP JUMP JUMPDEST PUSH1 0x0 DUP2 CALLDATALOAD SWAP1 POP PUSH2 0xFC1 DUP2 PUSH2 0xF9B JUMP JUMPDEST SWAP3 SWAP2 POP POP JUMP JUMPDEST PUSH1 0x0 DUP2 SWAP1 POP SWAP2 SWAP1 POP JUMP JUMPDEST PUSH2 0xFDA DUP2 PUSH2 0xFC7 JUMP JUMPDEST DUP2 EQ PUSH2 0xFE5 JUMPI PUSH1 0x0 DUP1 REVERT JUMPDEST POP JUMP JUMPDEST PUSH1 0x0 DUP2 CALLDATALOAD SWAP1 POP PUSH2 0xFF7 DUP2 PUSH2 0xFD1 JUMP JUMPDEST SWAP3 SWAP2 POP POP JUMP JUMPDEST PUSH1 0x0 DUP1 PUSH1 0x40 DUP4 DUP6 SUB SLT ISZERO PUSH2 0x1014 JUMPI PUSH2 0x1013 PUSH2 0xF64 JUMP JUMPDEST JUMPDEST PUSH1 0x0 PUSH2 0x1022 DUP6 DUP3 DUP7 ADD PUSH2 0xFB2 JUMP JUMPDEST SWAP3 POP POP PUSH1 0x20 PUSH2 0x1033 DUP6 DUP3 DUP7 ADD PUSH2 0xFE8 JUMP JUMPDEST SWAP2 POP POP SWAP3 POP SWAP3 SWAP1 POP JUMP JUMPDEST PUSH1 0x0 DUP2 ISZERO ISZERO SWAP1 POP SWAP2 SWAP1 POP JUMP JUMPDEST PUSH2 0x1052 DUP2 PUSH2 0x103D JUMP JUMPDEST DUP3 MSTORE POP POP JUMP JUMPDEST PUSH1 0x0 PUSH1 0x20 DUP3 ADD SWAP1 POP PUSH2 0x106D PUSH1 0x0 DUP4 ADD DUP5 PUSH2 0x1049 JUMP JUMPDEST SWAP3 SWAP2 POP POP JUMP JUMPDEST PUSH2 0x107C DUP2 PUSH2 0xFC7 JUMP JUMPDEST DUP3 MSTORE POP POP JUMP JUMPDEST PUSH1 0x0 PUSH1 0x20 DUP3 ADD SWAP1 POP PUSH2 0x1097 PUSH1 0x0 DUP4 ADD DUP5 PUSH2 0x1073 JUMP JUMPDEST SWAP3 SWAP2 POP POP JUMP JUMPDEST PUSH1 0x0 DUP1 PUSH1 0x0 PUSH1 0x60 DUP5 DUP7 SUB SLT ISZERO PUSH2 0x10B6 JUMPI PUSH2 0x10B5 PUSH2 0xF64 JUMP JUMPDEST JUMPDEST PUSH1 0x0 PUSH2 0x10C4 DUP7 DUP3 DUP8 ADD PUSH2 0xFB2 JUMP JUMPDEST SWAP4 POP POP PUSH1 0x20 PUSH2 0x10D5 DUP7 DUP3 DUP8 ADD PUSH2 0xFB2 JUMP JUMPDEST SWAP3 POP POP PUSH1 0x40 PUSH2 0x10E6 DUP7 DUP3 DUP8 ADD PUSH2 0xFE8 JUMP JUMPDEST SWAP2 POP POP SWAP3 POP SWAP3 POP SWAP3 JUMP JUMPDEST PUSH1 0x0 PUSH1 0xFF DUP3 AND SWAP1 POP SWAP2 SWAP1 POP JUMP JUMPDEST PUSH2 0x1106 DUP2 PUSH2 0x10F0 JUMP JUMPDEST DUP3 MSTORE POP POP JUMP JUMPDEST PUSH1 0x0 PUSH1 0x20 DUP3 ADD SWAP1 POP PUSH2 0x1121 PUSH1 0x0 DUP4 ADD DUP5 PUSH2 0x10FD JUMP JUMPDEST SWAP3 SWAP2 POP POP JUMP JUMPDEST PUSH1 0x0 PUSH1 0x20 DUP3 DUP5 SUB SLT ISZERO PUSH2 0x113D JUMPI PUSH2 0x113C PUSH2 0xF64 JUMP JUMPDEST JUMPDEST PUSH1 0x0 PUSH2 0x114B DUP5 DUP3 DUP6 ADD PUSH2 0xFB2 JUMP JUMPDEST SWAP2 POP POP SWAP3 SWAP2 POP POP JUMP JUMPDEST PUSH1 0x0 DUP1 PUSH1 0x40 DUP4 DUP6 SUB SLT ISZERO PUSH2 0x116B JUMPI PUSH2 0x116A PUSH2 0xF64 JUMP JUMPDEST JUMPDEST PUSH1 0x0 PUSH2 0x1179 DUP6 DUP3 DUP7 ADD PUSH2 0xFB2 JUMP JUMPDEST SWAP3 POP POP PUSH1 0x20 PUSH2 0x118A DUP6 DUP3 DUP7 ADD PUSH2 0xFB2 JUMP JUMPDEST SWAP2 POP POP SWAP3 POP SWAP3 SWAP1 POP JUMP JUMPDEST PUSH32 0x4E487B7100000000000000000000000000000000000000000000000000000000 PUSH1 0x0 MSTORE PUSH1 0x22 PUSH1 0x4 MSTORE PUSH1 0x24 PUSH1 0x0 REVERT JUMPDEST PUSH1 0x0 PUSH1 0x2 DUP3 DIV SWAP1 POP PUSH1 0x1 DUP3 AND DUP1 PUSH2 0x11DB JUMPI PUSH1 0x7F DUP3 AND SWAP2 POP JUMPDEST PUSH1 0x20 DUP3 LT DUP2 SUB PUSH2 0x11EE JUMPI PUSH2 0x11ED PUSH2 0x1194 JUMP JUMPDEST JUMPDEST POP SWAP2 SWAP1 POP JUMP JUMPDEST PUSH32 0x4E487B7100000000000000000000000000000000000000000000000000000000 PUSH1 0x0 MSTORE PUSH1 0x11 PUSH1 0x4 MSTORE PUSH1 0x24 PUSH1 0x0 REVERT JUMPDEST PUSH1 0x0 PUSH2 0x122E DUP3 PUSH2 0xFC7 JUMP JUMPDEST SWAP2 POP PUSH2 0x1239 DUP4 PUSH2 0xFC7 JUMP JUMPDEST SWAP3 POP DUP3 PUSH32 0xFFFFFFFFFFFFFFFFFFFFFFFFFFFFFFFFFFFFFFFFFFFFFFFFFFFFFFFFFFFFFFFF SUB DUP3 GT ISZERO PUSH2 0x126E JUMPI PUSH2 0x126D PUSH2 0x11F4 JUMP JUMPDEST JUMPDEST DUP3 DUP3 ADD SWAP1 POP SWAP3 SWAP2 POP POP JUMP JUMPDEST PUSH32 0x4552433230433A20636170206578636565646564000000000000000000000000 PUSH1 0x0 DUP3 ADD MSTORE POP JUMP JUMPDEST PUSH1 0x0 PUSH2 0x12AF PUSH1 0x14 DUP4 PUSH2 0xEB4 JUMP JUMPDEST SWAP2 POP PUSH2 0x12BA DUP3 PUSH2 0x1279 JUMP JUMPDEST PUSH1 0x20 DUP3 ADD SWAP1 POP SWAP2 SWAP1 POP JUMP JUMPDEST PUSH1 0x0 PUSH1 0x20 DUP3 ADD SWAP1 POP DUP2 DUP2 SUB PUSH1 0x0 DUP4 ADD MSTORE PUSH2 0x12DE DUP2 PUSH2 0x12A2 JUMP JUMPDEST SWAP1 POP SWAP2 SWAP1 POP JUMP JUMPDEST PUSH32 0x45524332303A2064656372656173656420616C6C6F77616E63652062656C6F77 PUSH1 0x0 DUP3 ADD MSTORE PUSH32 0x207A65726F000000000000000000000000000000000000000000000000000000 PUSH1 0x20 DUP3 ADD MSTORE POP JUMP JUMPDEST PUSH1 0x0 PUSH2 0x1341 PUSH1 0x25 DUP4 PUSH2 0xEB4 JUMP JUMPDEST SWAP2 POP PUSH2 0x134C DUP3 PUSH2 0x12E5 JUMP JUMPDEST PUSH1 0x40 DUP3 ADD SWAP1 POP SWAP2 SWAP1 POP JUMP JUMPDEST PUSH1 0x0 PUSH1 0x20 DUP3 ADD SWAP1 POP DUP2 DUP2 SUB PUSH1 0x0 DUP4 ADD MSTORE PUSH2 0x1370 DUP2 PUSH2 0x1334 JUMP JUMPDEST SWAP1 POP SWAP2 SWAP1 POP JUMP JUMPDEST PUSH32 0x45524332303A20617070726F76652066726F6D20746865207A65726F20616464 PUSH1 0x0 DUP3 ADD MSTORE PUSH32 0x7265737300000000000000000000000000000000000000000000000000000000 PUSH1 0x20 DUP3 ADD MSTORE POP JUMP JUMPDEST PUSH1 0x0 PUSH2 0x13D3 PUSH1 0x24 DUP4 PUSH2 0xEB4 JUMP JUMPDEST SWAP2 POP PUSH2 0x13DE DUP3 PUSH2 0x1377 JUMP JUMPDEST PUSH1 0x40 DUP3 ADD SWAP1 POP SWAP2 SWAP1 POP JUMP JUMPDEST PUSH1 0x0 PUSH1 0x20 DUP3 ADD SWAP1 POP DUP2 DUP2 SUB PUSH1 0x0 DUP4 ADD MSTORE PUSH2 0x1402 DUP2 PUSH2 0x13C6 JUMP JUMPDEST SWAP1 POP SWAP2 SWAP1 POP JUMP JUMPDEST PUSH32 0x45524332303A20617070726F766520746F20746865207A65726F206164647265 PUSH1 0x0 DUP3 ADD MSTORE PUSH32 0x7373000000000000000000000000000000000000000000000000000000000000 PUSH1 0x20 DUP3 ADD MSTORE POP JUMP JUMPDEST PUSH1 0x0 PUSH2 0x1465 PUSH1 0x22 DUP4 PUSH2 0xEB4 JUMP JUMPDEST SWAP2 POP PUSH2 0x1470 DUP3 PUSH2 0x1409 JUMP JUMPDEST PUSH1 0x40 DUP3 ADD SWAP1 POP SWAP2 SWAP1 POP JUMP JUMPDEST PUSH1 0x0 PUSH1 0x20 DUP3 ADD SWAP1 POP DUP2 DUP2 SUB PUSH1 0x0 DUP4 ADD MSTORE PUSH2 0x1494 DUP2 PUSH2 0x1458 JUMP JUMPDEST SWAP1 POP SWAP2 SWAP1 POP JUMP JUMPDEST PUSH32 0x45524332303A20696E73756666696369656E7420616C6C6F77616E6365000000 PUSH1 0x0 DUP3 ADD MSTORE POP JUMP JUMPDEST PUSH1 0x0 PUSH2 0x14D1 PUSH1 0x1D DUP4 PUSH2 0xEB4 JUMP JUMPDEST SWAP2 POP PUSH2 0x14DC DUP3 PUSH2 0x149B JUMP JUMPDEST PUSH1 0x20 DUP3 ADD SWAP1 POP SWAP2 SWAP1 POP JUMP JUMPDEST PUSH1 0x0 PUSH1 0x20 DUP3 ADD SWAP1 POP DUP2 DUP2 SUB PUSH1 0x0 DUP4 ADD MSTORE PUSH2 0x1500 DUP2 PUSH2 0x14C4 JUMP JUMPDEST SWAP1 POP SWAP2 SWAP1 POP JUMP JUMPDEST PUSH32 0x45524332303A207472616E736665722066726F6D20746865207A65726F206164 PUSH1 0x0 DUP3 ADD MSTORE PUSH32 0x6472657373000000000000000000000000000000000000000000000000000000 PUSH1 0x20 DUP3 ADD MSTORE POP JUMP JUMPDEST PUSH1 0x0 PUSH2 0x1563 PUSH1 0x25 DUP4 PUSH2 0xEB4 JUMP JUMPDEST SWAP2 POP PUSH2 0x156E DUP3 PUSH2 0x1507 JUMP JUMPDEST PUSH1 0x40 DUP3 ADD SWAP1 POP SWAP2 SWAP1 POP JUMP JUMPDEST PUSH1 0x0 PUSH1 0x20 DUP3 ADD SWAP1 POP DUP2 DUP2 SUB PUSH1 0x0 DUP4 ADD MSTORE PUSH2 0x1592 DUP2 PUSH2 0x1556 JUMP JUMPDEST SWAP1 POP SWAP2 SWAP1 POP JUMP JUMPDEST PUSH32 0x45524332303A207472616E7366657220746F20746865207A65726F2061646472 PUSH1 0x0 DUP3 ADD MSTORE PUSH32 0x6573730000000000000000000000000000000000000000000000000000000000 PUSH1 0x20 DUP3 ADD MSTORE POP JUMP JUMPDEST PUSH1 0x0 PUSH2 0x15F5 PUSH1 0x23 DUP4 PUSH2 0xEB4 JUMP JUMPDEST SWAP2 POP PUSH2 0x1600 DUP3 PUSH2 0x1599 JUMP JUMPDEST PUSH1 0x40 DUP3 ADD SWAP1 POP SWAP2 SWAP1 POP JUMP JUMPDEST PUSH1 0x0 PUSH1 0x20 DUP3 ADD SWAP1 POP DUP2 DUP2 SUB PUSH1 0x0 DUP4 ADD MSTORE PUSH2 0x1624 DUP2 PUSH2 0x15E8 JUMP JUMPDEST SWAP1 POP SWAP2 SWAP1 POP JUMP JUMPDEST PUSH32 0x45524332303A207472616E7366657220616D6F756E7420657863656564732062 PUSH1 0x0 DUP3 ADD MSTORE PUSH32 0x616C616E63650000000000000000000000000000000000000000000000000000 PUSH1 0x20 DUP3 ADD MSTORE POP JUMP JUMPDEST PUSH1 0x0 PUSH2 0x1687 PUSH1 0x26 DUP4 PUSH2 0xEB4 JUMP JUMPDEST SWAP2 POP PUSH2 0x1692 DUP3 PUSH2 0x162B JUMP JUMPDEST PUSH1 0x40 DUP3 ADD SWAP1 POP SWAP2 SWAP1 POP JUMP JUMPDEST PUSH1 0x0 PUSH1 0x20 DUP3 ADD SWAP1 POP DUP2 DUP2 SUB PUSH1 0x0 DUP4 ADD MSTORE PUSH2 0x16B6 DUP2 PUSH2 0x167A JUMP JUMPDEST SWAP1 POP SWAP2 SWAP1 POP JUMP JUMPDEST PUSH32 0x45524332303A206D696E7420746F20746865207A65726F206164647265737300 PUSH1 0x0 DUP3 ADD MSTORE POP JUMP JUMPDEST PUSH1 0x0 PUSH2 0x16F3 PUSH1 0x1F DUP4 PUSH2 0xEB4 JUMP JUMPDEST SWAP2 POP PUSH2 0x16FE DUP3 PUSH2 0x16BD JUMP JUMPDEST PUSH1 0x20 DUP3 ADD SWAP1 POP SWAP2 SWAP1 POP JUMP JUMPDEST PUSH1 0x0 PUSH1 0x20 DUP3 ADD SWAP1 POP DUP2 DUP2 SUB PUSH1 0x0 DUP4 ADD MSTORE PUSH2 0x1722 DUP2 PUSH2 0x16E6 JUMP JUMPDEST SWAP1 POP SWAP2 SWAP1 POP JUMP JUMPDEST PUSH32 0x45524332303A206275726E2066726F6D20746865207A65726F20616464726573 PUSH1 0x0 DUP3 ADD MSTORE PUSH32 0x7300000000000000000000000000000000000000000000000000000000000000 PUSH1 0x20 DUP3 ADD MSTORE POP JUMP JUMPDEST PUSH1 0x0 PUSH2 0x1785 PUSH1 0x21 DUP4 PUSH2 0xEB4 JUMP JUMPDEST SWAP2 POP PUSH2 0x1790 DUP3 PUSH2 0x1729 JUMP JUMPDEST PUSH1 0x40 DUP3 ADD SWAP1 POP SWAP2 SWAP1 POP JUMP JUMPDEST PUSH1 0x0 PUSH1 0x20 DUP3 ADD SWAP1 POP DUP2 DUP2 SUB PUSH1 0x0 DUP4 ADD MSTORE PUSH2 0x17B4 DUP2 PUSH2 0x1778 JUMP JUMPDEST SWAP1 POP SWAP2 SWAP1 POP JUMP JUMPDEST PUSH32 0x45524332303A206275726E20616D6F756E7420657863656564732062616C616E PUSH1 0x0 DUP3 ADD MSTORE PUSH32 0x6365000000000000000000000000000000000000000000000000000000000000 PUSH1 0x20 DUP3 ADD MSTORE POP JUMP JUMPDEST PUSH1 0x0 PUSH2 0x1817 PUSH1 0x22 DUP4 PUSH2 0xEB4 JUMP JUMPDEST SWAP2 POP PUSH2 0x1822 DUP3 PUSH2 0x17BB JUMP JUMPDEST PUSH1 0x40 DUP3 ADD SWAP1 POP SWAP2 SWAP1 POP JUMP JUMPDEST PUSH1 0x0 PUSH1 0x20 DUP3 ADD SWAP1 POP DUP2 DUP2 SUB PUSH1 0x0 DUP4 ADD MSTORE PUSH2 0x1846 DUP2 PUSH2 0x180A JUMP JUMPDEST SWAP1 POP SWAP2 SWAP1 POP JUMP JUMPDEST PUSH1 0x0 PUSH2 0x1858 DUP3 PUSH2 0xFC7 JUMP JUMPDEST SWAP2 POP PUSH2 0x1863 DUP4 PUSH2 0xFC7 JUMP JUMPDEST SWAP3 POP DUP3 DUP3 LT ISZERO PUSH2 0x1876 JUMPI PUSH2 0x1875 PUSH2 0x11F4 JUMP JUMPDEST JUMPDEST DUP3 DUP3 SUB SWAP1 POP SWAP3 SWAP2 POP POP JUMP INVALID LOG2 PUSH5 0x6970667358 0x22 SLT KECCAK256 DUP3 MSIZE 0xAE RETURNDATACOPY SWAP10 0x24 0xAA 0xA8 0xD6 0xDB CODESIZE 0xDD SWAP4 0xEC 0x26 PUSH8 0x5B3C6D0C8D39F14 0xAA 0xCF 0x49 0x5E CHAINID 0x5E 0xDD DUP15 PUSH5 0x736F6C6343 STOP ADDMOD 0xD STOP CALLER PUSH1 0x80 PUSH1 0x40 MSTORE CALLVALUE DUP1 ISZERO PUSH2 0x10 JUMPI PUSH1 0x0 DUP1 REVERT JUMPDEST POP PUSH2 0x1A2 DUP1 PUSH2 0x20 PUSH1 0x0 CODECOPY PUSH1 0x0 RETURN INVALID PUSH1 0x80 PUSH1 0x40 MSTORE PUSH1 0x4 CALLDATASIZE LT PUSH2 0x1E JUMPI PUSH1 0x0 CALLDATALOAD PUSH1 0xE0 SHR DUP1 PUSH4 0xD61B519 EQ PUSH2 0x23 JUMPI JUMPDEST PUSH1 0x0 DUP1 REVERT JUMPDEST PUSH2 0x3D PUSH1 0x4 DUP1 CALLDATASIZE SUB DUP2 ADD SWAP1 PUSH2 0x38 SWAP2 SWAP1 PUSH2 0xB8 JUMP JUMPDEST PUSH2 0x3F JUMP JUMPDEST STOP JUMPDEST PUSH32 0x32C8827C44BF4E71963135BE394D95E34EC7302DA6F5D8FCA5439557863A33F4 CALLER DUP3 CALLVALUE PUSH1 0x40 MLOAD PUSH2 0x72 SWAP4 SWAP3 SWAP2 SWAP1 PUSH2 0x135 JUMP JUMPDEST PUSH1 0x40 MLOAD DUP1 SWAP2 SUB SWAP1 LOG1 POP JUMP JUMPDEST PUSH1 0x0 DUP1 REVERT JUMPDEST PUSH1 0x0 DUP2 SWAP1 POP SWAP2 SWAP1 POP JUMP JUMPDEST PUSH2 0x95 DUP2 PUSH2 0x82 JUMP JUMPDEST DUP2 EQ PUSH2 0xA0 JUMPI PUSH1 0x0 DUP1 REVERT JUMPDEST POP JUMP JUMPDEST PUSH1 0x0 DUP2 CALLDATALOAD SWAP1 POP PUSH2 0xB2 DUP2 PUSH2 0x8C JUMP JUMPDEST SWAP3 SWAP2 POP POP JUMP JUMPDEST PUSH1 0x0 PUSH1 0x20 DUP3 DUP5 SUB SLT ISZERO PUSH2 0xCE JUMPI PUSH2 0xCD PUSH2 0x7D JUMP JUMPDEST JUMPDEST PUSH1 0x0 PUSH2 0xDC DUP5 DUP3 DUP6 ADD PUSH2 0xA3 JUMP JUMPDEST SWAP2 POP POP SWAP3 SWAP2 POP POP JUMP JUMPDEST PUSH1 0x0 PUSH20 0xFFFFFFFFFFFFFFFFFFFFFFFFFFFFFFFFFFFFFFFF DUP3 AND SWAP1 POP SWAP2 SWAP1 POP JUMP JUMPDEST PUSH1 0x0 PUSH2 0x110 DUP3 PUSH2 0xE5 JUMP JUMPDEST SWAP1 POP SWAP2 SWAP1 POP JUMP JUMPDEST PUSH2 0x120 DUP2 PUSH2 0x105 JUMP JUMPDEST DUP3 MSTORE POP POP JUMP JUMPDEST PUSH2 0x12F DUP2 PUSH2 0x82 JUMP JUMPDEST DUP3 MSTORE POP POP JUMP JUMPDEST PUSH1 0x0 PUSH1 0x60 DUP3 ADD SWAP1 POP PUSH2 0x14A PUSH1 0x0 DUP4 ADD DUP7 PUSH2 0x117 JUMP JUMPDEST PUSH2 0x157 PUSH1 0x20 DUP4 ADD DUP6 PUSH2 0x126 JUMP JUMPDEST PUSH2 0x164 PUSH1 0x40 DUP4 ADD DUP5 PUSH2 0x126 JUMP JUMPDEST SWAP5 SWAP4 POP POP POP POP JUMP INVALID LOG2 PUSH5 0x6970667358 0x22 SLT KECCAK256 DUP11 0xE1 DUP7 0x23 0xBC SWAP10 0xB0 BASEFEE TIMESTAMP TIMESTAMP 0xDD LOG1 0xAF 0xEA BALANCE 0xF 0xAC 0xCD SWAP12 LOG0 REVERT 0xE5 0xB1 SAR 0xE SWAP11 CALLDATACOPY DUP8 0x4B SWAP14 DUP9 0xA5 PUSH5 0x736F6C6343 STOP ADDMOD 0xD STOP CALLER LOG2 PUSH5 0x6970667358 0x22 SLT KECCAK256 0xA6 0x49 0xA9 PUSH8 0xCB994E82EB1571BD GT 0x23 0xC8 CALL INVALID 0x25 DUP2 POP 0xE5 0xDB DIFFICULTY 0x2F 0xEA BLOCKHASH MSTORE8 PUSH8 0x4D76A25664736F6C PUSH4 0x4300080D STOP CALLER "
		},
		"gasEstimates": {
			"creation": {
				"codeDepositCost": "8798200",
				"executionCost": "infinite",
				"totalCost": "infinite"
			},
			"external": {
				"beforeEach()": "infinite",
				"checkAddParticipant()": "infinite",
				"checkAddProposal()": "infinite",
				"checkBuyFractionalTokens()": "infinite",
				"checkBuyTokensUnregistered()": "infinite",
				"checkBuyTooLittleTokens()": "infinite",
				"checkCancelProposal()": "infinite",
				"checkCloseVoting()": "infinite",
				"checkGetProposalInfo()": "infinite",
				"checkGetProposals()": "infinite",
				"checkOpenVoting()": "infinite",
				"completeTest()": "infinite"
			}
		},
		"methodIdentifiers": {
			"beforeEach()": "6331e7d4",
			"checkAddParticipant()": "15242369",
			"checkAddProposal()": "71a86634",
			"checkBuyFractionalTokens()": "61469ed9",
			"checkBuyTokensUnregistered()": "3d516af7",
			"checkBuyTooLittleTokens()": "74ccf335",
			"checkCancelProposal()": "c78780fe",
			"checkCloseVoting()": "d1c1a5fd",
			"checkGetProposalInfo()": "1de7844f",
			"checkGetProposals()": "fec77b8f",
			"checkOpenVoting()": "e0a0d22e",
			"completeTest()": "742bac29"
		}
	},
	"abi": [
		{
			"inputs": [],
			"name": "beforeEach",
			"outputs": [],
			"stateMutability": "nonpayable",
			"type": "function"
		},
		{
			"inputs": [],
			"name": "checkAddParticipant",
			"outputs": [],
			"stateMutability": "nonpayable",
			"type": "function"
		},
		{
			"inputs": [],
			"name": "checkAddProposal",
			"outputs": [],
			"stateMutability": "payable",
			"type": "function"
		},
		{
			"inputs": [],
			"name": "checkBuyFractionalTokens",
			"outputs": [],
			"stateMutability": "payable",
			"type": "function"
		},
		{
			"inputs": [],
			"name": "checkBuyTokensUnregistered",
			"outputs": [],
			"stateMutability": "payable",
			"type": "function"
		},
		{
			"inputs": [],
			"name": "checkBuyTooLittleTokens",
			"outputs": [],
			"stateMutability": "payable",
			"type": "function"
		},
		{
			"inputs": [],
			"name": "checkCancelProposal",
			"outputs": [],
			"stateMutability": "nonpayable",
			"type": "function"
		},
		{
			"inputs": [],
			"name": "checkCloseVoting",
			"outputs": [],
			"stateMutability": "payable",
			"type": "function"
		},
		{
			"inputs": [],
			"name": "checkGetProposalInfo",
			"outputs": [],
			"stateMutability": "payable",
			"type": "function"
		},
		{
			"inputs": [],
			"name": "checkGetProposals",
			"outputs": [],
			"stateMutability": "payable",
			"type": "function"
		},
		{
			"inputs": [],
			"name": "checkOpenVoting",
			"outputs": [],
			"stateMutability": "nonpayable",
			"type": "function"
		},
		{
			"inputs": [],
			"name": "completeTest",
			"outputs": [],
			"stateMutability": "payable",
			"type": "function"
		}
	]
}