{
	"data": {
		"bytecode": {
			"linkReferences": {},
			"object": "608060405234801561001057600080fd5b506101a2806100206000396000f3fe60806040526004361061001e5760003560e01c80630d61b51914610023575b600080fd5b61003d600480360381019061003891906100b8565b61003f565b005b7f32c8827c44bf4e71963135be394d95e34ec7302da6f5d8fca5439557863a33f433823460405161007293929190610135565b60405180910390a150565b600080fd5b6000819050919050565b61009581610082565b81146100a057600080fd5b50565b6000813590506100b28161008c565b92915050565b6000602082840312156100ce576100cd61007d565b5b60006100dc848285016100a3565b91505092915050565b600073ffffffffffffffffffffffffffffffffffffffff82169050919050565b6000610110826100e5565b9050919050565b61012081610105565b82525050565b61012f81610082565b82525050565b600060608201905061014a6000830186610117565b6101576020830185610126565b6101646040830184610126565b94935050505056fea2646970667358221220bd8a00e1ba3c7761c3af1325346634238edfe24bfc5add2a00fe99367f372aa964736f6c634300080d0033",
			"opcodes": "PUSH1 0x80 PUSH1 0x40 MSTORE CALLVALUE DUP1 ISZERO PUSH2 0x10 JUMPI PUSH1 0x0 DUP1 REVERT JUMPDEST POP PUSH2 0x1A2 DUP1 PUSH2 0x20 PUSH1 0x0 CODECOPY PUSH1 0x0 RETURN INVALID PUSH1 0x80 PUSH1 0x40 MSTORE PUSH1 0x4 CALLDATASIZE LT PUSH2 0x1E JUMPI PUSH1 0x0 CALLDATALOAD PUSH1 0xE0 SHR DUP1 PUSH4 0xD61B519 EQ PUSH2 0x23 JUMPI JUMPDEST PUSH1 0x0 DUP1 REVERT JUMPDEST PUSH2 0x3D PUSH1 0x4 DUP1 CALLDATASIZE SUB DUP2 ADD SWAP1 PUSH2 0x38 SWAP2 SWAP1 PUSH2 0xB8 JUMP JUMPDEST PUSH2 0x3F JUMP JUMPDEST STOP JUMPDEST PUSH32 0x32C8827C44BF4E71963135BE394D95E34EC7302DA6F5D8FCA5439557863A33F4 CALLER DUP3 CALLVALUE PUSH1 0x40 MLOAD PUSH2 0x72 SWAP4 SWAP3 SWAP2 SWAP1 PUSH2 0x135 JUMP JUMPDEST PUSH1 0x40 MLOAD DUP1 SWAP2 SUB SWAP1 LOG1 POP JUMP JUMPDEST PUSH1 0x0 DUP1 REVERT JUMPDEST PUSH1 0x0 DUP2 SWAP1 POP SWAP2 SWAP1 POP JUMP JUMPDEST PUSH2 0x95 DUP2 PUSH2 0x82 JUMP JUMPDEST DUP2 EQ PUSH2 0xA0 JUMPI PUSH1 0x0 DUP1 REVERT JUMPDEST POP JUMP JUMPDEST PUSH1 0x0 DUP2 CALLDATALOAD SWAP1 POP PUSH2 0xB2 DUP2 PUSH2 0x8C JUMP JUMPDEST SWAP3 SWAP2 POP POP JUMP JUMPDEST PUSH1 0x0 PUSH1 0x20 DUP3 DUP5 SUB SLT ISZERO PUSH2 0xCE JUMPI PUSH2 0xCD PUSH2 0x7D JUMP JUMPDEST JUMPDEST PUSH1 0x0 PUSH2 0xDC DUP5 DUP3 DUP6 ADD PUSH2 0xA3 JUMP JUMPDEST SWAP2 POP POP SWAP3 SWAP2 POP POP JUMP JUMPDEST PUSH1 0x0 PUSH20 0xFFFFFFFFFFFFFFFFFFFFFFFFFFFFFFFFFFFFFFFF DUP3 AND SWAP1 POP SWAP2 SWAP1 POP JUMP JUMPDEST PUSH1 0x0 PUSH2 0x110 DUP3 PUSH2 0xE5 JUMP JUMPDEST SWAP1 POP SWAP2 SWAP1 POP JUMP JUMPDEST PUSH2 0x120 DUP2 PUSH2 0x105 JUMP JUMPDEST DUP3 MSTORE POP POP JUMP JUMPDEST PUSH2 0x12F DUP2 PUSH2 0x82 JUMP JUMPDEST DUP3 MSTORE POP POP JUMP JUMPDEST PUSH1 0x0 PUSH1 0x60 DUP3 ADD SWAP1 POP PUSH2 0x14A PUSH1 0x0 DUP4 ADD DUP7 PUSH2 0x117 JUMP JUMPDEST PUSH2 0x157 PUSH1 0x20 DUP4 ADD DUP6 PUSH2 0x126 JUMP JUMPDEST PUSH2 0x164 PUSH1 0x40 DUP4 ADD DUP5 PUSH2 0x126 JUMP JUMPDEST SWAP5 SWAP4 POP POP POP POP JUMP INVALID LOG2 PUSH5 0x6970667358 0x22 SLT KECCAK256 0xBD DUP11 STOP 0xE1 0xBA EXTCODECOPY PUSH24 0x61C3AF1325346634238EDFE24BFC5ADD2A00FE99367F372A 0xA9 PUSH5 0x736F6C6343 STOP ADDMOD 0xD STOP CALLER "
		},
		"gasEstimates": {
			"creation": {
				"codeDepositCost": "83600",
				"executionCost": "135",
				"totalCost": "83735"
			},
			"external": {
				"executeProposal(uint256)": "infinite"
			}
		},
		"methodIdentifiers": {
			"executeProposal(uint256)": "0d61b519"
		}
	},
	"abi": [
		{
			"anonymous": false,
			"inputs": [
				{
					"indexed": false,
					"internalType": "address",
					"name": "sender",
					"type": "address"
				},
				{
					"indexed": false,
					"internalType": "uint256",
					"name": "proposalId",
					"type": "uint256"
				},
				{
					"indexed": false,
					"internalType": "uint256",
					"name": "value",
					"type": "uint256"
				}
			],
			"name": "Pay",
			"type": "event"
		},
		{
			"inputs": [
				{
					"internalType": "uint256",
					"name": "proposalId",
					"type": "uint256"
				}
			],
			"name": "executeProposal",
			"outputs": [],
			"stateMutability": "payable",
			"type": "function"
		}
	]
}